:020000040800F2
:10000000000400205706000865060008670600087F
:10001000690600086B0600086D0600080000000075
:100020000000000000000000000000006F06000853
:10003000710600080000000073060008750600083D
:1000400097060008990600089B0600089D06000810
:10005000E5060008E7060008E9060008EB060008C8
:10006000ED060008EF060008F10600087706000814
:10007000770600087706000877060008770600086C
:10008000770600087706000877060008770600085C
:100090007706000877060008770600080B070008B7
:1000A0000D0700080F0700081107000813070008D4
:1000B0001507000817070008190700081B070008A4
:1000C0001D0700081F070008210700082307000874
:1000D0002507000827070008290700082B07000844
:1000E0002D0700082F0700083107000877060008D1
:1000F00077060008770600087706000877060008EC
:1001000077060008770600087706000877060008DB
:1001100077060008770600087706000877060008CB
:1001200077060008770600087706000877060008BB
:10013000DFF80CD001F0D0FC004800474104000873
:10014000200200202DE9F04104460025002600276A
:100150004FF46160B4FBF0F5B4FBF0F100FB11402B
:100160003C21B0FBF1F64FF46160B4FBF0F100FB11
:1001700011403C21B0FBF1F201FB12073B46324635
:100180002946D5A001F0BAFCBDE8F081D9A001F064
:10019000B5FC0BE0D8480068012807D100F0D8FE74
:1001A0000446FFF7CFFF0020D3490860F2E77CB593
:1001B000054600240020009001901BE000BF202194
:1001C000CE4801F0D4F80028F9D0CC4801F07CF8F2
:1001D0002146641C4DF82100601E5DF82000302887
:1001E00004D3601E5DF82000392803D9C4A001F0B3
:1001F00085FC641E022CE1D3019830380099303917
:1002000001EB810100EB4104AC4205D92946C7A0AE
:1002100001F074FCFF207CBDE0B2FCE770B5FF2666
:10022000FF24FF25CD4801F069FCCDA001F066FC5C
:1002300003E01720FFF7BBFF0646FF2EF9D031463B
:10024000CDA001F05BFCCEA001F058FC03E03B2008
:10025000FFF7ADFF0446FF2CF9D02146C6A001F000
:100260004DFCCDA001F04AFC03E03B20FFF79FFFCF
:100270000546FF2DF9D02946BFA001F03FFC4FF401
:1002800061607043C4EB041100EB8100284470BD31
:1002900010B500F09BFEFFF7C1FF044600F061FEC1
:1002A00000F094FE10BD10B501214FF0C05000F0D9
:1002B000CBFD012001F0A1FB01F09CF8012000F032
:1002C00027FD00BF412000F08FFC0028FAD04FF43A
:1002D000807000F036FD012000F039FD00F07DFE59
:1002E00000F074FE0121084600F00CFE00F06EFEE6
:1002F00047F6FF7000F042FE00F068FE10BD00B54A
:1003000087B00020ADF80400ADF806004FF400708F
:10031000ADF808000020ADF80A0001A9774800F008
:100320004DFF4FF4E13003900020ADF81000ADF820
:100330001200ADF81400ADF818000C20ADF816004E
:1003400003A96E4800F0E3FE01216C4800F04DFF68
:1003500007B000BD08B54020ADF8000003208DF8BF
:10036000020010208DF803006946914800F0CCFA95
:100370004FF40070ADF8000018208DF803006946B6
:100380008C4800F0C1FA4FF48060ADF80000042002
:100390008DF803006946874800F0B6FA08BD08B535
:1003A0004FF4C06000F0CCF903208DF8000001206C
:1003B0008DF8010000208DF8020001208DF8030067
:1003C000684600F0C2F908BD10B500F0CBFB4FF451
:1003D000803000F0E6FB00F023FC77490870084607
:1003E0000078012826D1002000F05BFC002000F0FE
:1003F0006AFC4FF4806000F05DFC022001F05AF8C6
:10040000102001F06BF84FF4E0114FF4803000F051
:100410002BFC012000F034FC00BF392000F0E4FB8D
:100420000028FAD0022000F02EFC00BF00F034FCBF
:100430000828FBD1012144F2140000F0F8FC10BDA3
:10044000FFF7C2FFFFF7ABFFFFF784FFFFF757FF90
:10045000042001F001F8A0F52541A5390FD057A0DF
:1004600001F04CFBFFF71FFF5CA001F047FBFFF71B
:100470000FFF4AF2A551042000F0E9FF19E07B20AC
:1004800000F0B2FB18B15BA001F038FB06E07A2067
:1004900000F0AAFB10B15FA001F030FB65A001F0F5
:1004A0002DFB00F09AFD0121084600F02BFD00F025
:1004B0008DFD00F0F9FCFFF769FE70B504460D46AE
:1004C000E1B20E4800F0FCFE00BF0C48008810F0BE
:1004D000800FFAD0204670BD54696D653A202530F2
:1004E0002E32643A25302E32643A25302E32640D95
:1004F000000000000A0D000000000020003801404C
:100500000A0D506C6561736520656E7465722076A6
:10051000616C6964206E756D6265722062657477C6
:1005200065656E203020616E642039000A0D506CC4
:100530006561736520656E7465722076616C6964AF
:10054000206E756D626572206265747765656E20D8
:100550003020616E6420256400000000901C0008BB
:100560000D0A2020506C6561736520536574204826
:100570006F757273000000003A20202564000000AF
:100580000D0A2020506C6561736520536574204D01
:10059000696E7574657300000D0A2020506C6561EA
:1005A000736520536574205365636F6E6473000038
:1005B0000010014000080140040000200D0A0A203C
:1005C000525443206E6F742079657420636F6E6699
:1005D0006967757265642E2E2E2E00000D0A20525A
:1005E000544320636F6E666967757265642E2E2EA4
:1005F0002E0000000D0A0A20506F776572204F6EA2
:10060000205265736574206F636375727265642E22
:100610002E2E2E000D0A0A2045787465726E616CCC
:10062000205265736574206F636375727265642E02
:100630002E2E2E000D0A204E6F206E6565642074EC
:100640006F20636F6E666967757265205254432E22
:100650002E2E2E00704708488047084981F30888ED
:1006600007480047FEE7FEE7FEE7FEE7FEE7FEE796
:10067000FEE7FEE7FEE7FEE7550600082002002041
:1006800031010008704770477047704770477047E6
:1006900070477047704770477047704710B501202A
:1006A00000F0C0FCE8B1012000F0CDFC4021214861
:1006B00000F0C8F9C0F10100C4B2224640211D4833
:1006C00000F0D1F901201C49086000F07FFC00F027
:1006D0003FFC1A49884204D1002000F042FC00F09F
:1006E00075FC10BD70477047704770477047704782
:1006F0007047704770477047704770477047704742
:100700007047704770477047704770477047704731
:100710007047704770477047704770477047704721
:100720007047704770477047704770477047704711
:1007300070470000001001400000002080510100BF
:1007400036490143364A1160704770B500210023D5
:100750000F22C4784CB3324C246804F4E064C4F52E
:10076000E0644FEA1421C1F1040322FA01F2447853
:1007700004FA03F1847804EA020444EA01014FEA2E
:100780000111284C0678A155047804F01F054FF09C
:10079000010404FA05F405784FEA65154FF0E026E8
:1007A00006EB8505C5F8004109E0047804F01F0553
:1007B0000124AC401C4D0678761145F8264070BDEA
:1007C0001A4A0A4002431A4B1A60704741B1194A4B
:1007D000126842EA00024FF0E023C3F8102D07E050
:1007E000144A126822EA00024FF0E023C3F8102DE9
:1007F0007047042808D14FF0E021096941F0040155
:100800004FF0E022116107E04FF0E021096921F08B
:1008100004014FF0E0221161704700000000FA056A
:100820000CED00E000E400E080E100E080FFFF1F4D
:1008300008ED00E010ED00E010B50446C549601A6F
:100840008C422FD009DCC448201810D0B0F5806F3E
:1008500016D0B0F5006F4AD11BE0B0F5806F2AD0FA
:10086000B0F5006F30D0B0F5406F40D135E00121D8
:10087000042000F0F6FA0021042000F0F2FA37E03C
:100880000121082000F0EDFA0021082000F0E9FA2B
:100890002EE00121102000F0E4FA0021102000F0E9
:1008A000E0FA25E00121202000F0DBFA00212020E1
:1008B00000F0D7FA1CE00121402000F0D2FA00211C
:1008C000402000F0CEFA13E00121802000F0C9FAA8
:1008D0000021802000F0C5FA0AE00121080200F0A2
:1008E000C0FA00214FF4807000F0BBFA00E000BFB6
:1008F00000BF10BD10B50121084600F0B2FA00217A
:10090000012000F0AEFA10BD2DE9F04102460025AD
:100910000026002000230024002791F803C00CF0DB
:100920000F0591F803C01CF0100F03D091F802C01E
:100930004CEA0505B1F800C01CF0FF0F31D0146877
:1009400000202BE04FF0010C0CFA00F3B1F800C0CE
:100950000CEA03069E4220D183004FF00F0C0CFAE4
:1009600003F7BC4305FA03FC4CEA040491F803C006
:10097000BCF1280F06D14FF0010C0CFA00FCC2F8B4
:1009800014C00AE091F803C0BCF1480F05D14FF044
:10099000010C0CFA00FCC2F810C0401C0828D1D38E
:1009A0001460B1F800C0BCF1FF0F34DD54680020C2
:1009B0002EE000F1080C4FF0010808FA0CF3B1F832
:1009C00000C00CEA03069E4221D183004FF00F0CB9
:1009D0000CFA03F7BC4305FA03FC4CEA040491F853
:1009E00003C0BCF1280F05D100F1080C08FA0CF87F
:1009F000C2F8148091F803C0BCF1480F07D100F190
:100A0000080C4FF0010808FA0CF8C2F81080401CDE
:100A10000828CED35460BDE8F0814FF6FF71018005
:100A2000022181700421C170704702460020936842
:100A30000B4201D0012000E0002070470146886889
:100A400080B2704702460020D3680B4201D00120DB
:100A500000E0002070470146C86880B2704701611D
:100A60007047416170470AB1016100E04161704720
:100A7000C16070474FF480320A43826181618261B4
:100A800082698269704702460020344B18684FF62D
:100A90008073184040EA02100843304B18607047DA
:100AA0002F49C8617047F0B50A4600230024002191
:100AB00000252A4E7168C0F3034583B200F4401646
:100AC000B6F5401F08D121F07061244E766826F0FB
:100AD0007066224F7E6012E000F48016B6F5801F2B
:100AE00006D1032606FA05F4A14341F0706106E041
:100AF000460D360103FA06F6B14341F0706122B1AA
:100B0000460D360103FA06F63143144E7160F0BD0E
:100B100030B500228B071C0F0F2303FA04F20F4B92
:100B200008338C1053F8243093430C4C08348D1048
:100B300044F8253023468C1053F824308C07240FBA
:100B400000FA04F42343054C08348D1044F8253092
:100B500030BD00000014014000F8FEBF000001405D
:100B600000002042DA48006840F00100D8490860DF
:100B700008464068D7490840D5494860084600689B
:100B8000D5490840D24908600846006820F4802012
:100B900008600846406820F4FE0048600020886035
:100BA0007047CB49096821F48031C94A1160114668
:100BB000096821F480211160B0F5803F03D0B0F5C1
:100BC000802F0ED106E0C249096841F48031C04A45
:100BD000116007E0BE49096841F4A021BC4A1160D8
:100BE00000E000BF00BF704710B50146002200239F
:100BF00000204A11012A02D1B54C236806E0022ADE
:100C000002D1B34C236A01E0B14C636A01F01F02C8
:100C1000012494401C4201D0012000E0002010BDBE
:100C200070B500240025002600BF3120FFF7DCFF4F
:100C30000646641C16B9B4F5A06FF6D13120FFF753
:100C4000D3FF08B1012500E00025284670BD01460C
:100C500000209F4A106820F0F80040EAC1001060B0
:100C600070479E490860704702460020984B5868BC
:100C700020F47C1042EA01031843954B58607047FA
:100C800096490866704701460020914A506820F056
:100C900003000843506070478D48406800F00C0026
:100CA0007047014600208A4A506820F0F00008434F
:100CB0005060704701460020854A506820F4E0608B
:100CC00008435060704701460020814A506820F474
:100CD000605040EAC1005060704729B17C4A527AA6
:100CE00002437B4B5A7206E0794A527AC343DBB225
:100CF0001A40774B5A72704779490860704701462D
:100D00000020734A506820F4404008435060704708
:100D10000021744A11706E4A82F82010012802D016
:100D2000042808D103E001216E4A117004E0052176
:100D30006C4A117000E000BF00BF70476A4908604C
:100D400070476349096A0143614A11627047674904
:100D50000860704730B500210022002400235C4D5C
:100D60006D6805F00C0121B1042905D0082923D1B3
:100D700005E05F4D056022E05D4D05601FE0544DCC
:100D80006D6805F47012022505EB9242504D6D68B6
:100D900005F480341CB9574D554305600BE04C4DAC
:100DA0006D6815F4003F03D0524D5543056002E0D5
:100DB0004F4D5543056002E04D4D056000BF00BF3B
:100DC000434D6D6805F0F00109094B4D6B5C0568FA
:100DD000DD4045603E4D6D6805F4E061090A464D11
:100DE0006B5C4568DD408560394D6D6805F4605188
:100DF000C90A414D6B5C4568DD40C560344D6D6886
:100E000005F44041890B3D4D6B5CC568B5FBF3F5BE
:100E1000056130BD29B12E4A526902432C4B5A61FB
:100E200004E02B4A52698243294B5A61704729B129
:100E3000274A92690243264B9A6104E0244A926948
:100E40008243234B9A61704729B1214AD2690243F8
:100E50001F4BDA6104E01E4AD26982431C4BDA61FF
:100E6000704729B11A4AD2680243194BDA6004E08C
:100E7000174AD2688243164BDA60704729B1144A88
:100E800012690243124B1A6104E0114A126982434B
:100E90000F4B1A6170471A49086070470F49C864C0
:100EA00070470B49C87170470948406A40F080702C
:100EB00007494862704701460020054A92680A4285
:100EC00001D0012000E0002070470149887270477E
:100ED000001002400000FFF8FFFFF6FE0000424253
:100EE000D800424220100240800442423C04424268
:100EF00000127A0000093D000500002015000020C6
:100F00004004424239B1554A128842EA0002544B29
:100F1000A3F8002809E0514A12886FEA00039BB247
:100F200002EA03024E4BA3F8002870474D480088A0
:100F300040F010004A49A1F8040870474948008869
:100F40004FF6EF7100EA01004549A1F80408704727
:100F50000021454801884248B0F8180841EA00409D
:100F6000704700B50246FFF7E1FF100C3F490880CB
:100F70003B49A1F81C28FFF7E1FF00BD00B5024680
:100F8000FFF7D4FFC2F30340394908803449A1F880
:100F90000C28FFF7D3FF00BD00B50246FFF7C6FFE0
:100FA000100C344908802E49A1F82428FFF7C6FF09
:100FB00000BD0020304909884FEA01714FEA113025
:100FC0002749B1F8141841EA0000704700BF2548CE
:100FD000008810F0200FFAD07047224800884FF6A2
:100FE000F77100EA01001E49A1F8040800BF1D487E
:100FF000008810F0080FFAD0704701460020194A07
:1010000012880A4201D0012000E0002070471549F3
:1010100009886FEA000292B201EA0201104AA2F8BE
:1010200004187047014600200E4A128802EA0102A5
:10103000D0B20B4AB2F800280A4202D008B101200F
:1010400000E000207047074909886FEA000292B269
:1010500001EA0201024AA2F8041870470028004081
:1010600000200040042800401C28004018280040B0
:1010700008280040202800401028004010B50446F1
:10108000D949601A8C422BD006DCD848201813D0DE
:10109000B0F5806F38D119E0B0F5806F2AD0B0F587
:1010A0006C4F31D101218803FFF7DBFE00214FF4A3
:1010B0008040FFF7D6FE28E001214804FFF7DEFE5E
:1010C00000214FF40030FFF7D9FE1EE00121880413
:1010D000FFF7D4FE00214FF48020FFF7CFFE14E08D
:1010E0000121C804FFF7CAFE00214FF40020FFF7DA
:1010F000C5FE0AE001210805FFF7C0FE00214FF4FC
:101100008010FFF7BBFE00E000BF00BF10BD2DE95F
:10111000F04786B005460E460024A24600BF00BF39
:1011200000272F462C8A4CF6FF700440F0880443B9
:101130002C82AC894EF6F3100440B0883189084304
:10114000718908430443AC81AC8A4FF6FF400440E8
:10115000B0890443AC8201A8FFF7FCFDA448874294
:1011600002D1DDF810A001E0DDF80CA00AEBCA0006
:1011700000EB0A1031688900B0FBF1F86420B8FB7D
:10118000F0F004012009642101FB1089322000EBFA
:101190000910B0FBF1F000F00F0004432C8106B001
:1011A000BDE8F0874FF41651016000218180C180B5
:1011B00001810C21418100218181704710B50246D7
:1011C0000020108A4FF2FF0318400B884C882343FD
:1011D0008C882343CC8823431843108210BD002100
:1011E000018041808180C180704721B1828942F4B1
:1011F0000052828104E082894DF6FF731A40828199
:101200007047F0B50346002400260025002018464C
:10121000C1F3421401F01F06012707FA06F5012C5D
:1012200001D10C3004E0022C01D1103000E0143068
:101230001AB107682F43076002E00768AF430760F1
:10124000F0BD10B51AB1838A0B43838204E0838A10
:10125000CC43A4B22340838210BD028A4FF6F073C0
:101260001A400282028A0A430282704782894FF240
:10127000FF731A40828182890A438281704721B1BB
:10128000828942F00202828104E082894FF6FD7376
:101290001A4082817047028A4FF6DF731A40028239
:1012A000028A0A430282704721B1028A42F48042D4
:1012B000028204E0028A4BF6FF731A4002827047F2
:1012C000C1F308028280704701468888C0F3080095
:1012D0007047818941F0010181817047028BD2B250
:1012E0000283028B42EA012202837047028B02F4DE
:1012F0007F420283028B0A430283704721B1828AB4
:1013000042F02002828204E0828A4FF6DF731A40A4
:101310008282704721B1828A42F01002828204E008
:10132000828A4FF6EF731A408282704721B1828A17
:1013300042F00802828204E0828A4FF6F7731A4074
:1013400082827047828A4FF6FB731A408282828AB9
:101350000A438282704721B1828A42F0020282826D
:1013600004E0828A4FF6FD731A408282704702467B
:10137000002013880B4201D0012000E000207047BC
:10138000CA430280704770B502460B460024002114
:1013900000250020C3F3421503F01F01012606FAC1
:1013A00001F1012D02D19689314006E0022D02D1D2
:1013B000168A314001E0968A31401C12012606FA55
:1013C00004F41688344011B10CB1012000E0002073
:1013D00070BD10B5002200230A1201249440A3B26C
:1013E000DC43048010BD0000004C004000BCFFBF87
:1013F0000038014010B50120FFF74DFD0020FFF738
:101400004AFD10BD234908607047234908607047B2
:1014100022490860704701460020214A10884FF693
:101420007F4200EA020040EA01001E4AA2F82C0CAA
:101430007047014600201A4A10884FF6807200EA71
:10144000020040EA0100174AA2F82C0C7047154A26
:101450000244A2F8001C7047014612480844B0F844
:10146000000C704710480068C0B270470F480088F1
:1014700040F001000B49A1F8340C70470C4800689B
:10148000C0B270470948008840F002000549A1F841
:10149000340C704704860D4200860D4288860D424A
:1014A0002C6C004000600040A0860D42346C00406F
:1014B000A4860D4201460020F84A106800F038006A
:1014C000084310607047F549096821F00801F34AA4
:1014D000116011460968014311607047EF490968BE
:1014E00021F01001ED4A11601146096801431160B5
:1014F0007047EB48E9494860EA4848607047E74868
:10150000006940F08000E549086170470420E34924
:10151000C96801F00101012901D101200EE0DF4974
:10152000C96811F0040F01D0022007E0DB49C96847
:1015300011F0100F01D0032000E0042070470020BC
:10154000FF2000E0401E0028FCD1704770B5044623
:101550000425FFF7DBFF054605E0FFF7F0FFFFF787
:10156000D5FF0546641E012D01D1002CF5D104B92B
:101570000525284670BD70B50546042440F6FF7069
:10158000FFF7E4FF0446042C19D1C448006940F079
:101590000200C249086108464561006940F0400008
:1015A000086140F6FF70FFF7D1FF0446012C06D01A
:1015B000BA48006941F6FD710840B8490861204603
:1015C00070BD10B5042440F6FF70FFF7BFFF04465E
:1015D000042C18D1B148006940F00400AF490861FB
:1015E0000846006940F04000086140F6FF70FFF7D0
:1015F000ADFF0446012C06D0A848006941F6FB71F6
:101600000840A6490861204610BD10B5042440F6E4
:10161000FF70FFF79BFF0446042C3CD1A0489F4974
:101620008860A04888600846006940F02000086192
:101630000846006940F04000086140F6FF70FFF77F
:1016400085FF0446042C1DD19448006941F6DF71E2
:101650000840924908610846006940F0100008619E
:10166000A520914908804FF00F00FFF76FFF044657
:10167000012C10D08948006941F6EF710840874974
:10168000086108E0012C06D08448006941F6EF713A
:10169000084082490861204610BD70B505460E46D7
:1016A00004240F20FFF752FF0446042C25D17B4869
:1016B000006940F00100794908612E800F20FFF792
:1016C00045FF0446042C0FD1300C68800F20FFF733
:1016D0003DFF0446012C10D07048006941F6FE71B0
:1016E00008406E49086108E0012C06D06B4800698B
:1016F00041F6FE71084069490861204670BD70B529
:1017000005460E4604240F20FFF720FF0446042C54
:1017100013D16248006940F00100604908612E80E1
:101720000F20FFF713FF0446012C06D05B48006929
:1017300041F6FE71084059490861204670BD70B5F8
:1017400005460E4604240F20FFF700FF0446042C34
:1017500017D153485149886052488860084600694B
:1017600040F0100008612E800F20FFF7EFFE0446C6
:10177000012C06D04948006941F6EF7108404749FD
:101780000861204670BD2DE9F04704464FF6FF760C
:101790003746B046B1460425E443E6B2C4F3072712
:1017A000C4F307484FEA14690F20FFF7CFFE054640
:1017B000042D3ED13A48394988603A488860084645
:1017C000006940F010000861FF2E06D037480680FF
:1017D0004FF00F00FFF7BAFE0546042D08D1FF2F8A
:1017E00006D0334807804FF00F00FFF7AFFE0546E5
:1017F000042D09D1B8F1FF0F06D02E48A0F80C88AF
:101800000F20FFF7A3FE0546042D09D1B9F1FF0F04
:1018100006D02848A0F80E980F20FFF797FE05463F
:10182000012D06D01D48006941F6EF7108401B49A3
:1018300008612846BDE8F08770B50546042440F6E7
:10184000FF70FFF783FE0446042C50D1144813495F
:101850008860144888600846006940F020000861EC
:101860000846006940F04000086140F6FF70FFF74D
:101870006DFE0446042C31D10848006941F6DF7141
:101880000840064908610846006940F010000861F8
:1018900095B100200449088011E0000000200240BA
:1018A00023016745AB89EFCD00F8FF1F08F8FF1F44
:1018B0000AF8FF1F00F0FF1FA5204549088040F6E9
:1018C000FF70FFF743FE0446012C10D04148006929
:1018D00041F6EF7108403F49086108E0012C06D04D
:1018E0003C48006941F6DF7108403A4908612046EA
:1018F00070BD2DE9F04107460D46164604243648D2
:1019000034498860354888600F20FFF71FFE044681
:10191000042C1AD12F48006940F010002D490861AD
:1019200047EA0500304340F0F8002D4908804FF0A9
:101930000F00FFF70BFE0446012C06D02548006976
:1019400041F6EF710840234908612046BDE8F08167
:101950002048C069800870471E48006A7047002010
:101960001C49C96911F0020F01D0012000E00020DC
:10197000704700201749096811F0200F01D001209D
:1019800000E00020704729B1124A12690243114B4E
:101990001A6104E00F4A126982430E4B1A617047C4
:1019A00001460020012908D10A4AD26912F0010F2C
:1019B00001D0012008E0002006E0064AD2680A4271
:1019C00001D0012000E0002070470249C860704744
:1019D00000F8FF1F0020024023016745AB89EFCDCF
:1019E00002F8FF1F10B501210807FFF747FA002191
:1019F0004FF08050FFF742FA10BD28490862704747
:101A000026490861704701460020254A106820F0E9
:101A1000E00008431060704722490860704710B525
:101A2000024600201E4B186820F003001043186087
:101A30001D4B1B6843F004034FF0E024C4F8103D35
:101A4000012901D130BF00E020BF10BD144800685B
:101A500040F00400124908600846006840F00200A7
:101A600008601148006840F004004FF0E021C1F820
:101A7000100D00BF00BF30BF704701460020084A6C
:101A800052680A4201D0012000E00020704704495A
:101A9000096841EA8001024A1160704700000E4265
:101AA00000700040A0000E4210ED00E030B50B4683
:101AB000014600202022012409E021FA02F59D427E
:101AC00005D303FA02F5491B04FA02F52844151E52
:101AD000A2F10102F1DC30BD064C074D06E0E068E2
:101AE00040F0010394E8070098471034AC42F6D365
:101AF000FEF722FBD41C0008F41C00080FB4054BB1
:101B000010B503A9044A029800F018F810BC5DF85B
:101B100014FB0000BB0400081C00002002E008C801
:101B2000121F08C1002AFAD170477047002001E057
:101B300001C1121F002AFBD1704700002DE9FF4FA1
:101B400089B004469B46002597E0252832D100271E
:101B5000641C4E4AB84601212378203B01FA03F069
:101B6000104202D00743641CF6E720782E2819D1D2
:101B700014F8010F47F004072A280ED06FF02F0247
:101B80002078A0F1300109290CD808EB880102EB7C
:101B9000410100EB0108641CF2E70A98641C50F84C
:101BA000048B0A902078F0B3642808D0692806D006
:101BB00075281FD05A460B9990476D1C5CE00A9916
:101BC0004FF00A0901C90A91002804DAC0F10000A7
:101BD0004FF02D0102E0390504D52B218DF820109E
:101BE000012104E0F90701D02021F7E700218A460E
:101BF00008AE0CE00A994FF00A0901C90A91F5E70D
:101C00004946FFF753FF01F1300106F8011D002896
:101C1000F6D1ADEB060000F12009780701D44FF0B2
:101C20000108002000E02CE041464A46C84500DD9E
:101C3000881A8046002706E008A85A46C05D0B991E
:101C400090476D1C7F1C5745F6DB04E030205A4658
:101C50000B9990476D1CB8F10001A8F10108F5DC63
:101C600005E016F8010B5A460B9990476D1CB9F127
:101C70000001A9F10109F4DC641C207800287FF43C
:101C800064AF0DB02846BDE8F08F000009280100C0
:101C90000D0A3D3D3D3D3D3D3D3D3D3D3D3D3D3DD7
:101CA00054696D652053657474696E67733D3D3D7D
:101CB0003D3D3D3D3D3D3D3D3D3D3D3D3D3D3D3D54
:101CC0003D3D3D3D3D3D3D3D3D3D3D3D3D3D3D3D44
:101CD0003D3D0000F41C0008000000202000000032
:101CE0001C1B0008141D000820000020000200003A
:101CF0002C1B00080000000000000000000102038F
:101D00000401020304060708090204060800000093
:041D100000000000CF
:0400000508000131BD
:00000001FF
