:020000040800F2
:1000000000040020470100085501000857010008BE
:10001000590100085B0100085D01000800000000B4
:100020000000000000000000000000005F01000868
:10003000610100080000000063010008650100087C
:100040004F0700085107000853070008550700082C
:1000500057070008590700085B0700085D070008FC
:100060005F070008610700086307000867010008D0
:1000700067010008670100086701000867010008C0
:1000800067010008670100086701000867010008B0
:100090007707000867010008670100087F0700086C
:1000A0008107000883070008850700088707000804
:1000B000890700088B0700088D0700088F070008D4
:1000C00091070008930700089507000897070008A4
:1000D000990700089B0700089D0700089F07000874
:1000E000A1070008A3070008A5070008670100088A
:1000F0006701000867010008670100086701000840
:10010000670100086701000867010008670100082F
:10011000670100086701000867010008670100081F
:10012000670100086701000867010008670100080F
:10013000DFF80CD002F058F800480047A50300088B
:1001400028030020704708488047084981F3088841
:1001500007480047FEE7FEE7FEE7FEE7FEE7FEE7AB
:10016000FEE7FEE7FEE7FEE7450100082803002062
:1001700031010008F8B500F091FC4FF480342046BE
:1001800000F0A4FC00F0D0FC83490128087025D1C0
:10019000102000F0F1FD022000F0DEFD002000F054
:1001A000F7FC002000F002FDA01100F0F8FC601048
:1001B00000F010FD4FF4E011204600F0D2FC0120C9
:1001C00000F0D7FC392000F099FC0028FAD002207A
:1001D00000F0D2FC00F0D7FC0828FBD1012154200C
:1001E00000F064FD4FF40050ADF8000003248DF8DA
:1001F00002401420694E8DF803006946304600F035
:1002000084FB2020ADF800008DF8024010208DF80E
:1002100003006946304600F078FB0C20ADF8000082
:100220005F4F8DF8024048258DF8035069463846E7
:1002300000F06BFB3020ADF800008DF802408DF827
:1002400003506946384600F060FB2003ADF800001B
:100250008DF802408DF803506946304600F055FB9A
:100260002021304600F0C0FBF8BD10B5002000F0A2
:10027000AEFC0121BDE81040C80500F020BD70476C
:10028000704708B500214FF0006000F0C0FA4FF44D
:10029000E06000F089FA14208DF8000000208DF84D
:1002A00001008DF8020001208DF80300684600F07F
:1002B00080FA08BD394A00284FF40051104601D099
:1002C00000F092BB00F08EBB10B5354C10212046DB
:1002D00000F074FBD8B12021204600F06FFBC0B1C4
:1002E0000421204600F06AFBA8B10821204600F056
:1002F00065FB90B16114294C204600F05FFB70B1A2
:10030000A114204600F05AFB58B1002010BD032074
:1003100010BD022010BD042010BD012010BD05201D
:1003200010BD062010BD38B50024E31E214622462C
:100330002546009407282ED2DFE800F02D0A040697
:10034000080C0E00032108E0194606E01A4604E0F6
:10035000032202E0012500E002258DF800508DF80F
:1003600001108DF80220012001F07EFD01460422DB
:10037000684601F0BDFB9DF8000048B18DF80040D3
:10038000012001F071FD01460422684601F0B0FB36
:10039000012001F065FC38BD000000200010014084
:1003A00000180140FFF7E6FEFFF76BFFFFF75DFF68
:1003B00001F07AFAFFF788FF0028FBD0FFF784FFEF
:1003C000FFF7B1FFF6E700E0401E0028FCD17047C0
:1003D00070B52D4ED6F8440C2C4C608060882C4DA6
:1003E00029880840400506D54FF6FF30C6F8440C72
:1003F000284840688047618828880140890403D5DF
:100400004DF6FF71C6F8441C61880140C80406D54A
:100410004EF6FF70C6F8440C002000F049F96088E1
:100420002988084000050CD51B48007810B100F061
:1004300025F902E0022000F03BF94FF2FF70C6F808
:10044000440C618828880140890507D54FF6FF5183
:10045000C6F8441C217801F1010121706188014036
:10046000C80506D54FF6FF60C6F8440C072000F01B
:100470001FF9608829880840000403D5BDE8704052
:1004800001F026BA70BD00000050004002000020BC
:100490000401002068000020DD00002070B5614CE0
:1004A00000252068857200F0C9F85F4845605F4A02
:1004B0004FF43F41118001605D482168C079487266
:1004C00002E000BF01F092F92068807A0028F9D09C
:1004D00058490520087070BD524910B509680020C0
:1004E0008872C87201F03DFB4FF40071002001F0EA
:1004F0004EFB1021002001F060FB1821002001F0CC
:10050000A7FC5821002001F098FC002001F0DEFB40
:10051000494890F82C10002001F0D9FC002001F08F
:10052000ADFB4FF4C061012001F031FB4FF480714D
:10053000012001F082FC0421012001F0AAFC00212D
:10054000012001F050FB2021012001F036FBBDE825
:100550001040002001F0EFB87047704710B13648E6
:10056000243870472F49012009680882002070470D
:100570003149083900F028BF2F49103900F024BF55
:10058000284910B50A680628117801F07F0103D1C7
:10059000012901D1537913B121290CD016E09078AB
:1005A000222802D0212803D010E0AFF2330106E068
:1005B000AFF2430103E0032808D1AFF25F0129B194
:1005C0000020916150828847002010BD022010BD9C
:1005D0001448194900682439C07808600020704721
:1005E00010490968097801F07F01212901D10B2800
:1005F00001D002207047EBE70F49203900F0E4BE3C
:100600000D49183900F0E0BE06490B4A096830323E
:10061000C97802EBC10100F0D7BE09B9002800D0AB
:1006200002207047F8000020405C004004010020D8
:100630003C220008DC0000206800002010B50120EA
:10064000FFF738FE3948012101604FF00001384AB8
:10065000016041604FF4E051118001604FF00000F3
:1006600010BD10B5314C012020604FF000006060DB
:10067000FFF720FE03202060002010BD2B480168FA
:1006800089B241F008010160016889B241F00401BA
:100690000160FFF7F4BD10B5244C206880B220F053
:1006A00004002060FFF7ECFD4FF43F40206010BDD8
:1006B00070B5204C072800D020702178062604252C
:1006C0001D48062930D2DFE801F00306090E162284
:1006D000FFF7E1FF28E0FFF7DEFF0AE0022060708D
:1006E0000320207070BD6078401E60706078002824
:1006F000F8D1257070BDD0F8401C89B241F01001CE
:10070000C0F8401C052020700A20607070BD617820
:10071000491E617061780029F8D1D0F8401C89B277
:1007200021F01001C0F8401C267070BD405C0040F4
:1007300004010020DE000020005000407047FEE76A
:10074000FEE7FEE7FEE77047704770477047704767
:1007500070477047704770477047704770477047E1
:1007600070477047704770477047704770477047D1
:10077000704770477047FFF72BBE70477047704750
:1007800070477047704770477047704770477047B1
:1007900070477047704770477047704770477047A1
:1007A000704770477047000028490843284908608F
:1007B0007047F0B50F22C57803784FF0E02101248F
:1007C000E5B1D1F80C5D467805F4E065C5F5E06566
:1007D0002D0AC5F10407EA408578BE40154035432F
:1007E0000B442A0183F800240078420900F01F001E
:1007F000844001EB8200C0F80041F0BD03F01F000F
:100800008440580901EB8000C0F88041F0BD114AD6
:10081000114001431048016070474FF0E022002969
:10082000D2F8101D01D0014300E08143C2F8101D31
:1008300070474FF0E0210428086903D020F004003D
:100840000861704740F00400FAE700000000FA0574
:100850000CED00E080FFFF1F08ED00E010B58B4CB1
:100860002315021B5900A0422ED00DDC884A8018A7
:100870001CD0984221D088423BD10121102000F0A9
:1008800027FA002110200DE09A4224D08A4229D074
:10089000B2F5406F2DD101210C02204600F018FA6C
:1008A00000212046BDE8104000F012BA01210420CA
:1008B00000F00EFA00210420F4E70121082000F0E6
:1008C00007FA00210820EDE70121202000F000FABE
:1008D00000212020E6E70121402000F0F9F9002165
:1008E0004020DFE70121802000F0F2F90021802084
:1008F000D8E710BD10B50121084600F0E9F9002144
:10090000BDE81040012000F0E3B92DE9F041CA78BC
:100910000025D30602F00F0201D58B781A430B880D
:100920004FF00F084FF0010C13F0FF0F1BD00468BD
:100930000E880CFA05F31E409E4210D1AF0008FA53
:1009400007F624EA060602FA07F43443CE78282E86
:1009500002D0482E02D002E0436100E003616D1C2A
:10096000082DE5D304600B88FF2B1DD944680025B2
:1009700005F108060CFA06F30E881E409E420FD1C0
:10098000AF0008FA07F624EA060602FA07F4344331
:10099000CE78282E00D14361CE78482E00D1036155
:1009A0006D1C082DE4D34460BDE8F0814FF6FF7163
:1009B0000180022181700421C1707047024600202D
:1009C00092680A4200D001207047806880B2704768
:1009D00002460020D2680A4200D001207047C06859
:1009E00080B2704701617047416170470AB101618F
:1009F000704741617047C160704741F48032826145
:100A000081618261816980697047224B10B51A68E3
:100A10004FF68074224042EA00100843186010BD6F
:100A20001D49C8617047F0B51A4D6B68440D260129
:100A300084B2C0F30157B440C0F30342032F05D082
:100A4000C0020AD503209040834307E0686823F082
:100A5000706220F07060686002E0A34343F070624F
:100A600001B122436A60F0BD10B58A0721F003048A
:100A70000849130F21440F228C689A4094438C60DC
:100A80008A68984002438A6010BD0000001401404B
:100A900000F8FEBF0000014000002042A2480168AB
:100AA00041F0010101604168A04A114041600168C4
:100AB0009F4A11400160016821F480210160426871
:100AC000002122F4FE0242608160704796490A6864
:100AD00022F480320A600A68B0F5803F22F4802256
:100AE0000A6007D0B0F5802F03D1086840F4A02039
:100AF00008607047086840F48030F9E7024600203B
:100B000053098949012B0BD0022B0BD0D1F82410AB
:100B100002F01F02012393400B4200D001207047D6
:100B20000968F5E7096AF3E730B500244FF4A065DA
:100B30003120FFF7E3FF641C08B9AC42F8D1312043
:100B4000FFF7DCFF002800D0012030BD76490A689D
:100B500022F0F80242EAC000086070477549086058
:100B60007047714A5368084323F47C13184350605C
:100B700070477049086670476B4A516821F003015D
:100B80000143516070476848406800F00C007047AE
:100B9000654A516821F0F001014351607047624A93
:100BA000516821F4E0610143516070475E494A6831
:100BB00022F4605242EAC000486070475A4A002955
:100BC000517A01D0014300E08143517270475A4984
:100BD00008607047544A516821F440410143516014
:100BE0007047564900220A7001F82029012802D0D6
:100BF000042802D1052081F8200070475049086080
:100C0000704749490A6A02430A6270474D490860C1
:100C10007047454A10B553684B4913F00C0303D095
:100C2000042B01D0082B26D001605168474B01F0FE
:100C3000F00109095C5C0168E1404160546804F41A
:100C4000E064240A1C5D21FA04F48460546804F40E
:100C500060544FEAD4241B5D21FA03F1C16052684D
:100C60003A4B02F440424FEA92321B1F9A5CB1FBAE
:100C7000F2F1016110BD5168022301F4701103EB20
:100C80009141536813F4803F02D053689B0301D510
:100C90002F4B00E02C4B5943C6E7234A00295169EA
:100CA00001D0014300E08143516170471E4A002991
:100CB000916901D0014300E08143916170471A4A74
:100CC0000029D16901D0014300E08143D16170471F
:100CD000154A0029D16801D0014300E08143D16069
:100CE0007047114A0029116901D0014300E0814396
:100CF000116170471749086070470E49C864704712
:100D00000949C87170470848416A41F080714162E1
:100D10007047054A0146002092680A4200D001202F
:100D20007047014988727047001002400000FFF8C8
:100D3000FFFFF6FE00004242D8004242201002406F
:100D4000800442423C04424200127A00E400002047
:100D500000093D0040044242F24A116801F03801A6
:100D6000014311607047EF490A6822F008020A60E7
:100D70000A6802430A607047EA490A6822F01002D2
:100D80000A600A6802430A607047E648E649416023
:100D9000E64941607047E348016941F08001016123
:100DA0007047E0490420CA68D20701D0012070478B
:100DB000CA68520701D502207047C968C906FBD529
:100DC0000320704700B50346FFF7EBFF05E0FF2067
:100DD000401EFDD1FFF7E5FF5B1E012803D0002B6D
:100DE00000D1052000BD002BF1D1FAE770B5054612
:100DF00040F6FF763046FFF7E5FF042813D1C94CD3
:100E0000206940F0020020616561206940F04000E7
:100E100020613046FFF7D6FF012804D0216941F652
:100E2000FD721140216170BD30B540F6FF75284656
:100E3000FFF7C8FF042812D1BA4C206940F0040023
:100E40002061206940F0400020612846FFF7BAFF8A
:100E5000012804D0216941F6FB721140216130BDA7
:100E600030B540F6FF752846FFF7ACFF042828D1BF
:100E7000AC4CAD48A060AD48A060206940F02000B7
:100E80002061206940F0400020612846FFF79AFF6A
:100E900041F6EF7504280FD1206941F6DF71084053
:100EA0002061206940F010002061A149A520088040
:100EB0004FF00F00FFF786FF012802D0216929407B
:100EC000216130BDF0B506460D460F20FFF77AFFD1
:100ED000042816D1934C206940F001002061358030
:100EE0000F20FFF76FFF41F6FE77042804D1280C8E
:100EF00070800F20FFF766FF012802D0216939407A
:100F00002161F0BD70B505460E460F20FFF75AFF70
:100F100004280FD1834C206940F0010020612E800D
:100F20000F20FFF74FFF012804D0216941F6FE7220
:100F30001140216170BD70B505460E460F20FFF7C8
:100F400041FF042813D1774C7748A0607748A06010
:100F5000206940F0100020612E800F20FFF732FF43
:100F6000012804D0216941F6EF721140216170BD62
:100F70002DE9F041C043C4B2C0F30725C0F30746D2
:100F8000070E0F20FFF71EFF04283AD1DFF894C1A7
:100F90006549CCF808106549CCF80810DCF8101049
:100FA000DFF8908141F01001CCF81010FF2C06D032
:100FB000A8F808480F20FFF705FF042818D1FF2DD7
:100FC00006D0A8F80A580F20FFF7FCFE04280FD11E
:100FD000FF2E06D0A8F80C680F20FFF7F3FE0428B8
:100FE00006D1FF2F06D0A8F80E780F20FFF7EAFEF3
:100FF000012806D0DCF8101041F6EF721140CCF851
:101000001010BDE8F08170B5064640F6FF75284621
:10101000FFF7D8FE042818D1424C4348A06043484B
:10102000A060206940F020002061206940F040006D
:1010300020612846FFF7C6FE41F6DF71042805D07F
:10104000012802D022690A40226170BD206908404F
:1010500020612169374841F0100121610EB1002162
:1010600000E0A521A0F800182846FFF7ABFE0128F4
:10107000EBD0216941F6EF721140216170BDF0B5EE
:10108000284C054628480E461746A0602748A06011
:101090000F20FFF797FE042814D1206940F01000BC
:1010A0002061354324493D4345F0F80008804FF066
:1010B0000F00FFF787FE012804D0216941F6EF7287
:1010C00011402161F0BD1748C0698008704715487C
:1010D000006A704713490020C969890700D50120BB
:1010E0007047104900200968890600D50120704723
:1010F0000C4A0029116901D0014300E081431161CC
:10110000704701460020074A012903D0D2680A42ED
:1011100003D17047D169C907FBD00120704701494D
:10112000C86070470020024023016745AB89EFCDBE
:1011300000F8FF1F00F0FF1F02F8FF1F10B5FA4C68
:1011400030B1FA4800680068804720680A3010BD56
:10115000216801200882002010BDF34810B5F44931
:1011600000684A78C178914203D882780AB98288A7
:101170000AB1022010BD8172EC48006840688047C7
:10118000002010BD10B5E84C30B1E8480068806818
:10119000804720680C3010BD2168012008820020A3
:1011A00010BD10B5E04CE34A20681268C17892691E
:1011B0004079904721688A7A22B118B9087908B92C
:1011C000887808B1022010BDD8480068C068804700
:1011D00020684179C172C1780173002010BDD249E5
:1011E00010B5096860B1D448002202800A7853061D
:1011F0000AD002F07F02012A13D0022A13D001E0A4
:1012000002200882002010BD497A8A0603D50278A0
:1012100042F002020270490612D4017801F0FE0188
:1012200011E0C54810BD4A7902F00F011306C34A08
:1012300002EB8101D1F8001C07D5C1F3011106E0D2
:10124000017841F00101017003E0C1F3013101298E
:10125000F6D0B648006800698047E2E770B5B2484A
:101260000168087810F07F0002D0022805D062E003
:10127000487A00F0DF0048724CE04888E8BB087903
:10128000D8BB4A79AD4C130622F08000002B04EB4A
:101290008003A74DD3F8003C03DAC3F301131B010D
:1012A00002E0C3F301331B032E780546864242D980
:1012B0001BB3897A09B3110610D504EB8001D1F86C
:1012C000001CC1F30111012920D1E8B2044600F04D
:1012D0008DFD3021204600F070FC17E004EB800506
:1012E000D5F8001CC1F3013101290FD14BF68F76DF
:1012F00090B1C0B200F068FD00E01CE0D5F8000C31
:1013000080B2304080F44050C5F8000C8748006837
:1013100040698047002070BD894890F82C1000205B
:1013200000F0D5FDD4F8000C80B2304080F440507D
:10133000C4F8000CEAE7022070BD70B57A48036873
:101340007E48597921F0800500EB85000C06D0F825
:10135000004C21F0800203D5C4F30114240102E003
:10136000C4F301342403724D2D7895420FD95A8865
:101370006AB964B19A7A52B10906D0F8001C08D54E
:1013800048F6BF7289B2114081F0100107E00220D7
:1013900070BD4BF68F7289B2114081F48051C0F854
:1013A000001C6248006880698047002070BD5E486C
:1013B00010B50068417A41F0200141725B48006835
:1013C000C0698047002010BD574A00281268508A23
:1013D00002D00968084470478988081A10820020E2
:1013E00070472DE9F047DFF84091DFF85881D9F8D0
:1013F000001001F11004088A097A08B904292AD0DA
:10140000A5880426A84200D90226854200D90546AF
:10141000A8B2A168074688478246002000F024FD54
:1014200001463A46504600F063FB3946002000F082
:1014300030FD20883021401B208060882844608057
:10144000A8F8001008024049A1F80000D9F80000EF
:101450000672BDE8F08707261021A8F80010F5E70E
:1014600070B5314D2868017844784A0606D001F0FD
:101470007F0001282BD002282ED038E0092C06D07E
:10148000052C07D0032C0ED0012C17D02FE0FFF72E
:1014900064FE2BE0C1787F2931D8817879BB8188BF
:1014A00069BB807A2AE0C178012920D18188F1B90D
:1014B000407A80061BD5FFF77AFF17E0C178012933
:1014C00015D1818899B9407A80060AD40FE00B2C97
:1014D0000DD1FFF766FE09E0012C02D0032C03D0EA
:1014E00005E0FFF7BBFE01E0FFF727FF58B1114809
:1014F00000684169E0B28847032802D018B108208B
:101500000FE009200DE0114A062000211368104A5F
:101510004FEA034302EBD33251600A4A4FF03001E5
:1015200011802968087270BDF800002000010020B9
:1015300040000020FC000020F4000020005000408B
:10154000680000200801002006010020505C0040D7
:101550000060004070B5CA4CCA4D09262068296851
:101560004278062A05D0AAB1082A4ED00A2A52D0BB
:101570006FE0027852066CD18078012804D00228EE
:1015800004D0032804D064E0C96959E0096A57E02F
:10159000496A55E04288BABBC288022A59D1027909
:1015A00092BB0278530601D1838833B102F07F02E7
:1015B000012A05D0022A0DD04BE0AFF2DD313FE029
:1015C0008A69407900219047F0B92068807A002824
:1015D000F3D13EE04079AC4900F07002030600F020
:1015E0000F0001EB8001D1F8001C03D5C1F30111FC
:1015F000090102E0C1F301310903A44B1B788342C6
:1016000027D90AB90029D8D123E00078400620D193
:10161000AFF2D74114E0027802F07F02012A18D11C
:10162000827AB2B14288A2B9027992B9C288012AFB
:101630000FD18A6940790021904750B9AFF2BB4180
:1016400039B120680022428281611046884700201B
:1016500006E029682068096940788847032807D090
:1016600021680A8AA2F57F43FF3B04D10E725AE734
:101670002068067257E702280ED06AB10878000683
:101680000DD5C888824200D90882286890F82C00BD
:101690008882BDE87040A4E60820087243E7032072
:1016A00008727B49000308803DE77A4810B590F83E
:1016B0002C10002000F00BFC71480068017A08290A
:1016C00005D1734A48021080734A1020108001200F
:1016D000092900D0002010BD70B57048016870481D
:1016E0004FEA014100EBD131654D89684FEA014174
:1016F00000EBD1342868017A09290FD021780170D4
:1017000061784170A08800F064FD296848802089D4
:1017100000F05FFD29688880A089C88028680121C1
:101720000172C08820B1FFF715FFBDE87040BCE72B
:10173000FFF796FEF9E7F0B55449534A48F68F761D
:101740000B7800210AE0CCB202EB8405D5F8007CCE
:10175000BFB237402743C5F8007C491C9942F2D3F9
:1017600040F08000C2F84C0CF0BD10B5444C20682D
:10177000017A022904D0042902D0062905D015E0F7
:10178000FFF72FFE2068007A11E04178052909D182
:101790000178490606D1C078FFF7CDFF41480068BF
:1017A000006A8047374800688068804708202168C1
:1017B0000872BDE8104078E710B5314C2068007A17
:1017C000032804D0052802D0072805D008E000F03F
:1017D0000EF82068007A04E02A480068C068804754
:1017E000082021680872BDE810405EE770472DE9C7
:1017F000F047234EDFF8A0904FF03008346834F8FB
:10180000100FA168B1B108B3A588854200D905467B
:10181000A8B20746884782462088401B20806088FF
:1018200028446080002000F029FB01463A465046DB
:1018300000F06FF9208848B115494FF440500880F6
:101840000021084600F025FBA9F800802088A18827
:10185000884201D3032001E018B1052031680872E5
:10186000F7E532680D4B062111721A6800200C4909
:101870004FEA024201EBD2314860A9F80080E8E566
:10188000F8000020FC000020005000404000002034
:10189000060100206800002008010020505C004084
:1018A0000060004000010020064805490222016056
:1018B0000A72064A0449C0E901120868004700009C
:1018C0000C010020F800002068000020B800002073
:1018D0002DE9F05F4BF68F7BDFF8FC9140F68F7AB5
:1018E000DFF8F88148F60F777D4C7E4D34E000BF7D
:1018F00047F6FF70C4F8440C298811F00F0188F8EE
:10190000001030D004EB8100D0F8001C8EB23104FE
:101910000ED5D0F8001C89B201EA0A01C0F8001CFB
:10192000714898F8001000EB810050F8040C8047D3
:10193000300611D598F8001004EB8101D1F8002C85
:1019400092B23A40C1F8002C684998F8000001EBC7
:10195000800050F8040C8047D4F8440C2880000420
:10196000C6D4BDE8F09F04F540642168C1F301319D
:101970004FEA0131A9F800102168C1F301114FEAC3
:101980000111A9F80210206880B200EA0B0080F46F
:1019900000502060206848F6BF7180B200EA010064
:1019A00080F0200020602888A4F54064C006D4F8A8
:1019B000000C0BD480B23840C4F8000CFFF7D5FE01
:1019C000D4F8000C10F4084F0DD121E086B2300697
:1019D00007D5D4F8000C80B23840C4F8000CFFF7EB
:1019E000C4FE300509D5D4F8000C80B200EA0A0024
:1019F000C4F8000CFFF770FE0AE0300408D5D4F8F4
:101A0000000C80B200EA0A00C4F8000CFFF7D4FE14
:101A1000D4F8000CB9F8002080B200EA0B00D3041F
:101A200001D580F48050920401D580F40050C4F8B0
:101A3000000CD4F8000C48F6BF7280B2B9F802105E
:101A40001040CA0601D580F01000890601D580F04B
:101A50002000C4F8000C7FE72DE9F0411F4D204C19
:101A6000204E31E047F6FF70C4F8440C308800F097
:101A70000F00287004EB8000D0F8001C8FB23904EE
:101A80000ED5D0F8001C40F68F7289B21140C0F814
:101A9000001C1548297800EB810050F8040C8047A1
:101AA000380611D5287804EB8000D0F8001C48F6E1
:101AB0000F7289B21140C0F8001C0C48297800EB65
:101AC000810050F8040C8047D4F8440C30800004A6
:101AD000C8D4BDE8F081000006010020F600002017
:101AE00000500040040000202400002008000020D6
:101AF0000E4B10B5521C520803EB410108D003787D
:101B00004478801C43EA042321F8043B521EF6D19A
:101B100010BD064B10B5521C520803EB410104D016
:101B200010C920F8024B521EFAD110BD00600040CF
:101B3000FB4908607047FA48006880B27047F9496D
:101B400008607047F748006880B27047F648006840
:101B500080B27047F54908607047F448006880B269
:101B60007047F34920F0070008607047F0480068AC
:101B700080B27047EF4A02EB8000C0F8001C70474B
:101B8000EC4901EB8000D0F8000C80B27047E94AC4
:101B900002EB8000D0F8002C48F68F1392B21A4066
:101BA0000A43C0F8002C7047E24901EB8000D0F8EE
:101BB000000CC0F3412040027047DE4A10B502EB32
:101BC0008002D2F8000C48F6BF7480B2CB0600EA5F
:101BD000040001D580F01000890601D580F02000B6
:101BE000C2F8000C10BDD34A10B502EB8002D2F847
:101BF000000C4BF68F7480B2CB0400EA040001D5D0
:101C000080F48050890401D580F40050C2F8000CA3
:101C100010BD00B50A460346FFF7B2FFC549012AC9
:101C200001EB830107D0022A04D120F0100000BF8D
:101C3000C1F8000C00BD20F48050F9E7BD4901EB6C
:101C40008000D0F8000CC0F3011000017047B949C2
:101C500001EB8000D0F8000CC0F3013000037047A6
:101C6000B44901EB8001D1F8000C48F6BF7280B294
:101C7000104080F03000C1F8000C7047AD4901EB16
:101C80008001D1F8000C4BF68F7280B2104080F4C6
:101C90004050C1F8000C7047A64901EB8000D0F815
:101CA000001C48F68F7289B241F480711140C0F86F
:101CB000001C70479F4901EB8000D0F8001C48F6DB
:101CC0008F6289B21140C0F8001C7047994901EB3E
:101CD0008000D0F8001C48F68F6289B21140C0F82D
:101CE000001C7047934901EB8000D0F8001C48F6B7
:101CF0008F7289B241F480711140C0F8001C7047A6
:101D00008C4901EB8000D0F8001C48F68F7289B234
:101D100041F480711140C0F8001C7047854901EB07
:101D20008000D0F8001C48F68F6289B21140C0F8DC
:101D3000001C70477F4901EB8000D0F8000CC0F315
:101D40000110012800D0002070477A4901EB800083
:101D5000D0F8000CC0F30130012800D000207047FB
:101D6000744901EB8000D0F8001C40F68F7289B2F4
:101D70001140C0F8001C70476E4901EB8000D0F89C
:101D8000001C48F60F7289B21140C0F8001C704761
:101D9000684901EB8000D0F8001C48F68F7289B2C8
:101DA000114041F48041C0F8001C7047614901EBCB
:101DB0008000D0F8001C48F68F7289B2114041F0C3
:101DC0004001C0F8001C70475A4901EB8000D0F870
:101DD000001C490409D5D0F8001C48F68F7289B25E
:101DE000114041F48041C0F8001C7047514901EB9B
:101DF0008000D0F8001C490609D5D0F8001C48F630
:101E00008F7289B2114041F04001C0F8001C704748
:101E1000484A02EB8000D0F8002C48F68F7392B24B
:101E20001A400A43C0F8002C7047424901EB800079
:101E3000D0F8000CC0F3030070473D4A21F00101C7
:101E400013683D4A9BB203EBC00042F81010704784
:101E5000374A21F001011368374A9BB203EBC000F7
:101E600002EB4000816070473149096889B201EB9B
:101E7000C000314951F8100080B270472C49096800
:101E800089B201EBC0002C4901EB4000806880B2B0
:101E90007047274A1268284B92B202EBC00003EB4E
:101EA0004000416070473E2909D94A09C90601D15D
:101EB000521E92B24FF4004141EA822105E04A08E5
:101EC000C90701D0521C92B2910201607047184AB2
:101ED00013681A4A9BB203EBC00002EB40023E2992
:101EE00009D94809C90601D1401E80B24FF400410A
:101EF00041EA802005E04808C90701D0401C80B2B3
:101F00008002106070470A49096889B201EBC0007D
:101F1000094901EB40004068C0F309007047000028
:101F2000405C0040445C0040485C00404C5C004029
:101F3000505C004000500040006000400C600040D9
:101F4000A649096889B201EBC000A54901EB400030
:101F5000C068C0F30900E1E730B521F001049F49F2
:101F60000D689F4BADB205EBC00522F0010243F8AE
:101F70001540096889B201EBC00003EB40008260A4
:101F800030BD964A21F001011368954A9BB203EBDC
:101F9000C00042F81010C1E7904A21F00101136817
:101FA0008F4A9BB203EBC00002EB40008160B5E7B3
:101FB0008A49096889B201EBC000894951F81000CB
:101FC00080B2ABE78549096889B201EBC00084495A
:101FD00001EB4000806880B2A0E72DE9F043814B1F
:101FE000012914D0022910D1D3F8504C7C49A4B255
:101FF00004EBC00401EB44046260D3F8503C9BB294
:1020000003EBC00001EB4000C260BDE8F0839946DD
:10201000D3F8503C72499BB2091D03EBC00301EB9E
:102020004306CF13530951085C1E01F101083E2AF3
:1020300007D91D465FEAC26C00D1A5B247EA8525E3
:1020400006E0D50703D04FEA0845AD0900E08D0250
:102050003560D9F8505C624EADB20C3605EBC0006D
:1020600006EB40003E2A05D9D10600D1A3B247EACB
:10207000832104E0D20701D01FFA88F189020160B0
:10208000C3E7584B01290BD0022908D1D3F8501CC3
:10209000534B89B201EBC00003EB400042603DE7C7
:1020A000D3F8501C4E4B89B21B1D01EBC00003EB53
:1020B00040013E2A09D95009D20601D1401E80B202
:1020C0004FF4004242EA802005E05008D20701D0D8
:1020D000401C80B28002086020E7424B01290BD0EF
:1020E000022908D1D3F8501C3D4B89B201EBC00046
:1020F00003EB4000C26011E7D3F8501C384B89B2A3
:102100000C3301EBC00003EB40013E2A09D9500912
:10211000D20601D1401E80B24FF4004242EA802034
:1021200005E05008D20701D0401C80B28002086050
:10213000F4E62A49096889B201EBC000284901EB9D
:1021400040004068C0F30900E8E62449096889B204
:1021500001EBC000224901EB4000C068C0F3090058
:10216000DCE62049D1F8503C1D4A9BB203EBC0038A
:1021700002EB4303DB6813F47C4F01D00120CDE672
:10218000D1F8501C89B201EBC00002EB400040685E
:102190008005F4D00220C1E6124B48F68F7203EBA3
:1021A000800001290BD0022908D1D0F8001C89B287
:1021B000114041F4804100BFC0F8001CAEE6D0F8E9
:1021C000001C89B2114041F04001F5E741EA0020CE
:1021D000A4E6C1B2000A40EA01209FE6505C00403C
:1021E0000060004000500040064C074D06E0E068EB
:1021F00040F0010394E8070098471034AC42F6D34E
:10220000FDF79AFF0C2300082C23000802E008C801
:10221000121F08C1002AFAD170477047002001E060
:1022200001C1121F002AFBD17047120100020000F9
:10223000004083041057000201020301090222003A
:10224000010100C03209040000010301020009215C
:1022500000010001224A0007058103040020050156
:102260000902A1010901A1000509190129031500AD
:10227000250195037501810295017505810105010F
:102280000930093109381581257F750895038106C4
:10229000C0093C05FF09011500250175019502B132
:1022A0002275069501B101C00403090426035300F9
:1022B00054004D006900630072006F0065006C00FF
:1022C00065006300740072006F006E0069006300B7
:1022D00073001E03530054004D00330032002000F1
:1022E0004A006F00790073007400690063006B009E
:1022F0001A034A006F0079002000200020003100FE
:102300002E00300030003000300000002C23000888
:10231000000000200C0100000C22000838240008F6
:102320000C0100201C0200001C220008000000001C
:1023300000000000ED170008ED170008ED17000879
:10234000ED170008ED170008ED170008ED1700085D
:10235000ED170008ED170008ED170008ED1700084D
:10236000ED170008ED170008ED1700080201000046
:10237000000000002A220008120000003C22000891
:10238000220000005E2200084A0000004E220008E1
:10239000090000009D040008D90400085905000840
:1023A0005B05000881050008E10500081B06000820
:1023B000F9050008010600080906000800000000F1
:1023C00040000000A822000804000000AC22000821
:1023D00026000000D22200081E000000F0220008A3
:1023E0001A000000ED170008ED170008ED170008AF
:1023F000ED170008ED170008ED170008ED170008AD
:10240000ED170008ED17000800010000020406089F
:10241000000000000102030401020304060708098A
:1024200000000000000000000000000000000000AC
:082430000000000000000000A4
:0400000508000131BD
:00000001FF
