:020000040800F2
:1000000000040020470100085707000839060008CF
:1000100055070008E7010008011F00080000000064
:10002000000000000000000000000000ED1C0008BF
:10003000B504000800000000F1070008851D000855
:1000400067010008670100086701000867010008F0
:1000500067010008670100086701000867010008E0
:1000600067010008670100086701000867010008D0
:1000700067010008670100086701000867010008C0
:1000800067010008670100086701000867010008B0
:1000900067010008670100086701000867010008A0
:1000A0006701000867010008670100086701000890
:1000B0006701000867010008670100086701000880
:1000C0006701000867010008670100086701000870
:1000D0006701000867010008670100086701000860
:1000E0006701000867010008670100086701000850
:1000F0006701000867010008670100086701000840
:10010000670100088D090008670100086701000801
:10011000670100086701000867010008670100081F
:10012000670100086701000867010008670100080F
:10013000DFF80CD000F034F800480047E920000850
:10014000080F0020704708488047084981F3088855
:1001500007480047FEE7FEE7FEE7FEE7FEE7FEE7AB
:10016000FEE7FEE7FEE7FEE745010008080F002076
:100170003101000830B50B46014600202022012441
:1001800009E021FA02F59D4205D303FA02F5491B65
:1001900004FA02F52844151EA2F10102F1DC30BD7B
:1001A000064C074D06E0E06840F0010394E80700C4
:1001B00098471034AC42F6D3FFF7BEFF782400080E
:1001C0009824000810B507E003680C68A34201D02A
:1001D000002010BD001D091D1300A2F1010292B202
:1001E000F2D1012010BDFEE770B5374905462A243B
:1001F000486B10F0450FFBD0410702D503240420C3
:1002000003E0C00704D00124204600F057FB59E06A
:1002100000F094FBA8422BD140F2FF5000F04EFBBF
:10022000002000F0ADFB294908424BD0002801DA3C
:100230001C2070BD410001D5092070BD810001D591
:100240000A2070BDC10001D50B2070BD010101D590
:100250000C2070BD410101D50D2070BDC10101D53B
:100260000E2070BD010201D50F2070BD410201D5E5
:10027000102070BD810201D5112070BDC10201D5D1
:10028000122070BD010301D5132070BD410301D5BB
:10029000142070BD810301D5152070BDC10301D5A7
:1002A000162070BD010401D5172070BD410401D591
:1002B000182070BD810401D5192070BD000701D53B
:1002C0001A2070BD204670BD0080014008E0FFFD8F
:1002D00010B50B482A24416B11F0450FFBD048079D
:1002E00002D50324042003E0C80705D001242046DA
:1002F00000F0E4FA204610BD40F2FF50F8E700009D
:100300000080014070B50C46194906462A25486B05
:1003100010F0450FFBD0410702D50324042003E071
:10032000C00705D00124204600F0C8FA204670BD61
:1003300000F004FBB04213D140F2FF5000F0BEFACF
:10034000002000F01DFB10F4604F03D0810405D5A0
:10035000132070BD4FEA1040208007E0410401D512
:10036000102070BD000401D50F2070BD284670BD5F
:10037000008001400349C20002D5C1F8040470475F
:1003800048607047000002400029016802D041F037
:10039000010101E021F001010160704701460020E8
:1003A000054ACB0002D5D2F8002400E012680A42C8
:1003B00000D00120704700000000024070B50368C3
:1003C00047F6F0729343D1E904460D6A8A683443D4
:1003D0002A432243D1E906542A432243D1E909544E
:1003E0002A4322431A430260CA6842600A68826054
:1003F0004968C16070BD000070B505468CB00C4600
:100400001148FFF7B7FF114E00213046FFF7BCFF40
:100410000F48CDE900050020A108CDE902018021A7
:10042000CDE90401890006918900CDE90710890012
:10043000CDE9091069463046FFF7C0FF012130467B
:10044000FFF7A2FF0CB070BD00F0001044040240A2
:100450008080014070B504468CB00D461248FFF70D
:1004600089FF124E00213046FFF78EFF1048CDE97C
:10047000000410200290A808039000208021CDE9FC
:100480000401890006918900CDE907108900CDE9B2
:10049000091069463046FFF791FF01213046FFF70A
:1004A00073FF0CB070BD000000F000104404024067
:1004B00080800140704710B5002304E09C1840F88C
:1004C00023405B1C9BB28B42F8D310BD2DE9F8434F
:1004D0000121302000F09AF94FF48850ADF8000067
:1004E0000326DFF898808DF8026018248DF8034009
:1004F0006946404600F04AF8214F0425ADF8005007
:100500006946384600F042F8012144F26C0000F0E0
:100510007DF92020ADF8000010208DF803008DF843
:1005200002606946174800F031F84820ADF8000035
:100530006946384600F02AF84FF46066ADF800606E
:100540006946404600F022F8E801ADF800008DF859
:1005500003400D4C6946204600F018F82015ADF810
:1005600000008DF803506946204600F00FF8314630
:10057000404600F05FF8BDE8F8830000001001403D
:1005800000140140000C0140000801402DE9F04139
:10059000CA780025D30602F00F0201D58B781A43E2
:1005A0000B884FF00F084FF0010C13F0FF0F1CD019
:1005B000D0F800400E880CFA05F31E409E4210D180
:1005C000AF0008FA07F624EA060602FA07F43443F5
:1005D000CE78282E02D0482E02D002E0436100E0FF
:1005E00003616D1C082DE5D304600B88FF2B1DD91A
:1005F0004468002505F108060CFA06F30E881E4033
:100600009E420FD1AF0008FA07F624EA060602FA66
:1006100007F43443CE78282E00D14361CE78482E9B
:1006200000D103616D1C082DE4D34460BDE8F08166
:100630004161704701617047FEE7000070B50446F4
:1006400040482A25806801043F4801600D2141602F
:10065000402181600021C1604FF48061016100F0A0
:10066000BFF93A49486B10F0450FFBD0410702D55E
:100670000324042003E0C00705D00124204600F035
:100680001DF9204670BD00F059F90D282ED140F219
:10069000FF5000F013F9002000F072F9C0F343217D
:1006A00021702B4908424BD0002801DA1C2070BD74
:1006B000410001D5092070BD810001D50A2070BD1F
:1006C000C10001D50B2070BD010101D50C2070BD0A
:1006D000410101D50D2070BDC10101D50E2070BDB5
:1006E000010201D50F2070BD410201D5102070BD5F
:1006F000810201D5112070BDC10201D5122070BD4B
:10070000010301D5132070BD410301D5142070BD34
:10071000810301D5152070BDC10301D5162070BD20
:10072000010401D5172070BD410401D5182070BD0A
:10073000810401D5192070BD000701D51A2070BDB4
:10074000284670BD000000207C0000200080014091
:1007500008E0FFFDFEE7704708B54FF4C06000F009
:100760003DF831208DF8000000208DF801008DF853
:10077000020001208DF80300684600F001F808BD72
:10078000F0B50F22C57803784FF0E0210124E5B1E0
:10079000D1F80C5D467805F4E065C5F5E0652D0AF5
:1007A000C5F10407EA408578BE40154035430B4447
:1007B0002A0183F800240078420900F01F008440D9
:1007C00001EB8200C0F80041F0BD03F01F0084403F
:1007D000580901EB8000C0F88041F0BD0249084390
:1007E00002490860704700000000FA050CED00E0C7
:1007F00070470000044A0029516901D0014300E01C
:10080000814351617047000000100240044A0029F2
:10081000916901D0014300E081439161704700007C
:1008200000100240214A10B55368214913F00C030F
:1008300003D0042B01D0082B26D0016051681D4B3A
:1008400001F0F00109095C5C0168E1404160546815
:1008500004F4E064240A1C5D21FA04F48460546802
:1008600004F460544FEAD4241B5D21FA03F1C16003
:100870005268104B02F440424FEA92321B1F9A5CBE
:10088000B1FBF2F1016110BD5168022301F4701156
:1008900003EB9141536813F4803F02D053689B03EC
:1008A00001D5054B00E0024B5943C6E7001002405A
:1008B00000127A003000002000093D0001498863E1
:1008C00070470000008001400149886370470000C4
:1008D000008001400149086070470000A0003042DC
:1008E00001490860704700008C05304230B5094965
:1008F00002684A6242688A62CA6A22F0F703D0E953
:100900000225D0E904402A43044322431A43CA6221
:1009100030BD0000008001400648002101604160B8
:100920008160C16041628162C162034A8263C163C6
:100930007047000000800140FF07C00001480069C7
:10094000C0B2704700800140034A01460020526B4C
:100950000A4200D00120704700800140034A01464E
:100960000020526B0A4200D00120704700800140F5
:100970000248006800F0030070470000008001405A
:1009800001490844406970470080014000F090BB75
:10099000044A0029D16B01D0014300E08143D163B7
:1009A000704700000080014070B5094B5A6800F1A3
:1009B000080447F6FF6170CC8A4301783443294329
:1009C000456821434069294301431143596070BD83
:1009D00000800140014800687047000080800140AD
:1009E00030B5084A01689160D168CB0AD0E9011599
:1009F000D0E9034029430443DB0221431943D1607A
:100A000030BD00000080014004490A6822F0030262
:100A10000A600A6802430A607047000000800140D3
:100A20000149086070470000808001402DE9F84FBF
:100A30000546394800248DF8004040680E464FEACC
:100A40001050A046800602D42520BDE8F88F334818
:100A500040683349C0B2801CB1FBF0F70020FFF7BB
:100A60008FFF800101D50E20EFE72E48DFF8A89018
:100A70004FF0400B406809F138094FF4806A0228B2
:100A800005D030B1012804D0022802D024E06D0A3C
:100A9000760A2021C9E90051C9E902B81E485D461D
:100AA0003830C9F810A0FFF79BFF2020FFF79CFB10
:100AB0002A28CAD109F104002121C9F80060A0E860
:100AC00022011548C9F810A03830FFF789FF21200E
:100AD000FFF78AFB2A28B8D14146262289E8060872
:100AE0000D48C9E9038A3830FFF77AFF2620FFF75F
:100AF0007BFB2A28A9D100E0641CBC42FCD36846D9
:100B0000FFF79CFD2A28A0D19DF800100729F6D0F8
:100B10000629F4D099E7000044000020008001403D
:100B200040190100000000202DE9F0479849DFF846
:100B300064A24FF02A0C4D6880F84E508968A0F8E6
:100B40004C10DAF800100B0E9C090470C3F38304F8
:100B5000447003F0030383700B0CC3700B0A037122
:100B60004171DAF80440210E0901C180C288C4F342
:100B7000074101F00F0342EA1111C1800372C4F36F
:100B80000721CA094272C1F380128272C1F3401276
:100B9000C272C1F3001202734FF0000880F80D809A
:100BA00052464FF001099668C6F30742C6F307277D
:100BB0004FEA166325B1012D02D0022D2BD03CE067
:100BC0008907090D0161E1B2046944EA810101610B
:100BD0000469C3F3C20544EA93140461057503F084
:100BE0000701417551098175C2F38201C1759107F1
:100BF000490F0176027E394642EAD712027602692F
:100C0000037E047A521C9B1C9A4009FA04F35A434F
:100C1000C0E9112311E0A106890A0161016941EAD5
:100C20000321016103693946134303610269521CC0
:100C3000D20442644FF40072826400F11800C1F3E0
:100C4000801242704FEA81614FEA5161817083786E
:100C5000F1B243EAD113837001F07F01C170DAF879
:100C60000C204FEA12614FEAD1130371C1F3411313
:100C70004371C1F3820383714FEA81714FEA1171AD
:100C8000C171C379C2F3074143EA9113C371C1F340
:100C90004013037280F8098001F001018172C2F3F0
:100CA00007214FEAD113C372C1F380130373C1F359
:100CB00040134373C1F300138373C1F38103C37300
:100CC00001F003010174C2F3460141744B4680F800
:100CD0001290304A02F1100211684FEA1164047553
:100CE000C1F307444FEA0424C482C58AC1F3072430
:100CF00045EA0405C5824FEA016181615168856951
:100D00004FEA116445EA044484618569C1F30744EC
:100D100045EA042484618569C1F3072445EA040592
:100D20008561017791684FEA11644477C1F3074404
:100D30004FEA04640462056AC1F3072445EA0444E7
:100D40000462046AC9B244EA01210162D168046AFA
:100D500044EA1164046290F82440C1F3074244EA73
:100D6000121480F824404FEA02724FEA1252C284F1
:100D7000C48CC1F3072244EA0204C484C1F34601CF
:100D800080F8281080F829306046BDE8F087000020
:100D9000000000204400002010B5FFF797FB012160
:100DA0008802FFF727FD01210220FFF723FDFFF74F
:100DB000B3FD00F09BF82A2811D100F013F8044687
:100DC0002A280CD106490120002208704A608A6056
:100DD000CA600A6108464A61FFF7E6FD204610BD79
:100DE000640000202DE9F84F01202A25ADF800000D
:100DF000FFF7BEFDB8B3DFF8EC90D9F80400042883
:100E00006ED0394C4FF0C00A00260220C4F808A06A
:100E1000C4E900604FF48068C4E903682046FFF726
:100E2000DFFDFFF755FA05462A281ED10020FFF7FF
:100E3000A7FDA4F1280738600420FFF7A1FD786022
:100E40000820FFF79DFDB8600C20FFF799FDF860C2
:100E5000D9F804004F4650B1012808D0062806D022
:100E6000022804D015E0FFE72520BDE8F88F032015
:100E7000C4E9006004F108014020A1E841011A48DA
:100E8000FFF7AEFD69460320FFF73CFA05462A2826
:100E9000EBD17868042823D0BDF80000B8600004C6
:100EA00020600920C4E9010AC4E903680E48FFF77D
:100EB00097FDFFF70DFA05462A28D6D10020FFF747
:100EC0005FFD094C383C20600420FFF759FD60604D
:100ED0000820FFF755FDA0600C20FFF751FDE060F2
:100EE0002846C2E7000000207C0000202DE9F05FCA
:100EF0004FF0000A6A48B22156460170C0F804A0BB
:100F0000C0F808A0C0F80CA0C0F810A0574654467E
:100F1000C0F814A0FFF748FD0320FFF775FD01207E
:100F2000FFF7D8FCDFF878814FF4806908F11808E2
:100F30004046C8F80040C8F80440C8F80840C8E96E
:100F40000349FFF74DFD42F2107B5D4601E06D1E47
:100F50001DD08020FFF7F8FC0028F8D0BDB140F28A
:100F6000FF50FFF7ABFC4FF4D570C8F800004546C2
:100F700008204FF04008C5E901084948C5E9034980
:100F80001830FFF72DFD474A5846516B06E0032005
:100F9000BDE8F09F4349A0F10100496B11F0450FF6
:100FA00014D008B1480714D50420FFF787FC372078
:100FB000C5E90040C5F810903948C5E902841830E9
:100FC000FFF70EFD3720FFF70FF90BE00028E1D106
:100FD000EAE7480602D54020FFF770FC32480121BD
:100FE0008F0741600021372285E806012C48C5E9BA
:100FF0000319AB461830FFF7F3FC3720FFF7F4F87E
:1010000005462A283CD049E000253721CBE900518C
:10101000CBE902852248CBF810901830FFF7E0FCAE
:101020003720FFF7E1F82A28B2D1204847EA00012B
:10103000CBF800102921CBF80C50CBE90118184847
:10104000CBF810901830FFF7CBFC16492A25486BD7
:1010500010F0450FFBD0400705D503240420FFF70F
:101060002DFC204694E740F2FF50FFF727FC0020BC
:10107000FFF786FC8246C00F06F1010602D003E0AE
:101080004FF6FF74A642BFD3A64201D31B207FE7D1
:101090001AF0804F02D0044802214160284677E7C9
:1010A000640000200080014000000020000010804B
:1010B0002DE9F041634D0024E868012841D1C003C7
:1010C000FFF74CFC60B100BFFFF784FC696A41F890
:1010D0002400641C082CF7D3686A203068622DE075
:1010E0004FF48040FFF73AFC58B3E9692869411A88
:1010F000202918D2E969411A8907E969A0EB0100A2
:101100004FEA90060CD0761C0AE0286A0068FFF7C8
:1011100087FC286A641C001D2862E869001DE861DC
:10112000B442F2D30DE0286A50F82400FFF778FCAF
:10113000641C082CF7D3286A20302862E869203024
:10114000E8614FF480763046FFF708FC00244CF24B
:101150003A3840B3E86888B177033846FFF7F4FBC4
:1011600060B1E8692969884208D2FFF733FC696AEF
:1011700001C16962E869001DE861EEE7686901285C
:101180000ED02A2028703046FFF79EFB00214046F3
:10119000FFF7FEFB0120A861EC612878BDE8F08133
:1011A00000F0A0FAEEE70220FFF7D8FB50B10220D2
:1011B000FFF78AFB00214046FFF7EAFBEC610220C3
:1011C0002870EBE70820FFF7C9FB50B10820FFF7B4
:1011D0007BFB00214046FFF7DBFBEC61042028701D
:1011E000DCE72020FFF7BAFB50B12020FFF76CFBB3
:1011F00000214046FFF7CCFBEC6106202870CDE7CC
:101200001020FFF7ABFB50B11020FFF75DFB002172
:101210004046FFF7BDFBEC6105202870BEE74FF4A8
:1012200000763046FFF79AFB50B13046FFF74CFB93
:1012300000214046FFF7ACFBEC6107202870ADE7CA
:101240002A20ABE7000000202DE9F84F07460D00EB
:10125000144630D0774E2A2030704FF0000AC6F87E
:1012600018A0DFF8D8B1744AC6F810A0CBE9002A5C
:10127000CBF808A0CBF80CA0CBF810A05846CBF8C0
:1012800014A0FFF733FB0020FFF72AFB0020FFF735
:1012900077FB800102D50E20BDE8F88F7068B0465C
:1012A0004FF40079022808D0601EB0F5006F02D21A
:1012B000601E044204D02620EEE74C467F0AF7E782
:1012C000204600F0E9FE00905C4810211438564694
:1012D000C0E90041083040214FF4806AA0E8420490
:1012E00056481438FFF77CFB1020FEF77DFF2A28B4
:1012F000D2D15149CBE90014009950480901CBF8EB
:1013000008100221CBE903160121CBF81410FFF7D6
:10131000EDFAC8E90446494811211438C8F82450A8
:10132000C0E9007108304021A0E842044348143865
:10133000FFF756FB1120FEF757FF06462A28ABD1D0
:10134000D8F80C004746022811D001284ED090B39F
:101350006DE05046FFF7F8FA70B10024FFF73AFB52
:1013600045F82400641C082CF8D3203504E0344FE1
:101370004FF4004A40F22A68786B10EA080FE8D070
:101380000820FFF7E1FA20B10820FFF797FA0420C0
:1013900082E70220FFF7D8FA20B10220FFF78EFA89
:1013A000022079E72020FFF7CFFA28B12020FFF7AD
:1013B00085FA062070E728E04C464846FFF7C4FA55
:1013C00040B12046FFF77AFA072065E7FFF702FBF6
:1013D00001C501E04FF400142046FFF7B5FA0028DC
:1013E000F4D140F2FF50FFF769FA20E0012148F202
:1013F0002A30FFF7CDFAB86910B938782A28FAD020
:1014000038782A2813D0387846E7012140F22A306C
:10141000FFF7BEFA0120FFF763FA21462846FEF7E0
:10142000EBFF084C2046FEF7B9FF0028FAD0304603
:1014300032E7000000000020FFFF0F0090000020B6
:1014400000800140002000102DE9F84F80460D007B
:1014500014461E464ED0DFF830922A2189F800103B
:101460000027C9F818708A488849C9F81070C0E97F
:1014700000178760C76007614761FFF737FA0020F0
:10148000FFF72EFA0020FFF77BFA800102D50E202D
:10149000BDE8F88F7C484FF4007B4068022807D0F5
:1014A000601EB0F5006F25D2601E044204D021E01A
:1014B0005C464FEA5828F7E7204600F0EDFD009023
:1014C00073484FF0400A14381021C0F808A0C0E952
:1014D00000418901C0E90371FFF782FA1020FEF78D
:1014E00083FE07462A28D3D1012E3AD96643B6F1A6
:1014F000007F01D32620CBE7634C0121644865625D
:10150000C4E90461614AC0E90026009A002712017B
:1015100082600222C260C0E90471FFF7E7F9414628
:10152000DFF86C814FF48069A8F114084046C8F8D0
:1015300000101221C8F804104021C8E90217C8F8A9
:101540001090FFF74DFA1220FEF74EFE07462A28AC
:101550009ED1E16840F22A30022912D001296BD0D5
:1015600081B38FE04FF40040FFF7EEF950B1002651
:10157000FFF730FA45F82600761C082EF8D3203500
:1015800000E082464348406B10EA0A0FEAD0082088
:10159000FFF7DAF920B10820FFF790F9042077E788
:1015A0000220FFF7D1F920B10220FFF787F90220CE
:1015B0006EE72020FFF7C8F928B12020FFF77EF959
:1015C000062065E747E05E465846FFF7BDF948B19B
:1015D0003046FFF773F907205AE700BFFFF7FAF923
:1015E00001C501E04FF400163046FFF7ADF90028C1
:1015F000F4D14FF48070FFF7A7F9C0B1606818B15B
:10160000022801D0012812D100210C22C8E90012C1
:101610004022C8E902211E48C8F810901438FFF78C
:10162000DFF90C20FEF7E0FD07462A28B7D140F28B
:10163000FF50FFF743F925E0012148F22A30FFF778
:10164000A7F9A06910B920782A28FAD020782A288A
:1016500018D020781CE70121FFF79AF90120FFF745
:101660003FF931462846FEF7C7FE0B4D2846FEF7E8
:1016700095FE0028FAD0A0690028E7D120782A2812
:10168000F9D0E3E7384603E700000020FFFF0F0032
:10169000900000200080014000200010094910B592
:1016A000086007204860402088600020C8604FF430
:1016B000806008610846FFF793F9BDE810400720F5
:1016C000FEF792BD7C0000202A2130B1012804D011
:1016D000022802D0262108467047014AD060FAE766
:1016E00000000020084810B500210C22C0E90012BB
:1016F0004022C0E9022111010161FFF771F9BDE843
:1017000010400C20FEF770BD7C0000202DE9FC5F2E
:101710004FF0000780460D0014468DF800703E46DD
:1017200028D0DFF894922A2189F80010C9F818709F
:10173000A348A249C9F81070C0E900178760C760C4
:1017400007614761FFF7D2F80020FFF7C9F80020D2
:10175000FFF716F9800102D50E20BDE8FC9FD9F8ED
:101760000400022808D0601EB0F5006F02D2601E8F
:10177000044206D02620F0E74FF400744FEA5828C0
:10178000F5E7204600F088FCDFF834A20190AAF1CA
:10179000140A1021CAE900414FF0400BCAE902B710
:1017A00089015046CAF81010FFF71AF91020FEF709
:1017B0001BFD2A28D1D18048D14680680104CAF88F
:1017C00000100D21CAE9011B504600214FF4806A28
:1017D000C0E9031A7A481438FFF702F90D20FEF722
:1017E00003FD2A28B9D10020FFF7CAF8734F4FF044
:1017F000000A1AE070487F1E80680104C9F80010D2
:101800000D21C9F80CA0C9E9011B6D484FF4806196
:101810001438C9F81010FFF7E3F80D20FEF7E4FCC8
:101820002A289AD10020FFF7ABF8C00502D4002F78
:10183000E0D131E07FB348461821C9F808B0C0E9CB
:1018400000814FF48061C0E903A15D48D14614389E
:10185000FFF7C6F81820FEF7C7FC2A288BD1DFF85F
:1018600058815748554AC8F82050C8E90449C0E98A
:101870000024019A01211201C0E90229C0E9049162
:101880004746FFF733F8F86802282DD0464601286E
:101890005AD0D8B380E0FFE729205EE74FF48040BC
:1018A000FFF752F8F8B1D8F81000801B20280FD2AB
:1018B00081074FEA900400D0641C002705E02868E7
:1018C000FFF7AEF87F1C2D1D361DA74210D2F6E79C
:1018D0005FF0000455F82400FFF7A2F8641C082C00
:1018E000F8D32035203603E0DFF8D89040F21A6AAA
:1018F000D9F8341011EA0A0FD0D00820FFF724F8E5
:1019000028B10820FEF7DAFF042026E72BE00220AA
:10191000FFF71AF820B10220FEF7D0FF02201CE7E3
:101920001020FFF711F820B11020FEF7C7FF0520A7
:1019300013E74FF400742046FFF706F860B3204623
:10194000FEF7BCFF072008E7012144F21A30FFF739
:101950001FF8B06910B930782A28FAD030782A28D0
:101960001AD03078F9E6012140F21A30FFF710F86A
:1019700021462846FEF76EFD0120FEF7B1FF124C0E
:101980002046FEF70BFD0028FAD0B0690028E5D10B
:1019900030782A28F9D0E1E740F2FF50FEF78EFFB9
:1019A0006846FEF74BFE2A28AFD19DF800100729A4
:1019B000F6D00629F4D0D0E600000020FFFF0F008B
:1019C0009000002000800140002000102DE9FC5F05
:1019D00081464FF000000C0015461E468DF80000B1
:1019E000074669D0DFF8F0822A2288F80020C8F87C
:1019F0001800BB49B94AC8F81000C1E90020886046
:101A0000C860086148610846FEF770FF0020FEF7D5
:101A100067FF0020FEF7B4FF800102D50E20BDE86D
:101A2000FC9FD8F80400022807D0681EB0F5006FAC
:101A300042D2681E054205D03EE04FF400754FEAE1
:101A40005929F6E7284600F027FBDFF894B2019009
:101A5000ABF1140B1021CBE900514FF0400A0021EB
:101A6000CBE902A14FF480615846CBF81010FEF785
:101A7000B7FF1020FEF7B8FB2A28D0D1964880681F
:101A80000104CBF800100D21CBE9011A0021CBF89D
:101A90000C104FF480615846CBF81010FEF7A0FFF1
:101AA0000D20FEF7A1FB2A28B9D1012E67D906FB2C
:101AB00005F8B8F1007F01D32620B0E7864D6868AD
:101AC00018B1012801D0022829D1A8680104CBF857
:101AD00000103721CBE9011A0021CBF80C10804807
:101AE0004FF480611438CBF81010FEF779FF3720DF
:101AF000FEF77AFB2A2892D11721CBE90061002159
:101B0000CBE902A176484FF480611438CBF810106D
:101B1000FEF766FF1720FEF767FB2A28CDD11921B3
:101B2000CBE9009140214FF0000ACBE9021A6C4842
:101B300009011438CBF81010FEF752FF1920FEF7F8
:101B400053FB2A28B9D101222C626548C5E90482D9
:101B50006249C0E900180199A94609018160C0F8ED
:101B60000CA0C0E904A25146FEF7C0FEE96840F2AD
:101B70001A3002292AD04D46012974D0A9B39AE01F
:101B80004FF48040FEF7E0FE08B3D9F81000C01B08
:101B900020280BD35FF0000554F82500FEF740FF26
:101BA0006D1C082DF8D32034203710E081074FEA50
:101BB000900600D0761C002505E02068FEF730FF77
:101BC0006D1C241D3F1DB54201D2F6E780464548F5
:101BD000406B10EA080FD3D00820FEF7B5FE28B1FD
:101BE0000820FEF76BFE042019E74BE00220FEF709
:101BF000ABFE20B10220FEF761FE02200FE71020AD
:101C0000FEF7A2FE20B11020FEF758FE052006E7E1
:101C10004FF400742046FEF797FE20B12046FEF7F1
:101C20004DFE0720FBE64FF48070FEF78DFEF0B30B
:101C3000D9F8040018B1012801D002283BD10C22A8
:101C4000CBE900A24022CBE9022A25481101143831
:101C5000CBF81010FEF7C4FE0C20FEF7C5FA2A28B8
:101C6000C2D128E0FFE7012144F21A30FEF790FECE
:101C7000A86910B928782A28FAD028782A281AD0F2
:101C80002878CCE60121FEF783FE0120FEF728FE2E
:101C900041462046FEF7DEFB134C2046FEF77EFB56
:101CA0000028FAD0A8690028E7D1287800E002E0EF
:101CB0002A28F7D0E1E740F2FF50FEF7FFFD684623
:101CC000FEF7BCFC2A288FD19DF800100729F6D01A
:101CD0000629F4D0A3E6000000000020FFFF0F005B
:101CE000900000200080014000200010704700009C
:101CF00022480021026842F4803202604FF4A0635F
:101D00000268491C12F4003F01D19942F8D10168E0
:101D1000890331D51A490A6842F010020A600A683C
:101D200022F003020A600A6842F002020A60416877
:101D3000416041684160416841F4806141604168AF
:101D400021F47C114160416841F4E811416001686F
:101D500041F08071016001688901FCD5416821F082
:101D600003014160416841F0020141604168C1F3F3
:101D700081010229FAD17047FEE7000000100240FD
:101D800000200240704700000C48016841F001014A
:101D9000016041680A4A114041600168094A1140E6
:101DA0000160016821F480210160416821F4FE0195
:101DB000416000218160FFF79BBF000000100240DE
:101DC0000000FFF8FFFFF6FE10B511484FF4E131B7
:101DD000104C016000218180C180018181810C2132
:101DE00041810146204600F041F8012240F2255190
:101DF000204600F022F8012240F22771204600F030
:101E00001CF82046BDE81040012100F005B8000094
:101E1000A8000020003801400029818902D041F447
:101E2000005101E021F400518181704702460020F9
:101E300012880A4200D00120704710B5C1F3421346
:101E400001F01F040121A140012B07D0022B07D074
:101E50001430002A026805D00A4304E00C30F8E789
:101E60001030F6E78A43026010BD000030B504462A
:101E7000008A85B00D464CF6FF710840E9880143A1
:101E80002182A1894EF6F3100140A8882A891043C7
:101E90006A890A431043A081A08A4FF6FF41084097
:101EA000A9890143A1826846FEF7BCFC114884421F
:101EB00001D1039800E00298642200EBC00101EB1D
:101EC000001029686FF018038900B0FBF1F0B0FB37
:101ED000F2F109010D095D43322300EB850003EBAC
:101EE0000010B0FBF2F000F00F000843208105B0B5
:101EF00030BD000000380140C1F308018180704707
:101F0000FEE700000FB4054B10B503A9044A029880
:101F100000F018F810BC5DF814FB0000C5200008A4
:101F20004000002002E008C8121F08C1002AFAD1B0
:101F300070477047002001E001C1121F002AFBD149
:101F4000704700002DE9FF4F89B004469B460025ED
:101F500097E0252832D10027641C4E4AB84601215B
:101F60002378203B01FA03F0104202D00743641C9F
:101F7000F6E720782E2819D114F8010F47F004074E
:101F80002A280ED06FF02F022078A0F13001092905
:101F90000CD808EB880102EB410100EB0108641C3E
:101FA000F2E70A98641C50F8048B0A902078F0B38A
:101FB000642808D0692806D075281FD05A460B9986
:101FC00090476D1C5CE00A994FF00A0901C90A911B
:101FD000002804DAC0F100004FF02D0102E03905BD
:101FE00004D52B218DF82010012104E0F90701D040
:101FF0002021F7E700218A4608AE0CE00A994FF04D
:102000000A0901C90A91F5E74946FEF7B3F801F15B
:10201000300106F8011D0028F6D1ADEB060000F1F5
:102020002009780701D44FF00108002000E02CE0DF
:1020300041464A46C84500DD881A8046002706E02A
:1020400008A85A46C05D0B9990476D1C7F1C5745E8
:10205000F6DB04E030205A460B9990476D1CB8F12E
:102060000001A8F10108F5DC05E016F8010B5A465D
:102070000B9990476D1CB9F10001A9F10109F4DC3D
:10208000641C207800287FF464AF0DB02846BDE8BA
:10209000F08F000009280100002102E04008491CDF
:1020A000C9B20128FAD10846704704E002680AB1B3
:1020B00000207047001D0A00A1F1010189B2F5D18D
:1020C0000120704770B5074D0446C1B22846FFF79E
:1020D00013FF40212846FFF7A9FE0028F9D020462B
:1020E00070BD000000380140FFF74EFEFEF734FBE4
:1020F000FEF752FE614CE070FFF766FE604F202154
:102100003846FEF795FAE0782A2806D15DA0FFF759
:10211000F9FE6248FEF708FDE070C1B260A0FFF76B
:10212000F1FE5E4D65A095F84E10FFF7EBFEE078EE
:102130002A2816D165A0FFF7E5FEB5F84C0000048B
:10214000FFF7ACFAE0702A280BD168A0FFF7DAFE9F
:10215000E0782A2805D14FF480610020FEF766FC64
:10216000E070C1B26AA0FFF7CDFEE17868A0FFF78A
:10217000C9FEE0782A2806D16CA0FFF7C3FE002034
:10218000FFF7A2FAE070C1B26FA0FFF7BBFEE078E4
:102190004FF400752A2809D173A0FFF7B3FE02237C
:1021A0002A467A490020FFF74FF9E070C1B278A0C3
:1021B000FFF7A8FEE0784FF480762A280FD120217F
:1021C0003846FEF737FA78A0FFF79CFE31466F4895
:1021D000FFF76BFF207021787DA0FFF793FE2F485B
:1021E000854A80215030FEF766F9E0782A2820D110
:1021F0006DA0FFF787FE29492A4650310020FFF7DE
:1022000085FAE0702A2814D17CA0FFF77BFE2A46CD
:1022100083490020FFF718F8E0702A2809D181A02F
:10222000FFF770FE7E498022A1F50070FDF7CAFF1E
:102230006070002231468448FEF73DF9E0782A2894
:102240001AD102232A4680490020FFF7BFFBE07025
:102250002A2811D102232A464C490020FFF7F4F81E
:10226000E0702A2808D1324648497748FDF7AAFF8E
:10227000A07076A0FFF746FEFEE7000028000020D1
:10228000000C01400A53445F496E69742066696E10
:1022900069736865642E2E2E2E2E2000B800002053
:1022A0000D0A53445F47657443617264496E666FFB
:1022B0002E2E2E2E2E202564000000000D0A090966
:1022C00020696E666F2E2E25640000000A53445F5D
:1022D00047657443617264496E666F2066696E6912
:1022E000736865642E2E2E2E2E2000000D0A534496
:1022F0005F53656C656374446573656C65637420D6
:1023000066696E69736865642E2E2E2E2E0A200073
:102310000D0A53445F5365744465766963654D6F78
:1023200064652E2E2E2E2E20256400000D0A5344A7
:102330005F45726173652066696E69736865642EB6
:102340002E2E2E2E0A2000000D0A53445F52656186
:10235000644D756C7469426C6F636B732E2E2E2EF8
:102360002E202564000000000D0A53445F5365745D
:102370004465766963654D6F64652066696E69734F
:102380006865642E2E2E2E2E0A20000008090020DB
:102390000D0A65427566666572636D702E2E2E2E6F
:1023A0002E202564000000000D0A53445F52656131
:1023B000644D756C7469426C6F636B732066696EF3
:1023C00069736865642E2E2E2E2E0A2000000000F0
:1023D0000D0A204572617365537461747573203DF5
:1023E0002065427566666572636D702E2E2E2E2EE8
:1023F00025640A2000000000785634120D0A534468
:102400002053445F5772697465426C6F636B20663A
:10241000696E69736865642E2E2E2E2E0A200000C8
:10242000080300200D0A53442053445F5265616441
:10243000426C6F636B2066696E69736865642E2EEB
:102440002E2E2E0A20000000080500200D0A5344FD
:10245000205344494F2D31626974C4A3CABD20B2D0
:10246000E2CAD45446BFA8B6C1D0B4B3C9B9A6A372
:10247000A1200A200000000098240008000000208D
:1024800044000000241F0008DC2400084400002051
:10249000C40E0000341F00082A00000000000000E5
:1024A000000000000200000000000000000000002A
:1024B000000000000000000000000000000000001C
:1024C0000000002A020406080000000001020304C4
:0C24D000010203040607080900000000D8
:0400000508000131BD
:00000001FF
