:020000040800F2
:10000000004B0020A9020008ED000008EF000008E6
:10001000F1000008F3000008F500000800000000EF
:10002000000000000000000000000000F7000008D1
:10003000F7000008F70000087B010008890D0008A0
:10004000CD05000855050008790500086105000880
:10005000370500085B0500080D05000813050008BA
:100060001F050008250500082B050008E30400080B
:10007000E9040008EF040008F5040008FB04000888
:100080000105000807050008D1040008C1050008A3
:10009000C7050008D7040008DD0400083105000882
:1000A0007F050008910500088B05000885050008FC
:1000B000970500089D050008A305000843050008F2
:1000C0003D0500084F050008490500086D050008BA
:1000D00073050008A9050008AF050008B50500086C
:1000E0001905000867050008BB050008FEE7FEE7E4
:1000F000FEE7FEE7FEE7FEE7DFF80CD000F0A2F82F
:100100000048004731180008004B002072B67047C5
:1001100062B67047EFF3108072B6704780F31088B4
:100120007047B0FA80F0704790FAA0F0704730BF87
:10013000704720BF70470000EFF3108072B6704721
:1001400080F3108870471D484FF0FF0101700020B8
:1001500080F309881A48012101701A484FF0805134
:10016000016062B6FEE717484FF0805101607047AA
:1001700014484FF080510160704772B6EFF3098068
:1001800028B1203880E8F00F0F490968086000B5F1
:100190000E4880475DF804EB0D480E490A7802705E
:1001A00009480D490A680260106890E8F00F203095
:1001B00080F309884EF0040E62B6704722ED00E02D
:1001C0001B00002004ED00E038000020D90B0008DF
:1001D0001800002019000020400000202DE9F05FE9
:1001E0000546002092469B468846064681464024A6
:1001F0001DE0284641464746224600F044F8B0EB51
:100200000A0052465B4671EB0B0110D310461946AB
:10021000224600F029F82D1A67EB01084F462246C6
:100220000120002100F020F817EB00094E41201EAC
:10023000A4F10104DDDC484631462A464346BDE8C8
:10024000F09F0000064C074D06E0E06840F0010317
:1002500094E8070098471034AC42F6D3FFF750FFFC
:10026000B0190008D0190008202A04DB203A00FA4F
:1002700002F1002070479140C2F1200320FA03F3FD
:10028000194390407047202A04DB203A21FA02F0FB
:100290000021704721FA02F3D040C2F120029140C0
:1002A000084319467047000000480047F90000085D
:1002B00070B526A001F07CF92BA001F079F900F0CF
:1002C0005EFD3049A1FB0021C908494201EB8101D3
:1002D00000EB410500F053FD2B49A1FB002149092A
:1002E0006FF01802514300EB8100284981FB001098
:1002F0008110A1EBE07400F042FD4AF2D73100FB1F
:100300000110810D2B46224621A001F051F94FF436
:100310007A7126A001F04CF92948017829A001F052
:1003200047F900F0A3F82D49B0FBF1F12CA001F042
:100330003FF93148016831A001F03AF934480168C9
:10034000BDE8704033A001F033B900000D0A202051
:100350004D69637269756D2075432F4F532D49495F
:1003600020200D0A00000000202053542053544D3B
:1003700033322028436F727465782D4D33290D0A6E
:100380000D0A0000CDCCCCCC1F85EB5167666666AC
:10039000202075432F4F532D49493A202056256C74
:1003A000642E256C64256C640D0A000020205469BD
:1003B000636B526174653A20256C6420200D0A003D
:1003C0001400002020204350552055736167653A82
:1003D00020256C6425202020200D0A0040420F00BB
:1003E00020204350552053706565643A256C642085
:1003F0004D487A20200D0A00480000202020235478
:1004000069636B733A20256C6420200D0A0000009C
:100410002000002020202343747853773A20256C55
:100420006420200D0A0D0A007047704770470000D5
:1004300000F0BCFC00F0F6F90A4C4021204600F028
:1004400072F9002264231146104600F0F5FB4021AA
:10045000204600F066F9002264231146104600F0A1
:10046000EBFBEAE7001001407047704700B585B02C
:10047000684600F04BFF019805B000BD10B500F0D4
:10048000EDFE00F0BDF800F050F9BDE810404FF46B
:10049000E13001F01BB8FFF739BE000010B504468B
:1004A000FFF738FE08490A78521C0A70FFF736FE3B
:1004B0002A2C04D2054850F8240000B18047BDE83A
:1004C000104000F06BB900001600002080020020F0
:1004D0001220FFF7E3BF1520FFF7E0BF1620FFF75C
:1004E000DDBF0B20FFF7DABF0C20FFF7D7BF0D20D1
:1004F000FFF7D4BF0E20FFF7D1BF0F20FFF7CEBF0D
:100500001020FFF7CBBF1120FFF7C8BF0620FFF771
:10051000C5BF0720FFF7C2BF2820FFF7BFBF0820D5
:10052000FFF7BCBF0920FFF7B9BF0A20FFF7B6BF2E
:100530001720FFF7B3BF0420FFF7B0BF2020FFF75D
:10054000ADBF1F20FFF7AABF2220FFF7A7BF2120C2
:10055000FFF7A4BF0120FFF7A1BF0520FFF79EBF53
:100560000320FFF79BBF2920FFF798BF2320FFF749
:1005700095BF2420FFF792BF0220FFF78FBF1820FE
:10058000FFF78CBF1B20FFF789BF1A20FFF786BF3C
:100590001920FFF783BF1C20FFF780BF1D20FFF746
:1005A0007DBF1E20FFF77ABF2520FFF777BF2620EB
:1005B000FFF774BF2720FFF771BF2A20FFF76EBF38
:1005C0001320FFF76BBF1420FFF768BF0020FFF771
:1005D00065BF000004490A6822F010020A600A6838
:1005E000104308607047000000200240034A116871
:1005F00001F03801084310607047000000200240FD
:1006000038B54020ADF8000003248DF802401020DA
:100610008DF803006946114800F026F84820ADF82F
:10062000000069460E4800F01FF84FF48060ADF8F6
:10063000000004208DF803000A4D6946284600F0AA
:1006400013F86915ADF800108DF8024018218DF8E7
:1006500003106946284600F007F838BD0010014035
:1006600000140140000801402DE9F001002291F83A
:1006700003C00CF00F031CF0100F03D091F802C060
:100680004CEA0303B1F800C04FF00F071CF0FF0F56
:100690004FF001061ED0046806FA02FC0D8805EA38
:1006A0000C05654512D1950007FA05F824EA0804FF
:1006B00003FA05F52C43CD78282D02D0482D03D020
:1006C00004E0C0F814C001E0C0F810C0521C082AB1
:1006D000E2D304600A88FF2A20D94468002202F18C
:1006E000080C06FA0CFC0D8805EA0C05654511D1CD
:1006F000950007FA05F824EA080403FA05F52C43E7
:10070000CD78282D01D1C0F814C0CD78482D01D165
:10071000C0F810C0521C082AE1D34460BDE8F001C3
:100720007047416170470161704710B500214FF07B
:10073000006000F011F8BDE810404FF4E06000F0F8
:1007400001B80000034940F0FD7040F0806008608F
:10075000704700000CED00E021F07F0121F06041C6
:10076000084301490860704708ED00E010B500F04B
:1007700012F800F079FB00F087FB00F099FB00F025
:100780004DFB00F027FB00F0BFFB00F0E5FBBDE8F0
:10079000104000F001B870477047000070B5134C6E
:1007A000E079012821D1FFF7C7FC0546A17809B1FE
:1007B000481EA070A07898B9E07888B900F022FCB3
:1007C0006179207981420BD0094850F82110E1620B
:1007D000886B401C8863E068401CE060FFF7C8FC41
:1007E0002846BDE87040FFF7ABBC70BD1400002088
:1007F0008008002010B5094CE07900280CD100F0E9
:1008000001FC60792071064951F82000E0626062C5
:10081000BDE81040FFF797BC10BD00001400002099
:100820008008002010B5022000F0D8F9FFF784FC02
:10083000084C00212162FFF783FC642000F0CEF910
:10084000FFF77AFC216A616101216170BDE8104007
:10085000FFF776BC14000020FFF7E6BD2DE9F0415C
:1008600084B005460F4690461C46FFF765FC1D49BF
:10087000097829B1FFF764FC04B03C20BDE8F081A1
:10088000194E56F8241029B1FFF75AFC04B028205D
:10089000BDE8F081012146F82410FFF751FC002348
:1008A00042463946284600F00FF9002301460093DE
:1008B00001931A462046029300F0D0FB054655B13D
:1008C000FFF73AFC002146F82410FFF739FC04B08A
:1008D0002846BDE8F081054800780128F7D100F0EE
:1008E0006DFBF4E716000020800800201B000020AC
:1008F0002DE9FF4F83B083461C46DDF84CA0DDF8A0
:100900004890DDF84080149F119DFFF715FC2149A8
:10091000097829B1FFF714FC07B03C20BDE8F08F3F
:100920001D4E56F8241029B1FFF70AFC07B0282005
:10093000BDE8F08F012146F82410FFF701FC3A468C
:100940004946284600F06CFC3B465846059A0499F7
:1009500000F0BAF8014643462A462046CDF804A0E6
:10096000CDF80090029700F079FB054655B1FFF7EE
:10097000E3FB002146F82410FFF7E2FB07B028460E
:10098000BDE8F08F054800780128F7D100F016FB8C
:10099000F4E7000016000020800800201B00002063
:1009A000FFF743BDFFF742BD2DE9F04105460F4675
:1009B00014461D48007818B112202070BDE8F0815F
:1009C000FFF7BAFB8046FF2D03D11848006890F866
:1009D0003250174850F8255043266DB1012D11D0E3
:1009E000384600F02FFB0F2812D94046FFF7A8FB2E
:1009F00041202070BDE8F0814046FFF7A1FB267042
:100A0000BDE8F0814046FFF79BFB2670BDE8F08112
:100A1000394605F14C0000F005FB4046FFF790FB1E
:100A200000202070BDE8F081160000203800002072
:100A300080080020FFF718BD2DE9F04104460D465F
:100A4000002028606860FFF777FB0146FF2C03D188
:100A50001B48006890F832401A4850F8240078B1DA
:100A6000012813D0028A12F0010F15D00024C668A5
:100A700087680846FFF764FB3968381D91B116E0B6
:100A80000846FFF75DFB4320BDE8F0810846FFF70D
:100A900057FB4320BDE8F0810846FFF751FB452096
:100AA000BDE8F081641C50F8041B0029FAD0A000B6
:100AB0002860301B800068600020BDE8F0810000E5
:100AC00038000020800800204FF08073136042F847
:100AD000040D6FF00103101F42F8043C4FF0123276
:100AE00040F8042D4FF0033240F8042D4FF002324D
:100AF00040F8042D521040F8042D40F8041D4FF02A
:100B0000113140F8041D110140F8041D4FF0093166
:100B100040F8041DD10040F8041D4FF0073140F8A3
:100B2000041D4FF0063140F8041D4FF0053140F828
:100B3000041D910040F8041D7047000070B5044684
:100B4000FFF7FAFA84462048FF2C06D0006890F898
:100B50003200A04206D1012505E0006890F832403D
:100B6000012500E00025194850F8240058B101285B
:100B70000ED090F83410164B90F835405A5CA243D2
:100B80005A5452B110E06046FFF7DAFA482070BDBF
:100B90006046FFF7D5FA432070BD0E4990F8362025
:100BA0000B7823EA02020A7090F8301041F0080135
:100BB00080F830106046FFF7C3FA012D01D100F034
:100BC000FDF9002070BD00003800002080080020E2
:100BD000300000201A000020FFF747BC70B5044623
:100BE0001148007800281ED1002C1CD0FFF7A4FA71
:100BF00084460E48016891F834200D4891F835502C
:100C0000835CAB43835433B90A4891F836200378A8
:100C100023EA02020270CC856046FFF791FABDE834
:100C2000704000F0CBB970BD1600002038000020E5
:100C3000300000201A00002010B5DFF860C09CF8DA
:100C400000C0BCF1000F01D0552010BD4FF47A7CDC
:100C500003FB0CF3B3FBFCF34FF4616C00FB0CF0F3
:100C6000C1EB011100EB8100104400EB4001C1EB2E
:100C7000C01003EBC000040C80B2FFF7AFFF5CB103
:100C80004FF40040FFF7AAFF4FF40040FFF7A6FF24
:100C9000601E84B2002CF3D1002010BD160000208D
:100CA00010B50446FFF748FA02490C60BDE8104051
:100CB000FFF746BA480000202DE9F04100F05EF849
:100CC000FFF73AFA2B4D696B491C6963FFF738FA55
:100CD000E87901284BD1687A01260027C0B10128A4
:100CE00018D0022818D001206F7200283FD02C6B3A
:100CF00094F832001F283AD0DFF87C80FFF71CFA06
:100D0000E18D69B3491E0904090CE18507D027E08C
:100D10000120EAE70020E8E701206E72E5E794F899
:100D2000301011F0370F06D021F0370184F8301061
:100D300084F8316001E084F8317094F8301011F0DB
:100D4000080F0DD194F83610AA791143A97194F8BF
:100D5000341094F8353018F801201A4308F80120AF
:100D60006469FFF7EDF994F832001F28C6D1BDE899
:100D7000F0810000140000203000002070474FF484
:100D80008F707047FFF772BB10B5FFF7D5F90649B2
:100D90000A78521C0A70FFF7D3F9FFF78DFFBDE800
:100DA0001040FFF7FBBC00001600002010B5FFF755
:100DB000E9FF4FF47A71B0FBF1F0411E4FF0E020F3
:100DC0004161016941F005010161016941F00201E0
:100DD000016110BD10B58C210E4800F0E5F80D48FA
:100DE000044604F11C02002100234FF03F0C037065
:100DF000426080F80AC0C3721C301C32491C89B2A0
:100E00000429F4D30370436080F80AC0C372024817
:100E1000046010BD800D00204C00002010B54FF480
:100E2000A0710F4800F0C0F80D48044604F12002FC
:100E3000002100234FF03F0C0370426080F80FC088
:100E4000037420302032491C89B20929F4D303707D
:100E5000436080F80FC003740248046110BD0000B5
:100E600040030020140000200648002141638170E7
:100E7000C1700172C171C1600162816141614170E3
:100E80007047000014000020084B00229A7103F103
:100E90001C01002001F8012B401CC0B20428F9D32A
:100EA0001A715A71DA625A62704700001400002009
:100EB00010B54FF48A61114800F076F8802110488F
:100EC00000F072F80D48044604F15C020021002392
:100ED0004FF03F0C426180F84CC080F84D305C30E0
:100EE0005C32491CC9B20B29F4D3436180F84CC071
:100EF00080F84D3003480363846210BD0009002070
:100F0000800800201400002000B587B003230022D1
:100F1000CDE903230A4880214FF6FF730291019027
:100F2000009300F5FE721F2300210648FFF7E0FC46
:100F300006AA05A11F20FFF737FD07B000BD00007E
:100F4000800600206911000875432F4F532D494931
:100F50002049646C6500000000B587B003230022BF
:100F6000CDE903230A4880214FF6FE7302910190D8
:100F7000009300F5FE721E2300210648FFF7B8FC1F
:100F800006AA05A11E20FFF70FFD07B000BD000057
:100F9000800400208511000875432F4F532D4949C7
:100FA0002053746174000000002906D0002200F86C
:100FB000012B491E89B20029F9D1704770B5FFF79E
:100FC000BBF805460D4CA07898B9E07888B900F0D8
:100FD00019F86179207981420BD0094850F8211025
:100FE000E162886B401C8863E068401CE060FFF7AA
:100FF000BAF82846BDE87040FFF7A2B814000020F8
:10100000800800200649054A8879105C01F11C031C
:101010001B5CD25C02EBC00048717047B01800083E
:101020001400002000220B7843B111F8013B00F8B6
:10103000013B521CD2B20B78002BF6D1002101707B
:1010400010467047002102782AB1401C491CC9B2E1
:101050000278002AF9D10846704700002DE9FF5FA9
:1010600006460D469346DDF84090DDF83C800E9F25
:10107000FFF762F8DFF8E4A0DAF82840ECB3616922
:10108000CAF82810FFF75CF8256084F83260002564
:1010900084F8305084F83150E585C4F80480E76066
:1010A000C4F808B0A4F810900398608284F8375010
:1010B000F00884F8340006F0070184F833100122A8
:1010C00002FA00F084F8360002FA01F084F83500E4
:1010D000E5612562A5626562A5632564E5636564D3
:1010E000A5643F2084F84C0084F84D502046FFF75B
:1010F000B3FB2046FFF754FC00E029E0FFF71CF8A3
:101100000246174840F82640DAF830006061A561D1
:1011100000B18461CAF8304094F836009AF806109D
:1011200008438AF8060094F834000E4994F835C054
:101130000B5C43EA0C030B549AF80800401C8AF835
:1011400008001046FEF7FCFF04B00020BDE8F09F49
:10115000FEF7F6FF04B04220BDE8F09F1400002027
:101160008008002030000020054CFEF7E5FF216AD2
:10117000491C2162FEF7E4FFFFF714FCF5E70000CD
:1011800014000020154C607828B9C820FFF726FD10
:1011900060780028F9D012496069A1FB001040096D
:1011A0006061002518B92570FF20FFF7C7FCFEF726
:1011B000C3FF216AA1612562FEF7C2FF6169A069D0
:1011C000B0FBF1F0C0F164002070FFF733FC00F0D9
:1011D00009F86420FFF702FDE9E700001400002091
:1011E0001F85EB5130B583B000240C4D6946204675
:1011F000FFF722FC58B955F8241041B1012906D057
:10120000CA68886800EB8200486401988864601CA2
:10121000C4B21F2CEAD903B030BD00008008002002
:1012200012F0010F0AD012F0020F07D0002905D0EA
:101230000022491E40F8042B0029FAD17047000013
:10124000054A19B19169084390617047916921EA93
:1012500000009061704700000010024010B500F0DF
:1012600037F84FF4803000F0D5F800F01DF9012870
:1012700024D11020FFF7AEF90220FFF7B7F90020C4
:1012800000F0BEF8002000F0EBF84FF4806000F0B2
:10129000DDF84FF4E0114FF4803000F0F1F8012058
:1012A00000F0E8F8392000F08BF80028FAD002208E
:1012B00000F0F0F800F09CF80828FBD101213C2058
:1012C000FFF7BEFF0121BDE810408803FFF7B8BF5C
:1012D0000C48016841F00101016041680A4A11406F
:1012E0004160016821F4102121F0807101600168E2
:1012F00021F480210160416821F4FE014160002158
:1013000081607047001002400000FFF8284A5168D1
:1013100001F00C01274B61B304292CD008292CD0F3
:101320000360516801F0F0010909DFF88CC01CF876
:101330000110036823FA01F14160536803F4E0638C
:101340001B0A1CF8033021FA03F38360536803F48B
:101350006053DB0A1CF80330D940C160526802F4C4
:101360004042920BACF104039A5CB1FBF2F10161D3
:1013700070470360D5E70360D3E7516801F470114B
:10138000022303EB9141536803F480333BB153686C
:1013900013F4003F07D0094B59430160C1E7074BE5
:1013A00059430160BDE7034B59430160B9E70000B1
:1013B0000010024000127A000400002000093D00E5
:1013C00000224109094B01290CD002290CD0596A8D
:1013D00000F01F00012303FA00F0084200D00122B0
:1013E000104670471968F3E7196AF1E700100240E8
:1013F0000248406800F00C007047000000100240F6
:10140000034A516821F0F001084350607047000022
:10141000001002400C490A6822F480320A600A680F
:1014200022F480220A60B0F5803F07D0B0F5802F0B
:1014300003D1086840F4A02008607047086840F4B1
:10144000803008607047000000100240034A516875
:1014500021F4E06108435060704700000010024032
:10146000034A516821F4605141EAC000506070475E
:101470000010024001490866704700000000424227
:10148000034B5A6822F47C1208431043586070479B
:1014900000100240034A516821F0030108435060E4
:1014A000704700000010024010B500243120FFF703
:1014B00087FF641C10B9B4F5A06FF7D13120FFF796
:1014C0007FFF08B1012010BD002010BD10B584B011
:1014D00000900020ADF80400ADF80600ADF808005B
:1014E000ADF80C000C20ADF80A00054C694620460A
:1014F00000F014F80121204600F004F804B010BDFB
:101500000038014021B1818941F400518181704747
:10151000818921F4005181817047000030B585B088
:1015200004460D46208A4CF6FF710840E9880843BE
:101530002082A0894EF6F3110840A9882A89114318
:101540006A8910430843A081A08A4FF6FF410840F2
:10155000A9890843A0826846FFF7D8FEA4F180401D
:10156000B0F59C3001D1039800E0029800EBC00177
:1015700001EB001029688900B0FBF1F00B4AA2FBD7
:101580000031490909010B096FF0180C03FB0CF33A
:1015900000EB8300322303EB0010A2FB0020C0F31A
:1015A00043100843208105B030BD00001F85EB517A
:1015B0000FB4054B10B503A9044A029800F018F8BF
:1015C00010BC5DF814FB0000151800085000002046
:1015D00002E008C8121F08C1002AFAD170477047FC
:1015E000002001E001C1121F002AFBD1704700005A
:1015F0002DE9FF4F8BB004469A460F460026FFE0C8
:10160000252850D10025641C814AA8460121237851
:10161000203B01FA03F0104202D00543641CF6E7B8
:1016200020782E2817D114F8010F45F004052A2838
:101630000ED06FF02F022078A0F1300109290AD8CE
:1016400008EB880102EB410100EB0108641CF2E7A2
:1016500057F8048B641C20786C280DD004DC4C28CF
:1016600012D06A2811D104E074280DD07A280CD148
:101670000AE045F4001507E0617845F480158142E1
:1016800002D1641C05F58015641C207869283ED0C1
:1016900005DC98B363280CD0642804D137E07328A4
:1016A00010D075285CD052460D99904706F101067E
:1016B000A5E001CF8DF8000000208DF80100E9467B
:1016C000012003E057F8049B4FF0FF3069074FF00B
:1016D000000501D40AE06D1C45450DDA8542FADBB0
:1016E00019F805100029F6D106E06D1C8542FCDBD7
:1016F00019F805100029F8D12E4405E084E019F806
:10170000010B52460D9990476D1EF8D277E00020EC
:101710000A90C5F302504FF00A0B02280AD001CFFD
:10172000C11700290DDA0023D0EB030063EB0101A0
:101730002D2209E007F1070727F00707F7E8020164
:10174000EFE72A0504D52B228DF82420012203E09F
:10175000EA070FD02022F7E70DF12009089219E0DF
:1017600000200A90C5F302504FF00A0B022803D064
:1017700001CF00210022EFE7FF1D27F00707F7E860
:101780000201F7E75A460A9BFEF728FD02F13002F4
:1017900009F8012D50EA0102F4D1ADEB090000F186
:1017A000200B680701D44FF00108002041465A463B
:1017B000D84500DD881A8046002506E009A8524673
:1017C000405D0D999047761C6D1C08988542F5DBAD
:1017D00004E0302052460D999047761CB8F1000184
:1017E000A8F10108F5DC05E019F8010B52460D9946
:1017F0009047761CBBF10001ABF1010BF4DC641CDB
:10180000207800287FF4FCAE0FB03046BDE8F08FA2
:10181000092801000549B1F8002812F0800FFAD01C
:10182000C0F30802A1F8042870470000003001400E
:1018300008B5FEF730FEFEF799FFFEF71FFEFEF734
:1018400037FD0CA0FFF7B4FE02230E4A00210E481C
:10185000FFF704F800900DA0FFF7AAFE6A4611A159
:101860000220FFF7A1F80020FFF71AFAFEF7C2FFE7
:10187000002008BD4F5320496E6974204F4BA3A12F
:101880000D0A00007C0200203104000843726561EB
:1018900074204170705F5461736B5374617274A3F0
:1018A000A10D0A005374617274205461736B0000BF
:1018B000000001000200010003000100020001001D
:1018C0000400010002000100030001000200010009
:1018D00005000100020001000300010002000100F8
:1018E00004000100020001000300010002000100E9
:1018F00006000100020001000300010002000100D7
:1019000004000100020001000300010002000100C8
:1019100005000100020001000300010002000100B7
:1019200004000100020001000300010002000100A8
:101930000700010002000100030001000200010095
:101940000400010002000100030001000200010088
:101950000500010002000100030001000200010077
:101960000400010002000100030001000200010068
:101970000600010002000100030001000200010056
:101980000400010002000100030001000200010048
:101990000500010002000100030001000200010037
:1019A0000400010002000100030001000200010028
:1019B000D01900080000002054000000D0150008D5
:1019C000241A000854000020B80D0000E01500089B
:1019D00002040608000000000102030401020304DF
:1019E00006070809000000000000000000000000D9
:1019F00000000000000000000000000000000000E7
:101A000000000000000000000000000000000000D6
:101A100000000000000000000000000000000000C6
:041A200000000000C2
:04000005080002A944
:00000001FF
