:020000040800F2
:1000000000040020470100088B0600086D05000869
:1000100089060008ED010008711F000800000000BB
:10002000000000000000000000000000991C000813
:10003000BD040008000000001D080008451E00085F
:1000400067010008670100086701000867010008F0
:1000500067010008670100086701000867010008E0
:1000600067010008670100086701000867010008D0
:1000700067010008670100086701000867010008C0
:1000800067010008670100086701000867010008B0
:1000900067010008670100086701000867010008A0
:1000A0006701000867010008670100086701000890
:1000B0006701000867010008670100086701000880
:1000C0006701000867010008670100086701000870
:1000D0006701000867010008670100086701000860
:1000E0006701000867010008670100086701000850
:1000F0006701000867010008670100086701000840
:1001000067010008D10900086701000867010008BD
:10011000670100086701000867010008670100081F
:10012000670100086701000867010008670100080F
:10013000DFF80CD000F048F800480047E52D000833
:1001400058090020704708488047084981F308880B
:1001500007480047FEE7FEE7FEE7FEE7FEE7FEE7AB
:10016000FEE7FEE7FEE7FEE745010008580900202C
:1001700031010008D2B201E000F8012B491EFBD288
:1001800070470022F6E710B50446084611460246BD
:100190002046FFF7EFFF204610BD30B50B46014665
:1001A00000202022012409E021FA02F59D4205D316
:1001B00003FA02F5491B04FA02F52844151EA2F1C0
:1001C0000102F1DC30BD0000064C074D06E0E0689E
:1001D00040F0010394E8070098471034AC42F6D38E
:1001E000FFF7AAFF0C3100082C310008FEE70000E1
:1001F00070B5374905462A24486B10F0450FFBD0EF
:10020000410702D50324042003E0C00704D00124E1
:10021000204600F075FB59E000F0B2FBA8422BD15C
:1002200040F2FF5000F06CFB002000F0CBFB2949AE
:1002300008424BD0002801DA1C2070BD410001D5D6
:10024000092070BD810001D50A2070BDC10001D513
:100250000B2070BD010101D50C2070BD410101D5FD
:100260000D2070BDC10101D50E2070BD010201D568
:100270000F2070BD410201D5102070BD810201D553
:10028000112070BDC10201D5122070BD010301D53E
:10029000132070BD410301D5142070BD810301D529
:1002A000152070BDC10301D5162070BD010401D514
:1002B000172070BD410401D5182070BD810401D5FF
:1002C000192070BD000701D51A2070BD204670BDF1
:1002D0000080014008E0FFFD10B50B482A24416B67
:1002E00011F0450FFBD0480702D50324042003E09A
:1002F000C80705D00124204600F002FB204610BDAF
:1003000040F2FF50F8E700000080014070B50C4655
:10031000194906462A25486B10F0450FFBD04107C6
:1003200002D50324042003E0C00705D001242046A1
:1003300000F0E6FA204670BD00F022FBB04213D177
:1003400040F2FF5000F0DCFA002000F03BFB10F41C
:10035000604F03D0810405D5132070BD4FEA1040D3
:10036000208007E0410401D5102070BD000401D5B4
:100370000F2070BD284670BD008001400349C200B7
:1003800002D5C1F80404704748607047000002407D
:100390000029016802D041F0010101E021F00101D2
:1003A0000160704701460020054ACB0002D5D2F813
:1003B000002400E012680A4200D0012070470000CB
:1003C0000000024070B5036847F6F0729343D1E92C
:1003D00004460D6A8A6834432A432243D1E906540D
:1003E0002A432243D1E909542A4322431A43026093
:1003F000CA6842600A6882604968C16070BD0000D6
:1004000070B505468CB00C461148FFF7B7FF114E8A
:1004100000213046FFF7BCFF0F48CDE90005002062
:10042000A108CDE902018021CDE9040189000691EE
:100430008900CDE907108900CDE9091069463046E9
:10044000FFF7C0FF01213046FFF7A2FF0CB070BDDF
:1004500000F00010440402408080014070B5044662
:100460008CB00D461248FFF789FF124E002130462E
:10047000FFF78EFF1048CDE9000410200290A80875
:10048000039000208021CDE90401890006918900B4
:10049000CDE907108900CDE9091069463046FFF71C
:1004A00091FF01213046FFF773FF0CB070BD0000D3
:1004B00000F00010440402408080014070470000BA
:1004C0002DE9F041CA780025D30602F00F0201D5CC
:1004D0008B781A430B884FF00F084FF0010C13F084
:1004E000FF0F1CD0D0F800400E880CFA05F31E4018
:1004F0009E4210D1AF0008FA07F624EA060602FA77
:1005000007F43443CE78282E02D0482E02D002E0E1
:10051000436100E003616D1C082DE5D304600B8886
:10052000FF2B1DD94468002505F108060CFA06F3D7
:100530000E881E409E420FD1AF0008FA07F624EA4B
:10054000060602FA07F43443CE78282E00D1436120
:10055000CE78482E00D103616D1C082DE4D3446091
:10056000BDE8F0814161704701617047FEE700001E
:1005700070B5044640482A25806801043F48016060
:100580000D214160402181600021C1604FF48061F4
:10059000016100F047FA3A49486B10F0450FFBD073
:1005A000410702D50324042003E0C00705D001243D
:1005B000204600F0A5F9204670BD00F0E1F90D28B5
:1005C0002ED140F2FF5000F09BF9002000F0FAF924
:1005D000C0F3432121702B4908424BD0002801DA97
:1005E0001C2070BD410001D5092070BD810001D5DE
:1005F0000A2070BDC10001D50B2070BD010101D5DD
:100600000C2070BD410101D50D2070BDC10101D587
:100610000E2070BD010201D50F2070BD410201D531
:10062000102070BD810201D5112070BDC10201D51D
:10063000122070BD010301D5132070BD410301D507
:10064000142070BD810301D5152070BDC10301D5F3
:10065000162070BD010401D5172070BD410401D5DD
:10066000182070BD810401D5192070BD000701D587
:100670001A2070BD284670BD0000002088000020B0
:100680000080014008E0FFFDFEE7704708B54FF429
:10069000C06000F03DF831208DF8000000208DF89A
:1006A00001008DF8020001208DF80300684600F07B
:1006B00001F808BDF0B50F22C57803784FF0E021AE
:1006C0000124E5B1D1F80C5D467805F4E065C5F587
:1006D000E0652D0AC5F10407EA408578BE40154063
:1006E00035430B442A0183F800240078420900F0C6
:1006F0001F00844001EB8200C0F80041F0BD03F010
:100700001F008440580901EB8000C0F88041F0BD13
:100710000249084302490860704700000000FA05DA
:100720000CED00E09AB034216846FFF72AFD26A0C0
:1007300001F020FC002002F028F82E49002002F0F1
:100740004FF8694613A802F000F9DFF8AC804FF4C7
:10075000007488B336E000BF9DF83C0080062BD5BE
:100760009DF83D0070B30DF13D010D4623A001F051
:1007700001FC01222946274802F042F80121264EB9
:100780000025C8F80410002022463554401C904231
:10079000FBD3194B20491B1D1E4802F0FDF80746EC
:1007A0001D491BA001F0E6FB1FB9D8F80400002882
:1007B000E9D1184802F00BF80DA913A802F09AF934
:1007C0000028C9D0FEE700000A202066696C652079
:1007D00073797374656D2854696E692D466174462A
:1007E00061302E30374329207374617274696E67EB
:1007F00021200A0004010020280000200D0A2066A4
:10080000696C65206E616D652069733A0A2020204D
:1008100025730A00340300205805002070470000AB
:10082000044A0029516901D0014300E0814351612C
:100830007047000000100240044A0029916901D06D
:10084000014300E0814391617047000000100240C5
:10085000044A0029D16801D0014300E08143D160FE
:100860007047000000100240214A10B5536821492A
:1008700013F00C0303D0042B01D0082B26D0016009
:1008800051681D4B01F0F00109095C5C0168E14011
:100890004160546804F4E064240A1C5D21FA04F405
:1008A0008460546804F460544FEAD4241B5D21FA38
:1008B00003F1C1605268104B02F440424FEA923299
:1008C0001B1F9A5CB1FBF2F1016110BD516802235C
:1008D00001F4701103EB9141536813F4803F02D08F
:1008E00053689B0301D5054B00E0024B5943C6E713
:1008F0000010024000127A003400002000093D0080
:100900000149886370470000008001400149886305
:1009100070470000008001400149086070470000F6
:10092000A000304201490860704700008C05304249
:1009300030B5094902684A6242688A62CA6A22F08E
:10094000F703D0E90225D0E904402A4304432243B7
:100950001A43CA6230BD00000080014006480021F1
:10096000016041608160C16041628162C162034A8D
:100970008263C1637047000000800140FF07C00030
:1009800001480069C0B2704700800140034A014637
:100990000020526B0A4200D00120704700800140C5
:1009A000034A01460020526B0A4200D001207047E2
:1009B000008001400248006800F00300704700001A
:1009C00000800140014908444069704700800140AF
:1009D00000F044BB044A0029D16B01D0014300E080
:1009E0008143D163704700000080014070B5094B1E
:1009F0005A6800F1080447F6FF6170CC8A43017819
:100A00003443294345682143406929430143114345
:100A1000596070BD008001400148006870470000C7
:100A20008080014030B5084A01689160D168CB0AE6
:100A3000D0E90115D0E9034029430443DB022143F7
:100A40001943D16030BD00000080014004490A68AC
:100A500022F003020A600A6802430A60704700003D
:100A6000008001400149086070470000808001401B
:100A70002DE9F0479849DFF864A24FF02A0C4D6841
:100A800080F84E508968A0F84C10DAF800100B0E70
:100A90009C090470C3F38304447003F00303837060
:100AA0000B0CC3700B0A03714171DAF80440210E7C
:100AB0000901C180C288C4F3074101F00F0342EA73
:100AC0001111C1800372C4F30721CA094272C1F334
:100AD00080128272C1F34012C272C1F3001202731B
:100AE0004FF0000880F80D8052464FF001099668DB
:100AF000C6F30742C6F307274FEA166325B1012D57
:100B000002D0022D2BD03CE08907090D0161E1B232
:100B1000046944EA810101610469C3F3C20544EA3E
:100B200093140461057503F007014175510981753E
:100B3000C2F38201C1759107490F0176027E3946E1
:100B400042EAD71202760269037E047A521C9B1C89
:100B50009A4009FA04F35A43C0E9112311E0A106AF
:100B6000890A0161016941EA03210161036939468A
:100B7000134303610269521CD20442644FF40072B1
:100B8000826400F11800C1F3801242704FEA816163
:100B90004FEA516181708378F1B243EAD1138370D7
:100BA00001F07F01C170DAF80C204FEA12614FEAC0
:100BB000D1130371C1F341134371C1F382038371F4
:100BC0004FEA81714FEA1171C171C379C2F30741D4
:100BD00043EA9113C371C1F34013037280F8098093
:100BE00001F001018172C2F307214FEAD113C372F0
:100BF000C1F380130373C1F340134373C1F30013B4
:100C00008373C1F38103C37301F003010174C2F361
:100C1000460141744B4680F81290304A02F11002AE
:100C200011684FEA11640475C1F307444FEA0424C4
:100C3000C482C58AC1F3072445EA0405C5824FEA88
:100C400001618161516885694FEA116445EA044494
:100C500084618569C1F3074445EA04248461856998
:100C6000C1F3072445EA04058561017791684FEADD
:100C700011644477C1F307444FEA04640462056ACF
:100C8000C1F3072445EA04440462046AC9B244EA91
:100C900001210162D168046A44EA1164046290F897
:100CA0002440C1F3074244EA121480F824404FEA7A
:100CB00002724FEA1252C284C48CC1F3072244EA82
:100CC0000204C484C1F3460180F8281080F829305A
:100CD0006046BDE8F08700000000002050000020C2
:100CE00038B501210820FFF7A7FD2020ADF800004E
:100CF00010208DF80300224D03248DF80240694630
:100D00002846FFF7DDFB20212846FFF72BFC0121B9
:100D10003020FFF791FD4FF4F850ADF800008DF84A
:100D2000024018208DF8030069461648FFF7C8FBFB
:100D30000420ADF8000069461348FFF7C1FB01210C
:100D40008802FFF76DFD01210220FFF769FDFFF723
:100D500005FE00F0A1F82A2811D100F019F8044688
:100D60002A280CD109490120002208704A608A60B3
:100D7000CA600A6108464A61FFF738FE204638BD5E
:100D8000000C0140001001400014014070000020E0
:100D90002DE9F84F01202A25ADF80000FFF70AFEE3
:100DA000B8B3DFF8EC90D9F8040004286ED0394CC1
:100DB0004FF0C00A00260220C4F808A0C4E9006071
:100DC0004FF48068C4E903682046FFF72BFEFFF765
:100DD00083FA05462A281ED10020FFF7F3FDA4F16F
:100DE000280738600420FFF7EDFD78600820FFF742
:100DF000E9FDB8600C20FFF7E5FDF860D9F80400C4
:100E00004F4650B1012808D0062806D0022804D049
:100E100015E0FFE72520BDE8F88F0320C4E9006056
:100E200004F108014020A1E841011A48FFF7FAFD4A
:100E300069460320FFF76AFA05462A28EBD178684D
:100E4000042823D0BDF80000B86000042060092009
:100E5000C4E9010AC4E903680E48FFF7E3FDFFF7A0
:100E60003BFA05462A28D6D10020FFF7ABFD094CF6
:100E7000383C20600420FFF7A5FD60600820FFF7E4
:100E8000A1FDA0600C20FFF79DFDE0602846C2E7B1
:100E900000000020880000202DE9F05F4FF0000ADC
:100EA0006A48B22156460170C0F804A0C0F808A0F4
:100EB000C0F80CA0C0F810A057465446C0F814A0C3
:100EC000FFF794FD0320FFF7C1FD0120FFF724FD8C
:100ED000DFF878814FF4806908F118084046C8F8B7
:100EE0000040C8F80440C8F80840C8E90349FFF7C3
:100EF00099FD42F2107B5D4601E06D1E1DD0802001
:100F0000FFF744FD0028F8D0BDB140F2FF50FFF7D5
:100F1000F7FC4FF4D570C8F80000454608204FF0A4
:100F20004008C5E901084948C5E903491830FFF7F9
:100F300079FD474A5846516B06E00320BDE8F09F13
:100F40004349A0F10100496B11F0450F14D008B1DD
:100F5000480714D50420FFF7D3FC3720C5E900402B
:100F6000C5F810903948C5E902841830FFF75AFDDA
:100F70003720FFF73DF90BE00028E1D1EAE748060A
:100F800002D54020FFF7BCFC324801218F074160A9
:100F90000021372285E806012C48C5E90319AB4634
:100FA0001830FFF73FFD3720FFF722F905462A28C2
:100FB0003CD049E000253721CBE90051CBE902853F
:100FC0002248CBF810901830FFF72CFD3720FFF7A0
:100FD0000FF92A28B2D1204847EA0001CBF80010C7
:100FE0002921CBF80C50CBE901181848CBF8109008
:100FF0001830FFF717FD16492A25486B10F0450FEA
:10100000FBD0400705D503240420FFF779FC2046D8
:1010100094E740F2FF50FFF773FC0020FFF7D2FC8B
:101020008246C00F06F1010602D003E04FF6FF74BE
:10103000A642BFD3A64201D31B207FE71AF0804F00
:1010400002D0044802214160284677E77000002062
:101050000080014000000020000010802DE9F041D8
:10106000634D0024E868012841D1C003FFF798FCD4
:1010700060B100BFFFF7D0FC696A41F82400641C2E
:10108000082CF7D3686A203068622DE04FF4804066
:10109000FFF786FC58B3E9692869411A202918D25C
:1010A000E969411A8907E969A0EB01004FEA900656
:1010B0000CD0761C0AE0286A0068FFF7D3FC286A87
:1010C000641C001D2862E869001DE861B442F2D387
:1010D0000DE0286A50F82400FFF7C4FC641C082CBB
:1010E000F7D3286A20302862E8692030E8614FF49D
:1010F00080763046FFF754FC00244CF23A3840B377
:10110000E86888B177033846FFF740FC60B1E869CA
:101110002969884208D2FFF77FFC696A01C16962C8
:10112000E869001DE861EEE7686901280ED02A2011
:1011300028703046FFF7EAFB00214046FFF74AFCE3
:101140000120A861EC612878BDE8F08100F0A0FAE8
:10115000EEE70220FFF724FC50B10220FFF7D6FB98
:1011600000214046FFF736FCEC6102202870EBE7D7
:101170000820FFF715FC50B10820FFF7C7FB00213E
:101180004046FFF727FCEC6104202870DCE72020B4
:10119000FFF706FC50B12020FFF7B8FB00214046C6
:1011A000FFF718FCEC6106202870CDE71020FFF750
:1011B000F7FB50B11020FFF7A9FB00214046FFF7D5
:1011C00009FCEC6105202870BEE74FF4007630463C
:1011D000FFF7E6FB50B13046FFF798FB0021404691
:1011E000FFF7F8FBEC6107202870ADE72A20ABE79A
:1011F000000000202DE9F84F07460D00144630D0BE
:10120000774E2A2030704FF0000AC6F818A0DFF899
:10121000D8B1744AC6F810A0CBE9002ACBF808A0D0
:10122000CBF80CA0CBF810A05846CBF814A0FFF7D1
:101230007FFB0020FFF776FB0020FFF7C3FB800158
:1012400002D50E20BDE8F88F7068B0464FF40079E3
:10125000022808D0601EB0F5006F02D2601E044262
:1012600004D02620EEE74C467F0AF7E7204601F03F
:101270009FF800905C48102114385646C0E90041A0
:10128000083040214FF4806AA0E8420456481438E0
:10129000FFF7C8FB1020FEF7ABFF2A28D2D1514937
:1012A000CBE90014009950480901CBF8081002213D
:1012B000CBE903160121CBF81410FFF739FBC8E97D
:1012C0000446494811211438C8F82450C0E9007177
:1012D00008304021A0E8420443481438FFF7A2FB3D
:1012E0001120FEF785FF06462A28ABD1D8F80C005E
:1012F0004746022811D001284ED090B36DE05046E9
:10130000FFF744FB70B10024FFF786FB45F824008B
:10131000641C082CF8D3203504E0344F4FF4004A05
:1013200040F22A68786B10EA080FE8D00820FFF72F
:101330002DFB20B10820FFF7E3FA042082E702200A
:10134000FFF724FB20B10220FFF7DAFA022079E749
:101350002020FFF71BFB28B12020FFF7D1FA062041
:1013600070E728E04C464846FFF710FB40B12046A6
:10137000FFF7C6FA072065E7FFF74EFB01C501E05E
:101380004FF400142046FFF701FB0028F4D140F28F
:10139000FF50FFF7B5FA20E0012148F22A30FFF7AD
:1013A00019FBB86910B938782A28FAD038782A2871
:1013B00013D0387846E7012140F22A30FFF70AFBC4
:1013C0000120FFF7AFFA21462846FFF719F8084C2D
:1013D0002046FEF7E7FF0028FAD0304632E700004B
:1013E00000000020FFFF0F009C0000200080014053
:1013F000002000102DE9F84F80460D0014461E46CF
:101400004ED0DFF830922A2189F800100027C9F861
:1014100018708A488849C9F81070C0E900178760B9
:10142000C76007614761FFF783FA0020FFF77AFA88
:101430000020FFF7C7FA800102D50E20BDE8F88F23
:101440007C484FF4007B4068022807D0601EB0F54E
:10145000006F25D2601E044204D021E05C464FEAB2
:101460005828F7E7204600F0A3FF009073484FF09C
:10147000400A14381021C0F808A0C0E900418901D1
:10148000C0E90371FFF7CEFA1020FEF7B1FE074660
:101490002A28D3D1012E3AD96643B6F1007F01D371
:1014A0002620CBE7634C012164486562C4E90461EE
:1014B000614AC0E90026009A0027120182600222D8
:1014C000C260C0E90471FFF733FA4146DFF86C816E
:1014D0004FF48069A8F114084046C8F800101221A2
:1014E000C8F804104021C8E90217C8F81090FFF7A7
:1014F00099FA1220FEF77CFE07462A289ED1E16861
:1015000040F22A30022912D001296BD081B38FE03A
:101510004FF40040FFF73AFA50B10026FFF77CFA8B
:1015200045F82600761C082EF8D3203500E08246C8
:101530004348406B10EA0A0FEAD00820FFF726FA6A
:1015400020B10820FFF7DCF9042077E70220FFF73D
:101550001DFA20B10220FFF7D3F902206EE7202008
:10156000FFF714FA28B12020FFF7CAF9062065E733
:1015700047E05E465846FFF709FA48B13046FFF7A4
:10158000BFF907205AE700BFFFF746FA01C501E09F
:101590004FF400163046FFF7F9F90028F4D14FF464
:1015A0008070FFF7F3F9C0B1606818B1022801D06C
:1015B000012812D100210C22C8E900124022C8E9FA
:1015C00002211E48C8F810901438FFF72BFA0C209F
:1015D000FEF70EFE07462A28B7D140F2FF50FFF76C
:1015E0008FF925E0012148F22A30FFF7F3F9A069CD
:1015F00010B920782A28FAD020782A2818D0207804
:101600001CE70121FFF7E6F90120FFF78BF93146CE
:101610002846FEF7F5FE0B4D2846FEF7C3FE0028D0
:10162000FAD0A0690028E7D120782A28F9D0E3E78A
:10163000384603E700000020FFFF0F009C00002059
:101640000080014000200010094910B50860072003
:101650004860402088600020C8604FF480600861C6
:101660000846FFF7DFF9BDE810400720FEF7C0BDD0
:10167000880000202A2130B1012804D0022802D09D
:10168000262108467047014AD060FAE70000002092
:10169000084810B500210C22C0E900124022C0E920
:1016A000022111010161FFF7BDF9BDE810400C20D6
:1016B000FEF79EBD880000202DE9FC5F4FF000077B
:1016C00080460D0014468DF800703E4628D0DFF8A5
:1016D00094922A2189F80010C9F81870A348A249E9
:1016E000C9F81070C0E900178760C76007614761DB
:1016F000FFF71EF90020FFF715F90020FFF762F948
:10170000800102D50E20BDE8FC9FD9F80400022814
:1017100008D0601EB0F5006F02D2601E044206D0F1
:101720002620F0E74FF400744FEA5828F5E72046EA
:1017300000F03EFEDFF834A20190AAF1140A102155
:10174000CAE900414FF0400BCAE902B7890150468F
:10175000CAF81010FFF766F91020FEF749FD2A2895
:10176000D1D18048D14680680104CAF800100D210B
:10177000CAE9011B504600214FF4806AC0E9031AF0
:101780007A481438FFF74EF90D20FEF731FD2A286C
:10179000B9D10020FFF716F9734F4FF0000A1AE095
:1017A00070487F1E80680104C9F800100D21C9F837
:1017B0000CA0C9E9011B6D484FF480611438C9F8C9
:1017C0001010FFF72FF90D20FEF712FD2A289AD1ED
:1017D0000020FFF7F7F8C00502D4002FE0D131E078
:1017E0007FB348461821C9F808B0C0E900814FF41A
:1017F0008061C0E903A15D48D1461438FFF712F9B2
:101800001820FEF7F5FC2A288BD1DFF858815748BD
:10181000554AC8F82050C8E90449C0E90024019A93
:1018200001211201C0E90229C0E904914746FFF7EE
:101830007FF8F86802282DD0464601285AD0D8B340
:1018400080E0FFE729205EE74FF48040FFF79EF835
:10185000F8B1D8F81000801B20280FD281074FEA7A
:10186000900400D0641C002705E02868FFF7FAF810
:101870007F1C2D1D361DA74210D2F6E75FF0000435
:1018800055F82400FFF7EEF8641C082CF8D3203537
:10189000203603E0DFF8D89040F21A6AD9F8341005
:1018A00011EA0A0FD0D00820FFF770F828B10820FD
:1018B000FFF726F8042026E72BE00220FFF766F862
:1018C00020B10220FFF71CF802201CE71020FFF7D0
:1018D0005DF820B11020FFF713F8052013E74FF44F
:1018E00000742046FFF752F860B32046FFF708F86F
:1018F000072008E7012144F21A30FFF76BF8B069BE
:1019000010B930782A28FAD030782A281AD03078BE
:10191000F9E6012140F21A30FFF75CF8214628462B
:10192000FEF79CFD0120FEF7FDFF124C2046FEF75E
:1019300039FD0028FAD0B0690028E5D130782A288E
:10194000F9D0E1E740F2FF50FEF7DAFF6846FEF714
:101950000FFE2A28AFD19DF800100729F6D00629DE
:10196000F4D0D0E600000020FFFF0F009C00002014
:1019700000800140002000102DE9FC5F81464FF0FF
:1019800000000C0015461E468DF80000074669D081
:10199000DFF8F0822A2288F80020C8F81800BB4936
:1019A000B94AC8F81000C1E900208860C860086121
:1019B00048610846FEF7BCFF0020FEF7B3FF002099
:1019C000FFF700F8800102D50E20BDE8FC9FD8F893
:1019D0000400022807D0681EB0F5006F42D2681ECE
:1019E000054205D03EE04FF400754FEA5929F6E76D
:1019F000284600F0DDFCDFF894B20190ABF1140B47
:101A00001021CBE900514FF0400A0021CBE902A19F
:101A10004FF480615846CBF81010FFF703F8102000
:101A2000FEF7E6FB2A28D0D1964880680104CBF85F
:101A300000100D21CBE9011A0021CBF80C104FF456
:101A400080615846CBF81010FEF7ECFF0D20FEF732
:101A5000CFFB2A28B9D1012E67D906FB05F8B8F1CA
:101A6000007F01D32620B0E7864D686818B10128B1
:101A700001D0022829D1A8680104CBF80010372131
:101A8000CBE9011A0021CBF80C1080484FF480619B
:101A90001438CBF81010FEF7C5FF3720FEF7A8FB6F
:101AA0002A2892D11721CBE900610021CBE902A1BC
:101AB00076484FF480611438CBF81010FEF7B2FF6F
:101AC0001720FEF795FB2A28CDD11921CBE90091EB
:101AD00040214FF0000ACBE9021A6C480901143882
:101AE000CBF81010FEF79EFF1920FEF781FB2A2885
:101AF000B9D101222C626548C5E904826249C0E976
:101B000000180199A94609018160C0F80CA0C0E93C
:101B100004A25146FEF70CFFE96840F21A30022990
:101B20002AD04D46012974D0A9B39AE04FF48040E1
:101B3000FEF72CFF08B3D9F81000C01B20280BD3E8
:101B40005FF0000554F82500FEF78CFF6D1C082D92
:101B5000F8D32034203710E081074FEA900600D0F8
:101B6000761C002505E02068FEF77CFF6D1C241D17
:101B70003F1DB54201D2F6E780464548406B10EA6A
:101B8000080FD3D00820FEF701FF28B10820FEF788
:101B9000B7FE042019E74BE00220FEF7F7FE20B164
:101BA0000220FEF7ADFE02200FE71020FEF7EEFE4A
:101BB00020B11020FEF7A4FE052006E74FF40074C4
:101BC0002046FEF7E3FE20B12046FEF799FE0720EF
:101BD000FBE64FF48070FEF7D9FEF0B3D9F80400AD
:101BE00018B1012801D002283BD10C22CBE900A278
:101BF0004022CBE9022A254811011438CBF81010F5
:101C0000FEF710FF0C20FEF7F3FA2A28C2D128E0D5
:101C1000FFE7012144F21A30FEF7DCFEA86910B993
:101C200028782A28FAD028782A281AD02878CCE6CA
:101C30000121FEF7CFFE0120FEF774FE414620464B
:101C4000FEF70CFC134C2046FEF7ACFB0028FAD044
:101C5000A8690028E7D1287800E002E02A28F7D018
:101C6000E1E740F2FF50FEF74BFE6846FEF780FCCE
:101C70002A288FD19DF800100729F6D00629F4D024
:101C8000A3E6000000000020FFFF0F009C000020E2
:101C900000800140002000107047000070B586B041
:101CA000012144F20400FEF7C7FD00214FF48040FB
:101CB000FEF7CEFD4FF40070ADF8000003208DF864
:101CC00002001820344C8DF8030069462046FEF7C8
:101CD000F7FB2015ADF8000004208DF803006946DD
:101CE0002046FEF7EDFB4FF4E0402C4DADF8000030
:101CF00069462846FEF7E4FB6014ADF8000069462B
:101D00002748FEF7DDFB4020264EADF8000069466F
:101D10003046FEF7D5FBE414ADF8004028208DF8DE
:101D2000030069462048FEF7CBFBADF8004069464A
:101D30002846FEF7C5FB8020ADF800006946304616
:101D4000FEF7BEFB80213046FEF70EFC4FF4E1307B
:101D500001900020ADF80800ADF80A00ADF80C00C5
:101D6000ADF810000C20114CADF80E0001A9204672
:101D700000F0B4F8012240F22771204600F095F8F7
:101D8000012240F22551204600F08FF80121204623
:101D900000F07AF806B070BD00080140001801405C
:101DA0000014014000100140000C014000380140C7
:101DB00022480021026842F4803202604FF4A0639E
:101DC0000268491C12F4003F01D19942F8D1016820
:101DD000890331D51A490A6842F010020A600A687C
:101DE00022F003020A600A6842F002020A604168B7
:101DF000416041684160416841F4806141604168EF
:101E000021F47C114160416841F4E81141600168AE
:101E100041F08071016001688901FCD5416821F0C1
:101E200003014160416841F0020141604168C1F332
:101E300081010229FAD17047FEE70000001002403C
:101E400000200240704700000C48016841F0010189
:101E5000016041680A4A114041600168094A114025
:101E60000160016821F480210160416821F4FE01D4
:101E7000416000218160FFF79BBF0000001002401D
:101E80000000FFF8FFFFF6FE0029818902D041F42F
:101E9000005101E021F40051818170470246002089
:101EA00012880A4200D00120704710B5C1F34213D6
:101EB00001F01F040121A140012B07D0022B07D004
:101EC0001430002A026805D00A4304E00C30F8E719
:101ED0001030F6E78A43026010BD000030B50446BA
:101EE000008A85B00D464CF6FF710840E988014331
:101EF0002182A1894EF6F3100140A8882A89104357
:101F00006A890A431043A081A08A4FF6FF41084026
:101F1000A9890143A1826846FEF7A6FC11488442C4
:101F200001D1039800E00298642200EBC00101EBAC
:101F3000001029686FF018038900B0FBF1F0B0FBC6
:101F4000F2F109010D095D43322300EB850003EB3B
:101F50000010B0FBF2F000F00F000843208105B044
:101F600030BD000000380140C1F308018180704796
:101F7000FEE700000FB4054B10B503A9044A029810
:101F800000F018F810BC5DF814FB00008D2C000860
:101F90004C00002002E008C8121F08C1002AFAD134
:101FA00070477047002001E001C1121F002AFBD1D9
:101FB000704700002DE9FF4F8BB005469A460F464B
:101FC0000026C6E0252836D100246D1C654AA046AF
:101FD00001212B78203B01FA03F0104202D0044388
:101FE0006D1CF6E728782E2817D115F8010F44F05C
:101FF00004042A280ED06FF02F022878A0F13001B7
:1020000009290AD808EB880102EB410100EB01081D
:102010006D1CF2E757F8048B6D1C287869283ED0B8
:1020200005DC98B363280CD0642804D137E073280A
:1020300010D075284DD052460D99904706F10106F3
:1020400086E001CF8DF8000000208DF80100E94600
:10205000012003E057F8049B4FF0FF3061074FF079
:10206000000401D40AE0641C44450DDA8442FADB22
:1020700019F804100029F6D106E0641C8442FCDB48
:1020800019F804100029F8D1264405E065E019F894
:10209000010B52460D999047641EF8D258E001CFCB
:1020A0004FF00A0B002804DAC0F100004FF02D01B8
:1020B00002E0210504D52B218DF82410012104E034
:1020C000E10701D02021F7E700210DF12009089157
:1020D0000AE001CF4FF00A0BF6E75946FEF75DF82C
:1020E00001F1300209F8012D0028F6D1ADEB09000D
:1020F00000F1200B600701D44FF001080020424698
:10210000D84501DDA2EB0B008046002406E009A8BB
:102110005246005D0D999047761C641C08988442D5
:10212000F5DB04E0302052460D999047761CB8F15B
:102130000001A8F10108F5DC05E019F8010B524691
:102140000D999047761CBBF10001ABF1010BF4DC5B
:102150006D1C287800287FF435AF0FB03046BDE8FD
:10216000F08F0000092801002DE9F0410E460168BA
:1021700015460B78303B092B08D84A783A2A05D106
:10218000891C016013B10B20BDE8F0816848046828
:1021900034609CB1207820B1607800F008FBC10762
:1021A0000ED04FF0000884F80080404684F801808B
:1021B00000F0EBFAC10708D00320E5E70C20E3E7C5
:1021C0000DB1400704D40020DEE71DB1400701D562
:1021D0000A20D9E700210E46204600F0AFF801287A
:1021E0000CD104F5F770017999B1017AD0F80900A2
:1021F00041EA00263146204600F0A0F8032801D02D
:1022000038B901E00120BFE7B4F83B00B0F5007F2A
:1022100001D00D20B8E7B4F8461029B994F854005D
:10222000D4F8551040EA0121A16194F84020E270F1
:10223000B4F83EC002FB01F00CEB0601216294F8F9
:102240003D30A370B4F841202281B4F843502DB939
:1022500094F85050D4F8517045EA0725A5EB0C05C9
:102260002D1AA5EB1215B5FBF3F39B1C012540F6C7
:10227000F777E361BB4200D302254FF6F777BB4205
:1022800001D3032510E0032D0ED00B1800EB121024
:102290000844C4E909304FF0FF302061474684F814
:1022A0000480032D07D038E094F85C30D4F85D70DA
:1022B00043EA0723EAE7A772B4F860000123821912
:1022C0006261607804F1300100F063FA28BBB4F871
:1022D0002E02A0F52A4155391FD194F83000D4F8C8
:1022E0003120144940EA0220884216D194F81402A1
:1022F000D4F81522104940EA022088420DD194F802
:102300001C02D4F81D1240EA0120E06094F8180283
:10231000D4F8191240EA01202061054A2570121FE5
:10232000E76211883846491C1180E1802CE70000E3
:1023300048000020525261417272416110B504465A
:102340000A464078012304F1300100F022FA08B176
:10235000032010BDB4F82E02A0F52A41553901D052
:10236000022010BD03220B4904F1660000F068FD55
:102370000028F6D00322074904F1820000F060FD36
:1023800028B994F85800000601D4002010BD01209F
:1023900010BD000008310008C269891E921E8A42E1
:1023A00001D800207047826A807801FB00207047C6
:1023B000002102E04008491CC9B20128FAD10846B0
:1023C00070472DE9F041C76906465FEA010808D069
:1023D0004146304600F06CFC022808D20120BDE8DE
:1023E000F081F5680DB1BD4204D3012502E0B84289
:1023F000F5D345462C46641CBC4202D30224022D70
:102400000AD32146304600F053FC38B1411CE6D0D7
:102410000128E4D0AC42EED10020E0E76FF070423A
:102420002146304600F05EFD4FF0FF3540B95FEACF
:10243000080007D001462246304600F053FD08B19F
:102440002846CCE7F4603069411C03D0401E30615F
:102450000120B0722046C2E72DE9F04784698A4620
:102460000B222021204600F001FD0021DAF8006057
:102470008C460A460820B35C521C202B4DD32F2BD0
:102480004BD05C2B49D02E2B01D0844508DB08288B
:1024900051D12E2B4FD184460B208906090EEAE735
:1024A000802B01D341F00301A3F181051E2D02D938
:1024B0005F3D1C2D15D816F80290521CA9F140055D
:1024C0003F2D03D3A9F180077D2F34D2A0F101085D
:1024D000C44530DA04F80C300CF1010C04F80C900F
:1024E00018E021A500E06D1C2F7817B19F42FAD1AA
:1024F00021E0A3F14105192D02D841F0020107E0C6
:10250000A3F16105192D03D8203B41F00101DBB295
:1025100004F80C300CF1010CADE7B5180422CAF830
:102520000050202B00D30022BCF1000F03D02378F1
:10253000E52B03D004E00620BDE8F08705232370D7
:10254000082801D18806010E01F00300012801D1FD
:1025500042F01002C1F38100012801D142F00802CB
:10256000E2720020E8E7000020222A2B2C5B3D5D70
:102570007C7F00002DE9F0410446C0880F46401CD6
:102580000604360C2DD0206958B331075ED1401CAB
:102590002061E168206829B18278521E12EA161F74
:1025A00004D053E00089B0421BD94FE000F080FB1B
:1025B000054601281AD9681C33D02068C169A94290
:1025C0003ED877B1E168FFF7FCFE05000CD0012D85
:1025D0000CD0681C25D00021206800F04EFC00BB08
:1025E00006E00420BDE8F0810720FBE70220F9E7C0
:1025F00020684FF400723030002100F037FC29468B
:102600002068FFF7C9FE216800274FF00108C86263
:102610000FE000BF80F804800021206800F02DFC4E
:1026200008B10120DEE720687F1CFFB2C16A491CA7
:10263000C16220688178B942ECD8C16AC91BC16205
:10264000E56029462068FFF7A7FE2061E68006F0D6
:102650000F013022206802EB411108446061002024
:10266000C0E710B50446042015E0206800F005FC22
:10267000B0B96269117861B1E52904D02E2902D080
:10268000D17A09070ED500212046FFF773FF10B15C
:1026900006E0042004E021690029E6D1002801D0E9
:1026A0000021216110BD70B50446002100F02EF814
:1026B0000EE02169206800F0E0FB050024D160698C
:1026C0000078E52807D030B101212046FFF752FFFE
:1026D0000500EED018E02169206800F0CEFB05006F
:1026E00012D1666920220021304600F0BFFB0B2288
:1026F0003046A16900F0B0FBA069C07A00F0180074
:102700003073216801200871284670BD70B50D46F0
:10271000C1808168044601291ED02068C2698A42AE
:102720001AD921B90278032A04D1416A11B18078FB
:10273000060117E0E1600189A9420DD9406A17E05E
:10274000206800F0B5FA0146401C07D0022903D3E7
:102750002068C069884203D8022070BD012070BD86
:10276000A81B85B2B542EBD2E1602068FFF714FEEA
:1027700000EB1510206105F00F013022206802EBFC
:10278000411108446061002070BD002070470020A6
:10279000704710B550024FF40074012B224603D04D
:1027A000FEF728FE002010BDFEF724FDFAE700200A
:1027B000704710B550024FF40074012B224603D02D
:1027C000FFF7DAF8002010BDFEF776FFFAE710B544
:1027D000044600F0B7F9002801D10021216010BDA6
:1027E00008B10B207047054A0023106800B1037040
:1027F00001B10B70002011607047000048000020FC
:102800002DE9F7478BB04FF00008064602F01F0590
:10281000C0F8008005F01E0269460CA8FFF7A4FC72
:1028200000281BD107A8069068460C9900F0DCF937
:1028300015F01C0F5DD04FF0010960B104280DD1D7
:102840006846FFF730FF002808D145F00805059CD1
:10285000280738D45CE0680703D508200EB0BDE82F
:10286000F087059CF4B3E07A10F0110F4ED12807E1
:102870004ED5A08A678B84F8148084F8158084F87C
:102880001A8084F81B8084F81C8084F81D8084F8EA
:102890001E8084F81F80009960F31F4781F8049020
:1028A0000098D0F82CA047B13946009800F08FFB73
:1028B0000028D3D100987F1EC7605146009800F0D1
:1028C000DCFA0028CAD184F80B8000F047FAA07324
:1028D0004FEA1021E1734FEA104121744FEA106072
:1028E000607400E012E0009945F0200581F8049042
:1028F0000EE00028B2D1059C14B1E07AC10601D5E2
:102900000420ABE7A90703D5C00701D00720A5E73E
:102910000098C06AF06105983062B571A18A608B39
:1029200061F31F403061207FD4F81D1040EA012080
:10293000C6E90280FF21F171C6F818800098306066
:102940000098C088B080002088E713B584B00446A2
:102950000146002205A8FFF707FC00281AD1C4F899
:1029600018D02046059900F03FF980B9606938B168
:10297000C17AC9060DD5818A408B61F31F40A060E2
:1029800020680021C088A0802046FFF7BFFE0428F1
:1029900000D1052006B010BD2DE9F84F4FF0000919
:1029A0000F46C3F800900446818815469846006893
:1029B00000F09AFB002803D1A079010602D502207D
:1029C000BDE8F88FC00708D0D4E90212501A04F10C
:1029D000240A854200D9054687E00720F0E7A16870
:1029E000C8056AD12068E27983789A420AD311B384
:1029F000616900F05DF901281FD9411C52D0606166
:102A000084F8079061692068FFF7C6FCA8B1E179F6
:102A10006E0A01EB000B2BD022688B199078834251
:102A200000D9461A5078F3B25A4639460093FFF758
:102A3000B0FEB8BB06E02069DDE7A07940F0800079
:102A4000A071BCE7A07940060BD5A169A1EB0B00F2
:102A5000B04206D207EB40204FF40072514600F01E
:102A6000FBF9E17900984FEA46260844E07132E02C
:102A7000A07940060BD52068012351464078A26911
:102A8000FFF797FE70B9A07920F04000A071A1690E
:102A900059450DD0206801235A4640785146FFF72A
:102AA00078FE28B1A07940F08000A071012087E76E
:102AB000C4F818B0E079401CE071A068C0F30800C9
:102AC000C0F50076AE4200D92E46011924313246B7
:102AD000384600F0C1F9A16837443144A160D8F804
:102AE0000010AD1B3144C8F80010002D7FF477AF03
:102AF000002065E7FEB50E4604468188006800F0B8
:102B0000F3FA002816D1C4F818D0A6B12046FFF772
:102B1000A8FD0025042813D000280BD131462046FB
:102B200000F01EF900212046FFF724FD042801D102
:102B300000202561FEBD00212046FFF7E7FDFEBD18
:102B40002561EBE770B504468188006800F0CCFA97
:102B500000280ED1A1798A060BD548060ED520682B
:102B6000012304F124014078A269FFF722FE08B195
:102B7000012070BDA07920F04000A071E1692068BB
:102B800000F07BF90028F4D1256AE87A40F02000B3
:102B9000E872E0682877E068000A6877E068000C6F
:102BA000A877E068000EE8772069A8762069000A17
:102BB000E8762069000C28752069000E687500F021
:102BC000CDF8A875010AE975010C2976000E687622
:102BD000A07920F02000A0712168012008712068F0
:102BE000BDE8704000F024BA73B50546019801783D
:102BF0002F2901D05C2901D1401C01900024AC6038
:102C000001980078202805D200212846FFF77EFD94
:102C10006C617CBD01A92846FFF71EFC0028F8D195
:102C200000212846FFF772FDB8B92969286800F02D
:102C300024F9040010D168690178C9B1C17A090783
:102C400004D40B22A96900F0FBF828B10021284622
:102C5000FFF790FC0400E8D02046A969C97A01F08A
:102C6000040138B10428D4D10029D2D105207CBD7B
:102C70000424F1E70029FAD16869C17AC906F5D5BB
:102C8000818A408B61F31F40A860C3E770B5074D90
:102C90000446C1B22846FFF767F940212846FFF7EE
:102CA000FDF80028F9D0204670BD00000038014032
:102CB0002DE9F04105460C46022902D3E869A042FD
:102CC00002D80120BDE8F08128782F6A012804D0BD
:102CD000022823D0032832D12BE004EB540607EB63
:102CE0005621284600F0C9F848BBC6F3080028441E
:102CF000761C90F8308007EB5621284600F0BDF88E
:102D0000E8B9C6F30800284490F8301048EA0121D9
:102D10000809E207D6D1C1F30B00D3E707EB142172
:102D2000284600F0AAF850B9200605EBD050008ED6
:102D3000C8E707EBD411284600F09FF810B14FF018
:102D4000FF30BFE7600605EBD05090F83010D0F8A8
:102D5000310041EA002020F07040B3E700207047C6
:102D600070B5036901F10902C3B340690024057B12
:102D7000035D202B0FD0052B00D1E5232E0705D5B1
:102D8000A3F14106192E01D82033DBB2641C02F8EE
:102D9000013B082CECDB037A202B13D02E2302F806
:102DA000013B0824035D202B0CD0EE0605D5A3F1D2
:102DB0004106192E01D82033DBB2641C02F8013B16
:102DC0000B2CEFDBC37A0B72037FD0F81D4043EA74
:102DD00004230B60038B8B80C08AC8800020107096
:102DE00070BD0000FFF730F8FDF750FCFEF756FF0E
:102DF000FDF776FF0D4C2A28207015D10C48FDF701
:102E000037FE20702A280FD10948B0F84C00000482
:102E1000FEF71AFC20702A2806D10120FEF72AFCB2
:102E2000207004A0FFF7A6F8FDF77CFC2800002026
:102E3000B40000200A54455354204F4B210A00008F
:102E400010B50023521E05D310F8013B11F8014BB9
:102E50001B1BF7D0184610BD10B504E011F8013B5C
:102E6000441C03702046521EF8D210BDC9B201E0C6
:102E700000F8011B521EFBD270472DE9F041C56AD4
:102E800004460F468D422BD0217904F13008D9B188
:102E9000607801232A464146FFF78BFCE0B9002009
:102EA0002071A169206A0844A8420DD9E67809E09A
:102EB000A0690123054460782A464146FFF779FC62
:102EC000761EF6B2012EF3D857B1607801233A4648
:102ED0004146FFF75EFC10B10120BDE8F081E762DA
:102EE0000020FAE72DE9F05F05460C461646022958
:102EF00002D3E869A04202D80220BDE8F09F2978F9
:102F00002F6A06F0FF084FF0010B01290BD01FFAC2
:102F100086FA4FEA1A29022937D0032944D0022021
:102F200085F804B0E9E704EB540907EB592128467A
:102F3000FFF7A3FF0028F3D1C9F30800411930318E
:102F40004046E20703D00246087862F31F1008707B
:102F500009F1010885F804B007EB58212846FFF76E
:102F60008CFF0028DCD1C8F3080129443031E20786
:102F700002D0C6F3071206E00A78330AC3F303034C
:102F800002F0F0021A430A70CAE707EB1421284640
:102F9000FFF773FF0028C3D1220605EBD25282F857
:102FA00030A082F83190BBE707EBD4112846FFF739
:102FB00064FF0028B4D1610605EBD151320C01F851
:102FC000308F81F801908A70320ECA70A8E72DE91F
:102FD000F04107460E46022918D3F869B04215D9C8
:102FE00000254FF001081DE031463846FFF760FE2E
:102FF00004001AD0012C09D0601C09D000223146EF
:103000003846FFF76FFF05000FD103E002250CE003
:1030100001250AE03869411C03D0401C386187F85B
:103020000A802646F869B042DED82846BDE8F0811D
:103030002DE9F04104460021FFF71FFF050050D1A4
:103040002078032846D1A07AF0B3002604F130009E
:103050004FF4007231460746E662FFF707FF55203E
:1030600084F82E02AA2084F82F02522084F830001F
:1030700084F83100612084F83200412184F8331053
:10308000722284F8142284F8152284F8161284F827
:103090001702206984F81802010A84F81912010C39
:1030A00084F81A12000E84F81B02E06884F81C02EF
:1030B000010A84F81D12010C000E84F81E1284F817
:1030C0001F026078012300E004E039466269FFF7DF
:1030D00070FBA672002260781146FFF758FB00B122
:1030E00001252846BDE8F08110B520B1027812B163
:1030F000C2888A4201D0092010BD4078FFF757FBF3
:10310000C007F9D0032010BD464154002C310008FF
:103110000000002050000000941F00087C310008CF
:103120005000002008090000A41F00082A00000029
:10313000000000000000000000000000000000008F
:10314000000000000000000000000000000000007F
:10315000000000002A000000000000000204060831
:10316000000000000102030401020304060708092D
:0C31700000000000000000000000000053
:0400000508000131BD
:00000001FF
