:020000040800F2
:1000000000040020073F0008492A00084B2A000886
:100010004F2A0008532A0008572A00080000000051
:100020000000000000000000000000005B2A000843
:100030005D2A0008000000005F2A0008612A00080D
:10004000273F0008273F0008273F0008273F0008F8
:10005000273F0008273F0008273F0008273F0008E8
:10006000273F0008273F0008273F0008273F0008D8
:10007000273F0008273F0008273F0008273F0008C8
:10008000273F0008273F0008273F0008273F0008B8
:10009000273F0008273F0008273F0008632A000881
:1000A000273F0008273F0008273F0008273F000898
:1000B000273F0008273F0008273F0008273F000888
:1000C000273F0008273F0008273F0008273F000878
:1000D000273F0008273F0008273F0008273F000868
:1000E000273F0008273F0008273F0008273F000858
:1000F000273F0008273F0008273F0008273F000848
:10010000273F0008273F0008273F0008273F000837
:10011000273F0008273F0008273F0008273F000827
:10012000273F0008273F0008273F0008273F000817
:1001300000F002F800F03CF80AA090E8000C8244BD
:100140008344AAF10107DA4501D100F031F8AFF29A
:10015000090EBAE80F0013F0010F18BFFB1A43F0A5
:1001600001031847A04A0000C04A0000103A24BF0B
:1001700078C878C1FAD8520724BF30C830C144BF0C
:1001800004680C607047000000230024002500264E
:10019000103A28BF78C1FBD8520728BF30C148BFEA
:1001A0000B6070471FB504F066FA1FBD10B510BD97
:1001B00003F0ADFF1146FFF7F5FF02F05DFB03F022
:1001C000CBFF03B4FFF7F2FF03BC03F0D5FF00B58C
:1001D00095B00220009000200190052002900020A0
:1001E0000390049005904FF08050069000200790F7
:1001F00008900820099010200A9000200B900C9085
:100200000D900E904FF480500F90002010901190A0
:100210001290CDF84CD0CDF850D007A803F03BF8A1
:100220000121002003F095F915B000BD4FF0C04248
:10023000108070474FF0C0431880FF4B1980704703
:100240000020FD49088808887047FB4A10807047E5
:10025000F94A1080704701464FF0C042126890B2D0
:10026000704700B503461846FFF7E0FF00BD10B524
:10027000C82002F038FB01210020FFF7DBFFC82077
:1002800002F031FBC82002F02EFB0020FFF7E3FF55
:10029000EA49086049F22530086002F029FBC820CD
:1002A00002F021FBE5480068A0F51341253905D08F
:1002B000E2480068A0F5134128397ED1C82002F039
:1002C00012FB41F21401E720FFF7B4FF4FF48071F5
:1002D0000120FFF7AFFF4FF400710220FFF7AAFFE4
:1002E00041F230010320FFF7A5FF40F20221082070
:1002F000FFF7A0FF00210920FFF79CFF00210A2043
:10030000FFF798FF00210C20FFF794FF00210D203C
:10031000FFF790FF00210F20FFF78CFF0021102036
:10032000FFF788FF07211120FFF784FF002112202B
:10033000FFF780FF00211320FFF77CFFC82002F0A9
:10034000D2FA41F290611020FFF774FF40F22721AA
:100350001120FFF76FFFC82002F0C5FA0C21122010
:10036000FFF768FFC82002F0BEFA4FF400611320C7
:10037000FFF760FF11212920FFF75CFF0B212B20E5
:10038000FFF758FFC82002F0AEFA00212020FFF747
:1003900051FF00212120FFF74DFF00213020FFF702
:1003A00049FF4FF483713120FFF744FF00213220D1
:1003B000FFF740FF4FF4017100E087E03520FFF7C1
:1003C00039FF41F20A613620FFF734FF40F207712E
:1003D0003720FFF72FFF4FF483713820FFF72AFFF4
:1003E00040F207713920FFF725FF40F202413C201F
:1003F000FFF720FF40F60F413D20FFF71BFF0021D4
:100400005020FFF717FFEF215120FFF713FF0021C6
:100410005220FFF70FFF40F23F115320FFF70AFF72
:100420004FF41C516020FFF705FF01216120FFF709
:1004300001FF00216A20FFF7FDFE00218020FFF769
:10044000F9FE00218120FFF7F5FE00218220FFF751
:10045000F1FE00218320FFF7EDFE00218420FFF74D
:10046000E9FE00218520FFF7E5FE10219020FFF72F
:10047000E1FE4FF4C0619220FFF7DCFE40F2331141
:100480000720FFF7D7FE00212020FFF7D3FE40F220
:100490003F112120FFF7CEFE22204FF0C0410880FF
:1004A00000206749086008E04FF6FF70FFF7CDFEB7
:1004B00063480068401C6249086061480068B0F504
:1004C000963FF1D300205E49086055E25B48006822
:1004D000A0F51341203904D058480068B0F5134FF7
:1004E0007ED1C82002F0FFF900210846FFF7A2FEE6
:1004F0004FF480710120FFF79DFE4FF4E061022070
:10050000FFF798FE41F218010320FFF793FE002148
:100510000420FFF78FFE40F202210820FFF78AFE39
:1005200000210920FFF786FE00210A20FFF782FE46
:1005300001210C20FFF77EFE00210D20FFF77AFE3F
:1005400000210F20FFF776FEC82002F0CCF940F220
:1005500001110720FFF76EFEC82002F0C4F94FF426
:1005600086511020FFF766FE07211120FFF762FE7B
:100570004FF488711220FFF75DFE4FF430611320B5
:10058000FFF758FE00212920FFF754FE44F2100126
:100590002B20FFF74FFE00215020FFF74BFEEF21ED
:1005A0005120FFF747FE00215220FFF743FE40F2A3
:1005B0003F115320FFF73EFE4FF41C516020FFF720
:1005C00039FE01216120FFF735FE00216A20FFF787
:1005D00031FE00218020FFF72DFE0021812000E068
:1005E00038E0FFF727FE00218220FFF723FE0021DD
:1005F0008320FFF71FFE00218420FFF71BFE002150
:100600008520FFF717FE10219020FFF713FE002131
:100610009220FFF70FFE01219320FFF70BFE4FF40E
:1006200088719520FFF706FE00219720FFF702FE54
:100630000021982006E00000000002602800002051
:1006400000000020FFF7F6FD40F273110720FFF7CE
:10065000F1FDE9E3FF480068A0F5134131397ED18F
:10066000C82002F040F941F21401E720FFF7E2FD53
:100670004FF480710120FFF7DDFD4FF4007102207F
:10068000FFF7D8FD41F230010320FFF7D3FD40F220
:1006900002210820FFF7CEFD00210920FFF7CAFD47
:1006A00000210A20FFF7C6FD00210C20FFF7C2FD44
:1006B00000210D20FFF7BEFD00210F20FFF7BAFD3E
:1006C00000211020FFF7B6FD07211120FFF7B2FD32
:1006D00000211220FFF7AEFD00211320FFF7AAFD35
:1006E000C82002F000F941F290611020FFF7A2FD4E
:1006F00040F227211120FFF79DFDC82002F0F3F8FA
:100700000C211220FFF796FDC82002F0ECF84FF400
:1007100000611320FFF78EFD11212920FFF78AFDCC
:100720000B212B20FFF786FDC82002F0DCF800210A
:100730002020FFF77FFD00212120FFF77BFD002116
:100740003020FFF777FD4FF483713120FFF772FD02
:1007500000213220FFF76EFD4FF4017100E076E0DA
:100760003520FFF767FD41F20A613620FFF762FD91
:1007700040F207713720FFF75DFD4FF48371382099
:10078000FFF758FD40F207713920FFF753FD40F2A3
:1007900002413C20FFF74EFD40F60F413D20FFF7A0
:1007A00049FD00215020FFF745FDEF215120FFF7C3
:1007B00041FD00215220FFF73DFD40F23F11532043
:1007C000FFF738FD4FF41C516020FFF733FD012186
:1007D0006120FFF72FFD00216A20FFF72BFD00218C
:1007E0008020FFF727FD00218120FFF723FD002156
:1007F0008220FFF71FFD00218320FFF71BFD002152
:100800008420FFF717FD00218520FFF713FD10213D
:100810009020FFF70FFD4FF4C0619220FFF70AFD13
:1008200021210720FFF706FDC82002F05CF86121B6
:100830000720FFF7FFFCC82002F055F840F2331103
:100840000720FFF7F7FCC82002F04DF8ECE28148E2
:100850000068A0F5194119397DD1C82002F043F88C
:1008600006212820FFF7E6FC01210020FFF7E2FC2B
:1008700000211020FFF7DEFC47F2EF210120FFF7F7
:10088000D9FC4FF4C0610220FFF7D4FC46F63821B2
:100890000320FFF7CFFC46F674011120FFF7CAFCD6
:1008A00000210F20FFF7C6FC45F208310B20FFF7AF
:1008B000C1FC03210C20FFF7BDFC0A210D20FFF72E
:1008C000B9FC4FF438510E20FFF7B4FCBE211E20B6
:1008D000FFF7B0FC4FF400412520FFF7ABFC4FF4CD
:1008E000F0412620FFF7A6FC78212720FFF7A2FC85
:1008F00000214E20FFF79EFC00214F20FFF79AFCBD
:1009000040F6D9011220FFF795FC00213020FFF7B7
:1009100091FC4FF482713120FFF78CFC4FF4807111
:100920003220FFF787FC40F205313320FFF782FCCD
:1009300040F205513420FFF77DFC40F205313520AF
:10094000FFF778FC40F207713620FFF773FC4FF495
:100950004071372000E010E0FFF76CFC4FF490513D
:100960003A20FFF767FC4FF400613B20FFF762FC81
:1009700033210720FFF75EFC56E236480068A0F5F9
:10098000A851053968D1C82001F0ADFF002107202A
:10099000FFF750FCC82001F0A6FF4FF48E71122023
:1009A000FFF748FC0121A420FFF744FC0F21082099
:1009B000FFF740FC08210A20FFF73CFC08210D202E
:1009C000FFF738FC40F207713020FFF733FC0721B6
:1009D0003120FFF72FFC40F203613220FFF72AFCA1
:1009E0004FF4E0613320FFF725FC40F20221342070
:1009F000FFF720FC02213520FFF71CFC41F60F71A8
:100A00003620FFF717FC40F207713720FFF712FC82
:100A100000213820FFF70EFC00213920FFF70AFCE7
:100A200040F207713A20FFF705FC00213B20FFF759
:100A300001FC07213C20FFF7FDFB00213D20FFF7D3
:100A4000F9FBC82001F04FFF01210720FFF7F2FB5F
:100A5000012102E028000020AFE01720FFF7EAFBA9
:100A6000C82001F040FF4FF4BD511020FFF7E2FB1A
:100A700040F217211120FFF7DDFB4FF48F71122098
:100A8000FFF7D8FB4FF470611320FFF7D3FB002171
:100A90002A20FFF7CFFB0A212920FFF7CBFB4FF4D9
:100AA0009F711220FFF7C6FB00215020FFF7C2FB09
:100AB000EF215120FFF7BEFB00215220FFF7BAFBC8
:100AC00040F23F115320FFF7B5FB4FF41C5160205B
:100AD000FFF7B0FB01216120FFF7ACFB00216A208A
:100AE000FFF7A8FB00218020FFF7A4FB0021812055
:100AF000FFF7A0FB00218220FFF79CFB0021832051
:100B0000FFF798FB00218420FFF794FB002185204C
:100B1000FFF790FB13219020FFF78CFB4FF44071FF
:100B20009220FFF787FB05219320FFF783FB00212D
:100B30009520FFF77FFB00219720FFF77BFB00212B
:100B40009820FFF777FB4FF480710120FFF772FBCD
:100B50004FF4E0610220FFF76DFB41F2300103200A
:100B6000FFF768FB00210420FFF764FB00210C2045
:100B7000FFF760FB00210F20FFF75CFB0021202026
:100B8000FFF758FB00212120FFF754FB212107200C
:100B9000FFF750FBC82001F0A6FE61210720FFF7F8
:100BA00049FBC82001F09FFE40F273110720FFF7B8
:100BB00041FBC82001F097FE36E1FF480068A0F530
:100BC000094189397DD101210020FFF733FBC8207D
:100BD00001F089FE4AF6A4010320FFF72BFBC82091
:100BE00001F081FE00210C20FFF724FBC82001F05A
:100BF0007AFE40F60C010D20FFF71CFBC82001F027
:100C000072FE4FF42C510E20FFF714FBC82001F0A8
:100C10006AFEB0211E20FFF70DFBC82001F063FE25
:100C200042F63F310120FFF705FBC82001F05BFED3
:100C30004FF4C0610220FFF7FDFAC82001F053FE17
:100C400000211020FFF7F6FAC82001F04CFE46F212
:100C500070011120FFF7EEFAC82001F044FE0021D8
:100C60000520FFF7E7FAC82001F03DFE002106202D
:100C7000FFF7E0FAC82001F036FE4EF61C71162090
:100C8000FFF7D8FAC82001F02EFE03211720FFF746
:100C9000D1FAC82001F027FE40F233210720FFF7E8
:100CA000C9FAC82001F01FFE00210B20FFF7C2FA8D
:100CB000C82001F018FE00210F20FFF7BBFAC82062
:100CC00000E0B1E001F00FFE00214120FFF7B2FA91
:100CD000C82001F008FE00214220FFF7ABFAC8202F
:100CE00001F001FE00214820FFF7A4FAC82001F01E
:100CF000FAFD40F23F114920FFF79CFAC82001F0AD
:100D0000F2FD00214A20FFF795FAC82001F0EBFD23
:100D100000214B20FFF78EFAC82001F0E4FD4FF4CC
:100D20006F414420FFF786FAC82001F0DCFD002166
:100D30004520FFF77FFAC82001F0D5FD40F23F11B2
:100D40004620FFF777FAC82001F0CDFD40F2077189
:100D50003020FFF76FFAC82001F0C5FD4FF4017194
:100D60003120FFF767FAC82001F0BDFD4FF4017193
:100D70003220FFF75FFAC82001F0B5FD40F20251C2
:100D80003320FFF757FAC82001F0ADFD40F20751BC
:100D90003420FFF74FFAC82001F0A5FD4FF4017190
:100DA0003520FFF747FAC82001F09DFD4FF401718F
:100DB0003620FFF73FFAC82001F095FD40F20251BE
:100DC0003720FFF737FAC82001F08DFD40F20231DD
:100DD0003A20FFF72FFAC82001F085FD40F20231DA
:100DE0003B20FFF727FAC82001F07DFD00212320DA
:100DF000FFF720FAC82001F076FD00212420FFF73C
:100E000019FAC82001F06FFD4FF400412520FFF7CB
:100E100011FAC82001F067FD00214F20FFF70AFA00
:100E200000214E20FFF706FAC82001F05CFD0020EB
:100E30006249086010BD70B504460E46154621464D
:100E40002020FFF7F7F931462120FFF7F3F9284674
:100E5000FFF7FBF970BD2DE9F043064689461746BA
:100E6000984655480068A0F5134125390BD05248E3
:100E70000068A0F51341283905D04F480068A0F557
:100E80001341203921D131465020FFF7D3F9F01911
:100E9000411E5120FFF7CEF949465220FFF7CAF90B
:100EA00009EB0800411E5320FFF7C4F92220FFF789
:100EB000BDF907FB08F5002404E04FF6FF70FFF7CB
:100EC000C4F9641CAC42F8D32AE03B480068A0F5A2
:100ED0000941893924D14D4620E034461BE0611C8C
:100EE0004420FFF7A7F929464520FFF7A3F9691C1D
:100EF0004620FFF79FF921464E20FFF79BF9294630
:100F00004F20FFF797F92220FFF790F94FF6FF7077
:100F1000FFF79BF9641CBC42E1D36D1C4545DCD353
:100F2000BDE8F08330B504460D4623480068A0F5BF
:100F3000134125390BD020480068A0F5134128390A
:100F400005D01D480068A0F51341203920D1214665
:100F50005020FFF76FF9EF215120FFF76BF9294679
:100F60005220FFF767F940F23F115320FFF762F973
:100F700021462020FFF75EF929462120FFF75AF984
:100F80002220FFF753F90E480088FFF75EF927E0AB
:100F900009480068A0F50941893921D1611C442024
:100FA000FFF748F929464520FFF744F9691C462018
:100FB000FFF740F9214605E028000020000000204E
:100FC000240000204E20FFF735F929464F20FFF777
:100FD00031F92220FFF72AF9AB480088FFF735F9ED
:100FE00030BD0146002901DA484270470846FCE757
:100FF0002DE9F04704460D4616461F46B44206D179
:10100000BD4204D129462046FFF78CFF4CE0A6EBF9
:101010000400791B01D40A4600E04A42002801DBA3
:10102000034600E043429A421FD9BD4205DDAA466D
:101030003D465746A24634465646A94612E0A9EB1D
:101040000500311B4843791BB0FBF1F020441FFA27
:1010500080F8494608F0FF00FFF764FF09F101003E
:101060001FFA80F9B945EADB1EE0B44205DDAA4665
:101070003D465746A24634465646A04612E0A8EBE7
:101080000400791B4843311BB0FBF1F028441FFAE0
:1010900080F9494608F0FF00FFF744FF08F101001E
:1010A0001FFA80F8B045EADBBDE8F0872DE9F04390
:1010B00004460D461746E82C02DCB5F5987F01DDA5
:1010C000BDE8F08371480068A0F5134125390BD0C5
:1010D0006E480068A0F51341283905D06B480068B8
:1010E000A0F5134120391CD121465020FFF7A2F86A
:1010F000611D5120FFF79EF829465220FFF79AF80C
:1011000005F10B015320FFF795F821462020FFF74A
:1011100091F829462120FFF78DF82220FFF786F865
:101120001FE05A480068A0F50941893919D1601DAE
:1011300004EB00214420FFF77DF829464520FFF706
:1011400079F805F10B014620FFF774F821464E208F
:10115000FFF770F829464F20FFF76CF82220FFF7C1
:1011600065F8A7F12000C7B2002620E007EB470092
:10117000474901EB800010F806804FF0000911E0AC
:1011800018F0010F04D040480088FFF75EF803E034
:101190004FF6FF70FFF759F84FEA680809F10100B0
:1011A00000F0FF09B9F1060FEADB701CC6B20C2E85
:1011B000DCDB00BF84E710B50246012000E05043AD
:1011C0000B00A1F10104E1B2F9D110BD2DE9F04706
:1011D0000746884615460024A1462E4625B93022EA
:1011E00041463846FFF762FF04E00A20B6FBF0F6FE
:1011F000601CC4B2002EF8D1A1461CE0601EC1B232
:101200000A20FFF7D8FF0646B5FBF6F00A21B0FB2F
:10121000F1F201FB1200303000F0FF0AA9EB0401EB
:1012200001EB410107EB4101C8B252464146FFF7CD
:101230003DFF601EC4B2002CE0D1BDE8F08770B560
:1012400005460E4614461AE0E82D03DD002506F19A
:101250000C0086B2B6F5987F09DD002005460646EB
:101260004FF4A073F02200210846FFF7F4FD227826
:1012700031462846FFF71AFFA81DC5B2641C207826
:101280000028E1D170BD00002400002028000020CB
:101290008E4700080020FF490861C860142048619B
:1012A00000208861C8610846006840F001000860BD
:1012B00008464068F8490840F64948600846006812
:1012C000F6490840F34908600846006820F4802089
:1012D00008600846406820F4FE00486000208860EE
:1012E000704700B50022FFF7D5FFEA48006840F4D8
:1012F0008030E849086000BFE6480068400CFBD039
:10130000E748E44948600846406840F48030486057
:10131000E448006840F03200E2490860DD480068B7
:1013200040F08070DB49086000BFDA480068400E7A
:10133000FBD0D848406840F00200D649486005E03C
:10134000D4484068C0F3870202F00302022AF7D1B2
:1013500000BD10B51F20D4490880D4A246215020DA
:10136000FFF76DFFD6A250210846FFF768FFD9A20C
:101370005A215020FFF763FFD9A26E215020FFF7BA
:101380005EFFDAA282215020FFF759FF10BD10B591
:101390004FF47840C44908804FF4A073F022002134
:1013A0000846FFF758FD10BD10B51122022101209B
:1013B00001F04DFCD148407CD1490870CF48C07C39
:1013C000CE49897C00EB0120CE490860CB48407DA6
:1013D000CA49097D00EB0120CB490860C748C07DA0
:1013E000C649897D00EB0120C8490860C348407E9A
:1013F000C249097E00EB0120C5490860BF48C07E94
:10140000BE49897E00EB0120C2490860BB48407F8D
:10141000BA49097F00EB0120BF490860B748C07F87
:10142000B649897F00EB0120BC490860B34890F8B9
:101430002100B24991F8201000EB0120B849086062
:101440000120B849087010BD10B50120AB490870E3
:10145000AC480068000A4870AA4800688870AA482A
:101460000068000AC870A84800680871A7480068AA
:10147000000A4871A54800688871A5480068000AFC
:10148000C871A34800680872A2480068000A487240
:10149000A04800688872A0480068000AC8729E4888
:1014A000006808739D480068000A48739B480068FC
:1014B00088739B480068000AC873994800680874DC
:1014C00011220221012001F08AFB10BD0146964A3B
:1014D00012784A434FF0E0235A6100229A610122B8
:1014E0001A6100BF4FF0E022106910F0010F02D026
:1014F00010F4803FF6D000224FF0E0231A619A6189
:10150000704770B504460D46DC2C0EDD0C2D0CDA50
:101510004FF4A073F02214210020FFF79CFC83A25B
:101520000021D220FFF78BFE6CE005B1A4B929465B
:101530002046FFF7F7FC2946601CC0B2FFF7F2FC1B
:10154000681C81B22046FFF7EDFC681C81B2601C6C
:10155000C0B2FFF7E7FC55E0782C3DDA142D3BDAFA
:10156000142C04DC4FF478404F4908804AE0282CC2
:1015700001DC012000E0002018B11F204A4908804A
:1015800040E03C2C01DC012000E0002020B14FF4C1
:10159000FC604549088035E0502C01DC012000E06A
:1015A000002020B14FF6E0703F4908802AE0642C0B
:1015B00001DC012000E0002020B14FF61F003A4975
:1015C00008801FE0782C01DC012000E00020C8B179
:1015D00000203549088015E0142D13DD29462046EA
:1015E000FFF7A0FC2946601CC0B2FFF79BFC681CFB
:1015F00081B22046FFF796FC681C81B2601CC0B225
:10160000FFF790FC70BD70B54948006820F080007D
:101610004849C1F80C0C4FF00500FFF757FFD020E8
:1016200001F082FA0520FFF751FF002001F094FA43
:1016300004462402002001F08FFA04430520FFF73E
:1016400045FF3B48006840F080003A49C1F80C0C67
:101650004FEAD404384804604FF00F00FFF736FF1C
:101660003448D0F80C0C20F080003249C1F80C0C42
:101670000520FFF72BFF902001F056FA0520FFF719
:1016800025FF002001F068FA05462D02002001F038
:1016900063FA53E0001002400000FFF8FFFFF6FE7F
:1016A00000041C00002002402400002053544D334D
:1016B0003220544F554348205445535400000000F5
:1016C00053544D33322D48592D686579616F647AD2
:1016D00000000000323031312F352F33310000004F
:1016E000496E69742E2E2E2E00000000506C65612C
:1016F000736520576169742E2E2E00009C00002017
:10170000380000203C0000204C0000204000002059
:101710005000002044000020540000204800002019
:1017200058000020350000202C000020434C5200BF
:101730000C0C014000000140600000200543052022
:10174000FFF7C4FEED08FF480560FF48006840F061
:101750008000FE49C1F80C0CFA48006864280FD9D3
:10176000FB48006864280BD9F6480068B0F57A6F2A
:1017700006D2F7480068B0F57A6F01D2012070BD3B
:101780000020FCE700B59BB000201090059000BF42
:10179000FFF739FF88B1EB48006881B206AA1098BC
:1017A00022F81010EA48006882B20BA8109920F8BD
:1017B00011201098401CC0B210904021E2480C3813
:1017C00002F013F91290129810B910980A28DFDB72
:1017D00010980A287ED100BF0020119012901FE0BF
:1017E00006A9129831F8101006AA401C32F8100011
:1017F000814211DD06A91298401C31F810000590B5
:10180000129831F81010401C22F810101299059807
:1018100022F81100012011901298401CC0B21290C1
:101820001098401E12998842DADC11980028D3D112
:1018300000BF00201190129022E00BA8129930F8FE
:1018400011200BA91298401C31F81000824213DDC0
:101850001298401C31F8100005900BA8129930F82E
:1018600011200BA91298401C21F81020129A0598FB
:1018700021F81200012011901298401CC0B2129061
:101880001098401E12998842D7DC11980028D0D1B8
:10189000BDF81E001790BDF820101691BDF832005B
:1018A0001590BDF834001490DDE91610884204DD6F
:1018B000DDE916011E3081420CDCDDE916018842AB
:1018C00004DDDDE916101E30814203DCDDE9141071
:1018D000884200E084E004DDDDE914011E3081422D
:1018E0007EDCDDE91401884204DDDDE914101E30E0
:1018F000814275DCBDF81E00BDF82010084404903C
:1019000000EBD0704010039002F08EFD1A90BDF8ED
:101910003210BDF834000844049000EBD070401041
:10192000039002F081FD19904FF08B411A9802F05C
:10193000A7FD55D84FF08B41199802F0A1FD4FD863
:101940001A9802F051FD7F490860199802F04CFD89
:101950007F4908607F480078012841D17E480068AF
:101960007E49096888427ED27D4801687D480068CA
:10197000814278D27A48006800EB80007949096892
:10198000884271D27448006800EB8000734909688E
:1019900088427FD27348006871490968401A80B252
:1019A0001390139802F058FD6F49049002F05AFC0E
:1019B0001890139802F050FD6C490290189802F0AC
:1019C00093FD0190029902F06DFE4FF0804103906B
:1019D00002F048FC049002F007FD80B2139000E092
:1019E000C2E35F4801681398081A019002F034FDC1
:1019F0000290199902F04BFE0390189902F032FC04
:101A0000049002F0F1FC4F490860544800685249C4
:101A10000968401A80B21390139802F01DFD5449D2
:101A2000049002F01FFC1890139802F015FD514924
:101A30000290189802F058FD0190029902F032FECF
:101A40004FF08041039002F00DFC049002F0CCFCBA
:101A500080B21390404801681398081A019002F070
:101A6000FBFC029001E0AAE014E01A9902F00FFEDC
:101A70000390189902F0F6FB049002F0B5FC34498B
:101A800008600846006881B22E480068C0B2FFF7BF
:101A900038FD94E03348016831480068081A80B284
:101AA0001390139802F0D8FC3149049002F0DAFB4D
:101AB0001890139802F0D0FC2E490290189802F06A
:101AC00013FD0190029902F0EDFD4FF0804103906B
:101AD00002F0C8FB049002F087FC80B2139020480B
:101AE00001681398081A019002F0B6FC0290199947
:101AF00002F0CDFD0390189902F0B4FB049002F0BF
:101B000073FC134908601548006813490968401AB6
:101B100080B21390139802F09FFC1349049002F0D6
:101B2000A1FB1890139802F097FC104902901898A6
:101B300002F0DAFC0190029902F0B4FD4FF080410E
:101B4000039019E05C0000200C0C014000000140F3
:101B500060000020350000203C00002044000020F0
:101B60004C0000205000002000004843000070435B
:101B700000008C430000A04302F074FB049002F0CC
:101B800033FC80B21390FF4801681398081A019043
:101B900002F062FC02901A9902F079FD0390189904
:101BA00002F060FB049002F01FFCF7490860F74860
:101BB000006881B2F4480068C0B2FFF7A2FCF448A4
:101BC0000168F448006881427DD2F3480068F34917
:101BD0000968884277D2F048006800EB8000EF493E
:101BE0000968884270D2EA48006800EB8000E94941
:101BF0000968884268D2E9480068E7490968401ADC
:101C000080B21390139802F027FCE549049002F08B
:101C100029FB1890139802F01FFCE24902901898D3
:101C200002F062FC0190029902F03CFD4FF080410D
:101C3000039002F017FB049002F0D6FB80B21390E1
:101C4000D54801681398081A009002F005FC01902D
:101C5000199902F01CFD0290189902F003FBD1497A
:101C6000039002F014FD049002F0BEFBC649086028
:101C7000C8480068C6490968401A80B21390139892
:101C800002F0EAFBC849049002F0ECFA18901398AD
:101C900002F0E2FBC5490290189802F025FC019081
:101CA000029902F0FFFC4FF08041039002F0DAFA53
:101CB000049002F099FB80B21390B5480168139824
:101CC000081A019001E096E017E002F0C5FB0290CF
:101CD0001A9902F0DCFC0390189902F0C3FA049000
:101CE00002F082FBA94908600846006881B2A64854
:101CF0000068C0B2FFF705FC7DE0A8480068A6496F
:101D00000968401A80B21390139802F0A5FBA64907
:101D1000049002F0A7FA1890139802F09DFBA349D3
:101D20000290189802F0E0FB0190029902F0BAFCD0
:101D30004FF08041039002F095FA049002F054FBBA
:101D400080B21390944801681398081A009002F02A
:101D500083FB0190199902F09AFC0290189902F005
:101D600081FA9249039002F092FC049002F03CFB4D
:101D7000864908608748016885480068081A80B26B
:101D80001390139802F068FB8549049002F06AFAF8
:101D90001890139802F060FB82490290189802F0A4
:101DA000A3FB0190029902F07DFC4FF0804103906B
:101DB00002F058FA049002F017FB80B213907448B6
:101DC00001681398081A019002F046FB02901A99D4
:101DD00002F05DFC0390189902F044FA049002F0BE
:101DE00003FB694908606948006881B26648006879
:101DF000C0B2FFF786FB6E480068624909688842F6
:101E00007DD26C4800686C490968884277D269487D
:101E1000006869490968884272D265480068594972
:101E2000096888426CD26448006862490968401AAF
:101E300080B21390139802F00FFB5949049002F0FE
:101E400011FA1890139802F007FB5649029018985F
:101E500002F04AFB0190029902F024FC4FF080410D
:101E6000039002F0FFF9049002F0BEFA80B21390E2
:101E7000504801681398081A019002F0EDFA029098
:101E8000199902F004FC0390189902F0EBF9049000
:101E900002F0AAFA3C4908603A48006844490968D7
:101EA000401A80B21390139802F0D6FA3E4904907B
:101EB00002F0D8F91890139802F0CEFA3B4902903C
:101EC000189802F011FB0190029902F0EBFB4FF021
:101ED0008041039002F0C6F9049002F085FA80B2C6
:101EE0001390334801681398081A009002F0B4FA6E
:101EF00001901A9902F0CBFB0290189901E0AFE033
:101F000013E002F0AFF92949039002F0C0FB0490FE
:101F100002F06AFA1D4908600846006881B21A4852
:101F20000068C0B2FFF7EDFA9AE023480068214943
:101F30000968401A80B21390139802F08DFA1A497A
:101F4000049002F08FF91890139802F085FA17495F
:101F50000290189802F0C8FA0190029902F0A2FBD0
:101F60004FF08041039002F07DF9049002F03CFABA
:101F700080B213900F4801681398081A019002F07C
:101F80006BFA1BE03C0000205C0000206000002099
:101F90004000002048000020500000204C0000209D
:101FA000000048430000704300008C430000A04341
:101FB000440000205400002058000020029019998D
:101FC00002F065FB0390189902F04CF9049002F0BE
:101FD0000BFAFE490860FE480068FE490968401A8D
:101FE00080B21390139802F037FAFB49049002F084
:101FF00039F91890139802F02FFAF84902901898BE
:1020000002F072FA0190029902F04CFB4FF080410D
:10201000039002F027F9049002F0E6F980B21390E1
:10202000EC4801681398081A009002F015FA019024
:102030001A9902F02CFB0290189902F013F9E74963
:10204000039002F024FB049002F0CEF9E44908600A
:10205000DE48006881B2E2480068C0B2FFF751FA7A
:10206000E0480068E049096888427DD2DF4801689D
:10207000DF480068814277D2DC480168DC480068AC
:10208000814272D2D7480168D748006881426CD239
:10209000D7480168D5480068081A80B21390139891
:1020A00002F0DAF9CC49049002F0DCF818901398A9
:1020B00002F0D2F9C9490290189802F015FA01907D
:1020C000029902F0EFFA4FF08041039002F0CAF853
:1020D000049002F089F980B21390C4480168139803
:1020E000081A009002F0B8F90190199902F0CFFA9D
:1020F0000290189902F0B6F8B849039002F0C7FAB6
:10210000049002F071F9B6490860B7480168B54813
:102110000068081A80B21390139802F09DF9B5492F
:10212000049002F09FF81890139802F095F9B249C4
:102130000290189802F0D8F90190029902F0B2FAD0
:102140004FF08041039002F08DF8049002F04CF9BA
:1021500080B21390A34801681398081A009002F007
:102160007BF901901A9901E09AE017E002F08FFAEA
:102170000290189902F076F89F49039002F087FACE
:10218000049002F031F9914908600846006881B274
:1021900093480068C0B2FFF7B4F981E09448016841
:1021A00092480068081A80B21390139802F054F90C
:1021B0009049049002F056F81890139802F04CF9E8
:1021C0008D490290189802F08FF90190029902F05F
:1021D00069FA4FF08041039002F044F8049002F055
:1021E00003F980B21390814801681398081A00908F
:1021F00002F032F90190199902F049FA0290189907
:1022000002F030F87C49039002F041FA049002F0A9
:10221000EBF86E4908607448016872480068081A53
:1022200080B21390139802F017F96B49049002F0F2
:1022300019F81890139802F00FF96849029018984D
:1022400002F052F90190029902F02CFA4FF080410D
:10225000039002F007F8049002F0C6F880B21390E1
:10226000604801681398081A009002F0F5F8019090
:102270001A9902F00CFA0290189901F0F3FF5749ED
:10228000039002F004FA049002F0AEF8544908609A
:102290004E48006881B252480068C0B2FFF731F979
:1022A0001BB000BD0146554A12884A434FF0E02357
:1022B0005A6100229A6101221A6100BF4FF0E022A8
:1022C000106910F0010F02D010F4803FF6D0002208
:1022D0004FF0E0231A619A61704770B504460D46CD
:1022E0004FF4784046490880A4F10B01C8B2691C3C
:1022F0008BB204F10C01CAB22946FEF779FEA4F1B3
:102300000B01C8B2A91C8BB204F10C01CAB2691C42
:1023100089B2FEF76DFEA5F10B0081B2173083B2D2
:10232000601CC2B2E0B2FEF763FEA5F10B0081B201
:10233000173083B2A01CC2B2601CC0B2FEF758FEB8
:1023400070BD10B54FF4A073F02200210846FEF7CF
:1023500082FD4FF478402A4908802AA22821502083
:10236000FEF76DFFFEF7F5FF14210846FFF7B5FFF6
:1023700063E02948007801285FD14FF4AA70FFF785
:1023800091FF4021254801F030FB2549087008469F
:102390000078D0B948E00A20FFF798F8FFF7F2F983
:1023A0000A20FFF793F80E480068094908600748BB
:1023B00000681C4908604021184801F016FB1849C4
:1023C000087000201449087032E033E060000020FB
:1023D0003C000020440000200000484300007043FF
:1023E0005C00002048000020400000205800002031
:1023F0005400002000008C430000A0432E00002069
:1024000024000020546F756368204669727374203D
:10241000506F696E7400000031000020000C014014
:10242000360000204C000020F84800780028B2D088
:1024300000BF03E00020F64908709AE700BF4FF4A0
:10244000A073F02200210846FEF705FDF1A2282125
:102450005020FEF7F4FEFEF77CFF1421DC20FFF78E
:102460003CFF0020EA49087034E0E9480078012880
:1024700030D14FF4AA70FFF715FF4021EA4801F070
:10248000B4FAE24908700846007800BB19E00A2057
:10249000FFF71CF8FFF776F90A20FFF717F8E34873
:1024A0000068E3490860E3480068E34908604021A8
:1024B000DD4801F09AFAD54908700020D449087027
:1024C00003E0D24800780028E1D000BF03E00020FC
:1024D000CF490870C9E700BF4FF4A073F022002174
:1024E0000846FEF7B8FCCBA228215020FEF7A7FE35
:1024F000FEF72FFF4FF496711420FFF7EEFE002039
:10250000C349087034E0C2480078012830D14FF444
:10251000AA70FFF7C7FE4021C34801F066FABB4925
:1025200008700846007800BB19E00A20FEF7CEFFCD
:10253000FFF728F90A20FEF7C9FFBC480068BF4929
:102540000860BC480068BE4908604021B64801F0F8
:102550004CFAAE4908700020AD49087003E0AB4862
:1025600000780028E1D000BF03E00020A8490870EF
:10257000C9E700BF4FF4A073F02200210846FEF720
:102580006AFCA4A228215020FEF759FEFEF7E1FEC6
:102590004FF49671DC20FFF7A0FE00209C490870E4
:1025A00034E09B480078012830D14FF4AA70FFF73F
:1025B00079FE40219C4801F018FA944908700846B9
:1025C000007800BB19E00A20FEF780FFFFF7DAF879
:1025D0000A20FEF77BFF954800689A4908609548F5
:1025E00000689949086040218F4801F0FEF9874949
:1025F000087000208649087003E0844800780028AD
:10260000E1D000BF03E0002081490870C9E700BFA6
:1026100001208E490870FEF717FF10BD08B54FF472
:10262000C06000F0CFFC17208DF8000000208DF86E
:1026300001008DF8020001208DF80300684600F0CB
:10264000C6FC08BD08B5012144F27C0001F0EFFB97
:102650002020ADF8000010208DF8030003208DF835
:1026600002006946704801F02FF92C20ADF80000F7
:102670006946774801F028F94020ADF80000694626
:10268000744801F021F92C21714801F0C8F940216A
:10269000704801F0C4F92021634801F0C0F94821D5
:1026A0006D4801F0BCF90120ADF8000069466948A9
:1026B00001F00AF90220ADF800006946654801F012
:1026C00003F98020ADF800006946574801F0FCF896
:1026D000A020ADF800006946604801F0F5F8102030
:1026E000ADF8000069465A4801F0EEF84FF480500A
:1026F000ADF8000069464C4801F0E6F81020ADF84E
:1027000000006946554801F0DFF84020ADF80000B0
:1027100028208DF803006946434801F0D5F8402091
:10272000ADF8000069464D4801F0CEF84CF2337028
:10273000ADF8000003208DF8020018208DF803008A
:102740006946454801F0C0F84FF68070ADF80000CA
:102750006946404801F0B8F88020ADF800006946AD
:102760003D4801F0B1F84FF40060ADF80000694653
:10277000394801F0A9F88021374801F050F94CF2AE
:102780000301354801F04BF94FF4F061314801F095
:1027900046F901212F4801F044F902212D4801F0AA
:1027A00040F910212C4801F03AF920212A4801F083
:1027B00036F940211C4801F032F94FF40051264807
:1027C00001F02DF91021224801F029F94FF4805130
:1027D000154801F024F91021204801F020F908BD26
:1027E0004FF0E021096921F004014FF0E02211616E
:1027F000C21700EB5272D210194B1A7019460978A1
:102800004FF47A725143174A118070473600002006
:1028100031000020546F756368205365636F6E64E8
:1028200020506F696E740000000C01405C000020B5
:1028300040000020600000205000002044000020E4
:1028400054000020480000205800002035000020DF
:102850000010014000180140001401400008014030
:102860002C0000202E00002010B501F0D3FB012128
:10287000084601F0DCFA10BDFFF7F6FF4820FFF72D
:10288000AFFFFFF7DFFE00F001F90121080201F0C0
:10289000C1FAFDF79CFCFDF7EAFCFFF7BFFE06213D
:1028A000012001F025F940205749086000200871F7
:1028B0000C20487101208871084600F00EFCFFF7DB
:1028C00040FDFEF771FDFEF762FDFEF742FD4FA2EF
:1028D0006E215020FEF7B3FC4FA282215020FEF75C
:1028E000AEFC00BFFEE700E0401E0028FCD17047B0
:1028F00010B502214D4801F094F84D48FFF7F3FF61
:1029000002214A4801F08BF84948FFF7ECFF10BD5F
:102910004848006820F080004749C1F80C0C704717
:102920000021464A126822F02002434BC3F80C28CB
:1029300000BF23E010F0800F07D0404A126842F039
:1029400080023D4BC3F80C2806E03C4A126822F096
:102950008002394BC3F80C284206100E374A126821
:1029600022F02002344BC3F80C28344A126842F09B
:102970002002C3F80C2801F10102D1B20829D9DBE9
:1029800070470021002000BF18E04204100C2B4AC1
:10299000126842F02002284BC3F80C281A46D2F8DD
:1029A0000C2822F02002C3F80C28254A126812F0E5
:1029B000400F01D0421C90B24A1CD1B20C29E4DB7A
:1029C00070472DE9F04704460D4690469946DDF8DC
:1029D00020A01C48A0F800A000260FE0002707E078
:1029E000AA1991B2E219D0B2FEF79CFA781C87B20C
:1029F000A8EB0400B842F3DC701C86B2A9EB05001A
:102A0000B042EBDCBDE8F0876C000020496E6974D1
:102A10002E2E2E2E4F4B0000506C65617365205793
:102A20006169742E2E2E4F4B0000000000180140EB
:102A3000FFFF1F000C0C0140000001400C0801408A
:102A40000808014024000020704700BFFEE700BFD7
:102A5000FEE700BFFEE700BFFEE770477047704724
:102A6000704710B5402000F0A5FB48B12021054873
:102A700000F0D7FF012004490870402000F0ABFBB4
:102A800010BD0000000C01403100002000B587B0EF
:102A90000121080301F0CBF90121042001F0C7F95D
:102AA000E020ADF8040003208DF8060018208DF812
:102AB000070001A97C4800F007FF1020ADF80400D2
:102AC00003208DF8060010208DF8070001A9764834
:102AD00000F0FAFE1021744800F0A1FF0020ADF8CC
:102AE00008004FF48270ADF80A000020ADF80C0029
:102AF0000220ADF80E000120ADF810004002ADF844
:102B000012001820ADF814000020ADF816000720C0
:102B1000ADF8180002A9654800F0F2F801216348F9
:102B200000F091F907B000BD10B5044600BF0221C6
:102B30005E4800F011FA0028F9D021465B4800F009
:102B4000B8F900BF0121594800F006FA0028F9D071
:102B5000564800F0B0F910BD10B504462046FFF706
:102B6000E3FF10BD10B5002410214F4800F059FFBD
:102B70000520FFF7F1FF00BFA520FFF7EDFFC4B26E
:102B800004F001000128F7D01021474800F047FF6A
:102B900010BD10B50446FFF7E5FF1021424800F0D4
:102BA00040FF0620FFF7D8FF10213F4800F037FF15
:102BB000FFF7D8FF10213C4800F033FFD820FFF783
:102BC000CBFF200CFFF7C8FF200AFFF7C5FFE0B2DC
:102BD000FFF7C2FF1021344800F021FF10BD2DE99E
:102BE000F04107460C4616460220FFF7D2FFFFF7DA
:102BF000B9FF10212C4800F014FF0620FFF7ACFFAE
:102C00001021294800F00BFFFFF7ACFF10212648E8
:102C100000F007FF0220FFF79FFFC4F30740FFF714
:102C20009BFFC4F30720FFF797FFE0B2FFF794FF85
:102C3000002504E01E49485DFFF78EFF6D1CB5427C
:102C4000F8D31021184800F0EAFEBDE8F0812DE924
:102C5000F04107460C461646FFF784FF1021124844
:102C600000F0DFFE0320FFF777FFC4F30740FFF714
:102C700073FFC4F30720FFF76FFFE0B2FFF76CFFAD
:102C8000002508E00020FFF767FFC1B2084A05F100
:102C9000110011546D1CB542F4D31021024800F00C
:102CA000BEFEBDE8F0810000000801400030014098
:102CB0009C00002010B50446BF48844208D1012181
:102CC000801401F0CEF80021A01401F0CAF816E03B
:102CD000BA48844208D10121001401F0CFF8002144
:102CE000201401F0CBF80AE0B548844207D1012155
:102CF000C01301F0C3F80021E01301F0BFF810BDCC
:102D000010B50022028802F441520B884C882343FC
:102D10008C882343CC8823430C8923434C89234349
:102D20008C892343CC8923431A430280838B4FF23F
:102D3000FF74234083830B8A038210BD2DE9F04F7B
:102D400085B005460C464FF0000902274FF00008F9
:102D50004FF0010B0026B246A88B4FF2400108400D
:102D6000A88302202884B5F81C90A068022801D10D
:102D700000BF36E0A08810B94FF0010B01E04FF022
:102D8000020B8E48854200D100E000BF684600F08B
:102D9000E1FFDDF800A0E088B0F5007F0AD14FEA3E
:102DA0001A2000EB80004000A168B0FBF1F0401D4C
:102DB00086B20BE04FEA4B10BAFBF0F000EB80005C
:102DC0004000A168B0FBF1F0401D86B20A20B6FBBE
:102DD000F0F606F00108A6EB0800C0F34F074FEA33
:102DE0000828022F01DBFF2F02DD02274FF0000829
:102DF000E08840EA080038432884A088A189084375
:102E0000618808432188084340F4006040EA0909CA
:102E1000A5F81C9005B0BDE8F08F0021018041802D
:102E20008180C180018141818181C181072101822D
:102E300070470021018041808180C1800221816032
:102E400000218181704721B1028842F04002028056
:102E500004E002884FF6BF731A400280704721B128
:102E6000828B42F48062828304E0828B4FF6FF33D0
:102E70001A408283704770B5002400230C1101258D
:102E8000A540ABB21AB185881D43858004E08588D2
:102E9000DE43B6B23540858070BD10B51AB1838867
:102EA0000B43838004E08388CC43A4B22340838017
:102EB00010BD81817047014688897047A1F57E4227
:102EC000FF3A04D0028842F48072028004E0028853
:102ED0004FF6FF631A400280704721B1828842F0AA
:102EE0000402828004E082884FF6FB731A408280DD
:102EF000704702884FF2FF731A40028002880A432B
:102F000002807047018841F480510180704721B1EF
:102F1000028842F40052028004E002884DF6FF73FA
:102F20001A400280704702460020012901D0108B10
:102F300000E0908A70470146088A7047B1F5804FDB
:102F400004D1028842F48042028004E002884BF6F9
:102F5000FF731A40028070470246002013890B421B
:102F600001D0012000E000207047CA430281704771
:102F7000F0B50246002000240023002501F00F07D1
:102F80000126BE40B4B20B1101269E40B3B2968812
:102F900006EA03051689264202D00DB1012000E0A1
:102FA0000020F0BD10B5002201F00F040123A34062
:102FB0009AB2D343038110BD003001400038004075
:102FC000003C004036490143364A1160704770B5F5
:102FD000002100230F22C4784CB3324C246804F43F
:102FE000E064C4F5E0644FEA1421C1F1040322FA5D
:102FF00001F2447804FA03F1847804EA020444EA12
:1030000001014FEA0111284C0678A155047804F01B
:103010001F054FF0010404FA05F405784FEA651521
:103020004FF0E02606EB8505C5F8004109E004787D
:1030300004F01F050124AC401C4D0678761145F8BC
:10304000264070BD1A4A0A4002431A4B1A60704764
:1030500041B1194A126842EA00024FF0E023C3F876
:10306000102D07E0144A126822EA00024FF0E02314
:10307000C3F8102D7047042808D14FF0E0210969EA
:1030800041F004014FF0E022116107E04FF0E02130
:10309000096921F004014FF0E0221161704700003E
:1030A0000000FA050CED00E000E400E080E100E043
:1030B00080FFFF1F08ED00E010ED00E00020474911
:1030C00008604749C1F804044649086001F1040159
:1030D0000860454845490860704700213F498279AA
:1030E000DAB33F4AD2F8002403689A433C4BC3F852
:1030F00000241A46D2F8042403689A4301F1040319
:103100001A60027911440A68036842EA03020A60FD
:10311000334AD2F80824036822EA0302304BC3F88A
:1031200008241A46D2F80C24036822EA0302304B22
:103130001A604279102A11D1294AD2F8082403686A
:103140001A43274BC3F808241A46D2F80C24036804
:103150001A43234BC3F80C240EE007E01F494279C1
:1031600011440A6803681A430A6005E002791144B1
:103170000A6803689A430A60704700210160017180
:103180000C2141710021817170471A49096841EA97
:103190000001134AC2F81014704701460020134A78
:1031A00012680A4201D0012000E0002070470F4958
:1031B00008607047014600200022084B1B6803EAA4
:1031C0000102074BD3F814340B4202D00AB101209C
:1031D00000E0002070470549086070470004014086
:1031E0000000014008040140FFFF0F0014040140EB
:1031F0000C0401401004014030B943F2DB014FF0F0
:10320000204242F8201005E043F2D2014FF0204264
:1032100042F820106FF07042411C4FF0204343F8F9
:10322000212011461A4602EB8002C2F804117047B1
:1032300010280AD118214FF0204211664021516612
:103240004FF0FC319166D16610E01821FC4A116004
:103250004FF040014FF02042C2F884104FF0FC3193
:10326000F84A11604FF02042C2F88C1070471820C5
:10327000F54908604FF000004FF02041C1F8A4006C
:103280004FF0FC30F149086001F10401086001F1E0
:10329000040108607047D0E901121143C26811436C
:1032A000026911434269114382691143C2691143A2
:1032B000026A1143426A1143826A1143C26A11438E
:1032C0004FF02043026843F822108168082908D192
:1032D0001A46016852F8211041F04001026843F893
:1032E0002210016B0968026B526841EA0211026BFD
:1032F000926841EA0221026BD26841EA0241026B04
:10330000126941EA0251026B526941EA0261026BA1
:10331000926911430268521C4FF0204343F8221077
:10332000816AB1F5804F1AD1416B0968426B5268CE
:1033300041EA0211426B926841EA0221426B126932
:1033400041EA0251426B526941EA0261426B926961
:103350001143026803EB8202C2F8041108E06FF027
:1033600070414FF02043026803EB8202C2F804115F
:10337000704730B5002100220023446844F008045F
:1033800085682C43C5682C4305692C43456944EA8C
:103390004524856944EA4531C4692468C5696D6876
:1033A00044EA0524C569AD6844EA0544C569ED6889
:1033B00044EA0562046A2468056A6D6844EA0524E3
:1033C000056AAD6844EA0544056AED6844EA0563A8
:1033D0000468102C05D14FF020442166A266E366F4
:1033E00007E0974C21604FF02044C4F88820984CA7
:1033F000236030BD016841F01001426841EA42217A
:10340000826841EA4231904A1160C1680968C26825
:10341000526841EA0221C268926841EA0241C268E8
:10342000D26841EA0261894A11600169096802694A
:10343000526841EA02210269926841EA0241026946
:10344000D26841EA0261834A1160416909684269B0
:10345000526841EA02214269926841EA02414269A6
:10346000D26841EA02614FF02042C2F8B0107047C2
:10347000002101600221416000218160C160016181
:1034800041618161C1614FF4805101624900416233
:1034900000218162C1620F21026B1160026B5160D9
:1034A000FF21026B91600F21026BD160026B1161F1
:1034B000026B51610021026B91610F21426B11601F
:1034C000426B5160FF21426B91600F21426BD160D2
:1034D000426B1161426B51610021426B91617047F7
:1034E00010210160002141608160C1600161416182
:1034F0008161FC21C2691160C2695160C269916039
:10350000C269D160026A1160026A5160026A916008
:10351000026AD16070470021016041608160FC2136
:10352000C2681160C2685160C2689160C268D160AF
:103530000269116002695160026991600269D1609B
:103540004269116042695160426991604269D1608B
:10355000704751B14FF0204252F8202042F0010252
:103560004FF0204343F8202009E04FF0204252F86A
:103570002020394B1A404FF0204343F82020704759
:1035800099B1102808D14FF02042126E42F0040287
:103590004FF020431A661DE0294A126842F00402E7
:1035A0004FF02043C3F8802014E0102809D14FF0D9
:1035B0002042126E284BDB1E1A404FF020431A6641
:1035C00008E01F4A1268254B02EA03024FF020432D
:1035D000C3F88020704740B11B49096841F00401DD
:1035E0004FF02042C2F8A01008E0174909681B4AB2
:1035F00001EA02014FF02042C2F8A010704799B1D1
:10360000102808D14FF02042126E42F040024FF0D5
:1036100020431A662DE00A4A126842F040024FF039
:103620002043C3F8802024E0102819D14FF0204215
:10363000126E0A4B3C3B1A404FF020431A6618E0CA
:10364000800000A0880000A0A00000A0A80000A0AA
:103650008C0000A0AC0000A0FEFF0F00FBFF0F00DD
:10366000644A1268644B02EA03024FF02043C3F835
:103670008020704701460020102903D14FF02042DE
:10368000506F01E05D4A1068704710B5F2B1102824
:1036900007D14FF020435B6E0B434FF0204463662D
:1036A00032E0B0F5807F08D1554B1B6843EA010337
:1036B0004FF02044C4F8843026E0524B1B6843EAA4
:1036C00001034FF02044C4F8A4301DE0102807D1B6
:1036D0004FF020435B6E8B434FF02044636613E052
:1036E000B0F5807F08D1464B1B6823EA01034FF0F9
:1036F0002044C4F8843007E0424B1B6823EA0103EE
:103700004FF02044C4F8A43010BD10B5024600208C
:103710000023102A03D14FF02044636E07E0B2F576
:10372000807F02D1364C236801E0364C23680B427F
:1037300001D0012000E0002010BD102807D14FF07B
:103740002042526E8A434FF020435A6613E0B0F590
:10375000807F08D12A4A126822EA01024FF02043F2
:10376000C3F8842007E0274A126822EA01024FF0DA
:103770002043C3F8A420704770B502460020002300
:1037800000240025102A03D14FF02046736E07E075
:10379000B2F5807F02D11A4E336801E0194E3368CA
:1037A00003EA010403EAD10514B10DB1012000E0E0
:1037B000002070BD102808D14FF02042526E22EA3E
:1037C000D1024FF020435A6613E0B0F5807F08D154
:1037D0000B4A126822EAD1024FF02043C3F884203A
:1037E00007E0084A126822EAD1024FF02043C3F8EA
:1037F000A4207047800000A0BFFF0F00940000A02D
:10380000840000A0A40000A010B50446CA48844269
:1038100008D10121042000F024FB0021042000F045
:1038200020FB46E0C548844208D10121082000F071
:1038300018FB0021082000F014FB3AE0C048844245
:1038400008D10121102000F00CFB0021102000F015
:1038500008FB2EE0BB48844208D10121202000F063
:1038600000FB0021202000F0FCFA22E0B648844250
:1038700008D10121402000F0F4FA0021402000F09E
:10388000F0FA16E0B148844208D10121802000F00E
:10389000E8FA0021802000F0E4FA0AE0AC48844213
:1038A00007D10121801500F0DCFA0021A01500F0FD
:1038B000D8FA10BD10B50121084600F0D2FA002157
:1038C000012000F0CEFA10BD2DE9F041024600259E
:1038D0000026002000230024002791F803C00CF0EC
:1038E0000F0591F803C01CF0100F03D091F802C02F
:1038F0004CEA0505B1F800C01CF0FF0F31D0146888
:1039000000202BE04FF0010C0CFA00F3B1F800C0DE
:103910000CEA03069E4220D183004FF00F0C0CFAF4
:1039200003F7BC4305FA03FC4CEA040491F803C016
:10393000BCF1280F06D14FF0010C0CFA00FCC2F8C4
:1039400014C00AE091F803C0BCF1480F05D14FF054
:10395000010C0CFA00FCC2F810C0401C0828D1D39E
:103960001460B1F800C0BCF1FF0F34DD54680020D2
:103970002EE000F1080C4FF0010808FA0CF3B1F842
:1039800000C00CEA03069E4221D183004FF00F0CC9
:103990000CFA03F7BC4305FA03FC4CEA040491F863
:1039A00003C0BCF1280F05D100F1080C08FA0CF88F
:1039B000C2F8148091F803C0BCF1480F07D100F1A0
:1039C000080C4FF0010808FA0CF8C2F81080401CEF
:1039D0000828CED35460BDE8F0814FF6FF71018016
:1039E000022181700421C170704702460020936853
:1039F0000B4201D0012000E000207047014688689A
:103A000080B2704702460020D3680B4201D00120EB
:103A100000E0002070470146C86880B2704701612D
:103A20007047416170470AB1016100E04161704730
:103A3000C16070474FF480320A43826181618261C4
:103A400082698269704702460020424B18684FF62F
:103A50008073184040EA021008433E4B18607047DC
:103A60003D49C8617047F0B50A4600230024002193
:103A7000002500F00046B6F1004F02D1354EF16945
:103A800001E0344E7168C0F3034583B200F4401680
:103A9000B6F5401F08D121F070612E4E766826F0F1
:103AA00070662C4F7E6012E000F48016B6F5801F21
:103AB00006D1032606FA05F4A14341F0706106E041
:103AC000460D360103FA06F6B14341F0706122B1AA
:103AD000460D360103FA06F6314300F00046B6F112
:103AE000004F02D11B4EF16101E01A4E7160F0BD32
:103AF00030B500228B071C0F0F2303FA04F2154B7D
:103B000008338C1053F824309343124C08348D1032
:103B100044F8253023468C1053F824308C07240FAA
:103B200000FA04F423430B4C08348D1044F825307C
:103B300030BD0A490860704700080140000C014090
:103B4000001001400014014000180140001C014019
:103B5000002001400000014000002042DC00204223
:103B6000DB48006840F00100D94908600846406819
:103B7000D8490840D649486008460068D6490840F8
:103B8000D34908600846006820F480200860084691
:103B9000406820F4FE0048604FF41F0088607047C2
:103BA000CB49096821F48031C94A1160114609687E
:103BB00021F480211160B0F5803F03D0B0F5802F53
:103BC0000ED106E0C249096841F48031C04A116053
:103BD00007E0BF49096841F4A021BD4A116000E037
:103BE00000BF00BF704710B501460022002300202F
:103BF0004A11012A02D1B64C236806E0022A02D1FA
:103C0000B34C236A01E0B24C636A01F01F02012445
:103C100094401C4201D0012000E0002010BD70B58E
:103C200000240025002600BF3120FFF7DCFF0646F8
:103C3000641CB4F5A06F01D0002EF5D03120FFF741
:103C4000D2FF08B1012500E00025284670BD0146DD
:103C500000209F4A106820F0F80040EAC100106080
:103C600070479E490860704702460020984B58688C
:103C700020F47C1042EA01031843954B58607047CA
:103C800096490866704701460020914A506820F026
:103C900003000843506070478D48406800F00C00F6
:103CA0007047014600208A4A506820F0F00008431F
:103CB0005060704701460020854A506820F4E0605B
:103CC00008435060704701460020814A506820F444
:103CD000605040EAC1005060704729B17C4A527A76
:103CE00002437B4B5A7206E0794A527AC343DBB2F5
:103CF0001A40774B5A7270477949086070470146FD
:103D00000020734A506820F44040084350607047D8
:103D10000021744A11706E4A82F82010012802D0E6
:103D2000042808D103E001216E4A117004E0052146
:103D30006C4A117000E000BF00BF70476A4908601C
:103D400070476349096A0143614A116270476749D4
:103D50000860704730B500210022002400235C4D2C
:103D60006D6805F00C0121B1042905D0082923D183
:103D700005E05F4D056022E05D4D05601FE0544D9C
:103D80006D6805F47012524D6D6805F4803402259B
:103D900005EB92421CB9574D554305600BE04C4D65
:103DA0006D6815F4003F03D0524D5543056002E0A5
:103DB0004F4D5543056002E04D4D056000BF00BF0B
:103DC000434D6D6805F0F00109094B4D6B5C0568CA
:103DD000DD4045603E4D6D6805F4E061090A464DE1
:103DE0006B5C4568DD408560394D6D6805F4605158
:103DF000C90A414D6B5C4568DD40C560344D6D6856
:103E000005F44041890B3D4D6B5CC568B5FBF3F58E
:103E1000056130BD29B12E4A526902432C4B5A61CB
:103E200004E02B4A52698243294B5A61704729B1F9
:103E3000274A92690243264B9A6104E0244A926918
:103E40008243234B9A61704729B1214AD2690243C8
:103E50001F4BDA6104E01E4AD26982431C4BDA61CF
:103E6000704729B11A4AD2680243194BDA6004E05C
:103E7000174AD2688243164BDA60704729B1144A58
:103E800012690243124B1A6104E0114A126982431B
:103E90000F4B1A6170471A49086070470F49C86490
:103EA00070470B49C87170470948406A40F08070FC
:103EB00007494862704701460020054A92680A4255
:103EC00001D0012000E0002070470149887270474E
:103ED000001002400000FFF8FFFFF6FE0000424223
:103EE000D800424220100240800442423C04424238
:103EF00000127A0000093D007400002084000020B8
:103F00004004424270470B4880470B4981F30888C0
:103F10000A480047FEE7FEE7FEE7FEE7FEE7FEE7AA
:103F2000FEE7FEE7FEE7FEE705480649044A064BC2
:103F300070470000053F00082803002031010008F9
:103F40002801002028030020280100200021002053
:103F5000654A126842F48032634B1A6000BF624ABD
:103F6000126802F40030491C10B9B1F5A06FF6D107
:103F70005D4A126812F4003F01D0012000E00020E9
:103F8000012842D1594A126842F01002574B1A6078
:103F90001A46126822F003021A601A46126842F0AA
:103FA00002021A60504A52684F4B5A601A465268D1
:103FB0005A601A46526842F480625A601A46526841
:103FC00022F47C125A601A46526842F4E8125A608F
:103FD0001A46126842F080721A6000BF424A1268A4
:103FE00012F0007FFAD0404A526822F003023E4BA2
:103FF0005A601A46526842F002025A6000BF3A4ABA
:10400000526802F00C02082AF9D1704710B5FFF788
:104010009DFF10BD10B53448006840F001003249E2
:10402000086008464068324908402F494860084601
:104030000068304908402C4908600846006820F4B0
:10404000802008600846406820F4FE0048604FF475
:104050001F008860FFF7DAFF10BD10B500210020B7
:104060000022214B5B6803F00C0121B1042906D02A
:10407000082928D107E0204B204C236027E01E4B65
:104080001E4C236023E0184B5B6803F47010164B42
:104090005B6803F48032022303EB904022B9184B93
:1040A0004343164C23600DE00F4B5B6813F4003F55
:1040B00004D0134B4343114C236003E00E4B4343A6
:1040C0000E4C236003E00C4B0C4C236000BF00BF80
:1040D000054B5B68C3F303130A4CE15C074B1B6899
:1040E000CB40064C236010BD00100240002002406F
:1040F0000000FFF8FFFFF6FE00127A0088000020A3
:1041000000093D008C0000207047704770477546DD
:1041100000F028F8AE4605006946534620F0070037
:10412000854618B020B5FFF7FFFEBDE820404FF0F0
:1041300000064FF000074FF000084FF0000B21F091
:104140000701AC46ACE8C009ACE8C009ACE8C0095E
:10415000ACE8C0098D4670470446AFF300802046A6
:10416000FCF72FF800487047C40000200148704752
:10417000704700BFC800002001491820ABBEFEE711
:10418000260002007047000090EA010F48BF81F04E
:10419000004100F18E82421A3CBF801A89184FEA12
:1041A000D0524FF07F4C1CEA410FA2EBD15318BF05
:1041B0009CEA026F00F03B804FF0004C4CEA00207C
:1041C0004CEA012121FA03FC10EB0C0C1ED202F187
:1041D000FF325FEA1C2040EBC25038BF70471CF032
:1041E0007F0F4FEA400C18BFBCF17F4F38BF7047BC
:1041F000C3F12003994008BF20F00100BCF17F4FBC
:1042000038BF7047A0F1C04000F03CBA4FEA3C0014
:10421000000A40EBC25028BF1CF0FF0F4FEA400CD1
:10422000E6D018BFBCF17F4F38BF7047EAE79CEA81
:10423000026F05D010EA5C0F08BF00F00040704725
:1042400010B500F0D2F900BF64FBBE3E401058BF6D
:10425000C0F14040491058BFC1F140418142EFF3E5
:10426000008070474FF47F0C1CEAD0121EBF1CEA7E
:10427000D11392EA0C0F93EA0C0F00F0858090EABC
:10428000010F48BF42F4807240F4000C41F400007A
:104290002CF07F4120F07F4000B58142A2EB030269
:1042A0000FF2081CACEB504EC0F100009EF800E08D
:1042B0004FEA4E0E00FB0EFC38BF49004FEA2C1CA3
:1042C00002F5FA020CFB0EF34FEACE1E4FEA112C58
:1042D0004FEAC1210EEB635E42EB22420EFB0CFC67
:1042E0004FEA1C5300FB03114FEA112C4FEA013136
:1042F0000EFB0CFC4FEADC4C00FB0C11C14228BF4A
:1043000009184CEB03335DF804EB10EB410143EB70
:10431000C250B2F57C0F38BF704729D512F0F00FAC
:104320001CBF00F1C04000F0004070470081828354
:104330008485868788898B8C8D8E8F9192939596B4
:1043400097999A9C9D9FA0A2A3A5A7A8AAACAEB03E
:10435000B2B3B5B7B9BCBEC0C2C5C7C9CCCED1D443
:10436000D7D9DCDFE2E6E9ECF0F3F7FAFE00000073
:104370004FEA400C0CF1807CBCF17E4F28BF7047A7
:10438000B0F1C04000F07EB990EA010F0CEAD11301
:1043900048BF42F48072624538BF634507D213F4C8
:1043A0007F0F16D080EA010000F00040704710B582
:1043B00000F01BF9097EFC3E00F005B880EA010020
:1043C00000F00040704780EA010000F0004000F07B
:1043D00059B912F47F0F04BF0248704780EA010008
:1043E00000F050B90000C07FC10DD1F19E0206DB84
:1043F0004FEA002343F0004323FA02F070470042E3
:1044000007D54FEA4001B1F1FE4F02D24FF0000054
:10441000704710B500F0E9F84992248000207047F9
:104420006FEA20007047000010F0004148BF404292
:10443000B0FA80F310FA03F2C3F19D030BD051EAF6
:10444000C35101EB1220530638BF704700F1010041
:1044500008BF20F001007047B0FA80F310FA03F2B1
:10446000C3F19D030AD0D90501EB1220530638BFD2
:10447000704700F1010008BF20F001007047000004
:1044800050EA010C00F113801CF5000F58BFBCF579
:10449000000F01D48842704707D710F5000F58BFAE
:1044A00011F5000F15D488427047894270471CF5FA
:1044B000000F04D5BCF5000FF7D5814270474FF0CF
:1044C000807C1CEB400F38BF1CEB410F01D28142B6
:1044D000704710B500F089F8922449004FF0005061
:1044E0004FF08051FFF7B2BE4FF47F0C1CEAD012A0
:1044F0001EBF1CEAD11392EA0C0F93EA0C0F00F0D6
:10450000478090EA010F48BF42F480724FF0004CA0
:104510004CEA00204CEA012102EB0302A0FB01134C
:10452000A2F50002002918BF43F001035B0028BF79
:104530004FEA330342EB22425FEA132C4CEBC250AA
:104540002EBFBCEB436FB2F57C0F70474FEA036C94
:10455000BCF1004F08BF20F00100B2F57C0F38BF5E
:1045600070470BD582F0FF0212F5803FC8BF70473D
:1045700000F1C040D8BF00F00040704700F5000CCB
:104580005FEA4C0C48BF7047B0F1C04000F07AB809
:1045900090EA010F0CEAD11348BF42F480726245E1
:1045A00038BF634504D280EA010000F00040704744
:1045B00010B500F01AF800BF8900013E00F007B8FE
:1045C00000F009B85FEA410C5FEA1C6C08D080EA91
:1045D000010000F057B85FEA400C5FEA1C6CF6D1AE
:1045E0004FF00040A0F5800070470EF1020E2EF053
:1045F000030E5EF8044B244204D44FEA4102B2F1A8
:104600007F4F11D84FEA4003B3F17F4F0CD80ED142
:104610004FEAD07CB2F17F4F0CEB4C0C0CF1020C4A
:1046200008BF4CEBD17C04E04FF0080C01E04FEAEE
:10463000D17C0CEB4C0324FA03F404F00704B4F12E
:10464000040C06D20EEB840CBDE810404CF0010CBB
:104650006047DFE80CF0070802024FF00040A0F5C9
:10466000800010BD0846420018BFD2F1807288BF9A
:1046700000F0004010BD10B5FFF778FD4FF00001CD
:10468000016010BDFF2141EAD050C005704780F0A5
:10469000004090EA010F7FF57EAD81F0004100F00F
:1046A00008B8000090EA010F48BF81F000413FF5D3
:1046B00072AD421A04D882F00042A0EB020011440D
:1046C0004FEAD0524FF07F4C1CEA410FA2EBD1537E
:1046D00018BF9CEA026F4AD04FF0004C4CEA002011
:1046E0004CEA012121FA03FCB0EB0C0C0FD412F0C0
:1046F000FE0F36D05FEA4C001DD5001240EBC250D1
:1047000038BF70471CF03F0F18BF70470BE0A2F195
:1047100001025FEA1C2040EBC25038BF70471CF01A
:104720007F0F18BF7047C3F12003994014BF401E8C
:1047300020F00100704780084FEA122308BF70473D
:10474000B0FA80FCA2EB0C02CCF1280C60FA0CF061
:1047500093EA122F04BF00EBC25070474FEAC370B8
:104760007047130A5FEADC1008BF7047F6E79CEA5F
:10477000026F04D010EA5C0F08BF0020704710B52C
:10478000FFF733FF40DFF63E81F000407047000046
:104790000000000000000000000000000404040409
:1047A00004040004000000140A0A000000000000D5
:1047B0000000000014143F140A3F0A0A000000041D
:1047C0001E1505060C14150F0400000012150D0A25
:1047D000142C2A1200000000040A0A1E15150936BE
:1047E00000000002020100000000000000000020A4
:1047F000100808080808081020000002040808082B
:1048000008080804020000000004150E0E1504003C
:10481000000000000404041F040404000000000061
:104820000000000000000002020100000000001F64
:104830000000000000000000000000000000000276
:104840000000001008080804040202020100000031
:104850000E1111111111110E0000000004060404C4
:104860000404040E000000000E1111080402011FD0
:10487000000000000E11100C1010110E00000000BE
:10488000080C0A0A091E0818000000001F01010F89
:104890001010110E000000000E09010F1111110E71
:1048A000000000001F0908040404040400000000C4
:1048B0000E11110E1111110E000000000E11111138
:1048C0001E10120E00000000000004000000000492
:1048D00000000000000000040000000404000020AC
:1048E00010080402040810200000000000001F004F
:1048F000001F00000000000204081020100804023D
:10490000000000000E111108040400040000000063
:104910000E111915151D011E0000000004040C0ADB
:104920000A1E1233000000000F12120E1212120F94
:10493000000000001E1101010101110E0000000025
:104940000F1212121212120F000000001F120A0E94
:104950000A02121F000000001F120A0E0A020207BC
:10496000000000001C1201013911120C00000000AF
:104970003312121E12121233000000001F0404042E
:104980000404041F000000003E0808080808080985
:104990000700000037120A060A0A1237000000005A
:1049A000070202020202223F000000001B1B1B1B29
:1049B00015151515000000003B1216161A1A1217CD
:1049C000000000000E1111111111110E0000000065
:1049D0000F12120E02020207000000000E11111148
:1049E0001117190E180000000F12120E0A121237BA
:1049F000000000001E1101060810110F0000000049
:104A00001F1504040404040E0000000033121212E7
:104A10001212120C000000003312120A0A0C0404D5
:104A2000000000001515150E0A0A0A0A0000000011
:104A30001B0A0A04040A0A1B000000001B0A0A04DD
:104A40000404040E000000001F0908040402121FE1
:104A50000000001C04040404040404041C000002FC
:104A600002020404080808100000000E08080808E4
:104A7000080808080E0000040A00000000000000FA
:104A8000000000000000000000000000003F0004E3
:104A90000000000000000000000000000000000C0A
:104AA000121C123C000000000302020E1212120E31
:104AB000000000000000001C1202021C00000000A8
:104AC0001810101C1212123C000000000000000C14
:104AD000121E021C000000003804041E0404041E00
:104AE000000000000000003C120C021E221C00000E
:104AF0000302020E1212123700000000040000062A
:104B00000404040E000000000800000C0808080857
:104B1000080700000302023A0A0E123700000000E4
:104B2000070404040404041F000000000000000F38
:104B300015151515000000000000000F12121237A5
:104B4000000000000000000C1212120C0000000017
:104B50000000000F1212120E020700000000001CDD
:104B60001212121C103800000000001B060202077F
:104B7000000000000000001E020C101E00000000DB
:104B80000004040E04040418000000000000001BD0
:104B90001212123C0000000000000037120A0C0440
:104BA0000000000000000015150E0A0A00000000B9
:104BB0000000001B0A040A1B000000000000003770
:104BC000120A0C04040300000000001E0804041E66
:104BD0000000001808080804080808081800080859
:104BE000080808080808080808080006040404085B
:104BF0000404040406000225180000000000000060
:104C000000000000244C0008000000209C00000070
:104C10006C010008C04C00089C0000208C020000C1
:104C2000880100080000000000F80000E007000014
:104C30001F000000E0FF000000000000FFFF000078
:104C4000FF0700001FF8000000F80000000000004F
:104C50000000000000000000000000000000000054
:104C60000000000000000000000000000000000044
:104C70000000000000000000000000000000000034
:104C80000000000000000000000000000000000024
:104C9000000000000000000000000000010203040A
:104CA00001020304060708090204060800A24A04D8
:104CB00000000000000000000102030406070809CC
:0400000508000131BD
:00000001FF
