:020000040800F2
:1000000000040020470100085501000857010008BE
:10001000590100085B0100085D01000800000000B4
:100020000000000000000000000000005F01000868
:10003000610100080000000063010008650100087C
:1000400091330008E913000851310008BF16000879
:10005000470C00082D160008390C00083D0C00085C
:100060003F0C0008410C0008430C00086701000821
:1000700067010008670100086701000867010008C0
:10008000670100086701000867010008A132000845
:10009000653300086701000867010008450C000887
:1000A0005331000859310008573100085531000814
:1000B0005B3100085D3100085F310008D30D000896
:1000C000D10D0008D70D0008D50D0008212A000821
:1000D000232A0008993100089B3100089D3100084F
:1000E0003B0C0008BD1600088532000867010008B7
:1000F0006701000867010008670100086701000840
:1001000067010008791A0008670100086701000804
:10011000670100086701000867010008670100081F
:10012000670100086701000867010008670100080F
:10013000DFF80CD000F01EF800480047E534000856
:10014000F80E0020704708488047084981F3088866
:1001500007480047FEE7FEE7FEE7FEE7FEE7FEE7AB
:10016000FEE7FEE7FEE7FEE745010008F80E002087
:1001700031010008064C074D06E0E06840F001033D
:1001800094E8070098471034AC42F6D3FFF7D4FF49
:10019000783600089836000870B501EB020410F8B4
:1001A000015B15F0070301D110F8013B2A1106D1BC
:1001B00010F8012B03E010F8016B01F8016B5B1ED6
:1001C000F9D12B0705D40023521E0FD401F8013BAF
:1001D000FAE710F8013B02F10202A1EB030303E08E
:1001E00013F8015B01F8015B521EF9D5A142D6D389
:1001F000002070BD70B5044620211D4800F08EFD22
:100200001C4A1D4BD2F81100117D00BA20F0FF00EE
:1002100008431D68194BD18A684349BA98606943FD
:10022000D9609868164B08441B68984209D92A2C53
:1002300002D1022000F026F8002000F023F821214E
:1002400009E09068884211D02A2C0DD05FF00000A0
:1002500000F018F82421052002F04AFD00210120B9
:1002600002F022FD002070BD0220F1E7012070BDE8
:10027000000C0140C40C00200400002038010020C4
:100280000000002010B578B14FF48054012805D04B
:1002900002280FD11021012002F0DEFC2146BDE82A
:1002A0001040022002F092BC1021BDE81040012055
:1002B00002F0D2BC10BDC1B2000A40EA0120704772
:1002C00010B55449544C00204988A4F1400202E082
:1002D000135C2354401C0B468842F9D34E48626895
:1002E00020301F2B4260A268826006D00220FFF7F8
:1002F000C9FF00201A2120600DE04849206888428B
:100300004FD1607B18B9A07B08B110280CD902200E
:10031000FFF7B8FF2421052002F0EAFC0021BDE828
:100320001040012002F0C0BCE07B252859D01ADC27
:1003300015286AD00DDC082867D005DCB0B3032887
:1003400035D004282DD160E00A285ED0122828D1AB
:1003500031E01A380A2824D2DFE800F03731235779
:1003600033232323233F8A284FD00EDC55284CD03B
:1003700006DC28283DD02A283FD02F2811D140E084
:100380005A2826D088280CD13FE0A8283DD004DC8C
:100390008F283AD09E2804D137E0AA2835D0AF283C
:1003A00033D00220FFF76EFF2021B4E71DE0BDE847
:1003B000104001F081BABDE8104001F0DDB901F054
:1003C00087FABDE8104001F083BABDE8104001F0A3
:1003D00009BABDE8104001F0FFB9BDE8104001F0D6
:1003E00051BABDE8104001F02FBABDE8104001F04D
:1003F00073BABDE8104001F0FBB9BDE8104001F050
:10040000A1BABDE8104001F081BABDE8104001F08A
:10041000C7B9000050010020C40C002055534243CE
:100420002DE9F0411E4D1F4C1F4E31E047F6FF7085
:10043000C4F8440C308800F00F00287004EB8000F2
:10044000D0F8001C8FB239040ED5D0F8001C40F64D
:100450008F7289B21140C0F8001C1448297800EB53
:10046000810050F8040C8047380611D5287804EB39
:100470008000D0F8001C48F60F7289B21140C0F815
:10048000001C0B48297800EB810050F8040C8047D1
:10049000D4F8440C30800004C8D4BDE8F0810000DA
:1004A0002201002000500040480000202C000020C5
:1004B000100000202DE9F05F4BF68F7BDFF87C9178
:1004C00040F68F7ADFF8788148F60F775D4C5E4D05
:1004D00034E000BF47F6FF70C4F8440C298811F0DF
:1004E0000F0188F8001030D004EB8100D0F8001C18
:1004F0008EB231040ED5D0F8001C89B201EA0A018F
:10050000C0F8001C514898F8001000EB810050F82A
:10051000040C8047300611D598F8001004EB8101D7
:10052000D1F8002C92B23A40C1F8002C484998F812
:10053000000001EB800050F8040C8047D4F8440C14
:1005400028800004C6D4BDE8F09F04F5406421680B
:10055000C1F301314FEA0131A9F800102168C1F35C
:1005600001114FEA0111A9F80210206880B200EAD7
:100570000B0080F400502060206848F6BF7180B204
:1005800000EA010080F0200020602888A4F5406483
:10059000C006D4F8000C0BD480B23840C4F8000C6C
:1005A00000F01AFCD4F8000C10F4084F0DD121E033
:1005B00086B2300607D5D4F8000C80B23840C4F8B3
:1005C000000C00F009FC300509D5D4F8000C80B20D
:1005D00000EA0A00C4F8000C02F0F6FB0AE030045E
:1005E00008D5D4F8000C80B200EA0A00C4F8000C68
:1005F00000F0CAFED4F8000CB9F8002080B200EA7E
:100600000B00D30401D580F48050920401D580F40E
:100610000050C4F8000CD4F8000C48F6BF7280B249
:10062000B9F802101040CA0601D580F01000890602
:1006300001D580F02000C4F8000C7FE732010020D3
:100640002201002000500040480000202C00002023
:1006500010000020084901EB8000D0F8001C49047C
:1006600009D5D0F8001C48F68F7289B2114041F4C8
:100670008041C0F8001C704700500040084901EB61
:100680008000D0F8001C490609D5D0F8001C48F6B7
:100690008F7289B2114041F04001C0F8001C7047D0
:1006A00000500040054901EB8000D0F8001C48F6DE
:1006B0008F6289B21140C0F8001C704700500040A2
:1006C00070B5374905462A24486B10F0450FFBD01A
:1006D000410702D50324042003E0C00704D001240D
:1006E000204601F061F959E001F09EF9A8422BD1B2
:1006F00040F2FF5001F058F9002001F0B7F9294904
:1007000008424BD0002801DA1C2070BD410001D501
:10071000092070BD810001D50A2070BDC10001D53E
:100720000B2070BD010101D50C2070BD410101D528
:100730000D2070BDC10101D50E2070BD010201D593
:100740000F2070BD410201D5102070BD810201D57E
:10075000112070BDC10201D5122070BD010301D569
:10076000132070BD410301D5142070BD810301D554
:10077000152070BDC10301D5162070BD010401D53F
:10078000172070BD410401D5182070BD810401D52A
:10079000192070BD000701D51A2070BD204670BD1C
:1007A0000080014008E0FFFD10B50B482A24416B92
:1007B00011F0450FFBD0480702D50324042003E0C5
:1007C000C80705D00124204601F0EEF8204610BDF0
:1007D00040F2FF50F8E700000080014070B50C4681
:1007E000194906462A25486B10F0450FFBD04107F2
:1007F00002D50324042003E0C00705D001242046CD
:1008000001F0D2F8204670BD01F00EF9B04213D1CC
:1008100040F2FF5001F0C8F8002001F027F910F471
:10082000604F03D0810405D5132070BD4FEA1040FE
:10083000208007E0410401D5102070BD000401D5DF
:100840000F2070BD284670BD008001400349C200E2
:1008500002D5C1F8040470474860704700000240A8
:100860000029016802D041F0010101E021F00101FD
:100870000160704701460020054ACB0002D5D2F83E
:10088000002400E012680A4200D0012070470000F6
:100890000000024070B5036847F6F0729343D1E957
:1008A00004460D6A8A6834432A432243D1E9065438
:1008B0002A432243D1E909542A4322431A430260BE
:1008C000CA6842600A6882604968C16070BD000001
:1008D00070B505468CB00C461148FFF7B7FF114EB6
:1008E00000213046FFF7BCFF0F48CDE9000500208E
:1008F000A108CDE902018021CDE90401890006911A
:100900008900CDE907108900CDE909106946304614
:10091000FFF7C0FF01213046FFF7A2FF0CB070BD0A
:1009200000F00010440402408080014070B504468D
:100930008CB00D461248FFF789FF124E0021304659
:10094000FFF78EFF1048CDE9000410200290A808A0
:10095000039000208021CDE90401890006918900DF
:10096000CDE907108900CDE9091069463046FFF747
:1009700091FF01213046FFF773FF0CB070BD0000FE
:1009800000F0001044040240808001402DE9F0474F
:10099000DFF87490DFF87480D9F8001001F11004CA
:1009A000088A097A08B9042929D0A5880426A8420A
:1009B00000D90226854200D90546A8B2A16807469B
:1009C00088478246002000F0CBF901463A4650465F
:1009D00002F0CAFC3946002002F030F920883021AC
:1009E000401B2080608828446080A8F8001008021E
:1009F00007490880D9F800000672BDE8F08707268D
:100A00001021A8F80010F5E724010020340100208F
:100A1000320100202DE9F047234EDFF890904FF08F
:100A20003008346834F8100FA168B1B108B3A58854
:100A3000854200D90546A8B20746884782462088E5
:100A4000401B2080608828446080002000F068F906
:100A500001463A46504600F0B7FC208848B1144998
:100A60004FF4405008800021084602F0E7F8A9F84A
:100A700000802088A188884201D3032001E020B1B2
:100A8000052031680872BDE8F0873268094B0621FD
:100A900011721A68002008494FEA024201EBD23174
:100AA0004860A9F80080EEE724010020340100200E
:100AB00032010020505C00400060004070B5544C92
:100AC000544D0926206829684278062A05D0AAB123
:100AD000082A4DD00A2A50D06CE00278520669D11B
:100AE0008078012804D0022804D0032804D061E0D3
:100AF000C96956E0096A54E0496A52E04288B2BBCB
:100B0000C288022A56D102798ABB0278530601D1E3
:100B1000838833B102F07F02012A04D0022A0CD06C
:100B200048E03D493DE08A69407900219047F0B9AD
:100B30002068807A0028F4D13CE04079374900F001
:100B40007002030600F00F0001EB8001D1F8001CD9
:100B500003D5C1F30111090102E0C1F30131090319
:100B60002F4B1B78834225D90AB90029D9D121E01E
:100B7000007840061ED12B4913E0027802F07F0274
:100B8000012A17D1827AAAB142889AB902798AB920
:100B9000C288012A0ED18A6940790021904748B95C
:100BA000214939B12068002242828161104688477C
:100BB000002006E0296820680969407888470328F2
:100BC00007D021680A8AA2F57F43FF3B04D10E7249
:100BD00070BD2068067270BD02280FD072B108780F
:100BE00000060ED5C888824200D90882286890F88D
:100BF0002C008882BDE87040FFF7C8BE082008724C
:100C000070BD0320087209490003088070BD000010
:100C10002401002028010020992F000800500040E6
:100C2000B8000020292F0008712F00083201002091
:100C300000F08CBA00F0B2BA704770477047704746
:100C4000704770477047704704490A6822F01002E5
:100C50000A600A6802430A607047000000200240F0
:100C6000034A116801F03801014311607047000028
:100C7000002002402DE9F041CA780025D30602F099
:100C80000F0201D58B781A430B884FF00F084FF0F5
:100C9000010C13F0FF0F1CD0D0F800400E880CFAA6
:100CA00005F31E409E4210D1AF0008FA07F624EA71
:100CB000060602FA07F43443CE78282E02D0482ED6
:100CC00002D002E0436100E003616D1C082DE5D312
:100CD00004600B88FF2B1DD94468002505F1080628
:100CE0000CFA06F30E881E409E420FD1AF0008FAA0
:100CF00007F624EA060602FA07F43443CE78282ED3
:100D000000D14361CE78482E00D103616D1C082DBF
:100D1000E4D34460BDE8F0814161704701617047F0
:100D20000549096889B201EBC000044901EB4000A4
:100D3000806880B270470000505C00400060004056
:100D40000549096889B201EBC000044901EB400084
:100D5000C068C0F309007047505C0040006000406C
:100D60000449096889B201EBC000034951F8100039
:100D700080B27047505C00400060004008B10448F9
:100D8000704704490120096808820020704700006C
:100D90004C00002024010020094A1169137E491CDF
:100DA00001209B1C00FA03F35943064B1960137A88
:100DB000054A9840414310600448016070470000B4
:100DC000B4010020080000200400002000000020E2
:100DD000704770477047704710B5134C2068017A10
:100DE000022904D0042902D0062905D015E0FFF716
:100DF000CDFD2068007A11E04178052909D10178FC
:100E0000490606D1C07801F093FE08480068006AE0
:100E1000804707480068806880470820216808727A
:100E2000BDE8104000F0E2BA240100202C010020AF
:100E30002801002070B5044640482A258068010436
:100E40003F4801600D214160402181600021C16067
:100E50004FF48061016100F039FE3A49486B10F0AF
:100E6000450FFBD0410702D50324042003E0C0074F
:100E700005D00124204600F097FD204670BD00F00B
:100E8000D3FD0D282ED140F2FF5000F08DFD002043
:100E900000F0ECFDC0F3432121702B4908424BD0F8
:100EA000002801DA1C2070BD410001D5092070BD69
:100EB000810001D50A2070BDC10001D50B2070BD95
:100EC000010101D50C2070BD410101D50D2070BD7F
:100ED000C10101D50E2070BD010201D50F2070BDEA
:100EE000410201D5102070BD810201D5112070BDD5
:100EF000C10201D5122070BD010301D5132070BDC0
:100F0000410301D5142070BD810301D5152070BDAA
:100F1000C10301D5162070BD010401D5172070BD95
:100F2000410401D5182070BD810401D5192070BD80
:100F3000000701D51A2070BD284670BDE4000020CE
:100F40003C0800200080014008E0FFFD0D4900B58D
:100F500009680A7802F07F02212A08D1FE2806D10A
:100F6000488820B9888810B9C888012801D0022093
:100F700000BD0548886100204882FFF7FFFE002081
:100F800000BD0000240100207D0D0008014901F092
:100F9000DFBF000058000020014901F0D9BF000068
:100FA000500000200349044A0968C97802EBC101D6
:100FB00001F0CEBF240100209000002009B90028D4
:100FC00000D00220704700000F4910B509680A7868
:100FD00002F07F02212A07D1FF2805D1488818B9DD
:100FE000888808B9C88808B1022010BD0120FFF721
:100FF00045FB0220FFF72EFB054904480860054920
:101000000020087010BD0000240100205553424309
:10101000C40C00205001002070B52B4800258572BB
:10102000284601F07DFD4FF40071002001F02CFEF8
:101030002021002001F010FE1821002001F096FD73
:10104000224C0020217801F0A1FD5821002001F060
:10105000E5FD0020FFF726FB002001F0CFFD002179
:10106000012001F011FE9821012001F0D7FD20217F
:10107000012001F0F1FD0021012001F0A7FD002178
:10108000022001F001FED821022001F06FFD21783D
:10109000022001F07BFD4FF44051022001F096FD4B
:1010A0000021022001F0D8FD2178002001F06EFD22
:1010B000002001F0A3FD002001F03AFD054904489D
:1010C00008600548057070BD680800208C0000208D
:1010D00055534243C40C0020500100207047704714
:1010E00070B50E4C00252068857200F09FF90C4801
:1010F00045600C4A4FF40441118001600A482168A0
:10110000C079487202E000BF00F08CF82068807A55
:101110000028F9D005490520087070BD2401002081
:10112000405C004030010020DE350008E000002077
:10113000044805490068884202D00220FFF7A2B89F
:1011400070470000C40C002055534243114810B5AD
:10115000017802290AD04FF4405403290ED0042903
:1011600001D0052914D1002101700BE00A48C07B91
:1011700028280DD1BDE8104000F03ABB0121002025
:1011800001F092FD2146BDE81040022001F01EBD95
:1011900010BD000050010020C40C002070B515489F
:1011A000C47B0220FFF7CCFD134D0246D821688096
:1011B0001048403800F008F9287818B1012805D007
:1011C000022006E0BDE87040FFF77AB82A2C0CD068
:1011D0000120FFF757F82421052001F089FDBDE823
:1011E00070400021022001F05FBDBDE8704000F0BA
:1011F000A9BB0000C40C002050010020074810B516
:101200000068807A002808D00120FFF737FA022012
:10121000FFF720FA02490020087010BD24010020C9
:10122000500100207047F0B50F22C57803784FF0C9
:10123000E0210124E5B1D1F80C5D467805F4E065C4
:10124000C5F5E0652D0AC5F10407EA408578BE4082
:10125000154035430B442A0183F8002400784209E5
:1012600000F01F00844001EB8200C0F80041F0BD97
:1012700003F01F008440580901EB8000C0F8804152
:10128000F0BD0000024908430249086070470000B1
:101290000000FA050CED00E0024A1140014302484B
:1012A0000160704780FFFF1F08ED00E070B5314D11
:1012B0002868017844784A0606D001F07F000128AA
:1012C0002BD002282ED038E0092C06D0052C07D0D0
:1012D000032C0ED0012C17D02FE001F0A5FE2BE03F
:1012E000C1787F2931D8817879BB818869BB807AC0
:1012F0002AE0C178012920D18188F1B9407A80069D
:101300001BD501F0ADFE17E0C178012915D1818808
:1013100099B9407A80060AD40FE00B2C0DD101F068
:10132000F3FE09E0012C02D0032C03D005E001F00C
:1013300081FD01E001F0A6FE58B10F480068416947
:10134000E0B28847032802D018B108200FE0092036
:101350000DE00A4A062000211368094A4FEA0343B8
:1013600002EBD3325160074A4FF0300111802968F7
:10137000087270BD2401002028010020505C00404C
:10138000006000403401002010B50D4C2068007A48
:10139000032804D0052802D0072805D008E0FFF76D
:1013A00039FB2068007A04E006480068C06880477E
:1013B000082021680872BDE8104000F017B800004E
:1013C0002401002028010020064B10B5521C5208B1
:1013D00003EB410104D010C920F8024B521EFAD190
:1013E00010BD000000600040704700000B4810B5C1
:1013F00090F82C10002001F0C9FB09480068017A20
:10140000082905D1074A48021080074A1020108099
:101410000120092900D0002010BD0000600000203C
:1014200024010020320100203401002010B50120E9
:1014300001F02AFF0748012101604FF00001064A30
:10144000016041604FF4E051118001604FF00000F5
:1014500010BD0000405C004030010020034A51688C
:1014600021F44041014351607047000000100240E8
:10147000044A0029516901D0014300E081435161D0
:101480007047000000100240044A0029D16901D0D1
:10149000014300E08143D161704700000010024029
:1014A000044A0029916901D0014300E08143916120
:1014B0007047000000100240044A0029D16801D0A2
:1014C000014300E08143D1607047000000100240FA
:1014D0000B48016841F0010101604168094A11406F
:1014E00041600168084A11400160016821F48021CF
:1014F00001604268002122F4FE0242608160704770
:10150000001002400000FFF8FFFFF6FE214A10B570
:101510005368214913F00C0303D0042B01D0082B8E
:1015200026D0016051681D4B01F0F00109095C5C97
:101530000168E1404160546804F4E064240A1C5DE1
:1015400021FA04F48460546804F460544FEAD4240B
:101550001B5D21FA03F1C1605268104B02F4404256
:101560004FEA92321B1F9A5CB1FBF2F1016110BD90
:101570005168022301F4701103EB9141536813F495
:10158000803F02D053689B0301D5054B00E0024B1E
:101590005943C6E70010024000127A0010010020F3
:1015A00000093D000246002053090949012B0BD0D8
:1015B000022B0BD0D1F8241002F01F02012393401C
:1015C0000B4200D0012070470968F5E7096AF3E78C
:1015D000001002400248406800F00C007047000014
:1015E00000100240034A516821F0F00101435160AC
:1015F00070470000001002400B490A6822F4803254
:101600000A600A68B0F5803F22F480220A6007D0A1
:10161000B0F5802F03D1086840F4A020086070471F
:10162000086840F48030F9E700100240704700007D
:10163000034A516821F4E0610143516070470000A2
:101640000010024003494A6822F4605242EAC00096
:10165000486070470010024001490866704700006A
:1016600000004242034A5368084323F47C131843A2
:101670005060704700100240034A516821F0030196
:1016800001435160704700000010024001490860AA
:1016900070470000D800424230B500244FF4A065E6
:1016A0003120FFF77FFF641C08B9AC42F8D131202C
:1016B000FFF778FF002800D0012030BD7047704749
:1016C0002DE9F041274C00252F462068264E58B1C1
:1016D000206940223044982101F046FE20684038BD
:1016E00020602069403020E04FF4007842461F49D6
:1016F000A06800F0D3FD1D4BC44600BF53F827007F
:1017000070557119020A4A70020C000E8A702D1D64
:101710007F1CC8706545F1D340229821124801F022
:1017200023FE4FF4E0702060402020614021012022
:1017300001F084FA3021012001F08EFAA0684030D7
:10174000A060E0680A494038E0608A68A2F140027F
:101750008A6005D120602061A060064903200870DE
:10176000BDE8F08138010020840A002084080020B0
:10177000E40C0020500100200649087CC00702D07C
:101780000548052104E0C97C0448242900D9242106
:1017900001F0E6BCC40C00205401002059010020D7
:1017A0000B4810B5816811B1007B000601D50020FF
:1017B00000E00220FEF766FD064805218170202129
:1017C00001730021BDE81040012001F06DBA000056
:1017D000C40C0020890100200821014801F0C0BC90
:1017E000810100200421014801F0BABC7D010020E4
:1017F00010B5124C207828B102281DD1BDE8104048
:10180000FFF75EBF2820FEF7F5FC002814D00C4837
:10181000007B00064FF0020001D52070EEE7FEF7D6
:1018200031FD084805218170242101730121BDE8A3
:101830001040084601F038BA10BD000050010020E9
:10184000C40C0020890100200B4801680B48491E88
:101850000A0E02700A0C42700A0A8270C1700849AE
:1018600009680A0E02710A0C42710A0A8271C1717A
:10187000082101F075BC0000080000209B01002039
:10188000040000200948016809480A0E02710A0C88
:1018900042710A0A8271C171064909680A0C4272D2
:1018A0000A0A8272C1720C2101F05ABC08000020A1
:1018B000A3010020040000200348C17C122900D9A4
:1018C0001221024801F04CBCC40C00208901002008
:1018D0000121002001F0E8B90A4810B5806850B134
:1018E0000220FEF7CFFC08480521817020210173FA
:1018F0000021012001E001210020BDE8104001F09D
:10190000D3B90000C40C0020890100200B4810B599
:10191000816829B9007C400702D40121002009E038
:101920000220FEF7AFFC06480521817024210173D7
:1019300000210120BDE8104001F0B6B9C40C002020
:101940008901002010B5154C207828B1012823D139
:10195000BDE8104001F01EBD2A20FEF74BFC002818
:101960001AD00F48007B000608D401202070BDE883
:1019700010404FF44051022001F028B90020FEF73A
:1019800081FC084805218170242101730021BDE8F4
:101990001040012001F088B910BD00005001002066
:1019A000C40C0020890100200149886370470000B1
:1019B00000800140014988637047000000800140B9
:1019C0000149086070470000A000304201490860EA
:1019D000704700008C05304230B5094902684A6200
:1019E00042688A62CA6A22F0F703D0E90225D0E988
:1019F00004402A43044322431A43CA6230BD000014
:101A00000080014006480021016041608160C160A2
:101A100041628162C162034A8263C1637047000010
:101A200000800140FF07C00001480069C0B2704754
:101A300000800140034A01460020526B0A4200D058
:101A40000120704700800140034A01460020526B8C
:101A50000A4200D00120704700800140024800681F
:101A600000F0030070470000008001400149084475
:101A7000406970470080014000F044BB044A0029DF
:101A8000D16B01D0014300E08143D1637047000076
:101A90000080014070B5094B5A6800F1080447F610
:101AA000FF6170CC8A430178344329434568214360
:101AB0004069294301431143596070BD00800140D2
:101AC00001480068704700008080014030B5084A36
:101AD00001689160D168CB0AD0E90115D0E90340D3
:101AE00029430443DB0221431943D16030BD000088
:101AF0000080014004490A6822F003020A600A6873
:101B000002430A60704700000080014001490860FC
:101B100070470000808001402DE9F0479849DFF8C8
:101B200064A24FF02A0C4D6880F84E508968A0F8E6
:101B30004C10DAF800100B0E9C090470C3F38304F8
:101B4000447003F0030383700B0CC3700B0A037122
:101B50004171DAF80440210E0901C180C288C4F342
:101B6000074101F00F0342EA1111C1800372C4F36F
:101B70000721CA094272C1F380128272C1F3401276
:101B8000C272C1F3001202734FF0000880F80D809A
:101B900052464FF001099668C6F30742C6F307277D
:101BA0004FEA166325B1012D02D0022D2BD03CE067
:101BB0008907090D0161E1B2046944EA810101610B
:101BC0000469C3F3C20544EA93140461057503F084
:101BD0000701417551098175C2F38201C1759107F1
:101BE000490F0176027E394642EAD712027602692F
:101BF000037E047A521C9B1C9A4009FA04F35A4350
:101C0000C0E9112311E0A106890A0161016941EAD5
:101C10000321016103693946134303610269521CC0
:101C2000D20442644FF40072826400F11800C1F3E0
:101C3000801242704FEA81614FEA5161817083786E
:101C4000F1B243EAD113837001F07F01C170DAF879
:101C50000C204FEA12614FEAD1130371C1F3411313
:101C60004371C1F3820383714FEA81714FEA1171AD
:101C7000C171C379C2F3074143EA9113C371C1F340
:101C80004013037280F8098001F001018172C2F3F0
:101C900007214FEAD113C372C1F380130373C1F359
:101CA00040134373C1F300138373C1F38103C37300
:101CB00001F003010174C2F3460141744B4680F800
:101CC0001290304A02F1100211684FEA1164047553
:101CD000C1F307444FEA0424C482C58AC1F3072430
:101CE00045EA0405C5824FEA016181615168856951
:101CF0004FEA116445EA044484618569C1F30744ED
:101D000045EA042484618569C1F3072445EA040592
:101D10008561017791684FEA11644477C1F3074404
:101D20004FEA04640462056AC1F3072445EA0444E7
:101D30000462046AC9B244EA01210162D168046AFA
:101D400044EA1164046290F82440C1F3074244EA73
:101D5000121480F824404FEA02724FEA1252C284F1
:101D6000C48CC1F3072244EA0204C484C1F34601CF
:101D700080F8281080F829306046BDE8F087000020
:101D8000E40000200408002038B501210820FFF7F6
:101D900087FB2020ADF8000010208DF80300224DB5
:101DA00003248DF8024069462846FEF763FF202190
:101DB0002846FEF7B1FF01213020FFF771FB4FF4F9
:101DC000F850ADF800008DF8024018208DF803009F
:101DD00069461648FEF74EFF0420ADF8000069463C
:101DE0001348FEF747FF01218802FFF741FB01215D
:101DF0000220FFF73DFBFFF705FE00F0A1F82A28BF
:101E000011D100F019F804462A280CD10949012003
:101E1000002208704A608A60CA600A6108464A6106
:101E2000FFF738FE204638BD000C0140001001408D
:101E300000140140240800202DE9F84F01202A2534
:101E4000ADF80000FFF70AFEB8B3DFF8EC90D9F860
:101E5000040004286ED0394C4FF0C00A002602203E
:101E6000C4F808A0C4E900604FF48068C4E90368BE
:101E70002046FFF72BFEFEF797FC05462A281ED1C9
:101E80000020FFF7F3FDA4F1280738600420FFF7D6
:101E9000EDFD78600820FFF7E9FDB8600C20FFF742
:101EA000E5FDF860D9F804004F4650B1012808D08C
:101EB000062806D0022804D015E0FFE72520BDE85B
:101EC000F88F0320C4E9006004F108014020A1E874
:101ED00041011A48FFF7FAFD69460320FEF77EFC30
:101EE00005462A28EBD17868042823D0BDF80000E5
:101EF000B860000420600920C4E9010AC4E903684D
:101F00000E48FFF7E3FDFEF74FFC05462A28D6D121
:101F10000020FFF7ABFD094C383C20600420FFF7A0
:101F2000A5FD60600820FFF7A1FDA0600C20FFF771
:101F30009DFDE0602846C2E7E40000203C08002048
:101F40002DE9F05F4FF0000A6A48B2215646017051
:101F5000C0F804A0C0F808A0C0F80CA0C0F810A0F9
:101F600057465446C0F814A0FFF794FD0320FFF72E
:101F7000C1FD0120FFF724FDDFF878814FF480696F
:101F800008F118084046C8F80040C8F80440C8F8EE
:101F90000840C8E90349FFF799FD42F2107B5D460E
:101FA00001E06D1E1DD08020FFF744FD0028F8D011
:101FB000BDB140F2FF50FFF7F7FC4FF4D570C8F801
:101FC0000000454608204FF04008C5E9010849488F
:101FD000C5E903491830FFF779FD474A5846516B68
:101FE00006E00320BDE8F09F4349A0F10100496BE2
:101FF00011F0450F14D008B1480714D50420FFF79D
:10200000D3FC3720C5E90040C5F810903948C5E930
:1020100002841830FFF75AFD3720FEF751FB0BE022
:102020000028E1D1EAE7480602D54020FFF7BCFCD2
:10203000324801218F0741600021372285E80601DF
:102040002C48C5E90319AB461830FFF73FFD372090
:10205000FEF736FB05462A283CD049E0002537210B
:10206000CBE90051CBE902852248CBF8109018301B
:10207000FFF72CFD3720FEF723FB2A28B2D120489A
:1020800047EA0001CBF800102921CBF80C50CBE92E
:1020900001181848CBF810901830FFF717FD1649B3
:1020A0002A25486B10F0450FFBD0400705D50324C7
:1020B0000420FFF779FC204694E740F2FF50FFF739
:1020C00073FC0020FFF7D2FC8246C00F06F1010628
:1020D00002D003E04FF6FF74A642BFD3A64201D35D
:1020E0001B207FE71AF0804F02D004480221416094
:1020F000284677E72408002000800140E400002003
:10210000000010802DE9F041634D0024E8680128AB
:1021100041D1C003FFF798FC60B100BFFFF7D0FCCE
:10212000696A41F82400641C082CF7D3686A2030DF
:1021300068622DE04FF48040FFF786FC58B3E969F0
:102140002869411A202918D2E969411A8907E969E1
:10215000A0EB01004FEA90060CD0761C0AE0286A3A
:102160000068FFF7D3FC286A641C001D2862E86938
:10217000001DE861B442F2D30DE0286A50F8240053
:10218000FFF7C4FC641C082CF7D3286A20302862AF
:10219000E8692030E8614FF480763046FFF754FC60
:1021A00000244CF23A3840B3E86888B177033846E7
:1021B000FFF740FC60B1E8692969884208D2FFF75F
:1021C0007FFC696A01C16962E869001DE861EEE7A8
:1021D000686901280ED02A2028703046FFF7EAFBF4
:1021E00000214046FFF74AFC0120A861EC612878F5
:1021F000BDE8F08100F0A0FAEEE70220FFF724FC32
:1022000050B10220FFF7D6FB00214046FFF736FC15
:10221000EC6102202870EBE70820FFF715FC50B1B5
:102220000820FFF7C7FB00214046FFF727FCEC61C1
:1022300004202870DCE72020FFF706FC50B12020A6
:10224000FFF7B8FB00214046FFF718FCEC610620C1
:102250002870CDE71020FFF7F7FB50B11020FFF7F3
:10226000A9FB00214046FFF709FCEC61052028701E
:10227000BEE74FF400763046FFF7E6FB50B130463C
:10228000FFF798FB00214046FFF7F8FBEC610720C1
:102290002870ADE72A20ABE7E40000202DE9F84FD5
:1022A00007460D00144630D0774E2A2030704FF08C
:1022B000000AC6F818A0DFF8D8B1744AC6F810A012
:1022C000CBE9002ACBF808A0CBF80CA0CBF810A0E3
:1022D0005846CBF814A0FFF77FFB0020FFF776FBF2
:1022E0000020FFF7C3FB800102D50E20BDE8F88F68
:1022F0007068B0464FF40079022808D0601EB0F52F
:10230000006F02D2601E044204D02620EEE74C4645
:102310007F0AF7E7204601F0C9F800905C481021D9
:1023200014385646C0E90041083040214FF4806A15
:10233000A0E8420456481438FFF7C8FB1020FEF707
:10234000BFF92A28D2D15149CBE90014009950484D
:102350000901CBF808100221CBE903160121CBF8C3
:102360001410FFF739FBC8E9044649481121143815
:10237000C8F82450C0E9007108304021A0E84204A8
:1023800043481438FFF7A2FB1120FEF799F90646DF
:102390002A28ABD1D8F80C004746022811D00128D2
:1023A0004ED090B36DE05046FFF744FB70B100246F
:1023B000FFF786FB45F82400641C082CF8D3203571
:1023C00004E0344F4FF4004A40F22A68786B10EA78
:1023D000080FE8D00820FFF72DFB20B10820FFF7F9
:1023E000E3FA042082E70220FFF724FB20B1022059
:1023F000FFF7DAFA022079E72020FFF71BFB28B16C
:102400002020FFF7D1FA062070E728E04C46484626
:10241000FFF710FB40B12046FFF7C6FA072065E73B
:10242000FFF74EFB01C501E04FF400142046FFF713
:1024300001FB0028F4D140F2FF50FFF7B5FA20E08D
:10244000012148F22A30FFF719FBB86910B9387832
:102450002A28FAD038782A2813D0387846E701217C
:1024600040F22A30FFF70AFB0120FFF7AFFA2146BE
:102470002846FEF72DFA084C2046FEF7FBF9002807
:10248000FAD0304632E70000E4000020FFFF0F00E2
:102490005008002000800140002000102DE9F84F76
:1024A00080460D0014461E464ED0DFF830922A2199
:1024B00089F800100027C9F818708A488849C9F8B7
:1024C0001070C0E900178760C76007614761FFF7B8
:1024D00083FA0020FFF77AFA0020FFF7C7FA80019D
:1024E00002D50E20BDE8F88F7C484FF4007B406891
:1024F000022807D0601EB0F5006F25D2601E04428E
:1025000004D021E05C464FEA5828F7E7204600F067
:10251000CDFF009073484FF0400A14381021C0F8E6
:1025200008A0C0E900418901C0E90371FFF7CEFAB4
:102530001020FEF7C5F807462A28D3D1012E3AD934
:102540006643B6F1007F01D32620CBE7634C01211F
:1025500064486562C4E90461614AC0E90026009AE2
:102560000027120182600222C260C0E90471FFF7F5
:1025700033FA4146DFF86C814FF48069A8F1140802
:102580004046C8F800101221C8F804104021C8E9DC
:102590000217C8F81090FFF799FA1220FEF790F88A
:1025A00007462A289ED1E16840F22A30022912D03B
:1025B00001296BD081B38FE04FF40040FFF73AFA66
:1025C00050B10026FFF77CFA45F82600761C082E4D
:1025D000F8D3203500E082464348406B10EA0A0FEA
:1025E000EAD00820FFF726FA20B10820FFF7DCF92F
:1025F000042077E70220FFF71DFA20B10220FFF741
:10260000D3F902206EE72020FFF714FA28B120202A
:10261000FFF7CAF9062065E747E05E465846FFF730
:1026200009FA48B13046FFF7BFF907205AE700BF63
:10263000FFF746FA01C501E04FF400163046FFF7F8
:10264000F9F90028F4D14FF48070FFF7F3F9C0B125
:10265000606818B1022801D0012812D100210C2293
:10266000C8E900124022C8E902211E48C8F81090AB
:102670001438FFF72BFA0C20FEF722F807462A2819
:10268000B7D140F2FF50FFF78FF925E0012148F262
:102690002A30FFF7F3F9A06910B920782A28FAD078
:1026A00020782A2818D020781CE70121FFF7E6F9C6
:1026B0000120FFF78BF931462846FEF709F90B4D4B
:1026C0002846FEF7D7F80028FAD0A0690028E7D1FD
:1026D00020782A28F9D0E3E7384603E7E400002011
:1026E000FFFF0F0050080020008001400020001074
:1026F000094910B508600720486040208860002024
:10270000C8604FF4806008610846FFF7DFF9BDE854
:1027100010400720FDF7D4BF3C0800202A2130B12B
:10272000012804D0022802D0262108467047014A19
:10273000D060FAE7E4000020084810B500210C2220
:10274000C0E900124022C0E9022111010161FFF736
:10275000BDF9BDE810400C20FDF7B2BF3C080020D9
:102760002DE9FC5F4FF0000780460D0014468DF800
:1027700000703E4628D0DFF894922A2189F8001094
:10278000C9F81870A348A249C9F81070C0E9001729
:102790008760C76007614761FFF71EF90020FFF7F8
:1027A00015F90020FFF762F9800102D50E20BDE87F
:1027B000FC9FD9F80400022808D0601EB0F5006F15
:1027C00002D2601E044206D02620F0E74FF40074C7
:1027D0004FEA5828F5E7204600F068FEDFF834A2FB
:1027E0000190AAF1140A1021CAE900414FF0400BF0
:1027F000CAE902B789015046CAF81010FFF766F916
:102800001020FDF75DFF2A28D1D18048D14680688D
:102810000104CAF800100D21CAE9011B504600212D
:102820004FF4806AC0E9031A7A481438FFF74EF96A
:102830000D20FDF745FF2A28B9D10020FFF716F932
:10284000734F4FF0000A1AE070487F1E8068010441
:10285000C9F800100D21C9F80CA0C9E9011B6D4889
:102860004FF480611438C9F81010FFF72FF90D20CC
:10287000FDF726FF2A289AD10020FFF7F7F8C005B8
:1028800002D4002FE0D131E07FB348461821C9F8C7
:1028900008B0C0E900814FF48061C0E903A15D4840
:1028A000D1461438FFF712F91820FDF709FF2A283E
:1028B0008BD1DFF858815748554AC8F82050C8E9ED
:1028C0000449C0E90024019A01211201C0E902294A
:1028D000C0E904914746FFF77FF8F86802282DD039
:1028E000464601285AD0D8B380E0FFE729205EE7AA
:1028F0004FF48040FFF79EF8F8B1D8F81000801B25
:1029000020280FD281074FEA900400D0641C0027D2
:1029100005E02868FFF7FAF87F1C2D1D361DA74239
:1029200010D2F6E75FF0000455F82400FFF7EEF848
:10293000641C082CF8D32035203603E0DFF8D8904B
:1029400040F21A6AD9F8341011EA0A0FD0D00820E0
:10295000FFF770F828B10820FFF726F8042026E7D3
:102960002BE00220FFF766F820B10220FFF71CF8E9
:1029700002201CE71020FFF75DF820B11020FFF7C0
:1029800013F8052013E74FF400742046FFF752F8C0
:1029900060B32046FFF708F8072008E7012144F25A
:1029A0001A30FFF76BF8B06910B930782A28FAD0DE
:1029B00030782A281AD03078F9E6012140F21A300E
:1029C000FFF75CF821462846FDF7B0FF0120FEF72F
:1029D000FDFF124C2046FDF74DFF0028FAD0B069EC
:1029E0000028E5D130782A28F9D0E1E740F2FF50FD
:1029F000FEF7DAFF6846FEF71DFA2A28AFD19DF8E8
:102A000000100729F6D00629F4D0D0E6E400002013
:102A1000FFFF0F0050080020008001400020001040
:102A20007047704730B585B0012144F20400FEF7CD
:102A300037FD00214FF48040FEF73EFD4FF400705B
:102A4000ADF8000003208DF8020018202E4C8DF800
:102A5000030069462046FEF70DF92015ADF8000089
:102A600004208DF8030069462046FEF703F94FF471
:102A7000E040264DADF8000069462846FEF7FAF81A
:102A80006014ADF8000069462148FEF7F3F84020D5
:102A9000ADF8000069461F48FEF7ECF8E414ADF805
:102AA000004028208DF8030069461B48FEF7E2F835
:102AB000ADF8004069462846FEF7DCF84FF4E130F7
:102AC00001900020ADF80800ADF80A00ADF80C0048
:102AD000ADF810000C20114CADF80E0001A92046F5
:102AE00000F086FB012240F22771204600F068FBCF
:102AF000012240F22551204600F062FB01212046D0
:102B000000F04DFB05B030BD000801400018014049
:102B10000014014000100140000C01400038014049
:102B2000024920F00700086070470000505C004038
:102B3000F0B50C490C4A48F68F760B7800210AE074
:102B4000CCB202EB8405D5F8007CBFB237402743F6
:102B5000C5F8007C491C9942F2D340F08000C2F8CD
:102B60004C0CF0BDB800002000500040054A21F098
:102B700001011368044A9BB203EBC00002EB400062
:102B800081607047505C0040006000400D4A13684F
:102B90000D4A9BB203EBC00002EB40023E2909D96B
:102BA0004809C90601D1401E80B24FF4004141EAF4
:102BB000802005E04808C90701D0401C80B280028F
:102BC00010607047505C00400C6000400A4A10B52D
:102BD00002EB8002D2F8000C4BF68F7480B2CB046B
:102BE00000EA040001D580F48050890401D580F406
:102BF0000050C2F8000C10BD00500040064901EB27
:102C00008001D1F8000C4BF68F7280B2104080F436
:102C10004050C1F8000C704700500040054A21F0B8
:102C200001011368044A9BB203EBC00042F8101084
:102C300070470000505C004000600040044A126889
:102C4000044B92B202EBC00003EB400041607047BE
:102C5000505C0040006000400A4A10B502EB800260
:102C6000D2F8000C48F6BF7480B2CB0600EA04002C
:102C700001D580F01000890601D580F02000C2F84F
:102C8000000C10BD00500040064A02EB8000D0F856
:102C9000002C48F68F1392B21A400A43C0F8002C59
:102CA000704700000050004010B50C460E490D4A18
:102CB0000A6008730D2298210B4800F055FB0D2186
:102CC0000120FFF7BBFF09480521002C017007D048
:102CD000042101703021BDE810400120FFF7BCBF86
:102CE00010BD000055534253E40C00205001002059
:102CF000014A907011737047890100201CB5FEF7DE
:102D0000E7FB4FF480342046FEF776FCFEF7C4FC68
:102D100026490128087025D11020FDF795FF0220D3
:102D2000FDF79EFF0020FEF75DFC0020FEF78AFC09
:102D3000A011FEF77DFC6010FEF790FB4FF4E01150
:102D40002046FEF78FFC0120FEF786FC3920FEF7B7
:102D500029FC0028FAD00220FEF78EFCFEF73AFC90
:102D60000828FBD101211020FEF79AFB2020ADF8A6
:102D7000040003208DF8060010208DF8070001A93B
:102D80000B48FDF777FF4FF4C060FEF77BFA312068
:102D90008DF8000000208DF801008DF80200012060
:102DA0008DF803006846FEF73EFA1CBD0C000020BB
:102DB000000C014010B50020FEF768FC0121BDE8C1
:102DC0001040C805FEF760BB70B51748016817488A
:102DD0004FEA014100EBD131154D89684FEA0141BD
:102DE00000EBD1342868017A09290FD021780170CD
:102DF00061784170A088FDF75EFA296848802089D3
:102E0000FDF759FA29688880A089C88028680121BF
:102E10000172C08828B1FDF751FEBDE87040FEF791
:102E2000E5BAFEF743FAF8E7505C00400060004066
:102E30002401002070B537480168087810F07F0041
:102E400002D0022805D062E0487A00F0DF00487224
:102E50004CE04888E8BB0879D8BB4A792F4C130668
:102E600022F08000002B04EB80032B4DD3F8003CB4
:102E700003DAC3F301131B0102E0C3F301331B03A5
:102E80002E780546864242D91BB3897A09B31106CA
:102E900010D504EB8001D1F8001CC1F30111012908
:102EA00020D1E8B20446FDF7E9FB30212046FFF7C8
:102EB000D3FE17E004EB8005D5F8001CC1F3013107
:102EC00001290FD14BF68F7690B1C0B2FDF7C2FB4E
:102ED00000E01CE0D5F8000C80B2304080F4405097
:102EE000C5F8000C0E48006840698047002070BD9E
:102EF0000C4890F82C100020FFF748FED4F8000C86
:102F000080B2304080F44050C4F8000CEAE7022060
:102F100070BD000024010020B800002000500040D7
:102F20002C0100206000002010B5074C30B107488C
:102F300000680068804720680A3010BD21680120C1
:102F40000882002010BD0000240100202C01002078
:102F5000064A00281268508A02D00968084470475F
:102F60008988081A10820020704700002401002080
:102F700010B5074C30B1074800688068804720686A
:102F80000C3010BD216801200882002010BD000017
:102F9000240100202C0100201F4910B5096860B1F0
:102FA0001E48002202800A7853060AD002F07F02EF
:102FB000012A13D0022A13D001E002200882002047
:102FC00010BD497A8A0603D5027842F002020270E7
:102FD000490612D4017801F0FE0111E00F4810BD3E
:102FE0004A7902F00F0113060D4A02EB8101D1F874
:102FF000001C07D5C1F3011106E0017841F0010181
:10300000017003E0C1F301310129F6D005480068E1
:1030100000698047E2E70000240100202001002031
:10302000005000402C0100200A4810B50A490068F1
:103030004A78C178914203D882780AB982880AB165
:10304000022010BD8172054800684068804700205A
:1030500010BD000024010020B80000202C01002039
:10306000064810B50068417A41F0200141720448D9
:103070000068C0698047002010BD000024010020C6
:103080002C01002070B51C4803681C48597921F0B8
:10309000800500EB85000C06D0F8004C21F0800282
:1030A00003D5C4F30114240102E0C4F30134240362
:1030B000134D2D7895420FD95A886AB964B19A7A1E
:1030C00052B10906D0F8001C08D548F6BF7289B283
:1030D000114081F0100107E0022070BD4BF68F72A5
:1030E00089B2114081F48051C0F8001C0548006885
:1030F00080698047002070BD2401002000500040FE
:10310000B80000202C01002010B50E4C0E4A20689B
:103110001268C17892694079904721688A7A22B111
:1031200018B9087908B9887808B1022010BD074895
:103130000068C068804720684179C172C178017316
:10314000002010BD24010020280100202C010020B7
:1031500070477047704770477047704770477047B7
:1031600010B50C460A46982100F0FEF821460120D1
:10317000FFF764FD30210120FFF76EFD04490320B5
:10318000087004488168091B81600021017310BD2B
:1031900050010020E40C0020704770477047002960
:1031A000818902D041F4005101E021F40051818174
:1031B00070470246002012880A4200D00120704762
:1031C00010B5C1F3421301F01F040121A140012BEE
:1031D00007D0022B07D01430002A026805D00A431A
:1031E00004E00C30F8E71030F6E78A43026010BDC7
:1031F00030B50446008A85B00D464CF6FF71084094
:10320000E98801432182A1894EF6F3100140A88884
:103210002A8910436A890A431043A081A08A4FF685
:10322000FF410840A9890143A1826846FEF76EF973
:103230001148844201D1039800E00298642200EB17
:10324000C00101EB001029686FF018038900B0FB82
:10325000F1F0B0FBF2F109010D095D43322300EBFF
:10326000850003EB0010B0FBF2F000F00F00084304
:10327000208105B030BD000000380140C1F30801D5
:103280008180704770470000044A00284FF40051C5
:10329000104601D0FDF740BDFDF740BD00100140D4
:1032A000FDF7BEB806480549022201600A72064AC7
:1032B0000449C0E9011208680047000068080020BE
:1032C0002401002060000020BC00002038B500214F
:1032D0004FF00060FDF7E0FF4FF4C060FDF7D2FF54
:1032E00014208DF8000001248DF8014000258DF890
:1032F00002508DF803406846FDF795FF13208DF8C6
:1033000000008DF801508DF802508DF8034068469A
:10331000FDF789FF38BD000070B50E48D0F8441C99
:103320000D4C218021880D4D2A881140490506D574
:103330004FF6FF31C0F8441C094840688047208898
:1033400029880840000403D5BDE87040FDF7B2B8F5
:1033500070BD0000005000404800002030010020F7
:1033600060000020FFF7D8BF084B10B5521C520870
:1033700003EB410108D003784478801C43EA04231E
:1033800021F8043B521EF6D110BD00000060004041
:10339000704700002DE9F041294C61680026354650
:1033A00040312848284F666106E07A5D63686D1CED
:1033B000C2546268521C626062688A42F5D36561D9
:1033C000A268DFF88880B8F800100A44A260E268BA
:1033D000511AE160C90518D1666000231C4D1946D9
:1033E0004FF4007200EB010C475CDCF801C0091DD2
:1033F00047EA0C2745F823705B1C9142F2D314492D
:10340000A068A0F50070FFF7ABF91248B8F80010FB
:103410008268511A81604FF440510220FFF7D6FBB9
:10342000E06818B10C480078042806D16660BDE851
:10343000F04101210020FFF737BCBDE8F08100001A
:1034400038010020840A0020840C00205201002052
:1034500084080020E40C002050010020014A0249A9
:1034600000F013B8C1340008B001002002E008C821
:10347000121F08C1002AFAD170477047002001E0EE
:1034800001C1121F002AFBD170472DE9F04104460B
:103490000F461646002503E03946B0476D1C641CF4
:1034A00020780028F8D12846BDE8F081002102E00C
:1034B0004008491CC9B20128FAD1084670470000EB
:1034C00070B5074D0446C1B22846FFF7D7FE40212C
:1034D0002846FFF76EFE0028F9D0204670BD000098
:1034E0000038014008B5FFF709FCFFF79BFAFEF72B
:1034F0004BFC274C2A28207033D12648FEF70CFBC2
:1035000020702A282DD12348B0F84C000004FFF782
:10351000EFF820702A2824D10020FFF7FFF8207050
:103520002A281ED102231D022A461B490020FEF72D
:10353000B5FF20702A2814D116492A4650310020A0
:10354000FEF7ACFE20702A280BD102232A4612492E
:103550000020FEF7A3FF20702A2802D10FA0FFF75A
:103560007DFFFDF719FCFFF725FCFFF7AFFE4FF4D9
:103570000050ADF8000003208DF8020014208DF8F3
:10358000030069461048FDF775FBFFF78BFEFEE769
:103590000D000020B4010020040400200D0A534453
:1035A000205344494F2D31626974C4A3CABD20B26F
:1035B000E2CAD45446BFA8B6C1D0B4B3C9B9A6A311
:1035C000A1200A20000000000010014012010002AA
:1035D000000000408304205700010102030109029A
:1035E0002000010100803209040000020806500496
:1035F00007058102400000070502024000000403A5
:1036000009042603530054004D0069006300720052
:103610006F0065006C0065006300740072006F004D
:103620006E006900630073002603530054004D00D0
:103630003300320020004D00610073007300200051
:10364000530074006F0072006100670065001A0388
:1036500030003000300030003000300030003000EA
:1036600030003000300031001003530054002000BF
:103670004D006100730073009836000800000020C0
:10368000B4010000980100083C370008B401002094
:10369000440D00007C340008D1222A13310C0C1890
:1036A000082512040A1535208113CC353308121A67
:1036B000DE08322013E1101B0819041ADD041ADF9A
:1036C00004134D0F1B08C9041ABD041A99041A8D5E
:1036D000041AA5044132401AFE383204130236336C
:1036E00008265A28081A4E08321A1A680832102377
:1036F00003012978CBFD1188DA311059D701253C17
:10370000020406302D0102030404053A06070809E5
:1037100035800202201E53544D2D20012B464405B6
:1037200040106C617368204469736B20312E302027
:0C373000036206627002150A39978202DB
:0400000508000131BD
:00000001FF
