:100000000C942A000C9445000C9445000C94450077
:100010000C9445000C9445000C9445000C9445004C
:100020000C9445000C9445000C9445000C9445003C
:100030000C9445000C9445000C9445000C9445002C
:100040000C9445000C9445000C9445000C9445001C
:100050000C94450011241FBECFE5D8E0DEBFCDBF14
:1000600011E0A0E6B0E0E6E1F7E102C005900D92F4
:10007000A433B107D9F711E0A4E3B1E001C01D92A8
:10008000A534B107E1F70C945A000C94000088E005
:100090008AB987E489B90895CF93C82F8A3019F4B3
:1000A0008DE00E944C005D9BFECFCCB980E090E0DB
:1000B000CF910895C8E5D6E0DEBFCDBF0E944700CE
:1000C00040E050E0BA018CE490E00E94180680E61F
:1000D00090E002C08BE690E00E947D060E946901DC
:1000E0008823C1F78FE890E00E947D060E94840477
:1000F000CE0101960E94F10200E010E03E0108945A
:10010000611C711CF801E60DF71D808199279F93F2
:100110008F9380EA90E09F938F930E9461060F90E7
:100120000F900F900F900F5F1F4F0031110530F3AC
:1001300051E0852E52E0952E8C0E9D1EF40110820A
:1001400042E0A42EB42EAC0EBD1EF5011082118229
:100150001282138284EA90E00E947D0631E0D32E61
:100160008E010F5F1F4F9E012F5F3D4FAE014E5F0F
:100170005D4F6D2D80E090E00E94CE0326E0E22EE0
:1001800022E0F22EEC0EFD1EF701808391838F5F3B
:100190009F4F51F1F501008111811F930F93F401DD
:1001A000808199279F938F93F701808191819F93FD
:1001B0008F9380EB90E09F938F930E9461067F92D4
:1001C0006F920E9461068AE090E00E9476068DB7E9
:1001D0009EB70A960FB6F8949EBF0FBE8DBFD394FC
:1001E0009FEE9D1508F0BCCF8FED90E00E947D063C
:1001F0006701F701108211828E010F5F1F4F9E0170
:100200002F5F3D4FAE014E5F5D4FB70180EF90E035
:100210000E94D105813059F588EF90E00E947D065B
:10022000EE24FF24C701AA2797FDA095BA2F9C01B1
:10023000AD01BE016F5F7F4FF601808191810E9409
:10024000CF0400E010E0FE01E00FF11F818199274B
:100250000E9476060F5F1F4FF2E000301F079CF3ED
:100260000894E11CF11C24E3E216F104DCF287E0BF
:1002700091E00E947D06FFCF8FB9779BFECF089556
:100280008FEF8FB9779BFECF8FB199270895FC012F
:100290002FEF40E050E0C39A2FB9779BFECFC39871
:1002A00090E081918FB9779BFECF9F5F9630C8F326
:1002B0003FEF3FB9779BFECF8FB1282FCA014F5F29
:1002C0005F4F855F914010F42F3F99F3822F99275C
:1002D00008951F93CF93DF93CDB7DEB726970FB660
:1002E000F894DEBF0FBECDBF10E0BE98BF9ABD9A96
:1002F000BB9ABC9AC39A812F00008F5F883CE0F3C1
:1003000083E58DB91EB880E09FEF9FB9779BFECF44
:100310008F5F8F30D0F386E0A0E1B1E0FE0131962F
:100320000D9001928A95E1F707C0812F1F5F893CEC
:1003300018F081E090E020C0CE0101960E944701B4
:10034000813099F710E081E489838FEF8E8307C0B5
:10035000812F1F5F853618F082E090E00DC0CE013E
:1003600001960E944701882399F78DB18C7F8DB942
:10037000709AC39A80E090E026960FB6F894DEBF9C
:100380000FBECDBFDF91CF911F910895CF92DF9225
:10039000EF92FF920F931F93CF93DF93CDB7DEB70A
:1003A00026970FB6F894DEBF0FBECDBF6B017C0160
:1003B0008A01BE016F5F7F4F26E046E151E0DB011D
:1003C000FA0101900D922A95E1F729E0CC0CDD1C91
:1003D000EE1CFF1C2A95D1F72F2D332744275527D4
:1003E0002A83EB8280E09FEFA0E0B0E0C822D92210
:1003F000EA22FB22BB27AF2D9E2D8D2D8C83CB01B6
:100400000E944701882311F099272DC0982F2FEFC4
:100410002FB9779BFECF8FB19F5F9436C8F38EEFD5
:100420008FB9779BFECF20E030E0D8018D918D0110
:100430008FB9779BFECF2F5F3F4FB2E020303B0755
:10044000A0F38FEF8FB9779BFECF8FEF8FB9779B9C
:10045000FECF9FEF9FB9779BFECF8FB18F3FD1F734
:10046000C39A80E090E026960FB6F894DEBF0FBEE8
:10047000CDBFDF91CF911F910F91FF90EF90DF9053
:10048000CF9008950F931F93CF93DF938B01EA01D1
:100490000E944701882329F59FEF9FB9779BFECFE4
:1004A0008FB18E3FD1F720E030E02C173D0770F47C
:1004B0009FEFF8010F5F1F4F9FB9779BFECF8FB162
:1004C00080832F5F3F4F2C173D0798F38FEF8FB935
:1004D000779BFECF8FB18FEF8FB9779BFECF8FB118
:1004E000C39ADF91CF911F910F910895CF92DF9220
:1004F000EF92FF920F931F93CF93DF93CDB7DEB7A9
:1005000026970FB6F894DEBF0FBECDBF6B017C01FE
:10051000BA018E010F5F1F4F26E04CE151E0D80178
:10052000FA0101900D922A95E1F759E0CC0CDD1CFF
:10053000EE1CFF1C5A95D1F72F2D33274427552742
:100540002A83EB8280E09FEFA0E0B0E0C822D922AE
:10055000EA22FB22BB27AF2D9E2D8D2D8C8340E000
:1005600052E0C8010E94420280E090E026960FB659
:10057000F894DEBF0FBECDBFDF91CF911F910F91D9
:10058000FF90EF90DF90CF9008950F931F93CF933C
:10059000DF93CDB7DEB726970FB6F894DEBF0FBE58
:1005A000CDBF9C018E010F5F1F4F86E042E251E0FC
:1005B000D801FA0101900D928A95E1F740E150E0EF
:1005C000B901C8010E94420280E090E026960FB671
:1005D000F894DEBF0FBECDBFDF91CF911F910F9179
:1005E00008950F931F93CF93DF93CDB7DEB7269770
:1005F0000FB6F894DEBF0FBECDBF9C018E010F5F1A
:100600001F4F86E048E251E0D801FA0101900D92B7
:100610008A95E1F740E150E0B901C8010E94420229
:1006200080E090E026960FB6F894DEBF0FBECDBFF7
:10063000DF91CF911F910F910895EF92FF920F9349
:100640001F938C01AC0160E070E080E090E00E94BC
:1006500076020A531E4FF80121918F018081075CB9
:1006600011409927F82EEE24E20EF11CC701AA27AB
:10067000BB27A801BC01CD010E947602C7011F91D2
:100680000F91FF90EF9008950F931F938C0180912D
:10069000340190913501AA27BB27A801BC01CD01E7
:1006A0000E947602F8018089282F3327868997894E
:1006B000289FA001299F500D389F500D1124868539
:1006C0009785840F951F2091340130913501820F59
:1006D000931F1F910F910895AF92BF92CF92DF9217
:1006E000EF92FF920F931F93CF93DF93EC015B0187
:1006F0006A0100E010E07801980144275527F501D0
:1007000080819181A281B381281739074A075B074D
:1007100041F4CE01AA27BB2780839183A283B383B0
:1007200032C0FFEFCF3FDF0771F1CE018C0F9D1F6D
:10073000EC01D1709C01232F332726958091340141
:1007400090913501280F391F809136019091370122
:10075000280F391F2E153F0549F07901C901AA2735
:10076000BB27A601BC01CD010E947602F601EC0F69
:10077000FD1F81819927D82FCC278081C80FD11DDB
:100780000F5F1F4FB9CFDF91CF911F910F91FF9056
:10079000EF90DF90CF90BF90AF9008955F926F92EF
:1007A0007F928F929F92AF92BF92CF92DF92EF9201
:1007B000FF920F931F93CF93DF93CDB7DEB72497AC
:1007C0000FB6F894DEBF0FBECDBF562E3A014901D9
:1007D0006801AA24BB2419821A821B821C820097FA
:1007E00049F4C8010E944403AA27BB2725C08FEF04
:1007F0009FEF74C0A801BE016F5F7F4F0E946C0322
:1008000089819A81AB81BC810297A109B1092091AC
:100810003A01332744275527BC01CD010E944A0BDA
:100820009B01AC018091380190913901AA27BB2727
:10083000820F931FA41FB51F89839A83AB83BC8348
:10084000E980FA80C701AA27BB27A601BC01CD0118
:100850000E947602452D5527F601960121503E4F04
:100860009081992321F283858F3081F1953E71F13A
:10087000A416B50641F590E02EE2AF01DA018C91A5
:10088000803251F0983019F4D8012D938D01DA019E
:100890008C91D8018D938D019F5F4F5F5F4F9B308F
:1008A00068F3D8011C928385D4018C93248D358DF7
:1008B000468D578DD3012D933D934D935C931397A4
:1008C000828D938D0BC00894A11CB11CB0962E177D
:1008D0003F0730F60894E11CF11CB4CF24960FB604
:1008E000F894DEBF0FBECDBFDF91CF911F910F9166
:1008F000FF90EF90DF90CF90BF90AF909F908F9040
:100900007F906F905F900895CF93DF93CDB7DEB760
:10091000C050D2400FB6F894DEBF0FBECDBFCE019F
:1009200001960E941D039093350180933401AA27FC
:10093000BB27AE014F5F5F4FBC01CD010E94760225
:100940008E8580933A018F859889909337018093A3
:1009500036018C859D8575E0880F991F7A95E1F7A2
:10096000892F992786959093390180933801CE017C
:1009700001960E9444032091380130913901280FDB
:10098000391F3093390120933801C050DE4F0FB624
:10099000F894DEBF0FBECDBFDF91CF9108954F9287
:1009A0005F926F927F928F929F92AF92BF92CF92FF
:1009B000DF92EF92FF920F931F93CF93DF93CDB708
:1009C000DEB724970FB6F894DEBF0FBECDBF8C0103
:1009D0002B0139014A0180913A01282F33274427FE
:1009E0005527C401B3010E94690B29833A834B83C5
:1009F0005C83A201BE016F5F7F4FC8010E946C0340
:100A000089819A81AB81BC810297A109B1092091AA
:100A10003A01A22EBB24CC24DD24BC01CD01A601C9
:100A200095010E944A0B7B018C01809138019091C5
:100A30003901AA27BB27E80EF91E0A1F1B1FC40194
:100A4000B3010E94690BDC01CB01E80EF91E0A1FFD
:100A50001B1FE982FA820B831C83A201C801B70124
:100A60000E94760224960FB6F894DEBF0FBECDBF6B
:100A7000DF91CF911F910F91FF90EF90DF90CF907A
:100A8000BF90AF909F908F907F906F905F904F90AE
:100A900008952F923F924F925F926F927F928F9222
:100AA0009F92AF92BF92CF92DF92EF92FF920F93FD
:100AB0001F93CF93DF93CDB7DEB7C550D2400FB6AB
:100AC000F894DEBF0FBECDBF8C011B0129013A0196
:100AD00080913A01282F332744275527C301B201BB
:100AE0000E94690BE2E08E2E9E2E8C0E9D1EF4015C
:100AF0002083318342835383AE014F5F5F4FB40144
:100B0000C8010E946C03F40180819181A281B381AC
:100B10000297A109B10920913A01A22EBB24CC244D
:100B2000DD24BC01CD01A60195010E944A0B7B0189
:100B30008C018091380190913901AA27BB27E80EDA
:100B4000F91E0A1F1B1FC301B2010E94690BDC01C1
:100B5000CB01E80EF91E0A1F1B1FF401E082F1828F
:100B600002831383A101C801B7010E94C601CB5FB4
:100B7000DD4F0FB6F894DEBF0FBECDBFDF91CF9132
:100B80001F910F91FF90EF90DF90CF90BF90AF90AB
:100B90009F908F907F906F905F904F903F902F909D
:100BA00008954F925F926F927F928F929F92AF9231
:100BB000BF92DF92EF92FF920F931F93CF93DF9339
:100BC0002C017B013A014901E801FB01A080B180C1
:100BD000DD248E019401A3016D2DC5010E94CE0379
:100BE000F701808391838F5F9F4F19F480E090E03D
:100BF0000FC0BE01C2010E94B506892B19F481E025
:100C000090E006C0D39423E62D1518F782E090E01B
:100C1000DF91CF911F910F91FF90EF90DF90BF90E8
:100C2000AF909F908F907F906F905F904F900895BE
:100C30000F931F93CF93DF938C01EB010097A1F1EA
:100C40006CE070E081E090E00E94C409FC01892B17
:100C500021F1209751F0C287D38721E0238380912F
:100C60003B0190913C01892BD1F001151105A9F0B0
:100C700000871187038102600383A0913D01B09139
:100C80003E01AB2B51F4F0933E01E0933D01C09146
:100C90003F01D0914001CD2B51F0CF010DC0F09319
:100CA0003C01E0933B01E1CF672B51F605C0F09387
:100CB0004001E0933F01F1CFDF91CF911F910F9160
:100CC0000895CF93DF93CDB7DEB7E5E0F0E0EC0F0A
:100CD000FD1F81919191AF01BC0180913D019091E7
:100CE0003E010E94C706DF91CF91089560913D01BA
:100CF00070913E010E94E00908950F931F93CF93D6
:100D0000DF93DC0100E010E0E0913D01F0913E0155
:100D1000838181FF23C08D91ED01882329F413C0C5
:100D2000E0913D01F0913E010084F185E02D0995AF
:100D3000892B11F00FEF1FEF8991882389F7E0913C
:100D40003D01F0913E010084F185E02D8AE0099596
:100D5000892B11F00FEF1FEFC80102C08FEF9FEF3B
:100D6000DF91CF911F910F910895FB01DC018D91CF
:100D70006191562F5062513624F05B3714F4606253
:100D80008062861B11F4662391F7990B08952F92C8
:100D90003F924F925F926F927F928F929F92AF920B
:100DA000BF92CF92DF92EF92FF920F931F93CF9358
:100DB000DF93CDB7DEB762970FB6F894DEBF0FBEF4
:100DC000CDBFAA24BB2465014C011B014D875E8762
:100DD00044245524FC0146825782838181FDACC2A4
:100DE0008FEF9FEFB8C20894211C311C40FE92C2C5
:100DF000862D80538A30F0F4F0E36F1651F42A897F
:100E0000222339F443FC05C080E091E0482A592AA6
:100E100093C28AE09A89989F902D1124892F860D7C
:100E200080538A8B882314F4EFE7EA8B43FC84C257
:100E30007A8882C243FE05C0FA89FF2311F421E0BB
:100E40002A8B862D992787FD9095883691057CF50C
:100E5000853691050CF070C08335910509F49FC06B
:100E600084359105BCF48B32910509F447C08C326E
:100E7000910544F48032910509F444C0839709F444
:100E80004BC03EC28D32910509F441C08E9709F4E2
:100E900048C036C28336910509F458C0843691059E
:100EA0000CF09AC08835910509F4D1C029C2803769
:100EB000910509F4C4C08137910584F48C369105FD
:100EC000B1F18D3691052CF48936910509F484C071
:100ED00017C28F36910509F4AFC012C2853791054C
:100EE00009F4B7C08637910524F483379105B9F129
:100EF00007C28837910509F4AAC002C280E190E0D8
:100F0000482A592AE0E2F0E04E2A5F2A15C220E87A
:100F100030E0422A532A10C280E490E0482A592A3D
:100F20000BC2E8E0F0E04E2A5F2A1A8A05C224E0EC
:100F300030E0422A532A00C20F2EFFE3AF2EF02DDD
:100F40007A940F2EF3E66F2EF02D65C1ED85FE85A8
:100F5000CF0102968D879E87A0807A945CC1ED8533
:100F6000FE859F012E5F3F4F2D873E87A080B18079
:100F700043FE0BC03A89832F992787FD9095BC01CA
:100F8000C5010E94340B8F8707C0F5010190002036
:100F9000E9F73197EA19EF878F85781A3CC1ED851B
:100FA000FE859F012E5F3F4F2D873E87A080B18039
:100FB00043FE0BC03A89832F992787FD9095BC018A
:100FC000C5010E943F0B8F8704C0C5010E942B0BF7
:100FD0008F878F85781A1FC142FE0CC0ED85FE8574
:100FE0009F012C5F3F4F2D873E87208131814281B9
:100FF00053810DC0ED85FE85CF0102968D879E87BA
:10100000808191819C01442737FD4095542F5901DF
:101010006A01552364F4E2E0F0E04E2A5F2AD0949E
:10102000C094B094A094A11CB11CC11CD11C2FEB86
:101030003FEF422253222CC038E03F870AC080E4B1
:1010400090E0482A592A0F2EF8E76F2EF02D90E1F4
:101050009F8742FE0CC0ED85FE859F012C5F3F4FB0
:101060002D873E8720813181428153810BC0ED85E0
:10107000FE85CF0102968D879E87808191819C019C
:101080004427552759016A01EFECFFEF4E225F22FA
:101090009E012F5F3F4F288B398B3F85E32EFF2426
:1010A00000271127C601B501A80197010E94690B0D
:1010B000DC01CB01E889F98980838A301CF0860D38
:1010C000815204C0E889F9898081805DE889F989C5
:1010D0008193E88BF98BC601B501A80197010E94A5
:1010E000690B59016A012115310541055105D1F6F8
:1010F000CE010196A888A81AC20182739070892B2C
:1011000009F07A9446FE0FC0872D992787FD9095A8
:10111000FF85F03131F40F2EFEEF7F2EF02D780E8B
:1011200002C0782E7A9443FE12C08A89282F332772
:1011300027FD30958A2D9927821793072CF0E7EF2A
:10114000FFEF4E225F2203C0FA89FA19FA8B43FEA1
:1011500003C02A89721A01C07A18C201807891707E
:10116000892B69F4872D7A9418164CF4B40180E227
:1011700090E00E94E009872D7A941816BCF341FE96
:1011800006C0B4018DE290E00E94E0090FC044FE69
:1011900006C0B4018BE290E00E94E00907C045FE62
:1011A00005C0B40180E290E00E94E00946FE0FC055
:1011B000B40180E390E00E94E0093F85303139F4CA
:1011C000B401862D992787FD90950E94E009852D11
:1011D000992780FF0DC0872D7A9418164CF4B4011E
:1011E00080E390E00E94E009872D7A941816BCF302
:1011F00043FE11C08A89982F91509A8B18165CF47F
:10120000B40180E390E00E94E0098A89E82FE15070
:10121000EA8B1816ACF347FC0DC0872D7A9418168C
:101220004CF4B40180E290E00E94E009872D7A94AA
:101230001816BCF3F3E66F1641F48A2DB401992712
:1012400087FD90950E94E0094BC023E76216B9F430
:101250003F8531503F873F3F09F442C0F50180810F
:101260000894A11CB11CB401992787FD90950E9498
:10127000E0098F8581508F878F3F81F731C093E5DB
:101280006916A1F4EF85E150EF87EF3F49F1F501D1
:101290008491B40199270E94E0090894A11CB11C13
:1012A000FF85F150FF87FF3F91F71AC0CE010196ED
:1012B000288939898217930799F08E010F5F1F4F94
:1012C000E889F9898291E88BF98BB401992787FD28
:1012D00090950E94E009288939890217130781F740
:1012E00047FE15C0872D7A9418168CF4B40180E25D
:1012F00090E00E94E009872D7A941816BCF307C08D
:10130000B401862D992787FD90950E94E009442419
:10131000552412C035E2631641F444245524439405
:101320001A8A7A888AE08F8707C0B401862D9927A8
:1013300087FD90950E94E009F401838183FF03C03B
:10134000F101649002C0F1016080662009F04BCD8C
:10135000F4018681978162960FB6F894DEBF0FBEC6
:10136000CDBFDF91CF911F910F91FF90EF90DF9054
:10137000CF90BF90AF909F908F907F906F905F9035
:101380004F903F902F9008950F931F93CF93DF932B
:10139000869F8001879F100D969F100D1124C80114
:1013A0000E94130AEC01009729F0A80160E070E0A8
:1013B0000E94240BCE01DF91CF911F910F910895D0
:1013C0000F931F93CF93DF938C01EB018B819927B0
:1013D00081FF22C082FF14C02E813F818C819D81BC
:1013E000281739073CF4E881F9810193E883F983F0
:1013F0002E813F812F5F3F4F2E833F83C8010EC058
:10140000E885F985802F0995892B31F4AE81BF815C
:101410001196AE83BF83F2CF8FEF9FEFDF91CF9115
:101420001F910F910895CF93DF939C01029710F4C1
:1014300022E030E040E050E06091430170914401CF
:10144000FB01DA016115710569F1808191818217D3
:10145000930709F452C02817390738F4411551058C
:1014600019F08417950708F4AC01DF010280F381BD
:10147000E02D309751F741155105A1F0DA01A21B7B
:10148000B30B149708F443C0DB010AC06D917C9143
:1014900011976417750709F450C0FD01A281B3814B
:1014A0001097A1F7E0914101F0914201309741F48A
:1014B000E0913001F0913101F0934201E09341015C
:1014C00040912E0150912F014115510529F14E1BDC
:1014D0005F0B42175307E8F0C901029648175907F6
:1014E000C0F0EF01C20FD31F2296D0934201C093E8
:1014F000410121933193CF0142C01097B1F0828115
:101500009381ED018A839B83CF01029638C09A01B3
:10151000BBCF80E090E033C04DB75EB7A091320101
:10152000B09133014A1B5B0BD2CF228133813093C0
:10153000440120934301CF01E8CF2417350761F020
:10154000EA01C21BD30BFD01EC0FFD1F2193319368
:101550002297CD93DC93CFCF309741F0ED014A81B4
:101560005B8142835383CD01029609C0FD018281D4
:1015700093819093440180934301CD01F5CFDF9196
:10158000CF910895CF93DF93009709F45AC0DC01FF
:101590001297ED011A821B828091430190914401C0
:1015A0000097D9F1FC0140E050E0EA17FB0748F44E
:1015B000AF010280F381E02D3097A1F0EA17FB071D
:1015C000B8F3ED01EA83FB832D913C911197E9017A
:1015D000CA0FDB1FCE0102968E179F0719F1411526
:1015E0005105D9F0EA01AA83BB83CA01029628817A
:1015F0003981820F931F8A179B0719F56D917C9192
:101600001197260F371F2E5F3F4F28833983FD0127
:10161000428153814A835B8314C0B0934401A093F9
:1016200043010FC06A817B81260F371F2E5F3F4F1A
:101630002D933C93119722813381FD0122833383C3
:10164000CECFDF91CF910895DC0101C06D93415061
:101650005040E0F70895FC0105900020E9F78095DF
:1016600090958E0F9F1F0895FC016150704001906E
:101670000110D8F7809590958E0F9F1F0895FC015B
:101680006150704005900110D8F7809590958E0FAD
:101690009F1F0895629FD001739FF001829FE00D0C
:1016A000F11D649FE00DF11D929FF00D839FF00DE1
:1016B000749FF00D659FF00D9927729FB00DE11D8D
:1016C000F91F639FB00DE11DF91FBD01CF0111246A
:1016D0000895A1E21A2EAA1BBB1BFD010DC0AA1F73
:1016E000BB1FEE1FFF1FA217B307E407F50720F08B
:1016F000A21BB30BE40BF50B661F771F881F991F06
:101700001A9469F760957095809590959B01AC014E
:06171000BD01CF010895A8
:1017160053797374656D204F4B0A002A2A204B6556
:10172600696E65204D4D432F5344204B617274659D
:1017360020676566756E64656E2121202A2A004B36
:101746006172746520676566756E64656E21210039
:10175600257820000A4469726563746F72790A00FD
:10176600436C7573746572203D2025347820446976
:101776007241203D202532782053697A653D202527
:1017860038642046696C654E616D65203D20000A0F
:101796004469726563746F727920456E64650A00E8
:1017A6006D6D632E747874000A46696C6520466F09
:1017B600756E6421210A004645525449472121008D
:1017C6004000000000955800000000FF5100000096
:1017D60000FF4A00000000FF4900000000FF000073
:0417E6004501200099
:00000001FF
