:040000000C94440018
:040050000C94DB0130
:140070004000000000954000000000FF4000000000FF4000E9
:14008400000000FFCFEFD4E0CDBFDEBFC051D0400AEA08832E
:140098000024E0E0F1E013E0E030F10711F00192FBCF0083C3
:1400AC00E8E8F0E0A0E0B1E010E0E838F10721F0C895319652
:1400C0000D92F9CF01D0FFCF8FEF8DBF84E08EBF60D178D131
:1400D40004E610E026D06AD04427552706C00E94A50288E8A8
:1400E80080834F5F5F4F4030E2E05E07B0F30FEF10E0F1D0BC
:1400FC0000271127A1D04427552707C00E94A5020081112770
:140110004AD14F5F5F4F4030E2E05E07A8F301C00000FECFA4
:14012400089572D147E65AE009C06627772702C06F5F7F4F2E
:1401380060177107D8F300001A0141505040222091F73320A0
:14014C0081F754D10895002311F4C49A01C0C498089552D102
:140160006801662744278FEFA82E0027F2DF0FEF10E035D1EA
:1401740001E0EDDF000006C0F60101916F0111272CD16395DE
:140188006630C0F30BC00FEF10E025D1A02E242E33244F5F46
:14019C0088EC821508F404C08A2D8F3F91F3082F27D10895AF
:1401B0002DD126974427662780E70E947C0283D104EF11E0C9
:1401C400B0DF04C00FEF10E008D143954031D0F38E01C3DFD0
:1401D800013011F0002715C081E488838FEF8D830AC01A0102
:1401EC004F5F5F4F8EEF9FEF8215930510F4002706C08E01E9
:14020000AEDF002391F7E7D001E02696F5D00895FFD0269770
:1402140086E70E947C0255D18AE488838E019DDF002311F07B
:14022800002709C0442704C00FEF10E0D4D043954031D0F305
:14023C0001E02696EAD00895D6D0E4D026978CE70E947C0210
:140250003AD181E5888389E00E9485021CD1FE010087118781
:140264002287338788E10E9485021FD109830E949F021201BF
:14027800442455242A8288E00E94850214D10B830E949F029E
:14028C002C828E0166DF002319F000271EC000000FEF10E0BD
:1402A0009ED00E3FE0E01E07C1F74427552708C00FEF10E055
:1402B40094D00E94A50200834F5F5F4F4030E2E05E07A0F380
:1402C8000FEF10E088D00FEF10E085D001E026969ED02496D4
:1402DC00089589D095D0269782E80E947C02EDD088E5888337
:1402F00089E00E948F02CFD0FE01028713872487358788E1CD
:140304000E948F02D2D009830E9499021201442455242A82A7
:1403180088E00E948F02C7D00B830E9499022C828E0119DF9F
:14032C00002311F000272BC00FEF10E052D00EEF10E04FD06B
:140340004427552707C00E94A5020081112747D04F5F5F4F86
:140354004030E2E05E07A8F30FEF10E03ED00FEF10E03BD06E
:140368000FEF10E038D0602F6F71653019F0002708C000008F
:14037C000FEF10E02ED000300107C9F301E0269635D0249631
:14039000089522242CBE83E380B986E88CBF81B1886981B9D7
:1403A4000895159BFECF03B90895179BFECF03B1089543D0EF
:1403B800F89403B1F4DF789453D01895BC9ABD9ABE98BF9AE6
:1403CC008DB183658DB9C49A08952DB02DB8709A089518D065
:1403E0000FB901C00000779BFDCF4FB1042F13D008950E944D
:1403F400AB020895E2E00EC0E8E00CC0FA92EA92DA92CA92B7
:14040800BA92AA927A936A935A934A930895E1E04991599162
:14041C00E0FD089569917991E1FD0895A990B990E2FD0895D5
:14043000C990D990E3FD0895E990F9900895FA93EA93BA9383
:14044400AA939A938A930E94AB029A928A927A926A925A9292
:140458004A923A922A921A920A920FB60A92089509900FBE80
:14046C000990199029903990499059906990799089909990B2
:14048000099119912991399189919991A991B991E991F991D4
:1404940008950F920990002031F0000F111F221F331F0A94CC
:1404A800F8CF0F9008950F920990002031F03695279517958F
:1404BC0007950A94F8CF0F900895AA93BA93EA93FA930A92BF
:1404D000AF81B885ED81FE810030010731F0C8950D923196A2
:1404E40001501040F7CF0990F991E991B991A9912496089525
:1404F80090E0FE0106E010E0FA93EA939A938A93089590E04A
:14050C00FE0120843184428453848A9381019201089590E0A7
:14052000FE0122843384448455848A93810192010895FE01FC
:1405340022843384448455840895FE01208431844284538423
:14054800089580E091E0FA01E80FF91F08953A932A931A9353
:04055C000A93089561
:00000001FF
