:020000040800F2
:1000000000040020470100081F04000849030008FD
:100010001D0400089901000897090008000000006D
:10002000000000000000000000000000DB060008E7
:100030009B01000800000000B504000871070008DB
:1000400067010008670100086701000867010008F0
:1000500067010008670100086701000867010008E0
:1000600067010008670100086701000867010008D0
:1000700067010008670100086701000867010008C0
:1000800067010008670100086701000867010008B0
:1000900067010008670100086701000867010008A0
:1000A0006701000867010008670100086701000890
:1000B0006701000867010008670100086701000880
:1000C0006701000867010008670100086701000870
:1000D00067010008B5070008390800086701000833
:1000E0006701000867010008670100086701000850
:1000F0006701000867010008670100086701000840
:10010000670100086701000867010008670100082F
:10011000670100086701000867010008670100081F
:10012000670100086701000867010008670100080F
:10013000DFF80CD000F01EF800480047B9090008AD
:10014000E8040020704708488047084981F3088880
:1001500007480047FEE7FEE7FEE7FEE7FEE7FEE7AB
:10016000FEE7FEE7FEE7FEE745010008E8040020A1
:1001700031010008064C074D06E0E06840F001033D
:1001800094E8070098471034AC42F6D3FFF7D4FF49
:10019000740A0008940A0008FEE7704770B5044628
:1001A00000F026F8114D1021284600F0C9F806206D
:1001B00000F052FA1021284600F0C4F800F018F8B8
:1001C0001021284600F0BCF8D82000F045FA0020A5
:1001D00000F042FA200A00F03FFAE0B200F03CFAE8
:1001E0002846BDE87040102100F0ACB8000801407E
:1001F00010B5094C1021204600F0A2F8052000F0AF
:100200002BFAA52000F028FAC007FAD12046BDE855
:100210001040102100F096B80008014070B501218F
:1002200044F27C0000F054F9174C20202146208035
:100230001020E0700320A070144800F02FF8482030
:1002400020802146124800F029F80120114D20801D
:100250002146284600F022F80121284600F070F8D7
:100260006815208018200C4DE0702146284600F0CB
:1002700015F8281520800420E07021462846BDE8A6
:10028000704000F00BB8000000000020000C01409E
:100290000014014000180140000801402DE9F04120
:1002A000CA780025D30602F00F0201D58B781A43D5
:1002B0000B884FF00F084FF0010C13F0FF0F1CD00C
:1002C000D0F800400E880CFA05F31E409E4210D173
:1002D000AF0008FA07F624EA060602FA07F43443E8
:1002E000CE78282E02D0482E02D002E0436100E0F2
:1002F00003616D1C082DE5D304600B88FF2B1DD90D
:100300004468002505F108060CFA06F30E881E4025
:100310009E420FD1AF0008FA07F624EA060602FA59
:1003200007F43443CE78282E00D14361CE78482E8E
:1003300000D103616D1C082DE4D34460BDE8F08159
:100340004161704701617047FEE700002DE9F0410F
:100350000C4615460120FFF721FFFFF749FF174E16
:1003600010213046FFF7ECFF062000F075F9102150
:100370003046FFF7E7FFFFF73BFF10213046FFF75E
:10038000DFFF022000F068F9C4F3074000F064F9D1
:10039000C4F3072000F060F9E0B200F05DF900243A
:1003A000074F03E0385D00F057F9641CAC42F9D305
:1003B0003046BDE8F0411021FFF7C4BF00080140FE
:1003C000D30000202DE9F0410C461546FFF710FF41
:1003D000104E10213046FFF7B3FF032000F03CF928
:1003E000C4F3074000F038F9C4F3072000F034F9F3
:1003F000E0B200F031F90024074F03E000F028F9E3
:100400003855641CAC42F9D33046BDE8F0411021A8
:10041000FFF798BF00080140D3000020FEE77047B7
:1004200008B54FF4E06000F03BF825208DF800009F
:1004300000208DF8020001208DF80300684600F0CE
:1004400001F808BDF0B50F22C57803784FF0E02120
:100450000124E5B1D1F80C5D467805F4E065C5F5F9
:10046000E0652D0AC5F10407EA408578BE401540D5
:1004700035430B442A0183F800240078420900F038
:100480001F00844001EB8200C0F80041F0BD03F082
:100490001F008440580901EB8000C0F88041F0BD86
:1004A0000249084302490860704700000000FA054D
:1004B0000CED00E070470000044A0029D16901D02A
:1004C000014300E08143D161704700000010024009
:1004D000044A0029916901D0014300E08143916100
:1004E000704700000010024010B500F043F90121F0
:1004F00044F22500FFF7ECFF0121BDE8104048045D
:10050000FFF7DABF214A10B55368214913F00C03F5
:1005100003D0042B01D0082B26D0016051681D4B5D
:1005200001F0F00109095C5C0168E1404160546838
:1005300004F4E064240A1C5D21FA04F48460546825
:1005400004F460544FEAD4241B5D21FA03F1C16026
:100550005268104B02F440424FEA92321B1F9A5CE1
:10056000B1FBF2F1016110BD5168022301F4701179
:1005700003EB9141536813F4803F02D053689B030F
:1005800001D5054B00E0024B5943C6E7001002407D
:1005900000127A005F00002000093D000029018858
:1005A00002D041F0400101E021F04001018070479C
:1005B00030B5012187B00803FFF78AFF012104202D
:1005C000FFF786FFE020ADF8140003248DF81640F5
:1005D00018201D4D8DF8170005A92846FFF75EFE6F
:1005E0001021ADF814108DF816408DF8171005A9DC
:1005F0002846FFF753FE10212846FFF7A3FE0020F0
:10060000ADF800004FF48271ADF80210ADF80400AF
:100610000221ADF806100121ADF808104902ADF82D
:100620000A100821ADF80C10ADF80E000720074C99
:10063000ADF810006946204600F033F8012120464D
:10064000FFF7ACFF07B030BD0008014000300140AB
:10065000A52000F001B8000070B50B4C0546022142
:10066000204600F013F80028F9D02946204600F073
:1006700016F80121204600F009F80028F9D020469C
:1006800000F00BF8C0B270BD0030014002460020FF
:1006900012890A4200D00120704780897047818109
:1006A000704770B502884D8802F441530A888C88DF
:1006B000CE882A4334430D8922434C892A438D89AD
:1006C0002243CC892A4322431A430280828B22F49C
:1006D00000628283098A018270BD7047224800212E
:1006E000026842F4803202604FF4A0630268491C41
:1006F00012F4003F01D19942F8D10168890331D544
:100700001A490A6842F010020A600A6822F00302DD
:100710000A600A6842F002020A604168416041686A
:100720004160416841F480614160416821F47C117D
:100730004160416841F4E8114160016841F0807115
:10074000016001688901FCD5416821F00301416025
:10075000416841F0020141604168C1F38101022911
:10076000FAD17047FEE7000000100240002002406E
:10077000704700000C48016841F0010101604168C8
:100780000A4A114041600168094A1140016001684C
:1007900021F480210160416821F4FE0141600021C3
:1007A0008160FFF79BBF0000001002400000FFF8CF
:1007B000FFFFF6FE70B51A4C40F22551204600F0BE
:1007C0004DF8E8B1204600F0DEF8164A01461078F0
:1007D000154B1D18401C10702970107813490978AA
:1007E00088420DD10021124802E05D5C4554491C4D
:1007F0001578A942F9D30F49012008700020107024
:1008000040F227752946204600F028F8002806D037
:1008100029462046BDE87040002200F03EB870BD79
:1008200000380140580000208000002059000020BE
:10083000040000205A00002070470029818902D05E
:1008400041F4005101E021F40051818170470246DA
:10085000002012880A4200D00120704770B501F0D4
:100860001F0601220025C1F3421302FA06F4012BF0
:100870000FD0022B0FD0838A4FEA11210088234228
:1008800002FA01F200EA020001D000B10125284677
:1008900070BD8389F0E7038AEEE710B5C1F3421318
:1008A00001F01F040121A140012B07D0022B07D02A
:1008B0001430002A026805D00A4304E00C30F8E73F
:1008C0001030F6E78A43026010BD000030B50446E0
:1008D000008A85B00D464CF6FF710840E988014357
:1008E0002182A1894EF6F3100140A8882A8910437D
:1008F0006A890A431043A081A08A4FF6FF4108404D
:10090000A9890143A1826846FFF7FCFD1148844292
:1009100001D1039800E00298642200EBC00101EBD2
:10092000001029686FF018038900B0FBF1F0B0FBEC
:10093000F2F109010D095D43322300EB850003EB61
:100940000010B0FBF2F000F00F000843208105B06A
:1009500030BD0000003801402DE9F04107460E4649
:10096000154600240BE0315D384600F010F84021B8
:100970003846FFF76CFF0028F9D0641CA4B2AC42E3
:10098000F1D3BDE8F0818088C0F308007047C1F35F
:10099000080181807047FEE702E008C8121F08C105
:1009A000002AFAD170477047002001E001C1121FF0
:1009B000002AFBD1704700000027FFF795FDFFF7E5
:1009C0002FFDFFF72BFC26484FF4E131254E016047
:1009D00000218180C180018181810C2141810146FA
:1009E0003046FFF773FF012240F225513046FFF7F2
:1009F00054FF012240F227713046FFF74EFF0121DC
:100A00003046FFF71AFFFFF7D3FD20211648FFF706
:100A100099FC164C164DE05DE8557F1CBFB2532F74
:100A2000F9D3532228210120FFF790FC53222821DB
:100A30000120FFF7C7FC0021685C625C904201D195
:100A4000012001E000205321491C89B25329F3D32E
:100A5000012804D1532206493046FFF77DFFFEE707
:100A60007000002000380140000C0140040000200C
:100A7000D3000020940A000800000020700000004D
:100A800098090008040B000870000020780400009A
:100A9000A809000800000000535049204D3235508D
:100AA0003830442D5355204578616D706C653A207F
:100AB00054686973206973205350492044454D4F51
:100AC0002C20D6D5B6CBC9CFB3F6CFD6D5E2D2BB84
:100AD000D0D0D7D6A3ACCBB5C3F74D3235503136D5
:100AE00044B5C4B6C1D0B4D5FDB3A30000530002D1
:100AF00004060800000000010203040102030406CA
:040B000007080900D9
:0400000508000131BD
:00000001FF
