:020000040800F2
:1000000088420020010100080501000807010008DE
:10001000090100080B0100080D01000800000000A4
:1000200000000000000000000000000011010008B6
:100030000F010008000000008F0200089104010871
:1000400039070108CF000108B5040108AD03010814
:10005000C3CA000825030108B5CA0008B9CA0008C8
:10006000BBCA0008BDCA0008BFCA000877C40008A0
:1000700079C400087BC400087DC400087FC4000860
:1000800081C4000883C4000881C300083507010843
:100090003707010873C4000875C40008C1CA000806
:1000A000B7040108BD040108BB040108B904010834
:1000B000BF040108C1040108C304010887EE000859
:1000C00085EE00088BEE000889EE0008AF030108FA
:1000D000B10301082D0701082F07010831070108A6
:1000E000B7CA0008AB03010833070108000000008D
:1000F0000000000000000000000000000000000000
:1001000004480047FEE7FEE7FEE7FEE7FEE7FEE7FE
:10011000FEE700001901000800F002F800F05EF8A8
:100120000AA090E8000C82448344AAF10107DA4552
:1001300001D100F053F8AFF2090EBAE80F0013F046
:10014000010F18BFFB1A43F001031847F4E903003D
:1001500014EA03000A444FF0000C10F8013B13F0BE
:10016000070408BF10F8014B1D1108BF10F8015B10
:10017000641E05D010F8016B641E01F8016BF9D103
:1001800013F0080F1EBF10F8014BAD1C0C1B09D15A
:100190006D1E58BF01F801CBFAD505E014F8016BCC
:1001A00001F8016B6D1EF9D59142D6D3704700005E
:1001B0000023002400250026103A28BF78C1FBD870
:1001C000520728BF30C148BF0B6070471FB513F0FE
:1001D0008AFD0BF0BEFE1FBD10B510BD0CF098F8E7
:1001E0001146FFF7F3FF12F0C5FB0CF0B6F803B4AD
:1001F000FFF7F2FF03BC0CF0BDF800000B49D1F88B
:1002000000C04A685CF8043B1068184442F8040BCC
:100210008C4528BFA1F1DC0C8A4228BFA1F1DC0289
:10022000C1F800C04A6020F0004070471C3A00202E
:1002300002480349034A044B70470000883A0020F3
:1002400088420020883E0020883E0020EFF3108086
:1002500072B6704780F31088704724484FF0FF0152
:100260000170002080F309881D4801210170204899
:100270004FF08051016062B6FEE71D484FF080519B
:10028000016070471A484FF0805101607047EFF3EA
:10029000098028B1203880E8F00F12490968086009
:1002A00000B50A4880475DF804EB0B480B490A7813
:1002B00002700C480C490A680260106890E8F00F60
:1002C000203080F309884EF0040E7047A1F9000831
:1002D000B5F40008160000201800002019000020C6
:1002E0001B000020380000204000002022ED00E02C
:1002F00004ED00E072B6704762B67047EFF310800D
:1003000072B6704780F310887047000070B50E46D3
:10031000044681181546801A00F091F92A463146A4
:10032000204600F03DF8BDE8704000F0AAB97CB569
:1003300005460E46144608F079FA0AF0BFF905445E
:100340000AF0C6F906443F4890F85D1021B990F8CC
:100350005C00454346434443281B00F08AF9ADF84E
:100360000000281900F085F9ADF80400301B00F0FA
:1003700080F9ADF80200301900F07BF9ADF8060005
:10038000684606F068FF06E0224631462846FFF739
:10039000BDFF06F039FF0028F6D108F03FFA7CBD1A
:1003A0002DE9F05F07468B4602FB02F002EBD271AB
:1003B00000EB610A23481646ABEB020800690BEB21
:1003C000020948B1B0F90610494500DA8946B0F98A
:1003D0000200404500DD80460025344614E0ABEBCA
:1003E000050141450FDB49450DDC05FB05F004FB2C
:1003F0000403534501DD641EF9E7124B3A19381B1B
:100400009B6D1B6898476D1CB542E8DB00253446A0
:1004100014E00BEB050141450FDB49450DDC05FB05
:1004200005F004FB0403534501DD641EF9E7054BA9
:100430003A19381B9B6D1B6898476D1CB542E8DB69
:10044000BDE8F09F0435002010B5934CD4E90101BC
:100450000A1A521C0021206807F015FD8F48810CF4
:10046000C4E90301606110BD2DE9F047DFF828827F
:10047000DFF82C92D8F81420D8F8040099F85C60C2
:10048000D8F81010171A76430C1A33E0D8F8002069
:100490004146105D68B3B0421CD1254604E05019B6
:1004A0004078B04202D16D1CBD42F8DB4868A542DD
:1004B00008D08B69421920441B68D8F80C10984763
:1004C0002C4616E0D9F858202044D8F80C10526871
:1004D00090470EE0C0EB001006EBD67200EB620016
:1004E00090FBF6F0C2B24868D8F80C10204408F02F
:1004F00023FC641CBC42C9DDBDE8F047A4E72DE93C
:10050000F041054688461446824259DB644F624EEC
:1005100097F85C1098FBF1F0F168884206D0FFF77D
:10052000A3FF97F85C1098FBF1F0F06097F85C007F
:10053000336995FBF0F194FBF0F2994200DA3161F6
:1005400073699A4200DD72617368994201DA00FBB7
:1005500003F5B1688A4203DD491C00FB01F4641E07
:10056000AC422DDB95FBF0F1A1EB030C94FBF0F119
:10057000CA1AA2EB0C013668491C6644012908D04E
:100580009C440CF1010C0CFB00FCACEB0500357835
:1005900007E03178601B401C084410E0307897F881
:1005A0005C50491E284406F8010B0129F6DC97F837
:1005B0005C10D01800FB11403178401C08443070AA
:1005C000BDE8F0813649344A8B8891F85C001C32D2
:1005D00043431380CB88434353800B895B1C4343C5
:1005E0005B1E93804989491C4143491ED180704755
:1005F00070B50024002800DA00200A1AB2F5A07FA6
:1006000001DB00F23F11814201DA01460124244D51
:10061000214AAB6D5E689662936102F12403214E1C
:100620001E60AB65204B1360C2E90101FFF70CFFB0
:10063000FFF7C8FF18481C302861204670BD184AD3
:1006400092F85C2090FBF2F091FBF2F1D0E71449B4
:1006500081F85C00B6E7124890F85C0070471049DA
:10066000002081F85D0070470D49012081F85D0090
:1006700070470B4991F85C1009B190FBF1F000B2A2
:10068000704710B5FFF7F0FE0348816904488165A3
:10069000011D016110BD0000A801002001C0FFFF85
:1006A00004350020FF040008501C00202DE9F0470D
:1006B000DFF820810D464146044698F85DC00120D0
:1006C00091F85C7016469A46BCF1000F00D138468E
:1006D000B4F9002081461346012108E034F92100D5
:1006E000904200DA0246984200DD0346491CA942C6
:1006F000F4DBBCF1000F09D0981990FBF7F19019C9
:1007000090FBF7F0FFF774FF18B139E099199019D1
:10071000F8E798F85D0090B943460EE034F82010F1
:1007200093F85C20514324F8201004EB800193F8E7
:100730005C704A887A434A80401CA842EEDB0AFB80
:1007400009F306FB09F22946204601F006F898F85D
:100750005D00424690B113E034F9201092F85C300D
:1007600091FBF3F124F8201004EB800192F85C6017
:10077000B1F90230401C93FBF6F34B80A842EBDB4F
:10078000BDE8F047FFF77DBF2DE9F0478046894679
:1007900014461D4608F04AF809F090FF061909F0C2
:1007A00097FF4719002006F056FD78B1094D3B46EA
:1007B0003246A86C4946446B40460CB1A04701E064
:1007C000FFF774FF06F020FD0028F0D1BDE8F047E8
:1007D00008F024B80435002010B50022C0F30B0047
:1007E000B0F5006F02DDA0F500600122B0F5806F6A
:1007F00001DDC0F500608311F94C00F03F00C0F14D
:10080000400134F813004843402906D004EB430369
:10081000C1F140015B8803FB01002030810948429F
:10082000002A00D1084610BD00F58060D4E7ED4BEA
:100830001A7D012A05D0521E02EBD272521001F02D
:1008400019BE9A6D526810472DE9F84F141A0546E3
:100850005F1A884691469B464FF0000A54EA07000B
:100860002CD0204600F028FA0646384600F024FA3C
:1008700086420ADA20463C460746284645468046D8
:100880004846D94683464FF0010A204600F014FA44
:10089000A04203D064427F424D46D84604EBD47058
:1008A0004FEA6009002F01DAC9F10009DFF834B31B
:1008B0004FF000069BF8160098B132E02846BDE8DC
:1008C000F84FB4E707FB069090FBF4F101EB08004A
:1008D000BAF1000F09D0DBF85820A91952689047E7
:1008E000761CA642EEDDBDE8F88FDBF85810AB1998
:1008F0004A6801461846F2E707FB069090FBF4F1C0
:1009000001EB08000090304600F01CFA40B9BAF143
:10091000000F09D0DBF85800A919426800989047E9
:10092000761CA642E8DDDEE7DBF85810A8194A6815
:100930000099F4E72DE9FF470746AA48154688467F
:10094000027D1E46012A1DD0781BA8EB060150EA45
:1009500001036ED0A2F1010900F0B2F900F5806C3C
:1009600000F50060FFF738FF00FB09F46046FFF771
:1009700033FF00FB09F1002C0ADAC4F50070801285
:10098000404208E004B02A463846BDE8F0475BE73D
:1009900004F50074A012002904DAC1F5007189126F
:1009A000494202E001F500718912002804DD421C71
:1009B00002EBD272521003E000EBD0725210401ED4
:1009C00000EBD0704310002904DD481C00EBD07010
:1009D000401003E001EBD1704010491EBC18ADF887
:1009E000004008EB0004ADF80240FC1A01EBD171A5
:1009F0004910ADF80440A8EB0104EB1AADF808303B
:100A0000711AADF80A10A918ADF80C103044ADF801
:100A10000E000023ADF806401A460421684600F097
:100A20009CFE4146384600F0C9F93146284600F0A0
:100A3000C5F9BDE8FF872DE9F04104460D4616468D
:100A40001F4607F0F3FE6748016C406C0C440544F8
:100A500007440E44002006F0FEFB07E03B4632460A
:100A600029462046FFF766FF06F0CEFB0028F5D1A9
:100A7000BDE8F04107F0D2BE70B55A4C05460E46AF
:100A8000B4F92810B4F9260033462A46FFF752FF7E
:100A9000E584268570BD534AD084118570472DE9C1
:100AA000F04105460446B0F902008846C118B4F981
:100AB000000016461F461044FFF7EDFF07E0B4F9AB
:100AC0000600C11934F9040F3044FFF7D5FFA8F12F
:100AD0000108B8F1000FF2DCB4F90010B5F900001C
:100AE000814205D1B4F90210B5F90220914206D035
:100AF000B5F9021030443944BDE8F041BCE7BDE827
:100B0000F0812DE9F04106460F4614461D4607F0D8
:100B10008DFE3448016C406C0C440544002006F006
:100B20009AFB07E02B46224639463046FFF7B7FFCF
:100B300006F06AFB0028F5D1BDE8F04107F06EBE73
:100B400070B504460D4607F071FE264AD08C20444D
:100B5000D084108D28441085BDE8704007F05EBE3B
:100B600070B504460D4607F061FE002006F073FBE9
:100B700060B11C4EB6F92810B6F926004B190219BF
:100B8000FFF7D8FE06F040FB0028F3D129462046A7
:100B9000FFF7D6FFBDE8704007F040BE70B50546D0
:100BA0000E4607F043FE0F4C206C0544606C064473
:100BB000002006F050FB09E0B4F92810B4F9260033
:100BC00033462A46FFF7B6FE06F01EFB0028F3D197
:100BD00031462846FFF75FFFBDE8704007F01EBEB4
:100BE0005CF302080435002070B504460D4607F09A
:100BF0001DFE754A106C516C20442944FFF74BFFD1
:100C0000BDE8704007F00ABE2DE9FC4106460D46DE
:100C10001446984607F00AFE6B490B7D086C496C38
:100C2000871906195B1EF81AADF80000F0180D447C
:100C3000ADF80400E81A01EB0804ADF80200E01872
:100C4000ADF80600684606F006FB15E03246294678
:100C5000384607F097FE32462146384607F092FEA6
:100C6000621E691C384608F003F8621E691C304693
:100C700007F0FEFF06F0C8FA0028E7D107F0CEFD26
:100C8000BDE8FC8170B504460E4607F0CFFD4E4A24
:100C9000106C0519506C8419002006F0DCFA05E090
:100CA00021462846FFF7C3FD06F0AEFA0028F7D12B
:100CB000BDE8704007F0B2BD002800DC404270473C
:100CC00010B50022002801DA01224042002902DA90
:100CD00042F002024942814204DD0B4601461846B9
:100CE00042F00402890200EBD07301EB630191FB37
:100CF000F0F080100311354C00F00F00C0F110012E
:100D000034F913004843102907D004EB4303C1F121
:100D10001001B3F9023003FB010000F108004FEAB3
:100D2000E07100EB11704FEA2010510701D5C0F5BA
:100D30008060D10701D0C0F50060910701D5C0F5F2
:100D4000805010BD20490122897D012906D0022949
:100D50000FD0032917D004292ED11DE0801DC11703
:100D600000EB117121F00F01401A0C2809DB002261
:100D700007E0C11700EB917121F00301401A02282E
:100D8000F5DA10467047142190FBF1F201FB1200D6
:100D90000C280FDB10380BE0182190FBF1F201FB5F
:100DA00012000C2806DBA0F11001022902D314382E
:100DB000022801D20120704700207047024A527D6C
:100DC000002A00D133E57047043500207EF3020885
:100DD00070B5054607F02AFD284601F0ECF804003E
:100DE00005D001F0F7F82A46002107F04CF807F08B
:100DF00015FD204670BD10B5044607F017FD2046CE
:100E000007F008FF00B207F009FF044607F006FDEF
:100E1000204610BD10B50446FFF7EDFFA04201D1FA
:100E2000012010BD002010BD10B50446FFF7E3FF00
:100E300001462046BDE8104007F00CB97CB52A4CAD
:100E40000546608C216C08446084A08C616C084469
:100E5000A084284601F0D3F90146608CADF800006B
:100E60000844401EADF8040000F0A7FD0146A08C28
:100E7000ADF802000844401EADF80600684606F0D2
:100E8000EAF904E0284601F086F906F0BDF90028E9
:100E9000F8D10A2D03D0BDF80400401C6084608C9A
:100EA000216C401A6084A08C616C401AA0847CBDC7
:100EB00010B5044607F0BAFC2046FFF7BFFFBDE8B7
:100EC000104007F0ABBC70B506460C46154607F05F
:100ED000ADFC054930464C848D84FFF7AFFFBDE87B
:100EE000704007F09BBC0000043500202DE9FC4752
:100EF000050073D007F09AFC01F034F9384E07462C
:100F0000B6F9229001F061F9B18C8046081AB084DC
:100F10003BE047F6FF71284607F02BFB824601466F
:100F2000284607F03EFB0446B08D00F00300012880
:100F30003ED0022838D00020718C6A46081A70848E
:100F4000ADF80000611E0844ADF80400B08CADF8A7
:100F50000200791E0844ADF806005146284607F005
:100F600037FBBDF80200B0845146284607F09FFACF
:100F7000054428780A281DD00D281BD0BDF8000094
:100F800020447084287818B16D1C28780028C0D1BE
:100F9000B18C01EB0800B084B08D20F00300B08567
:100FA000BDE8FC4707F03ABC04EBD4704010C3E73F
:100FB0002046C1E7B08D00F0030001280BD00228C5
:100FC00009D0308C708428780A28DBD1B08C384462
:100FD000B084D7E702E0A6F82290F4E7BDE8FC87EA
:100FE0000435002070B506460C46154607F01EFC79
:100FF0000448448485843046FFF778FFBDE870409C
:1010000007F00CBC0435002010B5FFF7EBFFBDE87E
:10101000104007F04BB800002DE9F04104460A48A3
:101020000D461646B0F92C0040F0020000F022FEFA
:101030000746324629462046FFF7D4FF3846BDE82A
:10104000F04100F017BE0000043500202DE9FF4FED
:1010500085B000240E4691469A462546DDF814B028
:1010600000F0ABFC804626B13068009070680190BB
:1010700002E0684600F09CFC19F00C0F02D05646C6
:10108000012713E0BDF902402DE03146059807F035
:1010900070FA0146361A059807F009FA05990844CE
:1010A000059005A806F09DFE10B97F1C002EECD11E
:1010B00009F00C00042804D0082802D00C2812D112
:1010C00005E0BDF9061007FB1814641C0BE0BDF920
:1010D0000600BDF90210421A07FB1820401C00EB65
:1010E000D07001EB60045646CDF814B046E03146AE
:1010F000059807F03EFA0746361A0146059807F0AC
:1011000050FA19F003010ED001290FD0022911D194
:10111000BDF90410BDF90020891A091A01EBD1713B
:1011200002EB610506E0BDF9005003E0BDF90410D3
:101130000D1A6D1C2849401E28444D84ADF80C0042
:10114000ADF808508C8404EB0800401EADF80E008A
:10115000ADF80A4002AA3946059807F039FA39462F
:10116000059807F0A4F905990844059000F0FAFFE6
:10117000044405A806F035FE002801D1002EB6D1A2
:1011800009B0BDE8F08F2DE9FC4106000D46174679
:1011900098461BD0002407F049FB65B1284609F0AA
:1011A000E1FD040007D002462946684606F042FEEB
:1011B000684609F0D7FD43463A4629463046FFF7D0
:1011C00045FF204609F0CEFD07F028FBBDE8FC8175
:1011D00047F6FF73D7E70000043500202DE9F04102
:1011E0000446C76886B00E469046002000F028FDF1
:1011F000054620F002001FB1397909B145F002001F
:1012000000F01EFD276967B1D4E9020101231A46E7
:101210008DE80F00638822883C6841463046A0472D
:1012200017E0E06807F013FE030003D1E08801280F
:1012300000D11F4BE08802AFA188A2680FC701232D
:10124000CDE900331A46638822884146304607F0CC
:10125000D4FB06B02846BDE8F04100F0F1BC7CB5F7
:1012600006460C46154607F0E1FA1148016C406C41
:101270000C4405443188601E0844ADF80400ADF804
:1012800000407188681E0844ADF80600ADF80250B1
:10129000684605F0E0FF06E02A4621463046FFF7A3
:1012A0009DFF05F0B1FF0028F6D107F0B7FA7CBD2D
:1012B000043500202DE9FF4F8BB0002003900690ED
:1012C000AC48B0F906200892B0F90A0009900B98D2
:1012D000199A008802900B9840880790199840420C
:1012E000002A00DB1046049005DA0298A0EB030305
:1012F0000498A3F1010343434FF47A7293FBF2F095
:10130000A1EB000818981A9940424843114606F08C
:1013100046FD0D9908440090401C1A9905904FF025
:10132000FF30002900DB01200A900B98C06818B13B
:10133000007908B101200690002091E01899009FE3
:10134000401A1A99401C48434FF47A7106F027FD61
:101350000D9908440090059887427FD0059708981A
:10136000874270DB099887426DDC00254FF0FF361D
:101370002C46AA46284657E004980444B4F57A7FE0
:1013800050DB19984946002803DC0298A0EB0901BC
:10139000491E019A0B9806F0EFFE03991FFA80FB95
:1013A0008B4501D1701C36D1BBF1000F0FD10698CF
:1013B00068B1BAF1000F2CD008EB0502521E08EB01
:1013C0000600394607F0DEFA4FF0000A21E0BAF1D4
:1013D000000F09D0701C07D008EB0502521E08EB65
:1013E0000600394607F0CEFA0B982E464FF0010A58
:1013F000006918B141685846884704E00B98C068F6
:10140000816851F82B005B49896C0968884707F0AF
:1014100079FACDF80CB04FF47A706D1CA4F57A749B
:101420008442FADA09F10100029981468842A3DB7D
:10143000BAF1000F07D008EB0502521E08EB0600B8
:10144000394607F09FFA0A9807441A98002800982E
:1014500002DA874283DC01E0874280DB0198401C8E
:10146000079901908842FFF669AF0FB0BDE8F08F91
:101470002DE9F04F87B00646DDE911870C46154689
:101480009946DDF840A007F0D1F906F0DBFE0590A3
:1014900038484FF47A7BB8F1000F016C406C0C4473
:1014A0000544C9F1000000FB08F0594611DB06F0C5
:1014B00076FC2044ADF80C003188A1EB0900401EF9
:1014C00000FB08F0594606F06AFC2044ADF8100015
:1014D00010E006F064FC2044ADF810003188A1EB68
:1014E0000900401E00FB08F0594606F058FC204455
:1014F000ADF80C00CAF100007843002F594610DB0C
:1015000006F04DFC2844ADF80E007188A1EB0A00EE
:10151000401E7843594606F042FC2844ADF81200BC
:101520000FE006F03CFC2844ADF812007188A1EBF6
:101530000A00401E7843594606F031FC2844ADF8B5
:101540000E0003A805F087FE0BE0CDF800A0CDE962
:1015500001874B462A4621463046FFF7ABFE05F091
:1015600053FE0028F1D1059800F017FB07F056F95B
:1015700007B07BE7043500202DE9F04106460F4611
:1015800014461D4607F052F93248016C406C0C4479
:101590000544002005F05FFE07E02B462246394651
:1015A000304600F008F805F02FFE0028F5D1BDE820
:1015B000F04107F033B92DE9FF5F26480F46164684
:1015C00000690024B0F90280B0F9069060B1B0F96A
:1015D0000010B14200DD8C1BF119B0F90400491E66
:1015E000814201DD871B7F1CBC4230DA009830F954
:1015F00014100398014427E0009830F91420039850
:101600001518414501DA45451DDB494501DD4D45CC
:1016100019DC681800EBD0704FEA600A04EB060B87
:10162000A942ABF1010005DC524607F021FB2A4636
:10163000514605E00A46514607F01AFB5246294634
:10164000584607F015FB2946641CBC42D4DBBDE8B4
:10165000FF9F0000043500202DE9FC4104460D46A3
:10166000164607F0E3F8104F386C796C05440644D1
:101670000C44ADF80050ADF80460ADF80240ADF890
:101680000640684605F0E7FD07E0B86D32462146A2
:1016900003682846984705F0B7FD0028F5D107F004
:1016A000BDF8BDE8FC810000043500207CB504468F
:1016B0000D46164607F0BAF80E49086C0444486C0B
:1016C000ADF8004005440644ADF80440ADF80250C2
:1016D000ADF80660684605F0BEFD06E032462946D4
:1016E000204607F0C5FA05F08FFD0028F6D107F077
:1016F00095F87CBD043500200B4810B50068002427
:1017000010B1804700B1012405F025FF00B101248C
:10171000204610BD10B5002400E00124FFF7ECFFC7
:101720000028FAD1204610BD2802002030B5874D90
:101730002C680C2C10DA864B210009D003EB4102F7
:1017400032F9022C824203DB23F81120491EF5D125
:1017500023F81100641C2C6030BD2DE9FE4F894632
:1017600040F6FF74064617469A46C4F1000B002166
:101770000AE006EB8100B0F90200A04200DA04465C
:10178000584500DD8346491C4945F2DB7148006934
:1017900060B1B0F90620D11A594500DA8B46B0F98C
:1017A0000210A1EB0A00A04200DD0446A9F10100ED
:1017B0000190A6E065490020054608607FE0019998
:1017C00000208D4200DA681C06EB850306EB8008DA
:1017D000B3F90210B8F902208446A1423BD1A242DB
:1017E00013D15C4A36F9250004EB0A01C319926D46
:1017F00036F92C003844D2F800C0834202DA02469F
:10180000184600E01A46E04758E0294600200BE061
:101810004B1E09B9A9F10103194606EB8303B3F97D
:101820000230A34204D1401C019B9842F0DB2346C6
:10183000A34243D036F92500A3EB0401A2EB040236
:10184000514039D4434A384404EB0A01926D13687D
:101850000246984732E0A24230D001DBA14203DDCC
:10186000A1422BDBA24229DC91420ADC0846A142BC
:1018700024DC1146A24221DBB3F900C0B8F90020F4
:1018800008E01046A24219DCA14217DBB8F900C0FB
:10189000B3F90020231AA2EB0C025A43002AA1EB51
:1018A000000302DD02EB630202E0A2EB6302521CC2
:1018B000081A92FBF0F06044FFF738FF6D1C4D45AD
:1018C000FFF67DAF04EB0A0002900020804605463B
:1018D00012E01F49B8F1000F31F91510009107D03F
:1018E000009938447A181B49896D0B68029998470A
:1018F000009888F001086D1C144909688D42E8DBE6
:10190000641C5C457FF756AFBDE8FE8F2DE9F041C2
:1019100006460F4614461D4606F088FF0D48016C2A
:10192000406C0C440544002005F095FC07E02B4674
:10193000224639463046FFF710FF05F065FC0028C7
:10194000F5D1BDE8F04106F069BF0000D4010020E8
:10195000901D0020043500202DE9FC4104460D4671
:1019600016461F4606F062FF1049086C496C044495
:1019700006440D440F44ADF80040ADF80460ADF8E6
:101980000250ADF80670684605F065FC07E03B467E
:1019900032462946204607F010F805F035FC0028AD
:1019A000F5D106F03BFFBDE8FC81000004350020C6
:1019B000002801D005F017BF704710B506F036FFBC
:1019C00006F0FAF9044606F029FF204610BD000093
:1019D000044833210170392181703021C1706121A7
:1019E00001717047D801002010B5044606F01EFFB3
:1019F0000F488484002406F011FF204610BD10B566
:101A0000044606F013FF0A484484002406F006FF4B
:101A1000204610BD70B504460D4606F007FF044A87
:101A200054840024958406F0F9FE204670BD000021
:101A30000435002010B5002821D009B302B3B1F954
:101A40000030B2F90040A34200DD23460380B1F923
:101A50000230B2F90240A34200DD23464380B1F9CF
:101A60000430B2F90440A34200DC23468380B1F97C
:101A70000610B2F90620914200DC1146C18010BD6B
:101A800001B911460A6802604968416010BD000052
:101A90002049002248684A6070471E494A68002A67
:101AA00000D14860704700B5FFF7F2FF0028FBD176
:101AB00000BD184A0832C2E9000116490120086039
:101AC000704770B5002406F0B1FE1248016879B184
:101AD000491E00F108040160D4E90051284608F0CD
:101AE000B5FF6068012802D12846FFF7D6FF012420
:101AF00006F094FE204670BD70B504460D4608F011
:101B0000A5FF002804D129462046BDE87040D0E753
:101B100070BD0000E001002010B506F087FE1248FD
:101B2000047D06F07BFE204610BD10B506F07EFE5B
:101B30000D48447D06F072FE204610BD70B5054686
:101B400006F074FE0848047D057506F067FE204621
:101B500070BD70B5054606F069FE0348447D4575C5
:101B600006F05CFE204670BD04350020602204496A
:101B70000AF0F5BA0146602201480AF0F0BA000006
:101B80000435002010B5044606F050FE204607F04C
:101B900049F8BDE8104006F041BE10B5044606F015
:101BA00045FE204607F04AF8BDE8104006F036BE74
:101BB00010B5044606F03AFE0C4A6FF0704120461C
:101BC000516306F0A8FEBDE8104006F027BE10B530
:101BD000044606F02BFE054A6FF070412046116363
:101BE00006F090FEBDE8104006F018BE0435002057
:101BF00010B50020FFF7C6FF6FF07F40FFF7CDFF65
:101C00000120FFF79BFF002000F034F8002000F0D7
:101C10003FF8002000F014F8084800F01DF8BDE877
:101C20001040002006F0BABB10B506F0FFFDFFF72C
:101C3000DFFFBDE8104006F0F1BD0000D8FB020850
:101C400010B5044606F0F2FD204606F06DFE04468F
:101C500006F0E4FD204610BD70B5054E0446B5699A
:101C600006F0E4FD04B1B46106F0D8FD284670BD6D
:101C70000435002070B5054606F0D8FD0348B0F9DC
:101C80002C40858506F0CAFD204670BD0435002035
:101C900070B5054606F0CAFD0348B0F92A404585EF
:101CA00006F0BCFD204670BD043500200D4910B57E
:101CB00091E81C001CC0087A002800D0012010BD4B
:101CC00010B504460C2207490AF04CF9002808D048
:101CD000044894E80E000EC02046BDE8104006F00F
:101CE0001DBB10BDA81D002030B40246534C0B464E
:101CF000401C07D0581C05D06068411C02D0A16868
:101D00004D1C02D14FF0FF300146C4E9012330BC25
:101D100006F06CBB4948C068704748480069704786
:101D200046480121243040F6FF72C0E90012C0E9A4
:101D300002217047F0B540F23F15059E00B1EF2536
:101D40009C1B00D56442142C04DB8C1A00D5644221
:101D5000142C01DA0120F0BDF41A4E426643521AE7
:101D600096FBF2F6F718354E2436691A4C4394FB6D
:101D7000F2F146F8307006EBC000194441600020D3
:101D8000F0BD2E4B10B5243353F8304003EBC000A8
:101D90000C604068106010BD70B5284D274C24358C
:101DA000D5E90001884202DAC4E9050101E0C4E98D
:101DB0000510D5E90210814202DAC4E9071001E0FA
:101DC000C4E907012078B0B10CF04EFDE0600CF0E2
:101DD00049FD04F10C0007C8904208DBA26990425B
:101DE00005DCE269914202DB226A91420BDD4FF091
:101DF000FF3001461CE00CF09FFE20610CF033FD2B
:101E00002078401C17E02A68801AC0EB801303EB8F
:101E100000206B689A1A90FBF2F3AA68881A00EB0C
:101E20000011C1EB0020E968891A90FBF1F1184616
:101E3000FFF75AFF0020207070BD0000F001002065
:101E40002DE9F04781464FF0FF380020C14F1BE0DD
:101E500037F81100518806EB4605014437F91500A3
:101E6000411A0CB24C450EDA6CB1BB49014407EB88
:101E70004500B0F90220081B0AF02FF937F81500C9
:101E8000001B27F81500304600EB400107EB41022C
:101E90001679002EDCD100EB400207EB410137F947
:101EA0001220B1F90210114441F28832521A4A4507
:101EB00000DB80460FFA88F0BDE8F087A7489D2137
:101EC00004224160816041F28831C1810182002198
:101ED000016081819F48428001800171A0490120F9
:101EE000087070472DE9F041044600F02CF9E41C1D
:101EF000DFF8688224F0030004B2B8F90E00A042B3
:101F000057DB944E012000EB400106EB410149886C
:101F100051B1401C9E28F6DB0025F5B3204600F0A9
:101F2000E7F8411C02D006E005B2F6E72046FFF7CD
:101F300087FF411C3DD000EB400206EB420C36F817
:101F40001210BCF8022005EB45078B1806EB470280
:101F50009CF80410548026F81730117121B101EB60
:101F6000410106EB41014D7150718CF80450D8F8D5
:101F700000004146401CC8F80000D8F80400401E8C
:101F8000C8F80400D8F80820824200DD88608889FB
:101F900020448881C889001B00E00AE000B2C881A3
:101FA000B1F91020824201DDA8F810002846BDE8F2
:101FB000F0810020FBE710B5040009D006F036FCE4
:101FC0002046FFF78FFF044606F028FC204610BD90
:101FD000002010BD002806D05E4900EB400031F91A
:101FE00010005D490844704710B500F0ACF85B483C
:101FF000B0F90E0010BD70B5002406F017FC00F01B
:10200000A2F80020534D0DE035F812005A88104414
:1020100001EB410235F81220101A00B2A04200DD97
:102020000446084600EB400205EB420319790029FB
:10203000EAD100EB400005EB420135F81000498879
:10204000084441F28831081A00B2A04200DD04467B
:1020500006F0E4FB204670BD002806D03D4900EBA9
:10206000400001EB4000B0F90200704710B50400D9
:1020700008D006F0DBFB204600F013F8BDE8104066
:1020800006F0CCBB10BD10B5044606F0CFFBB4F98A
:102090000000FFF7EBFF00202080BDE8104006F0B5
:1020A000BDBB2C4B00EB400010B503EB4001B1F978
:1020B000020000281BD0294AD4890444D481948981
:1020C000201A9081002048800879497901EB410469
:1020D00003EB4404207120B100EB400003EB40000F
:1020E00041715068401C50601068401E106010BD67
:1020F00030B50021174D0CE035F91330B4F902402A
:10210000234402EB420435F91440E31A834215DA02
:10211000114601EB410305EB43042279002AEBD180
:1021200001EB410205EB430335F91220B3F902300C
:102130001A4441F288339A1A824201DB08B230BD58
:102140004FF0FF3030BD06480078002800D1B5E6DA
:10215000704700003C310020B41D0020F034002006
:102160002402002010B506F061FB2C488069447DF4
:1021700006F054FB204610BD10B506F057FBFFF7E4
:10218000F1FF26498A8C10448884088C4884BDE875
:10219000104006F043BB10B504460A2811D00D2CA0
:1021A00012D006F043FB1D4880690168204688472D
:1021B0001B48016809B120468847BDE8104006F079
:1021C0002DBBBDE81040D7E710BD10B5002406F0C8
:1021D0002DFB1249888D00F00C00042804D008283B
:1021E00006D00C2807D103E08869047D641E02E054
:1021F0008869007D440806F011FB204610BD10B52B
:10220000044606F013FB0549886941682046884763
:10221000044606F003FB204610BD000004350020F4
:10222000300200202DE9F0433F4D044687B0A869F5
:10223000B5F92A802146806900F06BF8002847D064
:1022400041680088201A01EBC0044046A67806F0D9
:102250006BFB814662680120CDE902062B46CDE981
:102260000423A869C37D827DCDE90023037D227804
:10227000B5F92410B5F9220006F0BFFBA869467D28
:10228000077DBE4219D9C07D46434743B8F1020FCE
:1022900013D005F0D7FF804605F0BEFFFFF77DFCA9
:1022A000B5F9220021784218B5F924108B19394468
:1022B00006F083FB4046FFF770FC484606F034FB0F
:1022C000AA69B5F922006178927D01FB0200688459
:1022D00007B0BDE8F08370B5134C05462946A069E8
:1022E000806900F016F8002807D041680088281A95
:1022F00011F83000A169897D484370BD0120088034
:10230000704710B5806900F004F8002800D0012063
:1023100010BD06E002888A4202D842888A4202D270
:1023200080680028F6D17047043500202DE9FC5F55
:102330000546DFF8EC8310440090D8F858001746A3
:102340000E4601EB030942681C4649460098904737
:10235000E81B0190D8F85800494642680198904718
:10236000D8F8580006EB070B05EB040942685946FC
:1023700048469047D8F85800A6EB070A51464268ED
:1023800048469047002C1AD0D8F85800371B4646CC
:102390004268394600989047B06D394642680198C6
:1023A0009047B06D2C1B5946426820469047B06D4F
:1023B0005146426802B02046BDE8F05F1047BDE8D4
:1023C000FC9F2DE9F0478046894640F2C3205043E8
:1023D0004FF47A7190FBF1F602FB02F002EBD2713E
:1023E00000EB6107761C1446002349464046FFF780
:1023F0009DFF012513E005FB05F004FB0400B84236
:1024000006DD23462A4649464046FFF78FFF641EF5
:1024100023462A4649464046FFF788FF6D1CB542D1
:10242000E9DDBDE8F0877CB505460E46144606F0AA
:10243000FDF9BB49086C0544486C0644281BADF8FF
:1024400000002819ADF80400301BADF80200301967
:10245000ADF80600684604F0FEFE06E0224631466E
:102460002846FFF7AEFF04F0CFFE0028F6D106F0B5
:10247000D5F97CBD2DE9F84F06460F4640F2C32042
:1024800050434FF47A7190FBF1F000F1010802FB28
:1024900002F002EBD27100EB6100DFF884B2B118F8
:1024A00000901446B01ADBF8582013680A463946E3
:1024B0009847012532E005FB05F004FB0401009874
:1024C000814218DD444515DDDBF8583006EB05097F
:1024D000A6EB050A1B68A9F1010239190AF10100EE
:1024E0009847DBF85830A9F10102391B1B680AF143
:1024F00001009847641EDBF8580006EB0409A6EBC0
:10250000040A036879194A4650469847DBF8580090
:10251000791B4A460368504698476D1C4545CADDFD
:10252000BDE8F88F70B504460E46154606F07EF9F4
:102530007B4B186C0444586C0644002004F08BFE5E
:1025400006E02A4631462046FFF794FF04F05CFE81
:102550000028F6D1BDE8704006F060B92DE9FC5FB7
:10256000074602FB02FB88460BFB03F000FB03F16E
:102570001E4601EB500914460025DFF8A4A123E014
:1025800005FB05F00BFB00F206FB06F100E0641E04
:1025900004FB04F001FB0020002C01DD4845F6DCC3
:1025A0003A19381BCDE90020DAF8583008EB05015C
:1025B0001B6898473DB1DAF85800A8EB050103689D
:1025C000DDE9002098476D1CB542D9DDF7E62DE91D
:1025D000FC4104460D4616461F4606F027F95048B2
:1025E000016C406C0C440544A01BADF80000A01920
:1025F000ADF80400E81BADF80200E819ADF80600DC
:10260000684604F028FE07E03B463246294620464D
:10261000FFF7A4FF04F0F8FD0028F5D106F0FEF85E
:10262000BDE8FC812DE9FF5F8B4602FB02F10391BF
:102630005943804601FB03F000EB51009A461446D3
:102640009146002502903CE001D1002410E003995E
:1026500005FB05F041430AFB0AF200E0641E04FB9F
:1026600004F002FB0010002C02DD029B9842F5DC16
:102670002DB3A8EB04000090ABEB0506A8EB090016
:10268000711C33460190009AFEF7DEF80BEB05074C
:10269000DDE90020791E3B46FEF7D6F808EB040082
:1026A000009008EB0900711C81463346009AFEF742
:1026B000CBF8791E3B464846009AFEF7C5F8A1467E
:1026C0006D1C5545C0DDBDE8FF9F2DE9FC4104466A
:1026D0000D4616461F4606F0A9F81148016C406CDD
:1026E0000C440544A01BADF80000A019ADF804008F
:1026F000E81BADF80200E819ADF80600684604F0E2
:10270000AAFD07E03B46324629462046FFF78AFFEE
:1027100004F07AFD0028F5D106F080F880E700008B
:102720000435002010B5044606F080F8204606F077
:1027300071FA044606F072F8204610BD2DE9FC41FE
:1027400004460D4616461F4606F070F8042006F0B3
:10275000EBF833498046086C496C044406440D4448
:102760000F44ADF80040ADF80460ADF80250ADF88C
:102770000670684604F06FFD07E03B463246294686
:10278000204606F01AF904F03FFD0028F5D1404636
:1027900006F0CAF806F042F8BDE8FC8110B5002149
:1027A0000846FFF737F940F6FF725042BDE8104087
:1027B00013460146C2E770B51A492E2008700CF086
:1027C00039FB1948164C0068251D2561A064201DA1
:1027D00006F072FA1548A06515482561A061012030
:1027E000207505F023F8A087032084F85C006FF0C3
:1027F000704020636063002006F014FA6FF07F40A1
:1028000006F01CFA0B48E06106F058F806F0E9F90A
:10281000044604F009FF06F057F8204670BD00009A
:10282000043500202502002040030020C0F40208E7
:10283000D8FB020850D40308FC4B30B4B3F9024073
:102840008C4210DCB3F906408C420CDBB3F900403B
:10285000844208DCB3F90430834204DBF44B1B6888
:102860005B6A30BC184730BC7047F04AB2F902309E
:102870008B420DDCB2F906308B4209DBB2F9003035
:10288000834205DCB2F90420824201DB0CF093BCE8
:1028900000207047E54A10B5203A9068002813D010
:1028A00041681369591A02F1180319808468526942
:1028B000121B5A80046824882144491E99800068AC
:1028C00040881044401ED88010BDD84910B520392A
:1028D000097851B128B1D549083905F035FD0028EE
:1028E00002D000F098F9012010BD002010BD00F0CA
:1028F000ADB910B505F09AFFCC4920398878401E53
:1029000010F0FF00887001D100F0A0F9BDE8104080
:1029100005F084BF10B505F089FFC44920398878D7
:10292000421C8A7008B900F076F9BDE8104005F045
:1029300075BF2DE9F047064605F078FFBB4F203FF5
:10294000B868814686422FD035680424E86800685C
:10295000042800DC0446DFF8D48208F1080807E008
:10296000E868806850F8240006F054F928F814004C
:10297000641EF5D200F04FF9288869884843440066
:10298000F868844205D0B7F90400FFF76FFB002018
:10299000B88020B2FEF71CFAB88001207870BE60C3
:1029A000FFF778FF00F052F905F038FF4846BDE820
:1029B000F08710B505F03AFF00F02DF99B49002093
:1029C000203948709B4908609B490860BDE8104069
:1029D00005F024BF10B505F029FF9848806C016A06
:1029E0009248884700F017F9904801212038914A11
:1029F000417093491160904A92491160806828B1F2
:102A000000F024F9BDE8104005F008BF8E48FFF73C
:102A100090FFF7E72DE9F34F8FB005F007FF834BE9
:102A2000203BB3F9040080B301221D690F9C1146BD
:102A3000A54200D100215D69109CA54200D1002271
:102A4000114322D0794920394978C1B3774C203CD1
:102A5000A16809680B91FFF7BDFA0A90A0680F9A68
:102A60000068018809912369A2EB03084FF0FF3247
:102A7000B8F1000F0ADD012305930023CDE90031F1
:102A8000491ECDF81080069109E0AEE0491E05927E
:102A9000CDE900120021049100994144069110995A
:102AA0006369C91AB1F100090ADD01210391408867
:102AB00007900025401ECDF80890089089E08CE032
:102AC0000392458800206D1E02906818CDE907200A
:102AD0007FE00299002005EB09078D4203DB08998E
:102AE0008D4200DC01200C90029900208F4203DB14
:102AF00008998F4200DC01200D90009C64E00A9848
:102B000004EB080600EB440109982A46684301EBF0
:102B1000400B21460B9805F02FFB82460020049ABB
:102B20000146944205DB069A944202DC0C9A02B1FB
:102B30000121049A964205DB069A964202DC0D9A20
:102B400002B101200E90BAF1000F14D039B1A5EBFB
:102B50000902A4EB08010B9805F00EFB58B93348A5
:102B6000BBF800200838B0F90210B0F90000294481
:102B70002044FFF761FE0E9838B10A9800EB460139
:102B80000998784331F810000AE028480838B0F96D
:102B90000210B0F9000039443044FFF766FE80B2FD
:102BA000ABF800005FEA0A000CD000F023F882B214
:102BB0001E480838B0F90210B0F90000394430441A
:102BC000FFF73AFE059804440198844297D1039890
:102BD0000544079885427FF47CAF14480F9920384C
:102BE000016110994161FFF755FE11B0BDE8F04F4A
:102BF00005F014BE042804DA0C49083131F810003D
:102C000070470A49203989680968C968896851F894
:102C1000200005F0FFBF10B5044C203C20780028B0
:102C200003D000F01FF80020207010BD60020020CB
:102C300040030020380200203C0200200435002020
:102C4000CB280008EF280008DCF302084948417847
:102C5000002906D08178002903D10121017000F0FC
:102C60003BB870472DE9F04705F0E0FD414CB4F961
:102C7000040068B3FFF7AEF9064604F11800804679
:102C8000B0F90410B0F90020A2468F1AB0F906106E
:102C9000B0F902207F1C891A01F10109002515E015
:102CA00000240AE0B8F90210B8F9000036F8142040
:102CB00029442044FFF7C0FD641CBC42F2DBDAF873
:102CC00008006D1C0068008806EB40064D45E7DBF8
:102CD000BDE8F04705F0A2BD2DE9F04705F0A6FDDF
:102CE0002449B1F90400F0B38968D1F800A0FFF7D6
:102CF00071F9204F06461837B7F90400B7F90010EC
:102D0000401A00F10108B7F90600B7F90210401A9D
:102D100000F10109002524E000241BE0B7F90200BE
:102D20004119B7F900002044FFF79FFD26F8140071
:102D30002A462146504605F01FFA50B1FFF75AFFC8
:102D40000246B7F902004119B7F900002044FFF725
:102D500073FD641C4445E1DBBAF800006D1C06EB12
:102D600040064D4500E000E0D6DBBDE8F04705F049
:102D700055BD00004002002070B504000D464FF024
:102D800000060CD10FE0641C6D1E7F2804D914F8D6
:102D9000011B6D1E41EA0020FFF731FA064420783E
:102DA00008B1002DEFDA304670BD0246002008E081
:102DB000521C7F2B02D9401C521C01E00A2B05D06B
:102DC000401C1378002B01D08842F1DB704770B5AE
:102DD00004460D460AE014F8010B7F2804D914F8C4
:102DE000011B6D1E41EA0020FFF7D5F96D1EF2D5DB
:102DF00070BD2DE9F84F05460E469146184610F075
:102E0000ADFC04460F460FF027FD0FF0C5FE009005
:102E1000204639460FF0D2FD0FF0BEFE8346002457
:102E20002DE006EB840036F92470B0F9020010F0B2
:102E300067FE8246594610F08FFE8046384610F0F5
:102E40005FFE009910F088FE414610F0B3FC10F0D0
:102E50001BFE25F824005046009910F07DFE8046A8
:102E6000784210F04DFE594610F076FE414610F0C3
:102E7000A1FC10F009FE05EB8401641C48804C4560
:102E8000CFDBBDE8F88F0BF0D3BF70B504460BF075
:102E9000CFFF0519052607E0FEF73CFC3046052C60
:102EA00000DC20460BF0B0FF0BF0C2FF2C1A002C08
:102EB000F2DC70BD1FB503ABCDF80CD005F077F890
:102EC0006846FEF713F81FBD7FB50C461546CDF8D2
:102ED0000CD003A905F05CF8641EE1B203AB2A46EE
:102EE00005F065F86846FEF701F87FBD1FB503A938
:102EF000CDF80CD005F02BF86846FDF7F7FF1FBDA5
:102F00007FB5051E01A80C46009006DA69462846E2
:102F100005F03EF8641E0546E4B2284605F024F8A4
:102F2000C2B2202003E0009B03F8010B009311467E
:102F3000521CD2B2A142F6D36946284605F007F8E2
:102F400001A8FDF7D3FF7FBD0022BDE70022B1E756
:102F50007FB50D4616461946CDF80CD003AB0022BE
:102F600005F025F8324629466846FEF73BF87FBD56
:102F70004FF48031092816D2DFE800F00507090B6D
:102F80000E15151013000846704700F014B800F035
:102F900015B84FF4A0707047F020704742F26840B7
:102FA000704710207047A0F58050884201D205F08C
:102FB00035BE002070474FF4A0707047F020704776
:102FC0004FF4A0707047F0207047102070474FF406
:102FD00080307047012070470120704740F2352053
:102FE000704700002DE9FF4F87B00646DDE9150B5D
:102FF0008A46724C00210091217BDDF85C9041F300
:103000004001491C0291012149EA0B02012A00D129
:103010000021039169490A8804924988059130B1D9
:10302000816821B105F013FF0090002875D0B9F137
:10303000010F0AD161480A9AB0F90A10A1EB0A00FF
:10304000411C914201DA401C0A904FF000084446AE
:10305000A8E014980078019014984778801C149088
:103060000198D8B30099384609B131F8170005F036
:1030700049FC029947EA01000690019808EB000517
:103080000998854200DB05460198A5EB0807C01B9F
:10309000C0B201900698B0B1039860B10BFB086014
:1030A00009FB04A1421E01EB09030BFB07225B1E77
:1030B00005F083FC07E0AA19521E04EB0A0106EB97
:1030C000080005F05FFC0998A846854202D1641CFF
:1030D0004FF0000801980028CFD163E05DE014981C
:1030E00010F8015B1490029850EA15101ED0009958
:1030F000280909B131F81000039979B105F002FCF3
:103100000BFB086009FB04A101EB090300EB0B02B8
:103110005B1E521E05F051FC08E04CE006EB080374
:10312000024604EB0A01184605F046F9099808F131
:103130000108804502DB4FF00008641C3800A7F14D
:103140000101CFB22ED0029905F00F0001431CD02F
:10315000009909B131F81000039971B105F0D2FB63
:103160000BFB086009FB04A101EB090300EB0B0258
:103170005B1E521E05F021FC07E006EB0803024629
:1031800004EB0A01184605F017F9099808F101083F
:10319000804502DB4FF00008641C3800A7F10101F4
:1031A000CFB29CD10A988442FFF653AF03480499EA
:1031B0000180059941800BB0BDE8F08F04350020F7
:1031C0002DE9FF4F724A87B08B46117B824641F34F
:1031D0004001491C0291DDE91460DDE9164300213C
:1031E0000091012123433546012B00D1002101919B
:1031F00067490A8803924988049130B1816821B1F6
:1032000005F025FE0090002875D0179801280AD1F6
:103210005F480A9AB0F90A10A1EB0B00411C9142D9
:1032200001DA401C0A904FF000085A4A01984446BF
:1032300070B95748B0F90610D068A1EB0B01B04245
:1032400006D15068884203DAD2F8008096680446B6
:1032500050490020CD60C1E9010508608CE096F876
:1032600000907778B61CB9F1000F45D04948B11EDF
:10327000C0F80080C0E901410099384609B131F831
:10328000170043494880029947EA010005900998D0
:1032900008EB0905854200DB0546A5EB0807A9EB0D
:1032A000070000F0FF090598D0B1019878B1179A8E
:1032B000169802FB04B100FB08A08B18DDF858C07B
:1032C000421E0CFB07225B1E05F077FB08E005EBB6
:1032D0000A02521E04EB0B010AEB080005F052FB38
:1032E0000998A846854202D1641C4FF00008B9F144
:1032F000000FCCD140E048E016F8012B02981043B3
:103300002BD000990AEB080009B131F8122001997D
:1033100089B1104605F0F6FA1799179A01FB04B126
:1033200016988B1800FB08A0169A5B1E0244521ECA
:1033300005F043FB11E0164D04EB0B01B5F9063027
:1033400099420ADBB5F90430834206DCB5F908304E
:10335000834202DBAB6C5B6A9847099808F101086D
:10336000804505DB0A98641C4FF00008844203DAAC
:10337000781E10F0FF07BFD10A988442FFF66FAFA6
:10338000034803990180049941800BB0BDE8F08F98
:1033900004350020643500200121017400207047AD
:1033A00070472DE9FF4F81B004460D46164600F0E8
:1033B000D3F95FEA00083BD000F0E7F9207C04F184
:1033C00008074FF0000B98B1012028700498B0470F
:1033D0002146404600F0EDF9404600F0A9F985F895
:1033E00000B00498B0473946404600F0E2F912E0D8
:1033F0000498B0472146404600F0DBF9D4F800A01D
:10340000D4F804903A4621462046FEF713FBC4F850
:1034100008A0C4F80C90404600F07DF90120287007
:103420000090002331462046049A00F00BF818B1B2
:10343000012005B0BDE8F08F85F800B084F810B029
:103440000020F6E72DE9F84F0400DDF828A08946B2
:1034500093461F4621D00026B4F9001030460029BB
:1034600000DB08468046B4F90200002800DB06466F
:10347000FFF7A1FD411EB4F9040000F057F805461E
:10348000FFF79CFD411EB4F9060000F04FF8A5EBD4
:103490000804641C851B6D1C08E04FF000084646BC
:1034A000FFF789FD0446FFF789FD054607B96F421E
:1034B000002C01DD002D02DC0020BDE8F88F3B462A
:1034C000224631464046CDF800A005F07AFD5FEA7D
:1034D000000A07D005F0B8FE0746504605F0A2FDE9
:1034E00000241AE05846494688470120E5E7291B91
:1034F000B94202DA504605F0BDFE3CB132194146F0
:10350000504605F0D1FE504605F082FE5846494629
:103510008847504605F072FE3C44AC42E7DB50461B
:1035200005F0D2FC002005F07DFDC5E70246084607
:103530008A4200DC1046704770B50446A8480D4624
:10354000B0F94C00FEF746FDB0F9002021B2A242CE
:1035500000DD0180B0F90420A24200DA8180B0F9D8
:10356000022029B2AA4200DD4180B0F90620AA4219
:1035700000DAC18070BD2DE9F041054698480F463C
:1035800016461C46B0F94C00FEF724FDB0F90010B9
:10359000A94200DD0580B0F90410B14200DA86804E
:1035A000B0F90210A14200DD4780B0F90610A14237
:1035B00000DAC480BDE8F0810B445B1E0244521E59
:1035C000D9E70B46D7E713460246D4E7B4E7B3E79B
:1035D00000207047CFE74FF201014180018040F6A3
:1035E000FF71C1808180704710B504467C48B0F9F6
:1035F0004C00FEF7EFFC81682046BDE8104008470C
:1036000010B504467648B0F94C00FEF7E3FCC168FB
:103610002046BDE810400847714810B5B0F94C008D
:10362000FEF7D8FC0069BDE810400047F0B540F651
:10363000FF767742B446BE46002511E0B1F900306E
:10364000B1F902409E4200DD1E469F4200DA1F464D
:10365000A44500DDA446A64500DAA646091D6D1C5A
:103660009542EBDB06808780A0F802C0A0F806E058
:10367000F0BD7CB514460A4601461D466846FFF774
:10368000D5FF2A462146684604F02CFEBDF90630D7
:10369000BDF90420BDF90210BDF90000FFF76BFF72
:1036A0007CBD7CB514460A4601461D466846FFF7B8
:1036B000BDFF2A462146684604F014FE484890F8AB
:1036C0005D10E9B1BDF9001090F85C0091FBF0F1DC
:1036D000ADF80010BDF9021091FBF0F1ADF8021049
:1036E000BDF904100144491E91FBF0F1ADF804103E
:1036F000BDF906100144491E91FBF0F0ADF806003B
:10370000BDF90630BDF90420BDF90210BDF9000075
:10371000FFF731FF7CBD10B531490400A1F84C0022
:1037200001D004F02DFE2046BDE81040FEF79EBCFF
:1037300010B504000FD005F079F82046FEF74AFCDA
:1037400040F6FF710180418049428180C180BDE81F
:10375000104005F063B810BD10B51420FDF738FB1C
:10376000040010D005F062F82046FEF733FC1C4937
:103770008A6C12688260896C4968C1602046FFF7D4
:10378000D7FF05F04BF8204610BD10B504000CD053
:1037900003F03EFF12491348A1F84C408864002012
:1037A0000861BDE8104005F017BABDE8104004F00C
:1037B000E7BD70B505000C4611D005F037F8284676
:1037C000FEF708FC3CB10188218041886180818836
:1037D000A180C088E080BDE8704005F01FB870BDD2
:1037E0000435002010D103082DE9F043C68C0446AF
:1037F00087B04FF00009C6F30025084606F09DFF8C
:1038000008B12F4600E00227206CFEF725FAB4F934
:10381000480010B1FEF7DEFB81466846FEF7C8F8A7
:10382000DDE90001CDE902014DB3002005F006FA03
:10383000BDF90630BDF90420BDF90010BDF9020044
:10384000FDF7E2F9012202A9084604F041FB04EB6E
:103850008708D8F8280005F0E5F9D8F8340005F015
:10386000EDF902A807F07EFAFEF798FF022F0CDAB6
:10387000B4F84C10002061B15DB1012009E0206A6C
:1038800000688047206A4269DDE7B4F84E0000B165
:10389000022004EB40000022B0F94A00114605F076
:1038A000AFFFDDE90201CDE9040125B10122114696
:1038B00004A804F017FD0220FEF7EAF9B4F9442049
:1038C00004A94846FDF784FCF00706D0002005F067
:1038D000B5F90221684604F0FFFB002007F042FA28
:1038E00007B0BDE8F08370B5B0F904600546304616
:1038F000FEF770FB04462946304606F0B0FC00286F
:1039000040D028680B282CD00C2802D00F2834D1A6
:1039100022E0A868C8B1007A0028E08C4FEAC050C5
:103920000FD000282EDB4FF48071304606F063FC88
:10393000A08B800726D53046BDE87040012107F0F6
:103940007CB800281EDA022200E00322214630461D
:10395000BDE8704000F0B0B831462046BDE8704088
:1039600042E704F14800FEF78EFB04F14A00FEF73F
:103970008AFB04F14C00FEF786FB2846BDE8704048
:1039800003F0F3BD70BD2DE9FF470446DDE90C9857
:103990000D4616461F46DDF83CA004F047FF3023D5
:1039A000AFF2BD0201A81FFA88F1CDF800900EC059
:1039B0003B4632462946204603F0E0FA04000CD08C
:1039C000FEF708FB05461022514606F042FC202275
:1039D000454905F1280008F0C2FB04F01FFF04B0C0
:1039E0002046BDE8F08770B504000D4610D004F005
:1039F0001DFF2046FEF7EEFA2946483004F075FA1E
:103A000010B1204603F0B8FABDE8704004F006BFDC
:103A100070BD70B504000D460CD004F007FF2046C1
:103A2000FEF7D8FA0564204603F0A6FABDE8704018
:103A300004F0F4BE70BD70B505000C46164610D0FB
:103A4000022C0ED804F0F2FE2846FEF7C3FA00EB73
:103A500084008662284603F08FFABDE8704004F0C7
:103A6000DDBE70BD70B505000C46164610D0022CA8
:103A70000ED804F0DBFE2846FEF7ACFA00EB84001B
:103A80004663284603F078FABDE8704004F0C6BEED
:103A900070BD06F08EBB4FF480720029114601D034
:103AA00006F0A9BB06F0BEBB00294FF0100101D003
:103AB00006F0A1BB06F0B6BB70B50C46154606462F
:103AC0004FF4807106F0AEFBA08B800703D529462A
:103AD000304606F0B2FF022D05D1B4F92400BDE84E
:103AE0007040FDF7DABF70BD700200202DE9FF4184
:103AF0000D461F461646DDE90A31044600221046EF
:103B00008DE80F003B46324629462046FFF73BFF33
:103B100004B0BDE8F0812DE9FF4116460AAA04462B
:103B20000D461F460BCA0022CDE90003CDE9022154
:103B30003B46324629462046FFF725FFE8E77FB59A
:103B40000446084615461E46B4F90830628A00212C
:103B50008DE80F00B4F90C00B4F910308119B4F9F4
:103B60000A00B4F90E202844FFF70DFF05466168EE
:103B7000FFF739FF04B0284670BD00003D480068DB
:103B800070473C4A01461068116070470EB500222C
:103B900001922A2202910092694603F059F80EBD63
:103BA0000EB50021019102912A210091694603F08E
:103BB0004FF802980EBD2DE9F84316460446DDE99C
:103BC00008200D4619460096034626682046B04751
:103BD000064603F01FFE8046618A304606F00BFB66
:103BE000304604F055F8404607E00023009354F8AF
:103BF000187F1A4641462046B84704F049F86D1E22
:103C0000002DF2DC304606F0D3FF1E21404606F0C0
:103C100039FF3046BDE8F88370B50C460546FFF71E
:103C2000BFFF10B10121C0E900142846BDE8704073
:103C300003F03BB81CB50021009101916946FFF7E4
:103C4000A5FF04E0FDF766FD08B90BF0E5F8009864
:103C50000028F7D001981CBD7CB514461D46DDE94F
:103C60000623CDE900232B462246FFF7A4FFBDE83B
:103C70007C40DFE7900200202DE9F04704468AB03F
:103C80004FF00008084606F058FD04EB8000806EF7
:103C900004F0C8FF206E04F0D1FFE06DFDF7DCFFFB
:103CA00007A9204603F02BF902A9204606F046FAA0
:103CB000B4F9280010B1FEF78DF98046DDE9020164
:103CC000CDE90001BDF80010A06D04AA0144491C13
:103CD000ADF80010BDF80410081A401EADF804003D
:103CE00069464046636D04F00CF8E08CC00746D08E
:103CF000CDF8188094F84900012500B10546B8F1C7
:103D0000000F3CD094F8480008B9606C30B34046CE
:103D100004F05AF8216C814220DA606CA8B10025C9
:103D20000E460AE03146404604F0C1FB404404F030
:103D300089FBFEF764FA0544761CD4E910010844B7
:103D4000B042EFDC55B9012508E0404604F0AFFB76
:103D5000404404F077FBFEF752FA0546DDE90460C3
:103D60008146002708E006A804F08EFBFEF747FA1C
:103D7000304460F30F067F1C206CB842F3D1002062
:103D800003F069FA002822D04FEA264A6D1E36B2A7
:103D900035444FEA294702A806F0E4FF04AB6A461F
:103DA00002A9404606F002FCE08CC00705D03B4665
:103DB0002A465146304604F063FA002006F0D2FF4E
:103DC000204606F02BFB03F01FFA0028E3D10AB0CF
:103DD000BDE8F08770B50546B0F928000C4600280C
:103DE00019D0FEF7F7F803F0EFFF95F8481001B18E
:103DF0000121002C00DA0024844200DD0446B5F9DC
:103E00002A00401AA04200DA0446286CA04200D0E2
:103E10002C640020686470BD2DE9F84F5FEA00094A
:103E20000C465CD004F002FD4846FEF7D3F8054688
:103E3000B0F9280080B3FEF7CDF80090E86DFDF7EB
:103E40000BFF8246484603F04AFD0746009804F0FF
:103E500005FA0646686D00F00300012816D0022816
:103E60000DD0296AA86D49690844241A641E009877
:103E700003F0AAFF8046002C0FDA002122E0B81BD5
:103E8000401C00EBD070A4EB6004F0E7A96DB81BF8
:103E9000401A241A641CEAE71DE0B44201DD014621
:103EA00010E000273E4608E0684604F0EDFAFEF711
:103EB000A6F90644A64204DC7F1C474501DAA64267
:103EC000F2DB39462846FFF785FF5046FDF7C4FE72
:103ED000484603F051F8BDE8F84F04F09FBCBDE838
:103EE000F88F70B50446808D4618B4F92800314625
:103EF00004F06CFC050009D0208D20B92846FEF79F
:103F000069F800210170A6852585012070BD70B576
:103F100004460D46B4F92820002022B11046FEF7D1
:103F200059F808F06AF8A18D2844411A491C002963
:103F300005DD10312046FFF7D4FF002800D0012016
:103F400070BD70B50546B1F928000C46002819D09F
:103F5000FEF740F80646216C04F0A9FA0446304604
:103F600008F04BF8A0420DD93444204604F05CFA26
:103F70002118204608F01DF82846BDE870400521AC
:103F800006F05BBD70BD70B504460020B4F9281082
:103F900000290BD00846FEF71DF80546216C04F0F9
:103FA00086FA2844BDE8704004F04CBA70BD70B584
:103FB00006000D4676D004F039FC3046FEF70AF8CC
:103FC000040077D0E26C1AB12946304690476EE083
:103FD000122D4BD008DC082D50D00D2D67D0102DA0
:103FE00047D0112D08D11AE0132D29D01B2D5ED0FA
:103FF0001D2D4ED01E2D47D0202D58DB94F84800A3
:1040000018B121463046FFF79CFFAAB22146304640
:1040100000F00CFA48B3216C491C20462BE0B4F99F
:10402000280010B3FDF7D6FF0546216C04F03FFAD7
:104030004419204604F006FA7F2838D2401C0FE0CD
:10404000B4F9280088B1FDF7C5FF0546216C04F0DE
:104050002EFA4419204604F0F5F9202827D9401EED
:1040600020700521304606F0E8FC20E0216C491C58
:1040700001E0216C491EFFF7ADFE18E0216C491EDE
:10408000FFF7A8FE214600E001463046FFF759FF42
:104090000DE094F84800012806D0012084F848007B
:1040A000216CBAE70AE005E0002084F848003046B9
:1040B00002F062FFBDE8704004F0B0BB70BD2DE9B6
:1040C000F041B0F9046004463046FDF783FF07462F
:1040D000304606F032FB05462146304606F0BFF872
:1040E00000282DD020680B2814D00C2804D00E28CE
:1040F00015D00F281FD108E0A068E0B1017AD1B136
:1041000001683046FFF788FE15E031463846BDE8C5
:10411000F041B1E507F12800FDF7B5FF0BE055B11F
:10412000A0684168002906DD0168092903D03046EE
:10413000BDE8F0413BE72046BDE8F04103F015BA89
:10414000BDE8F0812DE9FF4105460E46DDE90A0193
:10415000DDE90D8489B217469C4641F48051502315
:10416000D14A41F002018DE80F0063463A463146DC
:10417000284602F003FF060025D004F057FB304626
:10418000FDF728FF05461022414606F062F81C2282
:10419000C64905F1540007F0E2FF012085F8490007
:1041A000082004B1204601B269850020A885288531
:1041B000491C2846FFF795FE18B9304602F075FDF8
:1041C000002604F02BFB304604B0B9E770B50400BC
:1041D0000D460DD004F02AFB2046FDF7FBFE18B17A
:1041E000C565204602F0C8FEBDE8704004F016BB6D
:1041F00070BD70B505000C46164611D004F016FBD4
:104200002846FDF7E7FE38B1022C05D200EB84000A
:104210008666284602F0B0FEBDE8704004F0FEBAA3
:1042200070BD70B505000C46164611D004F0FEFABC
:104230002846FDF7CFFE38B1022C05D200EB8400F2
:104240000666284602F098FEBDE8704004F0E6BA23
:1042500070BD2DE9F0415FEA00080E4645D004F03C
:10426000E5FA4046FDF7B6FE04467EB3B4F92800F1
:10427000002520B1FDF7AEFE07F0BFFE451C30461D
:1042800003F0A2FD0146B4F92A00884200DA014693
:10429000304604F00CF9471C791B2046FFF737FE27
:1042A000E0B1B4F92800FDF795FE3A46314607F033
:1042B000CFFE7F1E2764B4F92A0087420ED194F8FE
:1042C000480001280AD17F1E276407E0FFE704F1B8
:1042D0002800FDF7D8FE0020A0852064404602F0AB
:1042E0004BFEBDE8F04104F099BA29E72DE9F04111
:1042F00007460C00154622D000262670002F1ED03F
:1043000004F094FA3846FDF765FEB0F9280090B144
:10431000FDF760FE074603F057FD0146A84200DDA9
:104320002946384604F0C3F8054602463946204679
:1043300007F08EFE6655BDE8F04104F06FBAFFE667
:1043400070B505004FF0000407D004F06FFA28465E
:10435000FDF740FEC46B04F061FA204670BD70B5F5
:1043600005000C461FD004F061FA2846FDF732FE26
:10437000016BA14200DD0C46416BA14200DA0C4604
:10438000C16BA1420BD0C463016D09B128468847B7
:10439000284602F0F1FD0521284606F04EFBBDE857
:1043A000704004F03BBA70BD2DE9F04106000D46A7
:1043B00028D004F03BFA3046FDF70CFE0446B0F975
:1043C0002A00A8421AD00FDDB4F9280060B1FDF729
:1043D00001FE074603F0F8FCA84205DD29463846F1
:1043E00004F065F800213954A08D291A491C204693
:1043F000FFF777FD6585304602F0BEFDBDE8F04170
:1044000004F00CBA9CE670B504000D460DD004F023
:104410000DFA2046FDF7DEFD18B14565204602F095
:10442000ABFDBDE8704004F0F9B970BD2DE9F04175
:104430008046B1F92A000C46154600280DDDB4F976
:104440002810002021B10846FDF7C4FD03F0BCFC94
:10445000B4F92A10401C884223DC284604F010F8E6
:10446000064601462046FFF752FDD0B1B4F92800B8
:10447000FDF7B0FD0746216C04F019F83C18204602
:1044800007F0BBFD421CA019214607F026FE294675
:10449000204603F0E5FF0521404606F0CEFA012054
:1044A0004EE600204CE60000BF40000894020020C9
:1044B000F0B50F4615461E4685B0B0F90820418A72
:1044C000436904460DF1040C00200097ACE80F008E
:1044D000B4F90C00B4F910308119B4F90A00B4F938
:1044E0000E202844FFF72EFE050002D0618AFFF758
:1044F0008AFF05B02846F0BD70B50D460646FDF7AB
:1045000069FD040035D0102D30D0112D19D0122D99
:1045100029D0132D21D0303D012D01D94FF0FF3589
:10452000002D09DB01463246E8B200F06AF8216C42
:104530002046491CFFF74EFC3046BDE8704000F0B5
:1045400050B800F06EF8401C012800DD0020324613
:104550002146C0B200F055F8EEE700F062F8401EC8
:10456000F5D50120F3E7216C491CE3E7216C491ED6
:10457000E0E770BD2DE9F04180460F4616461D4626
:1045800004F054F95FEA080027D0FDF723FD2A491B
:10459000C1642A4901650021C0E90F71B0F92A10F0
:1045A00004460A1E06DC2846002101E04008491C9A
:1045B0000028FBD1202900DD20218A4202D040467C
:1045C000FFF7F2FEC4E90C65012084F8480040467C
:1045D00000F007F8404602F0CFFCBDE8F04104F0DF
:1045E0001DB938B5FDF7F6FC0446B0F92800FDF713
:1045F000F1FC0090608D6A46C1B2E06B03F095FC5F
:1046000038BD30B40346488D0C6CC96B001B401E8E
:1046100001248440A143834030BC19431046FFF776
:104620009EBE418D026CC06B891A491E01228A40D0
:104630001040C840C0B27047F9440008E345000884
:1046400030B404460D46B4F92A10236C0120CB1A6D
:104650005B1E00E000015B1EFCD2002A01DAC043B1
:10466000401CE16B0144284630BCFFF778BE2DE9C1
:10467000F0410D460646FDF7ADFC040037D0102D85
:104680001CD0112D12D0122D15D04FF0FF32132D4A
:104690000DD0A5F130073946092F13D925F0200197
:1046A000A1F1410005280CD837390BE00122314631
:1046B000FFF7C6FF1BE0216C491C16E0216C491E68
:1046C00013E01146002912DB608D226C801A401E17
:1046D00080000F2282408140E06B904301433046CE
:1046E000FFF73DFE216C2046491CFFF773FB304667
:1046F000BDE8F04100F037B82DE9F04180460F46A3
:1047000016461D4604F092F85FEA080027D0FDF730
:1047100061FC1D49C1641D4901650021C0E90F719B
:10472000B0F92A1004460A1E06DC2846002101E0E2
:104730000009491C0028FBD1082900DD08218A4214
:1047400002D04046FFF730FEC4E90C65012084F832
:104750004800404600F007F8404602F00DFCBDE876
:10476000F04104F05BB838B5FDF734FC0446B0F90D
:104770002800FDF72FFC0090608D6A46C1B2E06B07
:1047800003F050FC38BD00006F4600086747000882
:1047900070B50D460446FDF71DFCB0F85C104FEAFD
:1047A000017225B1002A0DDB41F0080103E0002A67
:1047B00008DA21F00801A0F85C102046BDE870403E
:1047C00002F0DABB70BD10B501460020CA8C92061B
:1047D00007D5B1F94000002803D1886A03F048FDED
:1047E000801C10BD2DE9F05F4FF0000805460C4617
:1047F000C146B0F9426003F064F88346284603F0EE
:1048000067F88246E88C800601D5B5F944902846C1
:10481000FFF7D9FF0746B5F94E0010B103F072F863
:1048200080462780A4F80280ABEB060006EB090166
:10483000A680401ECA19208102EB0801E180AAEB84
:104840000601491E6181A6812082F019E681401E81
:104850006082B5F9180022E0FDF7BCFBB0F900104A
:10486000B5F90020B0F90430891A9A1AB0F902306B
:10487000B5F90270DB1BB3420FD1838B1B0606D543
:10488000B4F910208A4208DB491E218205E0B4F900
:104890000C10914201DC521CA281B0F91A000028D0
:1048A000DAD1BDE8F09F2DE9F04F8BB0044602F05D
:1048B0000CFC06464FF0000B03F011F8054630469D
:1048C00003F020F80646B4F9428069462046FFF717
:1048D00089FFB4F85C00C0F3C007B4F9500010B110
:1048E000FDF778FB8346BDF80400ADF81400BDF871
:1048F0000800ADF81800BDF80E00ADF81600401C19
:10490000ADF80E00BDF80C00BDF81210401CADF85B
:104910000C00BDF81000ADF81A10401EADF81000E4
:10492000A06AFDF799F9B4F95A3003A907AA5846C5
:10493000099103F0E6F9BDF90010002001EB080A27
:1049400002F089FC002844D0AAF1010904EB870792
:10495000F86A04F067F9786B04F070F907AB05A901
:104960005846099A05F022FEFF4804F067F9002135
:10497000A8F101036A1E0846FCF7EEFFBDF904200A
:104980000021521E731E0846FCF7E6FFBDF9080021
:10499000731E401C6A1E0021FCF7DEFFBDF90A10E1
:1049A000731E491C6A1E0020FCF7D6FFB4F94410A0
:1049B0006A1E01EB090351460020FCF7CDFFB4F954
:1049C0004200022801DB05F0D2FD02F01DFC0028A8
:1049D000BED10BB0BDE8F08F70B504000D4609D014
:1049E00003F024FF29462046FFF7D2FEBDE87040C1
:1049F00003F014BF70BD2DE9F041B0F90460044626
:104A000088B03046FDF7E6FA0546D4F80880476ED0
:104A100005E079682046884700281ED13F68002FAE
:104A2000F7D12068172848D00CDC0D2879D004DC99
:104A30000B2874D00C2818D118E00F2812D0142895
:104A400013D12FE01F284AD0212877D0262837D02D
:104A50002A280AD1A06818B1286608B0BDE8F081FC
:104A6000286E59E02846FFF71EFF86E0A468002C58
:104A7000F3D0207A0028F0D0B5F85C00000702D40B
:104A8000304603F0A3F8304602F070FEB5F85C0043
:104A9000C006E2D5B5482146B0F90020304606F000
:104AA0003FF8DAE769462846FFF79CFE0199C8F807
:104AB00000100299C8F80410CFE7B5F94C002BE0BC
:104AC000A0680228C9D1ADF81A60A0680790272015
:104AD0000590B4F9060005A902F0BAF8BDE7A06890
:104AE000012804D000213046FFF776FFB5E7B5F97D
:104AF0005E0002F038FF20B1B5F95E0003F066F801
:104B000005E0B5F94C0006F053F8A5F85E00012168
:104B10003046FFF761FF0020A0609EE701E028E03B
:104B20000CE0B5F85C00000727D4A0688068F8B1F5
:104B3000007AE8B1304603F049F81EE0A768BFB13B
:104B4000B7F90200314605F0F3FD20B101213046EE
:104B5000FFF71EFE11E000213046FFF719FEB7F9FE
:104B60000000314605F0D3FD10B13888A5F85E008D
:104B700003E005F15000FDF786FA2146304605F0C6
:104B80006EFB00288DD0204602F0EFFC65E72DE992
:104B9000FE43B0F904700446384605F0FDFE804639
:104BA000FDF718FA0546866C2068172856D008DCF1
:104BB0000E283BD00F280BD014284FD015283CD1FD
:104BC0004CE01F2818D0202829D0222835D143E0D6
:104BD000E86B6FF07041884203D004F023F8FDF7D2
:104BE000DDFD002E06D007CC8DE80700ADF804707F
:104BF0006846B047BDE8FE83A0680028FAD0B5F942
:104C00005E0020B1B84202D002F0E0FF04E0384676
:104C100005F0CEFFA5F85E000020A060EAE703B033
:104C200021464046BDE8F04305F019BBA068416845
:104C3000002902DD0068092808D07EB1A4F80480AC
:104C400003B02046B446BDE8F0436047384605F05F
:104C5000AFFFA5F85E00CDE7E86BDEE72046BDE8D4
:104C6000FE4302F082BC10B50446B0F84C0086B09A
:104C700018B9B4F84E00002829D069462046FFF73D
:104C8000B1FDB4F94C00A8B1BDF90620BDF904107E
:104C900005F0ACFEBDF90A00BDF90610421ABDF9D7
:104CA0000800BDF90410521C411A491CB4F94C000B
:104CB00005F0F4FFB4F94E00002808D0BDF9061045
:104CC000BDF902208A1ABDF9041005F08FFE06B066
:104CD00010BD70B504000D4610D003F0A7FD2046AE
:104CE000FDF778F92946503003F0FFF810B120465F
:104CF00002F042F9BDE8704003F090BD70BD2DE9AF
:104D0000F04F89B0944612AA06460F46B2E8230C2B
:104D1000984641F480544823154AA1B2DDF85C90CE
:104D20008DE80F00434662463946304602F026F9C8
:104D300007004BD003F07AFD3846FDF74BF90646E5
:104D40003022514605F085FA08492022091D06F156
:104D5000280007F004FA06F1480600207082C6F821
:104D60000090B582F08205E0AAAAAA00B002002055
:104D7000F7490008F080F061A6F1480604A9304622
:104D8000FFF730FD01A80023294A41F28271009704
:104D90000EC0BDF91A00BDF91610BDF91820431A4E
:104DA000BDF914005B1C121A521C02F0E7F8A6F8B9
:104DB0004C0042F20400044202D1384602F08FFF58
:104DC00059463846FFF785FF03F028FD384609B0FD
:104DD00000E670B505000C4611D003F027FD28460B
:104DE000FDF7F8F8B0F95A10A14204D0A0F85A40E3
:104DF000284602F0C1F8BDE8704003F00FBD70BD59
:104E000070B504000D4611D003F010FD2046FDF7EB
:104E1000E1F830F85C1F15B141F0100101E021F01C
:104E200010010180BDE8704003F0F8BC70BD0000C7
:104E30008F4B000810B50168272903D0BDE810404A
:104E4000FEF751BDB0F906402046FDF7C3F8B0F8B3
:104E50005C000006204603D5BDE8104004F086BB88
:104E6000BDE8104004F071BB1CB5684605F03AFD82
:104E70008048BDF80020016C0A44ADF80020BDF860
:104E80000220406C0244ADF80220BDF80420114419
:104E9000ADF80410BDF806100844ADF806006846E9
:104EA00002F0D9F938E0BDF90420BDF90210BDF9CE
:104EB0000000521E491C401C03F064FDBDF9042093
:104EC000BDF90210BDF90000521E891C401C03F000
:104ED00059FDBDF90420BDF90610BDF90000521EB0
:104EE000491E401C03F04EFDBDF90620BDF902101D
:104EF000BDF90000521E491C401C03F0B9FEBDF96B
:104F00000620BDF90210BDF90400521E491C401EC6
:104F100003F0AEFE02F078F90028C4D11CBD1CB528
:104F2000684605F0DFFC5349BDF800000A6C1044E8
:104F300000B2ADF80000BDF80230496C0B44ADF88A
:104F40000230BDF804301A4412B2ADF80420BDF8A6
:104F50000630101A1944ADF806104000801C0321D9
:104F600090FBF1F4684602F076F960E0BDF90400C8
:104F7000BDF90210421E491C001B03F003FDBDF9E0
:104F80000400BDF90210421E891C001B03F0FAFC4C
:104F9000BDF90200BDF904200119BDF90000521E3F
:104FA000204403F0EFFCBDF90600BDF90210021B1E
:104FB000BDF90400491C001B03F05AFEBDF90210A4
:104FC000BDF904000A19491C401E03F051FEBDF949
:104FD0000000BDF906100219091B401C03F0D2FCA9
:104FE000BDF90000BDF906100219091B491C401C3F
:104FF00003F0C8FCBDF90000BDF906100219491EF6
:10500000401C03F0BFFCBDF90630BDF900005A1E7C
:10501000191B401C03F02CFEBDF90630BDF9000041
:105020005A1E191B204403F023FE02F0EDF800285D
:105030009CD11CBD10B502F048F805F0ADFCFCF7A2
:10504000C9FFB0F85C00000602D5BDE8104066E775
:10505000BDE8104008E710B5072304F0D0F9044676
:10506000054A002104F05BF90449204602F072FD74
:10507000204610BD0435002035500008354E00088C
:1050800010B50168272903D0BDE81040FEF72BBCFE
:10509000B0F906402046FCF79DFFB0F85C004006E2
:1050A000204603D5BDE8104004F060BABDE81040CA
:1050B00004F03ABA10B502F008F805F06DFCFCF700
:1050C00089FFB0F85C00400603D5BDE8104000F051
:1050D0004EB8BDE8104000F00FB810B5082304F03A
:1050E0008EF904463F4A002104F019F93E49204652
:1050F00002F030FD204610BD7CB5684605F0F2FB9D
:105100003A48BDF80020016C0A4412B2ADF8002004
:10511000BDF80230406C0344ADF80230BDF80430F5
:10512000194409B2ADF80410BDF806301844ADF8C2
:105130000600881A401C4510684602F08CF813E0FF
:1051400001240DE0BDF90600001BA0EB6501BDF9CF
:105150000400021BBDF90000204403F013FC641C92
:10516000AC42EFDB02F050F80028E9D17CBD7CB501
:10517000684605F0B7FB1D48BDF80020016C0A44E5
:1051800012B2ADF80020BDF80230406C0344ADF817
:105190000230BDF80430194409B2ADF80410BDF86E
:1051A00006301844ADF80600881A401C45106846C1
:1051B00002F051F813E001240DE0BDF9020004EB08
:1051C00065010144BDF90400021BBDF90000204443
:1051D00003F0D8FB641CAC42EFDB02F015F80028AA
:1051E000E9D17CBDB550000881500008043500208D
:1051F000F0B587B094460CAA1C46E0CA0B4602469E
:1052000000210DF1080E0846AEE80F00CDE9001CA4
:105210003B46324629462046FFF771FD07B0F0BDF8
:10522000F0B587B004460CA816461F46B0E80C50EF
:105230000D460021CDF814C00291CDE90313CDE94C
:10524000002E3B46324629462046FFF758FDE5E74B
:10525000F0B50F46154687B00446B0F9081042680D
:105260001E46408A0DF1080C0C9BACE80F00002391
:10527000CDE90073B4F90C00B4F910308119B4F918
:105280000A00B4F90E202844FFF739FD07B0F0BD3D
:105290002DE9F04106460F4603F0C8FA8EB13046BC
:1052A000FCF798FE0446FFF78EFA05462046A762F3
:1052B000FFF7D9FC2946204604F037F8304601F0C4
:1052C0005BFEBDE8F04103F0A9BA000010B5002470
:1052D000283004F08BFA00B1441D204610BD2DE9A2
:1052E000FF470446406838B3012802D002287ED127
:1052F00016E0B4F90000FCF76DFE0546806CFCF783
:10530000ABFC06462846A168FFF7E0FF02F0A6FFC7
:1053100004463046FCF7A0FC204604B0BDE8F08708
:10532000B4F90000FCF756FE0446806C02F0A4FFBE
:10533000B4F876100844F0E7B4F90000A668FCF76A
:1053400049FE05463146283004F03FFAFCF742FE9C
:10535000074602A805F0C6FAFCF704FF3979804633
:1053600095F87420C1F3400001F00101520705D502
:1053700028B909B102200DE000200BE008B103209C
:1053800008E0B5F97200B042F6D1E98C0220C907F5
:1053900000D1012005EB8007386D03F043FC386E27
:1053A00003F04CFC31462846FFF790FF814602206F
:1053B000FCF76EFCFDF7F2F9D4E90312491C4846EC
:1053C000FBF710FE95F8740040071FD5B5F9720081
:1053D000B0421BD1E068ADF800002069ADF80200D2
:1053E000BDF80C00ADF80400A8F1010000E00DE0EC
:1053F00021690844ADF80600386D6FF07F41081A46
:1054000003F01CFC0021684602F066FE002084E7E1
:10541000283004F050B92DE9F0470E4681469046F9
:10542000114606F1280004F0E1F9040001D0658876
:105430006DB9B06CFCF710FC0746434602223146BA
:10544000484600F091FC05463846FCF705FC04B1DF
:105450006580284662E72DE9F84F83460027FCF770
:10546000B9FD80462830009004F025F981460026D9
:105470001CE03146009804F0B9F9040001D02588F9
:1054800075B9D8F84800FCF7E7FB8246334601229D
:105490004146584600F068FC05465046FCF7DCFBE8
:1054A00004B12580AF4200DA2F46761C4E45E0DB82
:1054B0003846BDE8F88F2DE9F041804616460F4684
:1054C00001F1280004F0F7F8B04210D97C6BB44227
:1054D0000DDC002506E0224639464046FFF79BFFDB
:1054E0000544641CB442F6D32846BDE8F0814FF071
:1054F000FF30FAE72DE9F04780468946012428303D
:1055000004F0D9F80646012816DD0025484600F0CB
:105510003AFC0746741E09D4224641464846FFF726
:105520007AFF0544BD4201DC641EF5D5341B641EC0
:10553000012C01DA0120F1E62046EFE63EB50446F3
:1055400000200090019002900D462046FCF742FD9D
:10555000B0F9700010B9204605F01EFA262100911E
:105560000295ADF80640694601F072FB3EBD2DE99B
:10557000F041B1F972504E6B80460C46002D25DB90
:1055800001F1280004F097F8A84219DD606BA842E9
:1055900016DC2A4621464046FFF78DFF07462A467D
:1055A00021464046FFF737FFC519404600F0EBFBA8
:1055B000A84205DAB4F97200A16B401A401C60637E
:1055C000B4F97200616B884200DA606304F1300064
:1055D000054605F026F904F13C00074605F021F9DF
:1055E0003A462946404604F0A6FE606B801B7CE7E5
:1055F00010B5283004F0FAF8002802D0002101800C
:10560000418010BD1CB50446694605F073F9694632
:10561000204601F080FC1CBD2DE9FC4106460F46EA
:10562000151E1ADBFFF747FF041E16DB2A46394614
:105630003046FFF7F0FE05466946304605F05AF958
:10564000BDF802006D1E2044ADF802002844ADF8FC
:1056500006006946304601F05EFCBDE8FC817CB581
:105660000546002A10DBFFF726FF041E0CDB694607
:10567000284605F03FF9BDF8020069462044ADF820
:105680000200284601F047FC7CBD70B591F87540DA
:10569000054614B904F01CFC0446FF21284602F01C
:1056A000E9F80646FE21284602F0E4F805462146C0
:1056B000304604F03DFC21462846BDE8704004F029
:1056C00037BC7CB5054600F069FB2846FCF782FC38
:1056D0000446283003F0EFFF206329462046FFF7F9
:1056E00009FFA0636946284605F004F92846FFF73C
:1056F000B2FEE063BDF90400BDF90010401A401C81
:10570000606421462846FFF732FF7CBD2DE9F04159
:1057100006000C463ED003F089F83046FCF75AFCF0
:1057200005462830804603F0C6FF00B1401E844283
:1057300000DD04464FF0FF37002C09DB21464046D0
:1057400004F043F828B1FCF745FC0079800700D548
:105750003C46B5F97270A74218D0A5F872402946A8
:105760003046FFF704FF18B13046FFF74BFF09E062
:105770003A4629463046FFF74FFF22462946304633
:10578000FFF74AFF04213046FFF7D8FEBDE8F0419D
:1057900003F044B8A9E62DE9F04180468CB01546E7
:1057A0000C4601F1280003F086FF0746A06CFCF7C9
:1057B00053FAA8680168079140680890B4F902009C
:1057C0004242B4F90000414207A802F08BFD09A94A
:1057D000404605F08FF809A907A802F00EFBBDF8B6
:1057E0001C00ADF81400BDF82000ADF81800002032
:1057F0000190ADF80080BDF92400216C401A03909F
:10580000BDF926000490656B26E000B2BDF92210B8
:10581000ADF81600884221DC2A4621464046FFF7B3
:10582000FAFD0646BDF81610401E084400B2BDF948
:105830001E10ADF81A0088420ADB05A805F092FA9E
:105840000295E16A684609B1884701E0FFF747FD24
:1058500004986D1C30440490BD42D6DB002005F056
:1058600081FA0498ADF81600BDF82A00ADF81A00C8
:10587000206D03F0D7F905A802F00DFC204604F0D6
:10588000CDFD0CB031E670B5064691F874000C46BB
:105890001546400718D5114604F1280003F095FF7E
:1058A000002811D0FCF796FB01798A070CD481F00F
:1058B0000101017104213046FFF740FE2A462146CE
:1058C0003046BDE87040A7E670BD70B505004FF0EA
:1058D000FF3408D002F0AAFF2846FCF77BFBB0F9A2
:1058E000724002F09BFF204670BD2DE9F0470F4645
:1058F00080464FF0FF35FCF76DFB06464046FFF74C
:10590000E4FF044606F12800814603F0D4FE064673
:10591000E4190FD4B4420DDA2146484603F055FF8E
:1059200028B1FCF757FB0079800700D42546002DED
:10593000EEDB01E0002D04DB29464046BDE8F047E0
:10594000E4E6EBE410B504000AD002F06FFF4FF07C
:10595000FF312046FFF7C9FFBDE8104002F05EBFEF
:1059600010BD10B5040009D002F060FF01212046EF
:10597000FFF7BBFFBDE8104002F050BF10BD2DE99E
:10598000F0410C468046FCF725FB122C1CD004DCB1
:10599000102C25D0112C04D130E0132C2AD0202C2F
:1059A0000BD0204600F037FAA0F16101192929D95E
:1059B0003038092826D9002097E5B0F97220014631
:1059C0004046FFF760FF3DE0B0F84C20016C114409
:1059D0000AE04046FFF775FE4046FFF713FE31E050
:1059E000B0F84C20016C891A3C3004F040FF0028CC
:1059F000EFD127E04046FFF7B4FF23E04046FFF732
:105A0000A1FF1FE04046FCF7E5FA0646204600F0FD
:105A100002FA0546002406F128070EE0214630462A
:105A2000FFF754FC007800F0F6F9A84204D12146B3
:105A30004046FFF76BFE05E0641C384603F03BFE72
:105A4000A042EBD8012050E570B504000E464FF09F
:105A5000000508D002F0EAFE31462046FFF78FFF2E
:105A6000054602F0DBFE284670BD2DE9F0470446EE
:105A7000B0F9040086B08246FCF7ACFA0546214630
:105A8000504604F0ECFB0028206809D00E287ED098
:105A90000DDC05287CD00B287BD00C2835D183E089
:105AA0001F2877D1A068002874D10B2184E00F282B
:105AB00030D0112834D0262827D1A068052802D05C
:105AC000062822D122E0504604F077FF0146B4F9BF
:105AD0000600814205D102A904F072FF03986863B1
