:020000040800F2
:1000000000040020470100085501000857010008BE
:10001000590100085B0100085D01000800000000B4
:100020000000000000000000000000005F01000868
:10003000610100080000000063010008650100087C
:10004000EB090008F9050008B5080008AF0800082A
:10005000A9040008290800089B0400089F04000860
:10006000A1040008A3040008A50400086701000813
:1000700067010008670100086701000867010008C0
:1000800067010008670100086701000867010008B0
:10009000670100086701000867010008A70400085D
:1000A000B7080008BD080008BB080008B908000828
:1000B000BF080008C1080008C3080008D3050008ED
:1000C000D1050008D7050008D5050008B1080008CB
:1000D000B3080008C5080008C7080008C9080008D8
:1000E0009D040008AD080008E90900086701000840
:1000F0006701000867010008670100086701000840
:10010000670100086701000867010008670100082F
:10011000670100086701000867010008670100081F
:10012000670100086701000867010008670100080F
:10013000DFF80CD000F052F800480047CD0E000860
:1001400070020020704708488047084981F30888FA
:1001500007480047FEE7FEE7FEE7FEE7FEE7FEE7AB
:10016000FEE7FEE7FEE7FEE745010008700200201B
:10017000310100082DE9F05F0546002092469B46BC
:1001800088460646814640241DE0284641464746AB
:10019000224600F044F8B0EB0A0052465B4671EB91
:1001A0000B0110D310461946224600F029F82D1AEB
:1001B00067EB01084F4622460120002100F020F89D
:1001C00017EB00094E41201EA4F10104DDDC484676
:1001D00031462A464346BDE8F09F0000064C074DD5
:1001E00006E0E06840F0010394E807009847103407
:1001F000AC42F6D3FFF7A0FF701000089010000883
:10020000202A04DB203A00FA02F1002070479140D6
:10021000C2F1200320FA03F3194390407047202ACB
:1002200004DB203A21FA02F00021704721FA02F3A0
:10023000D040C2F12002914008431946704700297E
:10024000816802D041F0010101E021F001018160EB
:1002500070470029816802D041F4807101E021F4E7
:10026000807181607047014600208968490700D588
:1002700001207047C06C80B2704701460020896839
:10028000090700D50120704730B542680E4B0C7944
:100290001A400B6842EA04221343436082680B4B06
:1002A0004D791A40D1E9024342EA45022343134300
:1002B0008360C26A097C22F47002491EC9B242EA14
:1002C0000151C16230BD0000FFFEF0FFFDF7F1FFFC
:1002D00070B5072509290AD9C468A1F10A0606EBF9
:1002E0004606B540AC43B3401C43C46007E0046914
:1002F00001EB4106B540AC43B3401C4304611F23EE
:10030000072A09D2446B521E02EB820293409C439F
:1003100091400C43446370BD0D2A09D2046BD21F77
:1003200002EB820293409C4391400C43046370BDF6
:10033000C46A0D3A02EB820293409C4391400C4305
:10034000C46270BD816841F0080181607047002976
:10035000816802D041F4A00101E021F4A001816094
:100360007047816841F0040181607047002901688D
:1003700002D041F0010101E021F00101016070476C
:100380000268002122F00102026001604160816088
:10039000C160304B2F49C21A8039984245D018DCD1
:1003A0002D4BA0EB0302984237D00ADC2B4A801871
:1003B0002BD014282DD0282826D1486840F470600E
:1003C00036E0142A2DD0282A1ED1486840F4700047
:1003D0002EE0B2F56C7F32D00ADCB2F5627F29D014
:1003E000B2F5677F10D1D1F8040440F0F00009E0C5
:1003F000B2F5717F28D0B2F5767F05D1D1F804042B
:1004000040F47020C1F804047047486840F00F00C1
:100410000EE0486840F0F0000AE0486840F47040A0
:1004200006E0486840F4702002E0486840F07060E0
:1004300048607047D1F8040440F00F00E2E7D1F8BB
:10044000040440F47060DDE7D1F8040440F4704027
:10045000D8E700008000024044000240F8FFFDBFE2
:1004600070B5036847F6F0729343D1E904460D6A0C
:100470008A6834432A432243D1E906542A4322435B
:10048000D1E909542A4322431A430260CA684260F0
:100490000A6882604968C16070BD704770477047E4
:1004A00070477047704770477047000004490A68FA
:1004B00022F010020A600A6802430A6070470000D6
:1004C00000200240034A116801F038010143116025
:1004D000704700000020024038B50220ADF800004F
:1004E00000208DF8030069460E4800F01FF84FF415
:1004F0000070ADF8000018208DF8030003200A4CAE
:100500008DF802006946204600F010F82015ADF87D
:10051000000004208DF803006946204600F006F82C
:1005200038BD000000100140000801402DE9F041F5
:10053000CA780025D30602F00F0201D58B781A4342
:100540000B884FF00F084FF0010C13F0FF0F1CD079
:10055000D0F800400E880CFA05F31E409E4210D1E0
:10056000AF0008FA07F624EA060602FA07F4344355
:10057000CE78282E02D0482E02D002E0436100E05F
:1005800003616D1C082DE5D304600B88FF2B1DD97A
:100590004468002505F108060CFA06F30E881E4093
:1005A0009E420FD1AF0008FA07F624EA060602FAC7
:1005B00007F43443CE78282E00D14361CE78482EFC
:1005C00000D103616D1C082DE4D34460BDE8F081C7
:1005D000704770477047704700214FF0006000F08F
:1005E00001B80000024A114001430248016070470F
:1005F00080FFFF1F08ED00E070470000034A5168CC
:1006000021F4404101435160704700000010024056
:10061000044A0029516901D0014300E0814351613E
:100620007047000000100240044A0029916901D07F
:10063000014300E0814391617047000000100240D7
:1006400010B500F043F84FF48034204600F0D2F8A3
:1006500000F01AF91C490128487025D1002000F04B
:10066000BFF8002000F0ECF8A01100F0DFF8A010B7
:10067000FFF7C4FF0220FFF725FF1020FFF716FF4A
:100680004FF4E011204600F0EBF8012000F0E2F812
:10069000392000F085F80028FAD0022000F0EAF8AE
:1006A00000F096F80828FBD101210846FFF7B0FFBB
:1006B00001214FF40470FFF7B7FFBDE8104001219E
:1006C00044F20400FFF7B0BF000000200B480168AF
:1006D00041F0010101604168094A1140416001682F
:1006E000084A11400160016821F4802101604268DC
:1006F000002122F4FE024260816070470010024037
:100700000000FFF8FFFFF6FE214A10B553682149AB
:1007100013F00C0303D0042B01D0082B26D001606A
:1007200051681D4B01F0F00109095C5C0168E14072
:100730004160546804F4E064240A1C5D21FA04F466
:100740008460546804F460544FEAD4241B5D21FA99
:1007500003F1C1605268104B02F440424FEA9232FA
:100760001B1F9A5CB1FBF2F1016110BD51680223BD
:1007700001F4701103EB9141536813F4803F02D0F0
:1007800053689B0301D5054B00E0024B5943C6E774
:100790000010024000127A001800002000093D00FD
:1007A0000246002053090949012B0BD0022B0BD024
:1007B000D1F8241002F01F02012393400B4200D015
:1007C000012070470968F5E7096AF3E70010024065
:1007D0000248406800F00C00704700000010024022
:1007E000034A516821F0F001014351607047000055
:1007F000001002400B490A6822F480320A600A683D
:10080000B0F5803F22F480220A6007D0B0F5802F37
:1008100003D1086840F4A02008607047086840F4DD
:100820008030F9E70010024070470000034A516829
:1008300021F4E06101435160704700000010024064
:1008400003494A6822F4605242EAC0004860704797
:100850000010024001490866704700000000424253
:10086000034A5368084323F47C13184350607047CD
:1008700000100240034A516821F003010143516016
:10088000704700000010024030B500244FF4A0650E
:100890003120FFF785FF641C08B9AC42F8D1312044
:1008A000FFF77EFF002800D0012030BD7047704761
:1008B0007047704770477047704770477047704780
:1008C0007047704770477047704730B5038A4FF2E2
:1008D000FF0213400A884D888C88C9882A430C433C
:1008E00022431A43028230BD0029818902D041F49B
:1008F000005101E021F400518181704730B587B08B
:1009000000244FF40070ADF81400114DADF8104004
:10091000ADF81240ADF8164004A92846FFF7D5FF00
:100920004FF4E1300090ADF808400C20ADF80440E1
:10093000ADF80A00ADF80640ADF80C40694628460F
:1009400000F008F801212846FFF7CEFF07B030BDC0
:100950000038014030B50446008A85B00D464CF69B
:10096000FF710840E98801432182A1894EF6F31006
:100970000140A8882A8910436A890A431043A0814C
:10098000A08A4FF6FF410840A9890143A182684629
:10099000FFF7BAFE1148844201D1039800E00298A3
:1009A000642200EBC00101EB001029686FF018030E
:1009B0008900B0FBF1F0B0FBF2F109010D095D43D4
:1009C000322300EB850003EB0010B0FBF2F000F0E7
:1009D0000F000843208105B030BD00000038014001
:1009E000C1F3080181807047704770470FB4054B11
:1009F00010B503A9044A029800F018F810BC5DF87D
:100A000014FB0000A90E00082800002002E008C81E
:100A1000121F08C1002AFAD170477047002001E078
:100A200001C1121F002AFBD1704700002DE9FF4FC2
:100A30008DB005460F460026EEE1252879D1002429
:100A40006D1CF94AA246A14601212B78203B01FAF0
:100A500003F0104202D004436D1CF6E728782A28E0
:100A600010D06FF02F022878A0F13001092915D895
:100A70000AEB8A0102EB410144F0020400EB010A97
:100A80006D1CF0E757F804ABBAF1000F03DA44F439
:100A90000054CAF1000A44F002046D1C28782E2884
:100AA00017D115F8010F44F004042A280ED06FF076
:100AB0002F022878A0F1300109290AD809EB890111
:100AC00002EB410100EB01096D1CF2E757F8049BB2
:100AD0006D1C28786C280FD006DC4C2817D06828AD
:100AE0000DD06A2814D104E0742810D07A280FD1D0
:100AF0000DE044F400140AE044F4801401E044F4EE
:100B000040146978814202D16D1C04F580146D1C7B
:100B100095F800C0BCF16E0F2AD012DCBCF1630F57
:100B20003CD007DCBCF1000F76D0BCF1580F19D1D6
:100B3000ACE018E0BCF1640F6FD0BCF1690F11D1CB
:100B40006BE0BCF1730F32D006DCBCF16F0F71D0DB
:100B5000BCF1700F06D19BE0BCF1750F6BD0BCF1FE
:100B6000780F69D06046DDE90F129047761C52E19C
:100B7000C4F30250022806D003280AD0042801CF6B
:100B80000AD0066047E101CF4FEAE671C0E9006193
:100B900041E101CF06803EE106703CE101CF8DF8D6
:100BA000000000208DF80100EB46012003E057F81B
:100BB00004BB4FF0FF3061074FF0000102D40DE09D
:100BC00008F10101884649450FDA8045F8DB1BF83A
:100BD00008100029F4D108E008F10101884681429B
:100BE000FADB1BF808100029F6D1DDE90F23AAEB88
:100BF00008008146214600F040F9304400EB080629
:100C000004E0DDE90F121BF8010B9047B8F1010871
:100C1000F7D221464846F9E002E10A20C4F3025225
:100C20004FF0000B0890022A07D001CFC117032A0A
:100C300009D00AE035E022E023E0FF1D27F0070796
:100C4000F7E8020105E000B2C117042A01D140B261
:100C5000C117002906DA0023D0EB030063EB010182
:100C60002D2202E0220504D52B228DF8242001221A
:100C700003E0E20701D02022F7E7904653E00A2183
:100C800010E010204FF0000B08900EE0102109E05A
:100C900010214FF0000B44F004044FF008090891B4
:100CA00003E008214FF0000B0891C4F30252022A1E
:100CB00004D001CF0021032A06D007E0FF1D27F052
:100CC0000707F7E8020105E080B20021042A01D1FC
:100CD000C0B200214FF00008220724D5BCF1700FEC
:100CE0002AD0089B83F0100353EA0B0309D150EA82
:100CF000010206D030228DF824208DF825C0022272
:100D00009046089B83F0080353EA0B030BD150EA8B
:100D1000010201D1620706D530228DF824204FF060
:100D20000108A9F1010941A2BCF1580F00D044A269
:100D30000B9208AA0A920FE040228DF8242001228B
:100D4000DEE75B46089AFFF715FA0B9B9B5C0A9A55
:100D5000A2F101020A92137050EA0102F1D10A983D
:100D6000ADEB000000F1200B600702D524F48034C5
:100D700001E04FF00109002049465A46D94501DDFE
:100D8000A1EB020000EB0B0141440890AAEB01002B
:100D90000B90E00306D4DDE90F2321460B9800F009
:100DA0006CF806444FF000090DF1240A07E0DDE974
:100DB0000F121AF809009047761C09F10109C14584
:100DC000F5DBE0030CD5DDE90F2321460B9800F09D
:100DD00054F8064404E0DDE90F1230209047761CF9
:100DE0000899481E08900029F5DC08E00A980A993D
:100DF0000078491C0A91DDE90F129047761CBBF17F
:100E00000001ABF1010BF1DC0B982146DDE90F236A
:100E100000F020F806446D1C287800287FF40DAE01
:100E200011B03046BDE8F08F09280100303132336F
:100E300034353637383941424344454600000000D6
:100E40003031323334353637383961626364656640
:100E5000000000002DE9F0410446002517461E461B
:100E6000880405D406E039462020B04705F1010585
:100E7000641EF8D52846BDE8F0812DE9F04104460E
:100E80000025302790461E46C80300D4202788043A
:100E900005D506E041463846B04705F10105641E18
:100EA000F8D52846BDE8F08110B50446C1B2054822
:100EB000FFF796FD044800BFB0F800180906FBD5FF
:100EC000204610BD0038014000300140FFF7B8FB5C
:100ED000FFF782FBFFF700FBFFF710FD3FA0FFF7D6
:100EE00085FD4C4D2846FFF74BFA4C484A49021DF8
:100EF00001604B490024012792C2A9150461C0E991
:100F000005418900C161202101620902C0E909147B
:100F100001462846FFF7A4FA01212846FFF726FAE2
:100F20003E484FF4602114383B4E0460077147710E
:100F3000C0E90214077401464C3E3046FFF7A4F99D
:100F400001213046FFF785F901213046FFF777F997
:100F50003046FFF7F7F93046FFF78FF90028FAD14E
:100F60003046FFF7FEF93046FFF77DF90028FAD149
:100F700001213046FFF7EBF9294DAD1E20462C61CB
:100F8000401C0528FCD32861E868411CE96025491C
:100F9000884202D3EC602F7002E028780028EDD060
:100FA0002C70052301220B213046FFF791F93046C2
:100FB000FFF760F9014668601BA0FFF717FD0523E6
:100FC00001220A213046FFF783F93046FFF752F934
:100FD0000146A8601DA0FFF709FDCFE70D0A2055C7
:100FE0005341525431207072696E742041445F76CF
:100FF000616C7565202D2D2D2D2D2D2D2D2D2D2D3B
:101000002D2D2D2D2D2D2D2D2D2D2D2D2D2D2D201D
:101010000D0A0000080002404C240140400000205E
:1010200002000020A0BB0D00546865206375727239
:10103000656E74204144322076616C7565203D20D8
:10104000307825303458200D0A000000546865209F
:1010500063757272656E74204144312076616C75DF
:1010600065203D20307825303458200D0A000000DE
:1010700090100008000000202C0000000C0A00085E
:10108000BC1000082C000020440200001C0A0008CC
:101090000000000000000000000000000000000050
:1010A0000000000002040608000000000102030422
:0C10B0000102030406070809000000000C
:0400000508000131BD
:00000001FF
