:020000040800F2
:100000000004002047010008AD020008A902000812
:10001000AB020008990100089905000800000000E3
:10002000000000000000000000000000790300084C
:100030009B01000800000000AF0200081104000846
:1000400067010008670100086701000867010008F0
:1000500067010008670100086701000867010008E0
:1000600067010008670100086701000867010008D0
:1000700067010008670100086701000867010008C0
:1000800067010008670100086701000867010008B0
:1000900067010008670100086701000867010008A0
:1000A0006701000867010008670100086701000890
:1000B0006701000867010008670100086701000880
:1000C0006701000867010008670100086701000870
:1000D0006701000855040008A9040008670100082A
:1000E0006701000867010008670100086701000850
:1000F0006701000867010008670100086701000840
:10010000670100086701000867010008670100082F
:10011000670100086701000867010008670100081F
:10012000670100086701000867010008670100080F
:10013000DFF80CD000F01EF800480047B9050008B1
:10014000E8020020704708488047084981F3088882
:1001500007480047FEE7FEE7FEE7FEE7FEE7FEE7AB
:10016000FEE7FEE7FEE7FEE745010008E8020020A3
:1001700031010008064C074D06E0E06840F001033D
:1001800094E8070098471034AC42F6D3FFF7D4FF49
:100190000407000824070008FEE7704738B501216E
:1001A000480400F085F8012144F27C0000F08CF84E
:1001B0000220ADF8000010208DF8030003208DF818
:1001C000020069460B4800F019F80424ADF800401D
:1001D0001820094D8DF803006946284600F00EF8F6
:1001E0000820ADF800008DF803406946284600F06D
:1001F00005F838BD00180140000801402DE9F04124
:10020000CA780025D30602F00F0201D58B781A4375
:100210000B884FF00F084FF0010C13F0FF0F1CD0AC
:10022000D0F800400E880CFA05F31E409E4210D113
:10023000AF0008FA07F624EA060602FA07F4344388
:10024000CE78282E02D0482E02D002E0436100E092
:1002500003616D1C082DE5D304600B88FF2B1DD9AD
:100260004468002505F108060CFA06F30E881E40C6
:100270009E420FD1AF0008FA07F624EA060602FAFA
:1002800007F43443CE78282E00D14361CE78482E2F
:1002900000D103616D1C082DE4D34460BDE8F081FA
:1002A0004161704701617047FEE7FEE770477047A4
:1002B000044A0029D16901D0014300E08143D161A2
:1002C0007047000000100240044A0029916901D0E3
:1002D000014300E08143916170470000001002403B
:1002E000214A10B55368214913F00C0303D0042BA5
:1002F00001D0082B26D0016051681D4B01F0F001A0
:1003000009095C5C0168E1404160546804F4E06400
:10031000240A1C5D21FA04F48460546804F46054D7
:100320004FEAD4241B5D21FA03F1C1605268104BDF
:1003300002F440424FEA92321B1F9A5CB1FBF2F189
:10034000016110BD5168022301F4701103EB91416A
:10035000536813F4803F02D053689B0301D5054BCB
:1003600000E0024B5943C6E70010024000127A0039
:10037000D600002000093D007047000022480021FF
:10038000026842F4803202604FF4A0630268491CA4
:1003900012F4003F01D19942F8D10168890331D5A7
:1003A0001A490A6842F010020A600A6822F0030241
:1003B0000A600A6842F002020A60416841604168CE
:1003C0004160416841F480614160416821F47C11E1
:1003D0004160416841F4E8114160016841F0807179
:1003E000016001688901FCD5416821F00301416089
:1003F000416841F0020141604168C1F38101022975
:10040000FAD17047FEE700000010024000200240D1
:10041000704700000C48016841F00101016041682B
:100420000A4A114041600168094A114001600168AF
:1004300021F480210160416821F4FE014160002126
:100440008160FFF79BBF0000001002400000FFF832
:10045000FFFFF6FE704700001FB54FF4E13000903B
:100460000020ADF80400ADF80600ADF80800ADF8C6
:100470000C000C200B4CADF80A006946204600F039
:100480003DF8012240F22551204600F01FF80122DC
:1004900040F22771204600F019F80121204600F0B3
:1004A00004F81FBD0044004070470029818902D034
:1004B00041F4005101E021F400518181704702466E
:1004C000002012880A4200D00120704710B5C1F305
:1004D000421301F01F040121A140012B07D0022B80
:1004E00007D01430002A026805D00A4304E00C301B
:1004F000F8E71030F6E78A43026010BD30B50446D5
:10050000008A85B00D464CF6FF710840E98801432A
:100510002182A1894EF6F3100140A8882A89104350
:100520006A890A431043A081A08A4FF6FF41084020
:10053000A9890143A1826846FFF7D2FE114884428F
:1005400001D1039800E00298642200EBC00101EBA6
:10055000001029686FF018038900B0FBF1F0B0FBC0
:10056000F2F109010D095D43322300EB850003EB35
:100570000010B0FBF2F000F00F000843208105B03E
:1005800030BD0000003801408088C0F3080070478B
:10059000C1F3080181807047FEE702E008C8121F1E
:1005A00008C1002AFAD170477047002001E001C15C
:1005B000121F002AFBD17047FFF72CFFFFF7EEFD5B
:1005C000FFF74AFF00254B4E4B4C09E02046FFF752
:1005D000DFFF40212046FFF772FF0028F9D06D1C95
:1005E000715D0029F2D1434D00260A3509E020460D
:1005F000FFF7CEFF40212046FFF761FF0028F9D02A
:10060000761CA95D0029F2D13A4E0027A03609E0F8
:100610002046FFF7BDFF40212046FFF750FF00288E
:10062000F9D07F1CF15D0029F2D1DFF8C8800027E6
:1006300008F13C0809E02046FFF7AAFF40212046C8
:10064000FFF73DFF0028F9D07F1C18F8071000299C
:10065000F1D1002709E02046FFF79AFF402120460C
:10066000FFF72DFF0028F9D07F1CF15D0029F2D1A2
:10067000002609E02046FFF78BFF40212046FFF7C8
:100680001EFF0028F9D0761CA95D0029F2D1194F70
:1006900000256E37194E09E02046FFF779FF40210B
:1006A0002046FFF70CFF0028F9D06D1C795D00296A
:1006B000F2D1134F254602213046FFF7F3FD2021EA
:1006C0002846FFF7FCFE0128F5D12846FFF75CFF1E
:1006D00001462846FFF75CFF40212846FFF7EFFE62
:1006E0000028F9D002213046FFF7DAFD3C46641EAF
:1006F000FDD1E0E700000020004400400018014068
:10070000FFFF0F002407000800000020E8000000A1
:100710009A0500080C080008E8000020000200000C
:10072000AA050008200D0A00000000000000202A91
:100730002A2A2A2A2A2A2A2A2A2A2A2A2A2A2A2A19
:100740002A2A2A2A2A2A2A2A2A2A2A2A2A2A2A2A09
:100750002A2A2A2A2A2A2A2A2A0D0A000000000008
:10076000202A2020202020B8D0D0BBC4FACAB9D378
:10077000C3CBB6D2AB48592D53544D3332BFAAB771
:10078000A2B0E5A3A15E5F5E20202A0D0A00000052
:1007900000000D0A20506C6561736520696E7075EC
:1007A0007420616E7920776F7264203A0D0A200000
:1007B0000000000000000000000000000000000039
:1007C00000000000202A202020202020202020209F
:1007D0002020202020202020202020202020202019
:1007E00020202020202020202020202020202A0D12
:1007F0000A000000000002040608000000000102D8
:0C080000030401020304060708090000BD
:0400000508000131BD
:00000001FF
