:020000040800F2
:100000000004002047010008B5020008B102000802
:10001000B3020008990100081B0700080000000057
:10002000000000000000000000000000350400088F
:100030009B010008000000004D030008CD040008EB
:1000400067010008670100086701000867010008F0
:1000500067010008670100086701000867010008E0
:1000600067010008670100086701000867010008D0
:1000700067010008670100086701000867010008C0
:1000800067010008670100086701000867010008B0
:1000900067010008670100086701000867010008A0
:1000A0006701000867010008670100086701000890
:1000B0006701000867010008670100086701000880
:1000C0006701000867010008670100086701000870
:1000D0006701000811050008BD0500086701000858
:1000E0006701000867010008670100086701000850
:1000F0006701000867010008670100086701000840
:10010000670100086701000867010008670100082F
:10011000670100086701000867010008670100081F
:10012000670100086701000867010008670100080F
:10013000DFF80CD000F01EF8004800473D0700082B
:1001400088020020704708488047084981F30888E2
:1001500007480047FEE7FEE7FEE7FEE7FEE7FEE7AB
:10016000FEE7FEE7FEE7FEE7450100088802002003
:1001700031010008064C074D06E0E06840F001033D
:1001800094E8070098471034AC42F6D3FFF7D4FF49
:10019000D0070008F0070008FEE7704770B501219E
:1001A00044F27C0000F0E0F8124CC0202146208090
:1001B0001020E0700320A0700F4800F023F84FF4E7
:1001C0000150208021460D4800F01CF84FF40070CB
:1001D000208018200A4DE0702146284600F012F8D1
:1001E000281520800420E07021462846BDE8704094
:1001F00000F008B802000020001001400014014087
:10020000000801402DE9F041CA780025D30602F02C
:100210000F0201D58B781A430B884FF00F084FF06F
:10022000010C13F0FF0F1CD0D0F800400E880CFA20
:1002300005F31E409E4210D1AF0008FA07F624EAEB
:10024000060602FA07F43443CE78282E02D0482E50
:1002500002D002E0436100E003616D1C082DE5D38C
:1002600004600B88FF2B1DD94468002505F10806A2
:100270000CFA06F30E881E409E420FD1AF0008FA1A
:1002800007F624EA060602FA07F43443CE78282E4D
:1002900000D14361CE78482E00D103616D1C082D3A
:1002A000E4D34460BDE8F08141617047016170476B
:1002B000FEE7FEE7704708B54FF4E06000F03CF859
:1002C00025208DF8000000208DF8020001208DF817
:1002D0000300684600F001F808BDF0B50F22C578AC
:1002E00003784FF0E0210124E5B1D1F80C5D4678A8
:1002F00005F4E065C5F5E0652D0AC5F10407EA409F
:100300008578BE40154035430B442A0183F800240C
:100310000078420900F01F00844001EB8200C0F821
:100320000041F0BD03F01F008440580901EB80003C
:10033000C0F88041F0BD000002490843024908604E
:10034000704700000000FA050CED00E07047000067
:10035000044A0029D16901D0014300E08143D16101
:100360007047000000100240044A0029916901D042
:10037000014300E08143916170470000001002409A
:1003800010B500F0A5F8012144F22500FFF7ECFFBD
:100390000121BDE810404804FFF7DABF214A10B53B
:1003A0005368214913F00C0303D0042B01D0082B10
:1003B00026D0016051681D4B01F0F00109095C5C19
:1003C0000168E1404160546804F4E064240A1C5D63
:1003D00021FA04F48460546804F460544FEAD4248D
:1003E0001B5D21FA03F1C1605268104B02F44042D8
:1003F0004FEA92321B1F9A5CB1FBF2F1016110BD12
:100400005168022301F4701103EB9141536813F416
:10041000803F02D053689B0301D5054B00E0024B9F
:100420005943C6E70010024000127A003B0000204A
:1004300000093D007047000022480021026842F494
:10044000803202604FF4A0630268491C12F4003F3E
:1004500001D19942F8D10168890331D51A490A6856
:1004600042F010020A600A6822F003020A600A6879
:1004700042F002020A60416841604168416041689F
:1004800041F480614160416821F47C114160416820
:1004900041F4E8114160016841F080710160016838
:1004A0008901FCD5416821F003014160416841F0B8
:1004B000020141604168C1F381010229FAD170470C
:1004C000FEE70000001002400020024070470000DC
:1004D0000C48016841F00101016041680A4A11407D
:1004E00041600168094A11400160016821F48021DE
:1004F0000160416821F4FE01416000218160FFF745
:100500009BBF0000001002400000FFF8FFFFF6FE56
:100510002DE9F041214E40F22551304600F060F8BF
:100520001F4CE0B1304600F0F0F81E4A014610784A
:100530001D4B1D18401C1070297010781B4909783C
:1005400088420CD1002102E0585C6054491C1078AC
:100550008142F9D31649012008700020107040F242
:1005600027773946304600F03BF8002814D0114D6B
:1005700028782118401C28700978304600F0C9F806
:1005800028780D490978884206D139463046BDE8B9
:10059000F041002200F043B8BDE8F081003801408E
:1005A00006000020340000205C00002036000020FF
:1005B0000000002033000020350000207047002993
:1005C000818902D041F4005101E021F40051818180
:1005D00070470246002012880A4200D0012070476E
:1005E00070B501F01F0601220025C1F3421302FA83
:1005F00006F4012B0FD0022B0FD0838A4FEA112172
:100600000088234202FA01F200EA020001D000B1A0
:100610000125284670BD8389F0E7038AEEE710B50F
:10062000C1F3421301F01F040121A140012B07D0A7
:10063000022B07D01430002A026805D00A4304E0D8
:100640000C30F8E71030F6E78A43026010BD000076
:1006500030B50446008A85B00D464CF6FF7108405F
:10066000E98801432182A1894EF6F3100140A88850
:100670002A8910436A890A431043A081A08A4FF651
:10068000FF410840A9890143A1826846FFF786FE21
:100690001148844201D1039800E00298642200EBE3
:1006A000C00101EB001029686FF018038900B0FB4E
:1006B000F1F0B0FBF2F109010D095D43322300EBCB
:1006C000850003EB0010B0FBF2F000F00F000843D0
:1006D000208105B030BD0000003801402DE9F04117
:1006E00007460E46154600240BE0315D384600F003
:1006F00010F840213846FFF76CFF0028F9D0641C41
:10070000A4B2AC42F1D3BDE8F0818088C0F3080008
:100710007047C1F3080181807047FEE702E008C816
:10072000121F08C1002AFAD170477047002001E06B
:1007300001C1121F002AFBD1704700000025FFF7FE
:100740001FFEFFF7B8FDFFF729FD1D484FF4E1310B
:10075000002401608480C480048184810C21418153
:10076000184E01463046FFF773FF012240F2255133
:100770003046FFF754FF012240F227713046FFF761
:100780004EFF01213046FFF71AFF37460E4EDFF8C5
:100790003C8030780128FCD10B4934702C22891D13
:1007A0003846FFF79BFF4FF0800140461DB1FFF731
:1007B0007BFD0025EDE7FFF779FD0125E9E7000066
:1007C0004C000020003801400000002000100140D3
:1007D000F0070008000000204C0000001C07000883
:1007E0003C0800084C0000203C0200002C070008D8
:1007F000000000000000555341525420496E7465BA
:100800007272757074204578616D706C653A205411
:10081000686973206973205553415254312044450F
:100820004D4F0000002C2C020406080000000001BF
:0C0830000203040102030406070809008B
:0400000508000131BD
:00000001FF
