:020000040800F2
:1000000000040020470100080708000865040008F4
:1000100005080008990100081909000800000000FF
:100020000000000000000000000000003D08000883
:100030009B0100080000000009080008D50800081E
:1000400067010008670100086701000867010008F0
:1000500067010008670100086701000867010008E0
:1000600067010008670100086701000867010008D0
:1000700067010008670100086701000867010008C0
:1000800067010008670100086701000867010008B0
:1000900067010008670100086701000867010008A0
:1000A0006701000867010008670100086701000890
:1000B0006701000867010008670100086701000880
:1000C0006701000867010008670100086701000870
:1000D0006701000867010008670100086701000860
:1000E0006701000867010008670100086701000850
:1000F0006701000867010008670100086701000840
:10010000670100086701000867010008670100082F
:10011000670100086701000867010008670100081F
:10012000670100086701000867010008670100080F
:10013000DFF80CD000F01EF800480047390C00082A
:1001400008020020704708488047084981F3088862
:1001500007480047FEE7FEE7FEE7FEE7FEE7FEE7AB
:10016000FEE7FEE7FEE7FEE7450100080802002083
:1001700031010008064C074D06E0E06840F001033D
:1001800094E8070098471034AC42F6D3FFF7D4FF49
:10019000546C0208746C0208FEE7704700E0401ED1
:1001A0000028FCD1704700B597B002200F900020C6
:1001B0000521CDE910014FF08051CDE914011290D5
:1001C000139008210090CDE901011021CDE9031021
:1001D000059009020690CDE9070109900A900C905C
:1001E0000FA80D900E90684600F016F8012100202F
:1001F00000F002F817B000BD4FF0204202EB800083
:100200000029016802D041F0010101E0014A1140DA
:1002100001607047FEFF0F00F0B5D0E90324D0E97C
:100220000113224319431143D0E905321943114305
:10023000D0E9073219431143D0E909321943114378
:10024000036B04684FF02042194342F82410816880
:10025000082906D1016802EB81010B6843F04003D5
:100260000B60416BD1E901431D020B68D1E90367C3
:1002700043EA041345EA06452B43D1E9054543EA21
:10028000075343EA04610368294302EB830359607F
:10029000816AB1F5804F07D000686FF0704102EBC2
:1002A0008000C0F80411F0BD816BD1E901431D024B
:1002B0000B68D1E9046743EA041345EA0654006871
:1002C0008969234343EA076302EB80000B43C0F8CC
:1002D0000431F0BDF8B501217C2000F0A3FA4020E4
:1002E000ADF8000010208DF8030003248DF80240C3
:1002F00069462E4800F060F842F248002C4DADF8F7
:1003000000006946284600F057F80120294EADF854
:1003100000006946304600F04FF80220ADF80000BA
:100320006946304600F048F84CF23370ADF80000F2
:100330008DF8024018208DF803006946284600F029
:100340003BF84FF68070ADF800006946304600F08B
:1003500033F88020ADF800006946284600F02CF8FC
:10036000E814ADF800006946284600F025F8802121
:10037000284600F075F84CF20301284600F070F8AA
:100380004FF4F061304600F06BF80121304600F088
:1003900065F80221304600F061F81021284600F08F
:1003A0005FF82021284600F05BF8F8BD00100140FE
:1003B00000140140001801402DE9F041CA780025E1
:1003C000D30602F00F0201D58B781A430B884FF049
:1003D0000F084FF0010C13F0FF0F1CD0D0F80040B5
:1003E0000E880CFA05F31E409E4210D1AF0008FAA9
:1003F00007F624EA060602FA07F43443CE78282EDC
:1004000002D0482E02D002E0436100E003616D1C7F
:10041000082DE5D304600B88FF2B1DD94468002507
:1004200005F108060CFA06F30E881E409E420FD115
:10043000AF0008FA07F624EA060602FA07F4344386
:10044000CE78282E00D14361CE78482E00D10361AA
:100450006D1C082DE4D34460BDE8F0814161704714
:1004600001617047FEE7000070B500F065FAC82032
:10047000FFF794FE41F21401E72000F0E9F80021B3
:10048000012000F0E5F84FF40071022000F0E0F8E0
:1004900041F21801032000F0DBF840F202210820AD
:1004A00000F0D6F80021092000F0D2F800210A203F
:1004B00000F0CEF800210C2000F0CAF800210D2039
:1004C00000F0C6F800210F2000F0C2F80021102033
:1004D00000F0BEF80721112000F0BAF80021122028
:1004E00000F0B6F80021132000F0B2F84AF6FF74CD
:1004F0002046FFF753FE41F29061102000F0A8F86B
:1005000040F22721112000F0A3F82046FFF746FE15
:100510000C21122000F09CF82046FFF73FFE4FF41C
:100520000061132000F094F81121292000F090F8C8
:100530000B212B2000F08CF82046FFF72FFE002126
:10054000202000F085F840F23F131946212000F0EA
:100550007FF80021302000F07BF84FF483742146AF
:10056000312000F075F80021322000F071F84FF4CE
:100570000171352000F06CF841F20A61362000F07C
:1005800067F840F207752946372000F061F82146E8
:10059000382000F05DF82946392000F059F840F283
:1005A00002413C2000F054F840F60F413D2000F09D
:1005B0004FF80021502000F04BF8EF21512000F0BF
:1005C00047F80021522000F043F81946532000F06C
:1005D0003FF84FF42741602000F03AF801216120F4
:1005E00000F036F800216A2000F032F80021802067
:1005F00000F02EF80021812000F02AF8002182204E
:1006000000F026F80021832000F022F80021842049
:1006100000F01EF80021852000F01AF8102190202B
:1006200000F016F84FF4C061922000F011F840F28B
:100630003311072000F00CF801490020086070BD5C
:1006400000000020014800887047000000000260A0
:100650004FF0C042108001480180704700000260E6
:100660002DE9FF41002341F218010320FFF7F0FFBD
:1006700000215020FFF7ECFFEF215120FFF7E8FFAA
:1006800000215220FFF7E4FF40F23F152946532096
:10069000FFF7DEFF00212020FFF7DAFF00212120F5
:1006A000FFF7D6FF4FF0C041222008804F48504A44
:1006B0004FF41634C118C65C497801EB062111804D
:1006C0009B1CA342F6D34B48FFF768FD4B4C4A4BAB
:1006D000012240F2663021688DE80F0000212B4690
:1006E000EF22084600F03EF9206842F21075B0FB98
:1006F000F5F000F0E9FA03460022602021688DE859
:100700000F003D2317221E21002000F02BF9206846
:100710004FF47A76B0FBF5F105FB1100B0FBF6F073
:1007200000F0D2FA03460022602021688DE80F0015
:100730003D232F221E21182000F014F92068642781
:10074000B0FBF5F105FB1100B0FBF6F106FB110063
:10075000B0FBF7F000F0B8FA0346002260202168F1
:100760008DE80F003D2347221E21302000F0FAF8CB
:100770002068B0FBF5F105FB1100B0FBF6F106FBBC
:100780001100B0FBF7F107FB11000A25B0FBF5F0F3
:1007900000F09AFA03460022602021688DE80F00DD
:1007A0003D235F221E21482000F0DCF82068B0FBCA
:1007B000F5F105FB110000F087FA034600226020E6
:1007C00021688DE80F003D2377221E2100F0CAF832
:1007D0002068401C2060B0F5803F01D100202060DF
:1007E00004B00748BDE8F041FFF7D8BC5214000838
:1007F00000000260FFFFAF00EC10000800000020C6
:10080000FFFF0A00FEE7704770470000044A002916
:10081000516901D0014300E08143516170470000FC
:1008200000100240044A0029916901D0014300E010
:100830008143916170470000001002407047000042
:1008400022480021026842F4803202604FF4A06323
:100850000268491C12F4003F01D19942F8D10168A5
:10086000890331D51A490A6842F010020A600A6801
:1008700022F003020A600A6842F002020A6041683C
:10088000416041684160416841F480614160416874
:1008900021F47C114160416841F4E8114160016834
:1008A00041F08071016001688901FCD5416821F047
:1008B00003014160416841F0020141604168C1F3B8
:1008C00081010229FAD17047FEE7000000100240C2
:1008D00000200240704700000C48016841F001010F
:1008E000016041680A4A114041600168094A1140AB
:1008F0000160016821F480210160416821F4FE015A
:10090000416000218160FFF79BBF000000100240A2
:100910000000FFF8FFFFF6FEFEE702E008C8121F26
:1009200008C1002AFAD170477047002001E001C1D8
:10093000121F002AFBD1704770B5084E02213046C5
:10094000FFF78CFD064D2C46641EFDD1022130467A
:10095000FFF786FD6D1EFDD170BD0000001801403F
:10096000FFFF0A002DE9FF4F83B00026DDE9124B9F
:1009700080468A46009634B1012C07D0022C08D05C
:10098000032C09D00DE041F2300107E041F21801DB
:1009900004E041F2100101E041F228010320FFF7D9
:1009A00057FEC820FFF7FAFB3DE100BF05994FEA6B
:1009B000C600A1EB080101F10101B0FBF1F501FB5B
:1009C00015099BF800704FF00003380672D534B15A
:1009D000012C19D0022C2AD0032C42D063E008EB62
:1009E00009001844014601905020FFF731FE0AEB40
:1009F0000500014602905220FFF72AFE512001997E
:100A0000FFF726FE029943E00AEB0500014601903C
:100A10005020FFF71DFE41465220FFF719FE5120DE
:100A20000199FFF715FE08EB0900184413E0414651
:100A30005020FFF70DFE51465220FFF709FE08EB4C
:100A400009001844C0F1EF00014601905120FFF762
:100A5000FFFD0AEB0500A0F23F1040420146029064
:100A600016E00AEB0500C0F1EF00014601905020AE
:100A7000FFF7EEFD08EB09001844014602905220F2
:100A8000FFF7E6FD51200199FFF7E2FD40F23F112B
:100A90005320FFF7DDFD20200199FFF7D9FD21202C
:100AA0000299FFF7D5FD4FF0C04122200880119830
:100AB000AEE0FFE734B1012C19D0022C48D0032C52
:100AC00070D0A0E008EB09001844014601905020C6
:100AD000FFF7BEFD0AEB0500014602905220FFF72A
:100AE000B7FD51200199FFF7B3FD029916E00AEB1B
:100AF0000500014601905020FFF7AAFD4146522013
:100B0000FFF7A6FD51200199FFF7A2FD08EB0900B0
:100B10001844A0F23F104042014602905320FFF7D4
:100B200097FD20200199FFF793FD21200299FFF7FF
:100B30008FFD4FF0C0412220A1F80000FFF782FD99
:100B4000009020200199FFF783FD2120029958E0B1
:100B500041465020FFF77CFD51465220FFF778FDBB
:100B600008EB09001844C0F1EF0001460190512044
:100B7000FFF76EFD0AEB0500A0F23F104042014670
:100B800002905320FFF764FD20200199FFF760FDDC
:100B900021200299FFF75CFD4FF0C0402221018027
:100BA000CCE7FFE70AEB0500C0F1EF00014601903A
:100BB0005020FFF74DFD08EB090018440146029054
:100BC0005220FFF745FD51200199FFF741FD40F20A
:100BD0003F115320FFF73CFD20200199FFF738FD1E
:100BE00021200299FFF734FD4FF0C04122200880F8
:100BF000FFF728FD009050200199FFF729FD5220B2
:100C00000299FFF725FD4FF0C0412220088000988F
:100C1000084908807806070E5B1C082BFFF4D5AE48
:100C20000BF1010B761C10988642FFF4BFAE07B0A3
:100C3000BDE8F08F00000260FFF74EFE01210802C0
:100C4000FFF7E4FDFFF746FBFFF7ADFAFFF70CFCFB
:100C50001A4DDFF86C801B4E6F1400BFFFF700FDCC
:100C600040212846FFF7FCFB44464046401EFDD18C
:100C700080212846FFF7F4FB40212846FFF7EEFBD2
:100C80002046401EFDD139463046FFF7E9FB802162
:100C90002846FFF7E3FB2046401EFDD140213046A9
:100CA000FFF7DEFB39463046FFF7D8FB641EFDD167
:100CB00040213046FFF7D2FBD0E700000010014092
:100CC000FFFF0A00001401400A2818D2DFE800F0F4
:100CD000170507090B0D0F1113150A4870470A482D
:100CE00070470A4870470A4870470A4870470A48E0
:100CF00070470A4870470A4870470A4870470A48D0
:100D0000704700008C0D0008EC0D00084C0E000828
:100D1000AC0E00080C0F00086C0F0008CC0F000888
:100D20002C1000088C1000082C0D000800FF000398
:100D3000FFC007FFE00FC3F00F81F01F00F81F0096
:100D4000F83E007C3E007C3E007C7C003E7C003E09
:100D50007C003E7C003E7C003E7C003E7C003E7C75
:100D6000003E7C003E7C003E7C003E3C003C3E0061
:100D70007C3E007C3E007C1F00F81F00F80F81F0D5
:100D80000FC3F007FFE003FFC000FF00000E0000EC
:100D90001E00001E00003E0000FE000FFE000FFEC1
:100DA00000003E00003E00003E00003E00003E000D
:100DB000003E00003E00003E00003E00003E0000FD
:100DC0003E00003E00003E00003E00003E00003EAF
:100DD00000003E00003E00003E00003E00003E00DD
:100DE000003E00003E00003E00003E0000FF000309
:100DF000FFC007FFE00FC3F01F81F01F01F01F00CD
:100E0000F83E00F83E00F83E00F83E00F80000F81A
:100E10000001F00001F00003F00007E0000FC00047
:100E20001F80007F0000FE0001FC0003F80007E0C7
:100E3000000FC0000F80001F00003F00003E0000B8
:100E40007C00007FFFFC7FFFFC7FFFFC007F000138
:100E5000FFC003FFE007E3F00FC1F00F80F80F8041
:100E6000F81F00F81F00F81F00F80000F80001F05C
:100E70000001F00007E0003FC0003F80003FE000BD
:100E800003F00001F80000F800007C00007C3E0048
:100E90007C3E007C3E007C3E007C1F00F81F80F8FA
:100EA0000FC3F007FFE003FFC000FF000007E000F2
:100EB00007E0000FE0001FE0001FE0003FE0003F00
:100EC000E0007BE000FBE000F3E001F3E003E3E09F
:100ED00003C3E007C3E00F83E00F03E01F03E01E3E
:100EE00003E03C03E07C03E07FFFFE7FFFFE7FFF2B
:100EF000FE0003E00003E00003E00003E00003E085
:100F00000003E00003E00003E00003E00FFFF80F40
:100F1000FFF80FFFF80F00000F00000F00000F0098
:100F2000000F00001E00001E00001E7F001FFFC0FB
:100F30001FFFE01FC3F01F81F81F00F81E00FC0018
:100F4000007C00007C00007C00007C00007C000035
:100F50007C3E007C3E007C3E00F81F00F81F00F83D
:100F60001F81F00FC3E007FFE003FF80003F800018
:100F7000FFE003FFF007E1F807C0F80F80FC0F80E7
:100F80007C1F007C1F00001F00001E00003E3F80F1
:100F90003EFFC03FFFE03FC3F03F81F83F00F83F16
:100FA00000FC3E007C3E007C3E007C3E007C3E001F
:100FB0007C1E007C1F007C1F00F80F00F80F81F8DA
:100FC00007E3F003FFE001FFC0007F001FFFFC1FED
:100FD000FFFC1FFFFC00007C00007C0000F800000C
:100FE000F80000F80001F00001F00001F00003E05B
:100FF0000003E00003E00007C00007C00007C000D6
:101000000FC0000F80000F80001F80001F00001F16
:1010100000001F00003E00003E00003E00007C007B
:10102000007C00007C0000F80000F800007F000158
:10103000FFC003FFE007E3F00F80F80F80F81F0008
:101040007C1F007C1F007C1F007C1F007C1F80FC1D
:101050000F80F807E3F003FFE000FF8007FFF00FC9
:10106000C1F81F80FC1F007C3E003E3E003E3E005B
:101070003E3E003E3E003E3E003E1F007C1F80FC88
:101080000FC1F807FFF003FFE000FF8000FE000340
:10109000FF8007FFC00FC7E01F81F01F00F03E0078
:1010A000F83E00783E00783E007C3E007C3E007CAE
:1010B0003E007C3E007C1F00FC1F01FC0FC3FC0FA8
:1010C000FFFC03FF7C01FC7C00007C00007800003A
:1010D000F80000F83E00F83E01F03F01F01F03E089
:1010E0001F87C00FFFC007FF0001FC0000001E00AB
:1010F0000000000000000000000000000038003C7C
:101100000000000000000000000000001F8000033D
:10111000FFE0000008000037FFFE007C03FF000036
:1011200001C000000FFF000000001F80003FFFF81B
:1011300000001E00003FFFFF007FCFFF800203F092
:101140000033FFFFC0000040FFFC007FFFFE0000F7
:101150001F00003FFFFF80FFE7FFC03E03F001FFDD
:10116000FFFFC000003FFFFF007FFFFF00003F8048
:10117000003FFFFF80FFF7FFC03E03E001FFFFFFDE
:10118000E000007FFFFF807F807F00007F00007E07
:10119000001F80FFF7F3E03F07FF81FFFF8FE000B4
:1011A000007FFFFFC0FE001F8000FE00007C001FCC
:1011B00081F1F9F3E01FF7FFE1FFF007E00000FF26
:1011C000FFFFC0FBFF0F8000FE00007C001F81F1CD
:1011D000F1F3E1FFF7FFE0F9F807E00000FFBF0FD0
:1011E000E0FBFFCFC001FC00007FFFFF80FFE1E3D9
:1011F000C1FFF7FFE0FBE007C00000FC3F07E0FB9A
:10120000FFC7C003F800007FFFFF81FFF3E7C1FFC6
:10121000FFFFE0FBE7FFC00001F87F07E0FBFFC72F
:10122000C003F80000FFFFFF01FFF9E7C1FFFF80E7
:1012300020C7FFFFC00001F87E07E1F87C47C00728
:10124000F00000FFFFFE01FFFB0080FF0F80003F6A
:10125000FFFE000001F87E07E1F07C07C00FE00010
:1012600000F83FE001FFFBDF003E0F87003FFFFF7C
:10127000000001F87E07E1F3FFC3E00FE00000F893
:1012800003C001EF7BDF003E1F8FC03FFFFF000068
:1012900001F87E07E1F3FFC3E01FF80000F803FF49
:1012A00081FFFFFFE07FE08F803FC3E0000001F897
:1012B0007E07E1F3FFE3E03FFF0000FFFFFF81FF58
:1012C000FFFFE07FF01F8027C3E7000001FC7E0FD7
:1012D000E1F3FFF3E03FFFE000FFFFFF81FFFFFFCF
:1012E000E0FFF01F8007E3FF000001FFFE3FC1F0B9
:1012F0003CFBE07FFFFC00FFFFFF81FFFFFFE0FF03
:10130000F81F0007FFFF800000FFFFFFC1F03E7FD6
:10131000E07FFFFF00FFFFFF81EF7F3E00F8FBFF54
:101320000007FFFF800000FFFFFF81F7FFF3E0FEF3
:101330003FFFC0FF81F001EFF93E01F0FBFFC0036A
:10134000FFFF8000007FFFFF81FBFFE3E1FC07FF61
:10135000F0F801F801FFF83FE1F0FFFFE001FFF0D6
:101360000000001FFFFE01FBFFC7E1FC00FFE0F8EB
:1013700000FC01FFFFFFE1F1F7FFE00003E04000A8
:101380000003FFF800FFFC07C3F8001FE0F808FEA9
:1013900001FF7BFFE3E1F7FFE00007FFE000000053
:1013A000FC0000FE001FC3F80007C0FFF87F81FFAC
:1013B0007BFFE1E3F07FE07FFFFFE0000000FC0047
:1013C000007FFFFFC0F00000C0FFF83FE0FFFBFF21
:1013D000F023E0FC407FFFFFE0000000FC00003F46
:1013E000FFFF80700000007FFC1FC0FFF83E000779
:1013F000E0F8007FFFFFE0000000FC00001FFFFEA0
:1014000000200000007FFC0FC0FFF03E0003C0F88A
:10141000007FFFF000000000FC000007FFF8000064
:101420000000001FE00780F0F03E0000C178007867
:1014300003E00000000000000000FF0000000000CA
:10144000000000008000000200000000000003E037
:10145000000094B494B494B4949494949494949414
:1014600094948C94949494B494B494B594D594D561
:1014700094D59CF59CD594D59CD59CF59CF6A51649
:10148000A536A536A536A557AD77AD77AD77AD773F
:10149000AD57AD77AD77AD77AD77AD77AD77AD982B
:1014A000AD98AD98B5B8B5B8BDD9BDF9BE19BE1ADD
:1014B000BE1ABDF9BDF9BDF9BDF9BDF9BDF9BDF95A
:1014C000BDF9BDD9B5D9B5D9B5D9B5D9BDD9BDF94C
:1014D000BDF9C63AC63AC65BCE7BCE7BCE7BCE7B11
:1014E000CE5BCE5BC65BC65AC63AC63ABE1ABDF9DB
:1014F000BDD9B5B8B5B8AD98AD77AD77AD77AD77A7
:10150000AD77AD77AD77AD77AD57A557A557A55753
:10151000A557A557A557A537A536A536A536A516AF
:10152000A516A536A536A536A536A516A516A51663
:10153000A5169D169D169D169D169D16A516A536DB
:10154000A536AD57AD77AD77AD77AD77AD77AD77E4
:10155000AD77A557A556A536A536A536A536A53629
:10156000A536A537A557AD57AD77AD57A557A536C5
:10157000A5169D169D169CF69CF59CF59CF59CF574
:101580009CF69CD59CF59CF59CF59CF59CF59CF5F2
:101590009D16A556A577ADB8B5D8B5F9B619BE193B
:1015A000BE3AC65AC65ABE3ABE1ABE19BE19BE1AAD
:1015B000BE1ABE1ABE1ABE1ABDF9B5F9B5D9B5D84C
:1015C000ADB8B5B8B5B8ADB8ADB8ADB8ADB8ADB8E3
:1015D000ADB8B5B8B5B8B5B8B5B8B5B8B5B8B5B8AB
:1015E000B5B8B5B8B5B8B5D8B5D8B5D8B5D8B5D8F3
:1015F000B5D8B5D9B5D9B5B8ADB8ADB8ADB8ADB841
:10160000ADB8A597A597A577A577A577A577A57771
:10161000A577A557A557A5379D369D169D169CF60F
:101620009CF69CF59CF59CF59CF59CF59D169D16ED
:101630009D169D16A516A536A537A557A557A557DE
:10164000A557A557A537A537A5379D169D169CF616
:101650009CF694D594D58CB48CB48CB48CB48CB4E6
:101660008C948CB48C9384737C327C1173F16BB04A
:101670006B8F6B4E630D5ACC526B4A2A420939C8A4
:10168000318739864A075AAA6B4D7BD08C5294B465
:101690009CF59D36A557AD77A577A557A5579D36DF
:1016A0009D169CF59CF59D16A536AD77B598B5B9F8
:1016B000BDD9BDFABE1AC61AC63AC63BC65BC65BE2
:1016C000C65BBE3ABE3ABE1ABDF9B5F9B5F9B5D991
:1016D000B5D994B494B494B4949494949494949404
:1016E00094948C94949494B494B494B594D594D5DF
:1016F00094D59CF59CD59CD59CD59CF59CF59D16C8
:101700009D16A536A536A557AD57AD77AD77AD7704
:10171000AD77AD77AD77AD77AD77AD97AD98AD9847
:10172000B598B598B5B8B5B8BDD9BDF9BDF9BE196C
:10173000BE19BDF9BDF9BDF9BDF9BDF9BDF9BDF9D8
:10174000BDF9BDD9B5D9B5D9B5D9B5D9BDF9BDF9A9
:10175000BE19C63AC63AC65BCE7BCE7BCE7BCE7B6D
:10176000CE5BC65BC65AC63AC63AC61ABE19BDF9A2
:10177000B5D9B5B8B598AD98AD77AD77AD77AD774C
:10178000AD77AD77AD77AD77AD57A557A557A557D1
:10179000A557A557A557A537A536A536A536A5162D
:1017A000A516A536A536A536A536A516A516A516E1
:1017B000A5169D169D169D169D169D16A516A53659
:1017C000A536A557AD57AD77AD77AD77AD77AD778A
:1017D000AD57A556A536A536A536A536A537A537E6
:1017E000A537A557A557AD77AD77AD77A557A536E2
:1017F000A5369D169D169CF69CF69CF59CF59CF5D1
:101800009CF69CF59CF59CF59CF59CF59CF59D162D
:10181000A516A577AD97ADD8B5F9B619BE19BE3ADC
:10182000BE3AC65AC65ABE3ABE1ABE19BE19BE192B
:10183000BE1AC61ABE1ABE1ABE19B5F9B5D9B5D8A0
:10184000ADB8B5B8B5B8ADB8ADB8ADB8ADB8ADB860
:10185000ADB8B5B8B5B8B5B8B5B8B5B8B5B8B5B828
:10186000B5B8B5D8B5D8B5D8B5D8B5D8B5D8B5D830
:10187000B5D8B5D9B5B8B5B8ADB8ADB8ADB8ADB8DF
:10188000ADB8A597A597A577A577A577A577A577EF
:10189000A577A557A557A5379D369D169D169CF68D
:1018A0009CF69CF59CF59CF59CF59CF59D169D166B
:1018B0009D16A516A536A536A537A557A557A55734
:1018C000A557A537A537A5379D369D169CF69CF6DE
:1018D00094F594D594D58CB58CB48CB48CB48C948C
:1018E0008C948C93847384527C327C1173D06B9073
:1018F000636F6B4E630D5ACC528B4A4A420939C80A
:1019000031A739A642085AAA6B4D7BD08C5294B4A9
:101910009CF5A536A577AD98AD98A577A5779D568A
:101920009D169D169D169D16A536AD77B598B5B931
:10193000BDD9BDF9BDFABE1AC63AC63AC65BC65B8A
:10194000C65BC63ABE3ABE1ABE1ABDF9B5F9B5F9BC
:10195000B5F994B494B494B494B494B494B494B4E1
:1019600094B49494949494B494B494B594D594D534
:1019700094D59CD59CD59CD59CD59CD59CF59CF5A7
:101980009CF5A516A536A536A557AD57AD77AD770D
:10199000AD77AD77AD77AD97AD98B598B5B8B5B82B
:1019A000B5B8B5B8B5B8B5D8BDD9BDF9BDF9BDF9AB
:1019B000BDF9BDF9BDF9BDF9BDF9BDF9BDF9BDF977
:1019C000BDF9BDD9BDD9BDD9BDD9BDF9BDF9BE1AC5
:1019D000BE1AC63AC63AC65BCE7BCE7BCE7BCE5B0A
:1019E000C65BC63AC63ABE1ABE1ABE19BDF9BDD903
:1019F000B5D8B598AD98AD97AD77AD77AD77AD77F4
:101A0000AD77AD77AD77AD77AD57A557A557A5574E
:101A1000A557A557A557A537A536A536A536A516AA
:101A2000A516A536A536A536A516A516A516A5167E
:101A3000A5169D169D169D169D159D169D16A536DF
:101A4000A536A556A557A557AD57AD57AD57A557C0
:101A5000A557A536A536A536A536A536A537A5378B
:101A6000A557A557AD57AD77AD77AD77AD57A5570E
:101A7000A5369D169D169D169CF69CF69CF59CF62B
:101A80009CF69CF59CF59CF59CF59CF59D16A53661
:101A9000A557ADB8B5D8B619BE3ABE3ABE5AC65A61
:101AA000C67BC65AC65ABE3ABE1ABE19BE19BE1A5F
:101AB000BE1AC61AC61ABE1ABE19BDF9B5F9B5D8EE
:101AC000B5D8B5B8ADB8ADB8ADB8ADB8ADB8ADB8BE
:101AD000ADB8B5B8B5B8B5B8B5B8B5B8B5D8B5D866
:101AE000B5D9B5D9B5D9B5D9B5D9B5D9B5D8B5D888
:101AF000B5D8B5B8B5B8ADB8ADB8AD98AD98AD98E6
:101B0000AD98A597A577A577A577A577A577A577AC
:101B1000A557A557A557A5379D369D169D169D1609
:101B20009CF69CF59CF59CF59CF59CF59D169D16E8
:101B30009D16A516A536A536A536A537A557A557D2
:101B4000A557A537A537A5379D169D169CF694F584
:101B500094D594D594B58CB58CB48CB48CB48C9449
:101B60008C948C9384737C327C1173F16BB06B8F8B
:101B7000634F632E5B0D52CC4A8B424A3A0939C8F7
:101B800031A739C74A295ACB6B4E7BD08C5294B4BB
:101B90009CF5A557AD77ADB8AD98AD98A597A5576D
:101BA0009D369D169D169D36A537AD77B598B5B96E
:101BB000B5D9BDF9BDF9BE1ABE1AC63AC65BC65B39
:101BC000CE5BC65BC65BBE3ABE1ABE1ABDF9B5F99E
:101BD000B5F9949494B494B494B494B494B494B47F
:101BE00094B4949494B494B494B494B594D594D592
:101BF00094D59CD59CD59CD59CD594D59CD59CD56D
:101C00009CD59D16A516A536A556AD57AD77AD77D3
:101C1000AD77AD77AD97B598B5B8B5B8B5B8B5B837
:101C2000B5B8B5B8B5D8B5D9BDF9BDF9BDF9BDF9E7
:101C3000BDF9BDF9BDF9BDD9BDD9BDD9BDF9BDF954
:101C4000BDF9BDF9BDF9BDF9BDF9BE19BE1AC63A57
:101C5000C63AC63AC63AC65BCE5BCE7BCE5BC65BA7
:101C6000C63ABE1ABE1ABDF9BDF9BDF9BDD9B5D87F
:101C7000B5B8AD98AD97AD77AD77AD77AD77AD77BA
:101C8000AD77AD77AD77AD77AD57A557A557A557CC
:101C9000A557A557A557A537A536A536A536A51628
:101CA000A516A536A536A516A516A516A5169D1624
:101CB0009D169D169D169D159D159D159D16A51687
:101CC000A536A536A536A556A557A557A557A55699
:101CD000A556A536A536A536A536A537A557A557C9
:101CE000A557AD57AD77AD78AD98AD78AD77A55721
:101CF000A5379D169D169D169D169CF69CF69CF686
:101D00009CF69CF69CF59CF59CF59CF6A536AD776B
:101D1000AD98B5F9BE19BE3AC65BC67BC67BC67B1D
:101D2000C67BC65AC65ABE3ABE1ABE19BE19BE1ADC
:101D3000BE1AC63AC63AC63ABE1ABE19B5F9B5D8E1
:101D4000B5D8ADB8ADB8ADB8ADB8ADB8ADB8ADB843
:101D5000ADB8B5B8B5B8B5B8B5D8B5D9B5D9BDD998
:101D6000BDF9B5F9B5F9B5F9B5F9B5D9B5D9B5D85C
:101D7000B5D8B5B8ADB8ADB8AD98AD98AD98AD988B
:101D8000AD98A577A577A577A577A577A577A5576A
:101D9000A557A557A5579D379D369D169D169D168F
:101DA0009CF69CF59CF59CF59CF59D169D169D1644
:101DB0009D16A516A536A536A536A537A537A53790
:101DC000A537A5379D369D169D169D169CF694D574
:101DD00094D594D594B58CB58CB58CB58CB48C94C5
:101DE0008474847384527C1173F173B06B8F636F4E
:101DF000634E632E5B0D52CC4A8B424A3A0939E955
:101E000039E84229528A630C738F7BF18C7394D426
:101E10009D15A577AD98ADB8ADB8AD98AD98A5773F
:101E2000A557A5369D36A536A557AD77B598B5B853
:101E3000B5B9BDF9BDF9BDF9BE1AC63AC63BC65B18
:101E4000CE7BC67BC67BC65BBE3ABE1ABE1ABE1A26
:101E5000BDF99494949494B494B494B494B494B414
:101E600094B494B494B494B494B494B594D594D5EF
:101E700094D59CD59CD594D594D594D594D594D50A
:101E80009CD59D16A516A536A536A557AD77AD7779
:101E9000AD77AD77AD98B5B8B5D8B5D9B5D9B5D911
:101EA000B5D8B5D9B5D9BDF9BDF9BDF9BDF9BDF9FB
:101EB000BDF9BDF9BDF9BDD9BDD9BDF9BDF9BDF9B2
:101EC000BDF9BE19BE19BE1ABE1AC63AC63AC63AFE
:101ED000C65AC63AC65AC65BCE5BC65BC65AC63A37
:101EE000C63ABDF9BDF9B5D9B5D9B5D9B5D8B5B8E2
:101EF000B5B8AD97AD97AD77AD77AD77AD77AD7739
:101F0000AD77AD77AD77AD77AD57A557A557A55749
:101F1000A557A557A557A537A536A536A536A516A5
:101F2000A516A516A516A516A516A5169D169D16E9
:101F30009D169D169D159D159CF59D159D16A51626
:101F4000A536A536A536A536A556A557A556A53658
:101F5000A536A536A536A536A536A537A557A55766
:101F6000AD57AD77AD78AD98AD98AD98AD78AD572C
:101F7000A557A536A5169D169D169CF69CF69CF6B3
:101F80009CF69CF69CF69CF69CF69D16A557AD9883
:101F9000B5D9BE3AC65AC67BCE9BCE9CCE9CCE9CB3
:101FA000CE9CC65BC65ABE3ABE3ABE1ABE1ABE1A0E
:101FB000BE1AC63AC63AC63ABE3ABE1AB5F9B5F91D
:101FC000B5D8ADB8ADB8ADB8ADB8ADB8ADB8ADB8C1
:101FD000B5B8B5B8B5D8B5D9B5D9BDD9BDF9BDF97C
:101FE000BDF9BDF9BDF9BDF9BDF9B5F9B5D9B5D89A
:101FF000B5D8ADB8ADB8AD98AD98AD98A597A59743
:10200000A597A577A577A577A577A577A557A55710
:10201000A557A557A5379D379D369D169D169D162C
:102020009D169CF59CF59CF59D169D169D169D167E
:102030009D16A536A536A536A536A536A536A536F0
:10204000A5369D369D169D169D169CF694F594D545
:1020500094D594B594B58CB58CB58CB58C948C9482
:10206000847384527C327BF173D06BB06B8F634E80
:10207000632E5B2D5B0D52CC4AAB428B426A424AC7
:10208000424A52CB5B0C6B6E73D084328C939CF5BE
:10209000A516AD77AD98B5B8ADB8ADB8ADB8AD983B
:1020A000A557A557A536A536A537AD57AD78B59830
:1020B000B5B8B5D9B5D9BDF9BDFAC61AC63BCE5B20
:1020C000CE7BCE7BC67BC67BC65BBE3ABE1ABE1A33
:1020D000BDF99494949494B494B494B494B494B492
:1020E00094B494B494B494B494B594B594D594D56C
:1020F00094D59CD594D594D594D594D59CD59CF560
:102100009CF59D16A516A536A536A557AD77AD77D6
:10211000AD77AD98B598B5B8B5D9BDD9BDF9BDD92C
:10212000B5D9BDD9BDF9BDF9BDF9BE19BE19BE19E4
:10213000BE19BDF9BDF9BDF9BDF9BDF9BDF9BE19AD
:10214000BE1AC63AC63AC63AC63AC63AC65BC65B75
:10215000C65BC65BC65BCE5BCE5BC65BC63AC61AC9
:10216000BE19BDF9B5D9B5B8B5B8B5B8B5B8B5B833
:10217000AD98AD98AD97AD97AD77AD77AD77AD77BD
:10218000AD77AD77AD77AD77AD57A557A557A557C7
:10219000A557A557A557A537A536A536A536A51623
:1021A000A516A516A516A516A5169D169D169D166F
:1021B0009D169D159D159CF59CF59CF59D169D16EF
:1021C000A516A536A536A536A556A556A556A536F7
:1021D000A536A536A536A536A537A557A557AD57BB
:1021E000AD77AD78AD98B598B5B8B598AD98AD77F1
:1021F000AD57A536A5369D169D169D169CF69CF6E8
:102200009CF69CF69CF69D169D16A536AD77B5B945
:10221000BDF9C65AC67BCE9CD6BCD6BCCEBCCEBC05
:10222000CE9CC67BC65BC65ABE3ABE1ABE1AC61A3A
:10223000C63AC63AC63AC63AC63ABE3ABE19B5F921
:10224000B5D8B5B8B5B8ADB8ADB8ADB8B5B8B5B81E
:10225000B5B8B5D9B5D9BDD9BDF9BDF9BDF9BDF987
:10226000BE19BE1ABE19BE19BDF9B5F9B5D9B5D892
:10227000B5D8AD98AD98AD98AD98AD77A577A57761
:10228000A577A577A577A577A577A577A557A557AE
:10229000A557A537A5379D379D369D169D169D16CA
:1022A0009D169D169D169D169D169D169D169D1696
:1022B0009D36A536A536A536A536A536A536A5364E
:1022C000A5369D169D169D169CF69CF694D594D524
:1022D00094B594B58CB58CB58CB48CB48C948C744A
:1022E000847384327C117BF173D073AF6B8F634E38
:1022F000634E5B2E5B2E5B0D52ED52CC52CC52ECFA
:1023000052EC636E6BAF73F184528C9394D49D1531
:10231000A556AD98B5B8B5D9B5D9B5D9B5D9ADB873
:10232000A577A557A5369D36A536A537AD57AD7807
:10233000B598B5B8B5D9B5D9BDF9C61AC63BC65B0F
:10234000CE7BCE9CCE7BC67BC67BC65BBE3ABE1A1E
:10235000B5F99494949494B494B494B494B494B417
:1023600094B494B494B494B494B594D594D594D5C9
:1023700094D59CD594D594D594D59CD59CF59CF6B4
:102380009D16A536A536A536A536A557AD77AD77EA
:10239000AD77AD98B5B8B5B8B5D9BDF9BDF9BDF94A
:1023A000BDF9BDF9BDF9BE19BE1ABE1AC61ABE1ACC
:1023B000BE1ABE19BDF9BDF9BDF9BDF9BE19BE1AE7
:1023C000C61AC63AC65AC65BC65BC65BCE5BCE5B58
:1023D000CE7BCE5BCE7BCE7BCE5BC65AC63ABE19D9
:1023E000BDF9B5D9B5B8B5B8B598B5B8B5B8B5985B
:1023F000AD98AD98AD98AD98AD97AD77AD77AD7719
:10240000AD57AD77AD77AD77AD57A557A557A55764
:10241000A557A557A557A537A536A536A536A516A0
:10242000A516A516A516A5169D169D169D169D16F4
:102430009D169D159CF59CF59CF59CF59D159D168E
:10244000A516A536A536A536A556A557A556A53673
:10245000A536A536A536A536A537A557A557AD5738
:10246000AD77AD98AD98B5B8B5B8B5B8AD98AD770E
:10247000AD77A536A536A5169D169D169CF69CF63D
:102480009CF69CF69CF69D16A516A557AD98BDD951
:10249000BE1AC67BCE9BCEBCD6DCD6DCD6BCCEBCB0
:1024A000CEBCC67BC67BC65AC63ABE3AC61AC63A28
:1024B000C63AC63AC63AC65AC65ABE3ABE19B5F95F
:1024C000B5D9B5B8B5B8B5B8B5B8B5B8B5B8B5D863
:1024D000B5D8BDD9BDF9BDF9BDF9BDF9BDF9BE1974
:1024E000BE19BE3ABE1ABE1ABE19BDF9B5D9B5D8C5
:1024F000B5D8AD98AD98AD98AD77A577A577A57708
:10250000A577A577A577A577A577A557A557A5574B
:10251000A557A537A5379D379D369D169D169D1647
:102520009D169D169D169D169D169D169D169D36F3
:102530009D36A536A536A536A536A536A536A516EB
:10254000A5169D169D169D169CF694F594D594B5EA
:1025500094B594D594B58CB48CB48CB48C948474A8
:10256000847384327C117BF073D073AF6B8F6B6F8D
:10257000634E636F636F636F5B6E5B4E636E638FFF
:1025800063AF73F17C3184728CB394D49D15A556DE
:10259000AD77ADB8B5D9B5F9B5F9B5F9B5F9B5D9DE
:1025A000AD98A557A5369D169D16A516A537AD77EE
:1025B000AD78B598B5B8B5D9BDF9C61AC63BC65BF6
:1025C000CE7BCE7BCE9CCE7BC67BC65BBE3ABDF9B6
:1025D000B5F99494949494B494B494B494B494B495
:1025E00094B594B494B494B494B594D594D594D546
:1025F00094D59CD594D594D594D59CD59CF59D1611
:10260000A516A536A536A536A536A557AD77AD775F
:10261000AD77B598B5B8B5B8B5D9BDF9BDF9BDF9BF
:10262000BDF9BDF9BDF9BE1AC61AC63AC63AC63AD0
:10263000C63ABE1ABE19BE19BDF9BE19BE1AC63AAF
:10264000C63AC65BC65BCE5BCE7BCE7BCE7BCE7BFB
:10265000CE7BCE7BCE7BCE7BCE5BC63AC61ABDF997
:10266000BDD9B5D8B5B8B598AD98B598B598AD9869
:10267000AD98B598AD98AD98AD97AD77AD77AD778E
:10268000AD57AD77AD77AD77AD57A557A557A557E2
:10269000A557A557A557A537A536A536A536A5161E
:1026A000A516A516A516A5169D169D169D169D1672
:1026B0009D169D159CF59CF59CF59CF59D159D160C
:1026C0009D16A536A536A556A557A557A556A556B8
:1026D000A536A536A536A536A537A557A557AD57B6
:1026E000AD77AD98B598B5B8B5B8B5B8AD98AD7883
:1026F000AD77A536A536A5169D169D169CF69CF6BB
:102700009CF69CF59CF69D16A536A557B598BDF987
:10271000C63AC67BCE9BD6BCD6DCD6DCD6BCCEBCFD
:10272000CE9CC67BC67BC65AC63ABE3AC63AC63AA5
:10273000C63AC63AC65AC65AC65AC63ABE1AB5F9B3
:10274000B5D9B5B8B5B8B5B8B5B8B5B8B5D8B5D8C0
:10275000B5D8BDF9BDF9BDF9BDF9BDF9BE19BE19B0
:10276000BE1ABE3ABE3ABE1ABE19BDF9B5F9B5D801
:10277000B5D8AD98AD98AD98A577A577A577A5778D
:10278000A577A577A577A577A577A557A557A557C9
:10279000A557A5379D379D379D369D169D169D16CD
:1027A0009D169D169D169D169D169D169D169D3671
:1027B0009D36A536A536A536A536A536A536A51669
:1027C0009D169D169D169CF69CF694D594D594B5B1
:1027D00094B594D594B58CB48CB48C948C94847446
:1027E000847384327C117BF073D073AF6B8F6B6F0B
:1027F0006B6E63B06BB06BB06BAF6BAF6BD07410C4
:1028000074317C5284738CB494D494F59D36AD7736
:10281000AD97B5D9B5F9BDF9BE1ABE1ABE1AB5F94C
:10282000ADB8A557A5369D169CF59D16A536AD5796
:10283000AD77AD98B5B8B5D9BDF9C61AC63BC65B7C
:10284000CE5BCE7BCE9CCE9CCE7BC65BBE3ABDF92A
:10285000B5D98C94949494B494B494D494D494D4DA
:1028600094D494D594D594D494D494D494D494D525
:1028700094D59CD59CD59CD59CF59CF59D16A536EC
:10288000A536A536A536A556A557AD57AD77AD7774
:10289000AD77AD97B598B5D8B5D9B5D9B5D9BDF996
:1028A000BDF9BDF9BDF9BE19BE19C63AC63AC63A58
:1028B000C65AC63AC63AC63AC63AC63AC65AC65AB8
:1028C000C65ACE7BCE7BCE7BCE7BCE7BCE7BCE7BE9
:1028D000CE7BCE7BCE7BC65AC65AC63ABE19BDF950
:1028E000BDF9B598AD98AD97AD77AD77AD77AD98AB
:1028F000AD98AD97AD97AD77AD77AD77AD77AD7757
:10290000AD77AD77AD77AD77AD77AD77AD77AD77A7
:10291000AD77A557A557A557A557A537A536A53611
:10292000A536A516A516A5169D169D169D169D16CF
:102930009D169CF59CF59CF59CF59CF59CF59CF5ED
:102940009CF5A536A536A536A536A536A536A556D9
:10295000A556A557A557A557A557A557AD57AD7768
:10296000AD77AD98B598B5B8B5B8B5B8AD98AD7701
:10297000A557A536A536A5369D369D169D169D16DE
:102980009D369D16A516A536A556AD77B5B8BE19C8
:10299000C63ACE9BCE9BD6BCD6DCD6DCD6BCCE9B74
:1029A000CE9BC65BC65BC63AC63AC63AC63AC63A7C
:1029B000C63AC63AC63AC63AC63AC61ABDF9B5D8F4
:1029C000B5B8AD98ADB8ADB8B5B8B5B8B5D8B5D897
:1029D000B5D8B5D8B5D9BDF9BE19BE1ABE3ABE3AFA
:1029E000BE3ABE19BE19BE19BE19BE19BE19B5F937
:1029F000B5D8ADB8ADB8A597A597A597A597A57774
:102A0000A577A577A577A577A577A577A557A55726
:102A1000A5579D369D369D369D369D369D369D36F5
:102A20009D369D369D369D369D369D169D169D166E
:102A30009D16A536A536A536A536A516A516A51646
:102A4000A5169D169D169CF594F594F594D594D5F0
:102A500094D594B594B594B594948C948C748C73EB
:102A60008C5384307C107BF073CF7BD07BF07BF079
:102A70007BF073F17BF17C127C32845384738C7312
:102A80008C9494D59CD59CF6A536AD57AD98B5B829
:102A9000B5B9B5F9BDF9BE19BE3AC65ABE5ABE3A65
:102AA000B5F9AD97A5779D3694F594F59D15A536A6
:102AB000A557AD77AD98B5B8BDD9BDFAC61AC63B16
:102AC000CE5BCE7CCE7CCE5BC65BC61ABDFAB5B9FA
:102AD000B5B8949494B494B494B494B494D494D471
:102AE00094D594D594D594D494D494D494D494D5A2
:102AF00094D594D594D59CD59CF59D169D16A53658
:102B0000A536A536A536A556A557AD57AD57AD7711
:102B1000AD77AD97AD98B5B8B5D8B5D9B5D9BDD95C
:102B2000BDD9BDF9BDF9BE19BE19C63AC63AC65AD5
:102B3000C65AC65AC65AC65AC65AC65AC65AC65A95
:102B4000CE7BCE7BCE7BCE7BCE9BCE9BCE7BCE7BFD
:102B5000CE7BCE7BCE7BC65AC65AC63AC63ABDF9A4
:102B6000B5D8B598AD98AD97AD77AD77AD77AD9851
:102B7000AD98AD98AD97AD97AD77AD77AD77AD77B3
:102B8000AD77AD77AD77AD77AD77AD77AD77AD7725
:102B9000AD77A557A557A557A557A537A536A5368F
:102BA000A536A516A516A5169D169D169D169D164D
:102BB0009D169CF59CF59CF59CF59CF59CF59CF56B
:102BC0009CF5A536A536A536A536A536A536A55657
:102BD000A556A557A557A556A557A557AD77AD77C7
:102BE000AD77AD98B598B5B8B5B8B5B8AD97AD7780
:102BF000A557A536A536A536A5369D369D169D1634
:102C00009D36A516A536A536A556AD77B5B8BDF93E
:102C1000C63ACE9BCE9BD6BCD6BCD6BCD6BCCE9B31
:102C2000CE9BC65BC65BC65AC63AC63AC63AC63AD9
:102C3000C63AC63AC63AC63AC63ABE19BDF9B5B89A
:102C4000B5B8AD98AD98ADB8ADB8B5B8B5B8B5B87C
:102C5000B5D8B5D8B5D9B5F9BE19BE1ABE3ABE3A7F
:102C6000BE3ABE19BE19BE19BE1ABE1ABE19B5F9B2
:102C7000B5D8ADD8ADB8AD97A597A597A597A577C9
:102C8000A577A577A577A577A577A577A557A557A4
:102C9000A5579D369D369D369D369D369D369D3673
:102CA0009D369D369D369D369D369D369D369D368C
:102CB0009D16A536A536A536A536A516A516A516C4
:102CC0009D169D169D169CF594F594F594D594D576
:102CD00094D594B594B594B594948C948C738C736A
:102CE0008C7384307C107C107BF07C1084318432B7
:102CF00084328453845384738C948CB494D594D547
:102D000094D59D16A516A536AD57AD98B5B8B5B9ED
:102D1000B5D9BDF9BE19BE1AC65AC65BC65ABE3A67
:102D2000BE19ADB8A5979D569D1594F59D15A53670
:102D3000A556AD57AD78B598B5B9BDD9BDFAC61A87
:102D4000C63BC65BC65BC63BC61ABDFAB5D9B5B9AC
:102D5000B5B894B494B494B494B494B494D494D5CD
:102D600094D594D594D594D494D494D494D494D51F
:102D700094D594D594D59CF59CF69D16A536A5368C
:102D8000A536A556A556A556A557A557A557AD577F
:102D9000AD57AD77AD97AD98B5B8B5D8B5D9B5D96C
:102DA000B5D8BDF9BDF9BE19BE19C63AC65AC65A3C
:102DB000CE7BCE7BCE7BCE7BCE7BCE7BCE7BCE7BCB
:102DC000CE7BCE9BCE9BCE9BCE9BCE9BCE9BCE7BFB
:102DD000CE7BCE7BCE7BC65AC65AC65AC63ABDF902
:102DE000B5D8B598AD98AD97AD77AD77AD77AD98CF
:102DF000AD98AD98AD98AD97AD77AD77AD77AD7730
:102E0000AD77AD77AD77AD77AD77AD77AD77AD77A2
:102E1000AD77A557A557A557A557A537A536A5360C
:102E2000A536A516A516A5169D169D169D169D16CA
:102E30009D169CF59CF59CF59CF59CF59CF59CF5E8
:102E40009CF5A516A536A536A536A536A536A53614
:102E5000A536A556A556A556A556A557AD77AD7767
:102E6000AD97AD98B598B5B8B5B8B598AD97AD77FD
:102E7000A557A557A556A536A536A536A5369D3620
:102E80009D36A536A536A536A557AD77B5B8BDF99B
:102E9000C63ACE7BCE7BCE9BD6BCD6BCCE9BCE9B41
:102EA000CE7BCE5BC65BC65AC63AC63AC63AC61A8F
:102EB000C61AC61AC61ABE1ABE19BDF9B5D9B5B812
:102EC000B5B8AD98AD98AD98AD98AD98ADB8B5B86A
:102ED000B5B8B5D9B5D9B5F9BDF9BE19BE1ABE3A5E
:102EE000BE3ABE3ABE1ABE1ABE1ABE3ABE19B5F9ED
:102EF000B5F9B5D8ADD8AD97A597A597A597A577FE
:102F0000A577A577A577A577A577A557A557A55741
:102F1000A5579D369D369D369D369D369D369D36F0
:102F20009D369D369D369D369D369D369D369D3609
:102F30009D36A536A536A536A536A5169D169D1631
:102F40009D169D169D169CF594F594F594D594D5F3
:102F500094D594B594B594B494948C948C738C73E8
:102F60008C73843184308430843184518C9294B356
:102F700094D494D594D594F594F59D169D36A536A4
:102F8000A557AD77AD77AD98B598B5B8B5D9B5D9E2
:102F9000BDD9BDF9BE1ABE3AC65AC67BC67BC65A53
:102FA000BE5AB5F9ADB8A5779D169D159D159D36F0
:102FB000A556AD57AD57AD78B598B598B5B9BDF92B
:102FC000BDFAC61ABE1ABDFABDF9B5D9B5B9B5B8BC
:102FD000B59894B494B494B494B494B494D494D56B
:102FE0009CD594D594D594D494D494D494D494D595
:102FF00094D594D594D59CF59CF69D16A536A5360A
:10300000A537A557A557A556A556A556A557A55703
:10301000AD57AD77AD77AD77AD98B5B8B5B8B5B8B4
:10302000B5B8B5D8BDF9BE19C63AC65ACE7BCE7B67
:10303000CE7BCE9BCE7BCE7BCE7BCE9BCE9BCE9BC8
:10304000CE9BCE9BCE9BCE9BCE9BCE9BCE7BCE7B78
:10305000CE7BCE7BC65AC65AC65AC65AC63ABDF9A8
:10306000B5D8B598AD98AD97AD77AD77AD77AD974D
:10307000AD98AD98AD98AD97AD77AD77AD77AD77AD
:10308000AD77AD77AD77AD77AD77AD77AD77AD7720
:10309000AD77A557A557A557A557A537A536A5368A
:1030A000A536A516A516A5169D169D169D169D1648
:1030B0009D169CF59CF59CF59CF59CF59CF59CF566
:1030C0009CF5A516A516A536A536A536A536A536B2
:1030D000A536A536A536A536A556A557AD77AD7745
:1030E000AD97AD98AD98B598B598AD98AD77AD77EB
:1030F000AD57AD77A557A536A536A536A556A55625
:10310000A556A556A557A557AD57AD77B5B8BDF986
:10311000BE1AC65ACE7BCE7BCE9BCE9BCE9BCE7BA1
:10312000CE7BCE5BC65BC65BC63AC63AC61ABE1A33
:10313000BE1ABE1ABE19BDF9BDF9B5D9B5B8B5B834
:10314000B5B8AD98AD97AD97AD77AD97AD98ADB833
:10315000B5B8B5D8B5D9B5D9BDF9BE19BE1ABE3AFC
:10316000C63ABE3ABE3ABE3ABE3ABE3ABE3ABE1AB7
:10317000BE19B5F9B5D8ADB8A597A597A577A57728
:10318000A577A577A577A577A577A577A557A5579F
:10319000A5579D569D569D369D369D369D369D362E
:1031A0009D36A536A5369D369D369D369D369D3677
:1031B0009D36A536A5369D369D369D369D169D16A7
:1031C0009D169D169CF594F594F594D594D594D5BB
:1031D00094D594B494B48CB48CB48C948C938C7338
:1031E00084738451845184518C7294939CD49D1522
:1031F000A535A536A536A536A557A557AD77AD9803
:10320000AD98B5B9B5D9B5D9B5D9B5D9B5D9B5D9B7
:10321000BDD9BE19C61AC65AC67BCE7BCE9BCE9BE5
:10322000C67BBE19B5F9AD979D369D159D159D368A
:10323000A536A557A557AD77AD77AD78AD98B5B89C
:10324000B5D9BDD9B5D9B5D9B5B9B5B9B598AD98D0
:10325000AD9894B494B494B494B494B494D59CD5E7
:103260009CF594D594D594D494D494D494D494D5F2
:1032700094D59CD59CD59CF59CF59D16A516A53698
:10328000A557A557A557A556A556A556A557A55761
:10329000AD57AD77AD77AD77AD97B5B8B5B8B5B833
:1032A000B5B8B5D8BDF9BE19C63AC65ACE7BCE9BC5
:1032B000CE9BCE9BCE9BCE9BCE9BCE9BD6BCD6BC74
:1032C000D6BCD6BCD6BCD6BCCE9BCE9BCE7BCE7B52
:1032D000C65AC65AC65AC65AC65AC63ABE19BDF9C1
:1032E000B5D8B598AD98AD77AD77AD77AD77AD97EB
:1032F000AD98AD98AD98AD97AD77AD77AD77AD772B
:10330000AD77AD77AD77AD77AD77AD77AD77AD779D
:10331000AD77A557A557A557A557A537A536A53607
:10332000A536A516A516A5169D169D169D169D16C5
:103330009D169CF59CF59CF59CF59CF59CF59CF5E3
:103340009CF59D16A516A516A536A536A536A53657
:10335000A536A536A536A536A536A557AD57AD7702
:10336000AD77AD98AD98AD98AD98AD97AD77AD7799
:10337000AD77AD98AD77A556A536A556A557A577D7
:10338000A577AD57AD57AD77AD77AD77B5B8B5D9B2
:10339000BDF9C63AC65ACE7BCE7BCE7BCE7BCE7BEA
:1033A000C65AC65BC65BC65AC63AC63AC61ABE1AE3
:1033B000BE19BE19BDF9BDF9BDD9B5D9B5B8B5B8F5
:1033C000B5B8AD98AD97AD77AD77AD77AD97AD9812
:1033D000ADB8B5D8B5D8B5D9B5F9BE19BE3AC63A63
:1033E000C65AC65AC65AC65AC65AC65AC65ABE3A05
:1033F000BE3AB619B5D8ADB8AD97A597A597A5971C
:10340000A597A577A577A577A577A577A577A557DC
:10341000A557A557A5579D569D569D569D569D3619
:103420009D36A536A536A536A5369D369D369D36E4
:103430009D36A536A5369D369D369D169D169D1644
:103440009D169CF59CF594F594F594D594D594D55A
:1034500094D594B48CB48CB48CB48C948C938C73BD
:103460008C738C718C728C9294B39CD4A515A556D8
:10347000AD76AD98AD98AD98AD98ADB8B5B8B5D9B5
:10348000B5D9BDF9BDF9BDF9BDD9B5D9B5D9B5D94C
:10349000B5D9BE19C61AC65ACE7BCE9BCE9CCEBC21
:1034A000CEBCC65ABE3AADD8A5779D369D169D16A0
:1034B0009D36A557A557AD57AD57AD77AD77AD98AC
:1034C000B598B598B5B8B5B9B5B8B598AD98AD7863
:1034D000AD5794B494B494B494B494D494D59CD586
:1034E0009CF594D594D594D494D494D494D494D570
:1034F00094D59CF59CF59CF59CF59CF59D16A53600
:10350000A537A536A536A536A556A556A557A55760
:10351000AD57AD77AD77AD77AD97AD98B5B8B5B8D8
:10352000B5B8B5D8BDF9BE19C63ACE7BCE7BCE9B19
:10353000CE9BD6BCD6BCD6BCD6BCD6BCD6BCD6BC24
:10354000D6BCD6BCD6BCD6BCCE9BCE7BCE7BC65A18
:10355000C65AC65AC63AC63AC63AC63ABE19BDF99E
:10356000B5D8AD98AD98AD77AD77AD77AD77AD9770
:10357000AD98AD97AD97AD77AD77AD77AD77AD77CA
:10358000AD77AD77AD77AD77AD77AD77AD77AD771B
:10359000AD77A557A557A557A557A537A536A53685
:1035A000A536A516A516A5169D169D169D169D1643
:1035B0009D169CF59CF59CF59CF59CF59CF59CF561
:1035C0009CF59D169D16A516A516A536A536A536FD
:1035D000A536A536A536A536A536A556A557AD7789
:1035E000AD77AD77AD77AD77AD77AD77AD77AD77BB
:1035F000AD77ADB8AD98AD77A557A557A577AD77A1
:10360000AD97AD77AD77AD77AD77AD77B598B5D8E8
:10361000BDF9BE19C63AC65ACE7BCE7BC65AC65A2B
:10362000C65AC63AC63AC63AC63AC63ABE1ABE19CB
:10363000BDF9BDF9BDF9BDF9BDD9B5D9B5B8B5B8B4
:10364000B5B8ADB8AD98AD97AD77A577AD77AD7797
:10365000AD97B5B8B5B8B5D9BDF9BE1ABE3AC65A18
:10366000C65AC67BC67BC67BC67BC67BC67BC65A94
:10367000C65ABE19B5F9B5D8ADB8ADB8ADB8ADB884
:10368000AD97AD98AD98AD98AD98AD98A577A57765
:10369000A577A557A557A557A557A557A5579D5633
:1036A0009D56A536A536A536A536A5369D369D363A
:1036B0009D369D369D369D369D369D169D169D16D2
:1036C0009D1694F594F594F594F594D594D594D5E8
:1036D00094D58CB48CB48CB48CB48C938C938C9324
:1036E00084938C9294B294D39CF4A515A556AD976F
:1036F000B5B7B5D9B5D9BDD9BDF9BDF9BDF9BDF9D4
:10370000BDF9BDF9BDF9BDF9BDD9B5D9B5D9B5D9A1
:10371000B5D9BDF9C61AC65BCE7BCE9CCEBCCEBC9D
:10372000CEBCC69BC65AB5F9AD98A5579D369D36F9
:103730009D36A557A557A577A577A577AD77AD7722
:10374000AD98AD98AD98B598B598AD98AD78AD57A2
:10375000A55794B494B494B494D594D594D59CD5E9
:103760009CD594D594D594D494D494D494D494D50D
:1037700094D59CF59CF59CF59CF59CF69D16A5169C
:10378000A536A536A536A536A556A557A557A557DE
:10379000AD57AD77AD77AD97AD98AD98AD98B5B85D
:1037A000B5B8B5D8BDF9BE19C65ACE7BCE9BCE9B57
:1037B000CE9BD6BCD6BCD6BCD6BCD6BCD6BCD6DC82
:1037C000D6DCD6BCD6BCD6BCCE9BCE7BC65AC65A9F
:1037D000C63AC63AC63AC63ABE19BE19BDF9B5D8F8
:1037E000B5D8AD98AD98AD77AD77AD77AD77AD97EE
:1037F000AD98AD77AD77AD77AD77AD77AD77AD7788
:10380000AD57AD77AD77AD77AD77AD77AD77AD77B8
:10381000AD77A557A557A557A557A537A536A53602
:10382000A536A516A516A5169D169D169D169D16C0
:103830009D169CF59CF59CF59CF59CF59CF59CF5DE
:103840009CF59D169D169D16A516A536A536A53682
:10385000A536A536A536A536A536A536A556A5574F
:10386000AD57AD77AD77AD77AD77AD77AD97AD9817
:10387000AD98AD98AD98AD98AD97AD97AD77AD7764
:10388000AD97AD97AD97AD97AD77AD77AD98B5B82E
:10389000B5D9BE19BE19C63AC65AC65AC65AC63A8C
:1038A000C63AC63AC63AC63AC63AC61ABE1ABE1989
:1038B000BDF9BDF9BDF9BDF9BDF9BDD9B5D9B5B8E9
:1038C000B5B8ADB8AD98AD97AD77A577A577A57725
:1038D000AD77AD98B5B8B5D9BDF9BE3AC63AC65BB5
:1038E000C65BC67BC67BC67BCE9BCE9BCE9BC67B78
:1038F000C65ABE3ABE19B5F9B5F9B5D8B5D8ADD8DE
:10390000ADD8ADB8ADB8ADB8ADB8AD98AD98AD98CF
:10391000A597A557A557A557A557A557A557A55787
:10392000A557A536A536A536A5369D369D369D36B6
:103930009D369D369D369D369D369D169D169D164F
:103940009D1694F594F594F594F594D594D594D565
:1039500094D58CB48CB48CB48CB48C938C938C93A1
:103960008C9394B394D39D14A535AD56AD96B5B74D
:10397000B5D8BDF9BDF9BE1ABE1ABE1ABE1ABE1A16
:10398000BDFABDF9BDF9BDD9B5D9B5D9B5D9B5D946
:10399000B5B9BDD9BE19C65ACE7BCE9CCEBCD6BC5D
:1039A000D6BCCEBCC67BBE3AB5D8A577A5569D364B
:1039B0009D36A557A577AD77AD98AD98AD77AD9805
:1039C000AD98AD98AD98AD98AD98AD78AD77A55759
:1039D000A55794B494B494D494D594D59CD59CD53F
:1039E0009CD594D594D594D494D494D494D494D58B
:1039F00094D59CD59CF59CF59CF69D169D169D1620
:103A00009D16A536A536A536A557A557AD57AD5772
:103A1000A557AD77AD77AD98AD98AD98AD98B5B8E1
:103A2000B5B8B5D8BDF9BE19C65ACE7BCE9BCE9BD4
:103A3000CE9BD6BCD6BCD6BCD6BCD6BCD6BCD6DCFF
:103A4000D6DCD6BCD6BCD6BCCE9BCE7BC65AC63A3C
:103A5000C63AC63AC63ABE19BE19BE19BDF9B5D89E
:103A6000B5B8AD98AD98AD77AD77AD77AD77AD978B
:103A7000AD98AD77AD77AD77AD77AD77AD77AD5725
:103A8000AD57AD77AD77AD77AD77AD77AD77AD7736
:103A9000AD77A557A557A557A557A537A536A53680
:103AA000A536A516A516A5169D169D169D169D163E
:103AB0009D169CF59CF59CF59CF59CF59CF59CF55C
:103AC0009CF59D169D169D16A516A536A536A53600
:103AD000A536A536A536A536A536A536A536A557ED
:103AE000A557AD77AD77AD77AD77AD77AD97AD989D
:103AF000B598AD97ADB8B5B8B5B8AD98AD97AD7749
:103B0000AD97AD98AD98AD97AD97AD77AD98B5B889
:103B1000B5D9BE19BE19C63AC65AC65AC65AC63A09
:103B2000C63AC61AC63AC63AC63AC61ABE1ABE1926
:103B3000BDF9BDF9BDF9BDF9BDF9BDF9B5D9B5D826
:103B4000B5B8ADB8ADB8AD97AD77A577A577A57782
:103B5000A577AD98ADB8B5D9BE19BE3AC65AC65B01
:103B6000C67BC67BC67BCE9BCE9BCEBCCE9BC67B8C
:103B7000C65BBE5ABE3ABE19B619B619B5F9B5F943
:103B8000B5D8ADD8ADD8ADB8ADB8ADB8ADB8AD98C5
:103B9000AD98A557A557A557A557A557A557A557FC
:103BA000A557A536A536A5369D369D369D369D363C
:103BB0009D369D369D369D369D369D169D169D16CD
:103BC0009D1694F594F594F594F594D594D594D5E3
:103BD00094D58CB48CB48CB48CB48C938C938C931F
:103BE0008C9394D39CF4A535AD56AD76B5B7B5D8C6
:103BF000BDF8BDF9BDF9BE1ABE1ABE1ABE1ABDF98E
:103C0000BDF9BDD9BDD9B5D9B5D9B5D9B5D9B5D90C
:103C1000B5D9B5D8BDF9C65ACE7BD69CD6BCD6BCD4
:103C2000D6BCCEBCC69BBE3AB5D9AD97A5579D367E
:103C30009D36A557A577AD98AD98AD98AD98AD9840
:103C4000AD98B5B8B598AD98AD78AD78AD57A557E6
:103C5000A557949494B494B594D59CD59CD594D5FB
:103C600094D594D594D594D594D594D594D594D50C
:103C700094D59CF59CF59CF59CF59CF59CF59D15C3
:103C80009D169D16A536A536A556A557AD77AD77D9
:103C9000AD77AD97AD97AD97AD97AD97B5B8B5B8D2
:103CA000B5B8BDF9BDF9BE19C63ACE7BCE7BCE9B69
:103CB000CE9BCE9BCE9BCE9BCE9BCE9BD6BCD6BC6A
:103CC000D6BCD6BCD6BCCE9BCE7BC65AC63ABE1995
:103CD000BE19BDF9BDF9BDF9BDF9BDF9BDF9BDF913
:103CE000BDF9AD98AD98AD97AD77AD77AD77AD77C0
:103CF000AD77AD77AD77AD77AD77AD77AD77AD77A4
:103D0000AD77AD77AD77AD77AD77AD97AD97AD9733
:103D1000AD97AD97AD77A577A557A556A5369D3636
:103D20009D36A5169D169D169D169D169D159D15D5
:103D30009D159CF59CF59CF59CF59CF59CF59CF5DA
:103D40009CF59D169D169D169D169D169D169D16FD
:103D50009D16A516A536A536A536A536A536A556B3
:103D6000A557AD77AD57A557AD77AD77AD98AD9861
:103D7000AD97AD77AD98B598B5B8B5B8B5B8B5B895
:103D8000B5B8ADD8B5D8B5D8B5B8AD97AD97ADD7AE
:103D9000B5F8BDF9BE19BE3AC65AC65ABE5ABE5A81
:103DA000C65ABE19BE19BE19BE19BE19BE19BDF933
:103DB000BDF9BDF9BDF9BDF9BDF9BDF9BDD9B5D89C
:103DC000B5B8ADB8ADB8AD98AD97A577A577A577DF
:103DD000A577AD77AD98B5B8BDF9BE1AC63ACE5B3A
:103DE000CE7BCE7BCE7BCE9BCE9BCE9BCE9BCE7B0B
:103DF000CE7BC65AC65AC65ABE3ABE39BE19BE197D
:103E0000B5F9B5F9B5F9B5D9B5D8ADB8ADB8ADB85E
:103E1000ADB8A598A598A598A578A577A577A55735
:103E2000A5579D369D369D369D369D369D369D36D1
:103E30009D369D369D369D369D369D169D169D164A
:103E40009D1694F594F594F594F594F594D494D442
:103E500094D494D594B48CB48CB48CB48CB494D4E1
:103E600094D49D149D15A555A576AD97B5B7B5F815
:103E7000BE19C63AC63AC63AC63AC63ABE1ABDF9DD
:103E8000BDF9B5B8B5B8B5B8B5B8B5B8B5B8B5B881
:103E9000B5B8BDD9BDF9C63ACE5BCE9CD6BCD6BCB2
:103EA000D6DCCE9CCE9BC65ABE19ADB8A577A55719
:103EB000A556A577AD98AD98ADB8B5B9B5D9B5D972
:103EC000B5B9B5D9ADB8AD98AD98AD78A577A557CA
:103ED0009D3694B494B494B594D594D59CD59CD582
:103EE00094D594D594D594D594D594D594D594D58A
:103EF00094D59CF59CF59CF59CF59CF59CF59D1541
:103F00009D16A516A536A536A557AD57AD77AD7745
:103F1000AD77AD97AD97AD97AD97AD97B5B8B5B84F
:103F2000B5B8BDF9BDF9BE19C63AC65ACE7BCE9B0F
:103F3000CE9BCE9BCE9BCE9BCE9BCE9BCE9BCE9B39
:103F4000D6BCCE9BCE9BCE9BCE7BC65AC63ABE1964
:103F5000BDF9BDF9BDF9BDF9BDF9BDF9BDF9BDF9B1
:103F6000B5D8B598AD98AD97AD77AD77AD77AD775E
:103F7000AD77AD77AD77AD77AD77AD77AD77AD7721
:103F8000AD77AD77AD77AD77AD97AD98AD98AD988E
:103F9000AD98AD97AD97A577A557A556A536A5368B
:103FA0009D36A5169D169D169D169D169D159D1553
:103FB0009D159CF59CF59CF59CF59CF59CF59CF558
:103FC0009CF59D169D169D169D169D169D169D167B
:103FD0009D16A516A536A536A536A536A536A55631
:103FE000A556AD57A557A557AD57AD77AD77AD974A
:103FF000AD97AD97AD98AD98B5B8B5B8B5B8B5B8FB
:10400000B5B8B5F9B5D8AD98AD97ADB8B5D8B5D800
:10401000B5B8B5B8B5D8BE19BE39BE39BE39BE3986
:10402000C63ABE19BE19BE19BE19BE19BDF9BDF9F1
:10403000BDF9BDF9BDF9BDF9BDF9BDF9B5D9B5B841
:10404000B5B8ADB8ADB8AD98AD97A577A577A5775C
:10405000A577AD77AD97B5B8BDF9BE1AC63ACE5BB8
:10406000CE7BCE7BCE7BCE7BCE9BCE9BCE7BCE7BC8
:10407000CE7BC67BC67BC67BC65AC65ABE3ABE3A04
:10408000BE39BE19BE19B5F9B5F9B5D8ADB8ADB8D8
:10409000AD98A598A598A598A578A577A557A557F3
:1040A0009D579D369D369D369D369D369D369D3657
:1040B0009D369D369D369D369D369D169D169D16C8
:1040C000951594F594F594F594F594F594D494D4C9
:1040D00094D494D594B48CB48CB48CB494D494D437
:1040E00094D49D149D35A556AD97ADB7B5D8BDF9FF
:1040F000BE19C63AC63AC63AC63AC61ABE19BDF97C
:10410000B5D9B5B8B5B8B5B8B5B8B5B8B5B8B5B826
:10411000B5D8B5D9BDF9BE1AC65ACE7BCE9CD6BC91
:10412000D6BCCE9CC67BBE3AB5F9AD98A577A5772F
:10413000A577AD78AD98ADB8B5B9B5D9BDFABDFA2A
:10414000B5D9B5D9B5B9AD98AD98A578A557A53766
:104150009D3694B494B494B594D594D594D59CD507
:104160009CD594D594D594D594D594D594D594D5FF
:1041700094D59CF59CF59CD59CD59CF59CF59CF51F
:104180009D16A536A536A556A557AD77AD77AD9743
:10419000AD97B5B8B5B8B5B8B5B8B5B8B5B8B5B8E0
:1041A000B5B8BDF9BDF9BE19C63AC65ACE7BCE7BAD
:1041B000CE9BCE9BCE9BCE7BCE7BCE7BCE9BCE9B17
:1041C000CE9BCE9BCE9BCE7BC65AC63AC63ABE1974
:1041D000BDF9BDF9BDF9BDF9BDF9BDF9BDF9B5D858
:1041E000B5D8B5B8B598AD98AD97AD77AD77AD7793
:1041F000AD77AD57AD57AD57AD57AD57AD57AD577F
:10420000AD57AD77AD77AD77AD97AD98AD98AD982B
:10421000AD98AD98AD97AD77A577A556A536A536DF
:10422000A536A5169D169D169D169D169D159D15C8
:104230009D159CF59CF59CF59CF59CF59CF59CF5D5
:104240009CF59D169D169D169D169D169D169D16F8
:104250009D16A516A536A536A536A536A536A536CE
:10426000A536A557A557A557A557A557AD57AD775F
:10427000AD97AD98AD98AD98AD98B598B5B8B5D89F
:10428000B5D9B5D9B5D9ADD8ADD8ADB8B5B8BD9853
:10429000BD98B577BDB8BDF9BE39B639BE19BE19DE
:1042A000C639BE19BE19BE19BE19BDF9BDF9BDF991
:1042B000BDF9BDD9BDF9BDF9BDD9B5D9B5D8B5B828
:1042C000B5B8ADB8ADB8AD97AD97A577A577A577DB
:1042D000A577AD77AD97B5B8BDD9BE1AC65ACE7B16
:1042E000CE7BCE7BCE7BCE7BCE7BCE7BCE7BCE7B86
:1042F000CE7BCE9BCE9BCE9BC67BC67AC65AC65A79
:10430000C65ABE3ABE1ABE19BE19B5F9B5D8ADB86F
:10431000AD97A598A598A578A577A577A557A55792
:104320009D579D369D369D369D369D369D369D36D4
:104330009D369D369D369D369D169D169D1695156E
:10434000951594F594F594F594F594F594D494D446
:1043500094D494B494B48CB48CB494D494D494D4AD
:1043600094F49D159D35A556AD97B5D8BDF9BE19E8
:10437000BE19BE1AC63AC63AC63AC61ABDF9BDD962
:10438000B5D9B5B8B5B8B5B8B5B8B5B8B5B8B5D884
:10439000B5D9B5D8BDD9BDF9C63AC65BCE7BCE9BE3
:1043A000CE9CCE9BC67BBE1AB5D8AD97A577A57718
:1043B000AD97AD98ADB8B5B9B5D9BDFAC63BC63B5A
:1043C000BE3AB5F9B5D9ADB8AD98A577A5579D3624
:1043D0009D1694B594B594B594D594D594D59CD5A3
:1043E0009CD594D594D594D594D594D59CD59CD56D
:1043F0009CD59CF59CF59CD59CD59CF59CF59CF595
:104400009D15A536A536A557AD77AD77AD98AD9876
:10441000B598B5B8B5B8B5B8B5B8B5B8B5B8B5B854
:10442000B5B8BDF9BDF9BE19C63AC65AC65ACE7B53
:10443000CE7BCE7BCE7BCE7BCE7BCE7BCE7BCE7B34
:10444000CE7BCE7BCE7BCE7BC65AC63ABE19BE197A
:10445000BDF9BDF9BDF9BDF9BDF9BDF9BDF9B5D8D5
:10446000B5D8B5B8B5B8B598AD98AD77AD77AD77E7
:10447000AD77A557A557A557A557A557A557A55734
:10448000A557AD77AD77AD97AD98B598B598B5B858
:10449000B5B8AD98AD98AD97A577A557A556A536F3
:1044A000A536A5169D169D169D169D169D159D1546
:1044B0009D159CF59CF59CF59CF59CF59CF59CF553
:1044C0009CF59D169D169D169D169D169D169D1676
:1044D000A516A516A536A536A536A536A536A53644
:1044E000A536A536A556A556A536A536A536AD578B
:1044F000AD77AD98AD98AD97AD97AD98B5B8BDD93E
:10450000BDF9B5D9B5F9B619B5F9B5B8B578BD37AE
:10451000C517CD58CD78C5B9BDF9BE19BE39BE395C
:10452000BE19BE19BE19BE19BDF9BDF9BDF9BDF957
:10453000BDF9B5D9B5D9B5D9B5D8B5B8B5B8B5B847
:10454000B598AD98AD98AD97AD77AD77A577A577D0
:10455000A577AD77AD97B5B8BDD9BE1AC65ACE7B93
:10456000CE7BCE7BCE7BCE7BC65ACE7BCE7BCE7B2C
:10457000CE7BCE9BCE7BCE7BC67BC65AC65AC65A56
:10458000C65ABE3ABE3ABE3ABE19B5F9ADB8ADB8D4
:10459000AD97A598A598A578A577A557A5579D5738
:1045A0009D379D369D369D369D369D369D369D3672
:1045B0009D369D369D369D169D169D16951594F536
:1045C00094F594F594F594F594F594F594D494D4E5
:1045D00094D494B494B494B494D494D494D494F5DA
:1045E00094F59D159D35A556AD97B5F8BE19BE1924
:1045F000BE19BE1ABE1AC63AC63ABE1ABDF9B5D918
:10460000B5B8B5B8B5B8B5B8B5B8B5B8B5D8B5D901
:10461000B5D9B5B8B5D9BDF9BE1AC63AC65BCE7B19
:10462000CE7BC67BC65ABE19B5D8AD97A577A57700
:10463000AD97B598B5B9BDD9BDFAC63BCE7CCE7C99
:10464000C65BBE1ABDFAB5D9AD98A578A5579D37FA
:104650009D3694B494B594B594B594D594D594D529
:1046600094D594D594D594D594D59CD59CD59CF5CA
:104670009CF59CF59CD59CD59CD59CF59CF59CF512
:104680009D15A536A536A557AD77AD97B598B5B8A4
:10469000B5B8B5D8B5D8B5D8B5D8B5B8B5B8B5D812
:1046A000B5D8BDF9BDF9BE19C63AC63AC65AC65AFA
:1046B000C65ACE7BCE7BC65AC65AC65AC65AC65AA8
:1046C000CE7BC65AC65AC65AC63AC63ABE19BE1993
:1046D000BDF9BDF9BDF9BDF9BDF9BDF9BDF9BDF92A
:1046E000B5D8B5B8B5B8B5B8AD98AD97AD77AD7725
:1046F000AD77A557A557A557A557A557A557A557B2
:10470000A557AD77AD77AD97AD98B598B5B8B5B8B5
:10471000B5B8ADB8AD98AD97A577A557A556A53650
:10472000A536A5169D169D169D169D169D159D15C3
:104730009D159D159D159D159D159D159D159D15E9
:104740009D159D169D169D169D169D16A516A516C2
:10475000A516A516A516A536A536A536A536A536E1
:10476000A536A536A536A536A536A536A536A55750
:10477000AD77AD97AD77AD77AD77AD98B5B8BDF9FD
:10478000BE19BE1ABE19B5F9B5D9BDB9C558C4B759
:10479000BC55DC97D4B7CCF8C558BDD8BE19BE39C6
:1047A000B639BE19BE19BE19BDF9BDF9BDF9BDF9BD
:1047B000BDF9B5D9B5D9B5B8B5B8B5B8B598B59846
:1047C000B598AD98AD98AD97AD77AD77A577A5774E
:1047D000A577AD77AD97B5B8BDD9BE1AC63ACE5B51
:1047E000CE7BCE7BCE7BC65AC65AC65AC65ACE7B25
:1047F000CE7BCE7BCE7BCE7BC67BC67BC67BC65AB2
:10480000C65AC65AC65ABE3AB5F9B5D8ADB8ADB84B
:10481000AD98AD98AD98A578A577A557A5579D57A4
:104820009D379D369D369D369D169D169D169D166F
:104830009D369D369D369D169D169D16951594F5B3
:1048400094F594F594F594F594F594F594D494D462
:1048500094D494B494B494B494D494D494F494F537
:1048600094F59D159D35A556AD97B5F8BDF9BE19C2
:10487000BDF9BE1ABE1AC61ABE1ABE1ABDF9B5D9FE
:10488000B5B8B5B8B5B8B5B8B5B8B5D8B5D9BDD956
:10489000BDF9B5D8B5D9BDD9BDF9BE1AC63AC63A23
:1048A000C65BBE3ABE3ABE19B5D8AD97A577AD97EF
:1048B000AD97B598B5D9BE1AC63BCE7CCE9CCE9CE2
:1048C000CE7CC65BBE3AB5FAADB9AD78A557A53773
:1048D0009D3794B494B494B494B594B594D594D5C8
:1048E00094D594D494D594D594D59CD59CF59CF529
:1048F0009CF59CF59CD59CD59CD59CD59CF59CF5B0
:104900009D15A536A536A557AD77AD98B5B8B5B800
:10491000B5B8B5D8B5D8B5D8B5D8B5D8B5D8B5D84F
:10492000B5D8BDF9BE19BE19C63AC63AC65AC65A56
:10493000C65AC65AC65AC65AC65AC65AC65AC65A77
:10494000C65AC65AC65AC65AC63AC63ABE19BE1939
:10495000BDF9BDF9BDF9BDF9BDF9BDF9BDF9BDF9A7
:10496000BDF9B5D9B5D8B5B8B598AD97AD77AD7730
:10497000AD77A557A557A557A557A557A557A5572F
:10498000A557AD77AD77AD97AD98B598B5B8B5B833
:10499000B5B8ADB8ADB8AD97AD77A557A556A536A6
:1049A000A536A5169D169D169D169D169D159D1541
:1049B0009D159D159D159D159D159D159D159D1567
:1049C0009D159D169D169D169D16A516A516A51638
:1049D000A516A516A516A516A536A536A536A5367F
:1049E000A536A536A536A536A516A516A536A5362F
:1049F000A557AD77AD77AD77AD77AD98B5D8BDF9A3
:104A0000BE19BE3ABE19BDF9BDB9C558C4D7C43622
:104A1000C3F5D396CBB6CC16C477C518BD99BE19CD
:104A2000BE3ABE19BE19BE19BE19BDF9BDF9BDF910
:104A3000BDF9B5D9B5D8B5B8B5B8AD98AD98AD98FC
:104A4000AD98AD98AD97AD77AD77AD77AD77AD77E4
:104A5000AD77AD77AD98B5B8BDF9BE1AC63AC65BAD
:104A6000CE7BC65AC65AC65AC63AC63AC65AC65A5D
:104A7000C65ACE7BCE7BCE7BCE7BCE7BCE7BCE7B17
:104A8000CE7BC65BC65ABE3AB5F9B5D9B5D8ADB876
:104A9000ADB8AD98AD98A578A577A557A5579D5702
:104AA0009D579D369D369D169D169D169D169D16ED
:104AB0009D169D369D369D169D169D16951594F551
:104AC00094F594F594F594F594F594F594D494D4E0
:104AD00094D494D594B494B494D494D494F494F594
:104AE00094F59D159D36A576ADB7B5D8B5F9BDF948
:104AF000BDF9BE1ABE1ABE1ABE1ABDF9BDF9B5D9A6
:104B0000B5D8B5B8B5B8B5B8B5B8B5D9BDD9BDF98A
:104B1000BDF9BDD9BDD9BDF9BDF9BDF9BE1AC61AD9
:104B2000C63ABE3ABE19B5F9B5D8ADB8AD97AD978E
:104B3000AD97B598BDD9C61ACE5BCE7CD69CCE9C1F
:104B4000CE7CC67BC65BBE1AB5D9AD78A557A55736
:104B5000A55794B494B494B494B594B594B594B45E
:104B600094B494D494D594D594D59CD59CF59CF5C7
:104B70009CF59CD59CD594D594D59CD59CF59CF55D
:104B80009D15A536A536A557AD77AD98B5B8B5B87E
:104B9000B5D8BDF9B5D8B5D8B5D8B5D8B5D8BDF95B
:104BA000BDF9BDF9BE19BE19C63AC63AC63AC65ACB
:104BB000C65AC65AC65AC65AC65AC65AC65AC65AF5
:104BC000C65AC63AC63AC63AC63AC63ABE19BE1917
:104BD000BE19BE19BE19BE19BE19BE19BDF9BDF95F
:104BE000BDF9B5D9B5D9B5B8B598AD98AD77AD77AC
:104BF000AD77A557A557A557A557A557A557A557AD
:104C0000A557AD77AD77AD77AD98B598B5B8B5B8D0
:104C1000B5B8ADB8ADB8AD97AD77A557A556A53623
:104C20009D36A5169D169D169D169D169D159D15C6
:104C30009D159D169D169D169D169D169D169D16DD
:104C40009D169D169D169D169D16A516A516A516B4
:104C5000A516A516A516A516A516A536A536A5361C
:104C6000A536A536A536A516A516A536A536A536AC
:104C7000A536A557A557AD77AD77B598B5D8BDF989
:104C8000BDF9B619BE1AC5FAC599C4D8C456C3F63B
:104C9000CBD6CB76D396D3D7D417CC57C4F7C599F8
:104CA000C61ABE19BE19BE19BE19BE19BDF9BDF985
:104CB000BDF9B5D9B5B8B5B8B598AD98AD98AD98BA
:104CC000AD98AD97AD77AD77AD77AD77AD77AD7783
:104CD000AD77AD97AD98B5B8BDF9BE1AC63AC65B0B
:104CE000CE5BC65AC65AC65AC63AC63AC63AC63A3B
:104CF000C63AC65AC65AC65ACE7BCE7BCE7BCE7B30
:104D0000CE7BC65AC65ABE3ABE19B5F9B5D9B5D882
:104D1000B5D8ADB8AD98A598A577A557A5579D5717
:104D20009D579D369D169D169D169D169D169D168A
:104D30009D169D369D369D369D169D16951595158D
:104D400094F594F594F594F594F594F594D494D45D
:104D500094D494D594D594B494D494D494D494F510
:104D600094F59D35A556AD77ADB8B5D8B5F9BDF973
:104D7000BE19C61ABE1ABE1ABE19BDF9BDF9B5D9FB
:104D8000B5D9B5B8B5B8B5B8B5D8B5D9BDF9BDF9C7
:104D9000BDF9BDF9BDF9BDF9BDF9BDF9BDF9BE1A41
:104DA000BE1ABE1ABE19B5F9B5D8ADB8AD97AD9754
:104DB000AD97B598BDFAC63BCE5BCE7CCE7CCE7CA3
:104DC000CE7CC67BC65BBE1AB5B9A578A557A537FC
:104DD000A537949494B494B494B594B594B594B41C
:104DE00094B494D494D594D594D59CD59CF59CF545
:104DF0009CF59CD59CD594D594D59CD59CF59CF5DB
:104E00009CF5A536A536A557AD77AD98B5B8B5D8FC
:104E1000B5D9BDF9BDF9B5D8B5D8B5D8BDF9BDF985
:104E2000BDF9BE19BE19BE19C63AC63AC63AC65A27
:104E3000C65AC65AC65AC65AC65AC63AC63AC63AD2
:104E4000C65AC63AC63AC63AC63AC63ABE19BE1994
:104E5000BE19BE19BE19BE19BE19BE19BE19BDF9BB
:104E6000BDF9BDD9B5D9B5B8B5B8AD98AD77AD7701
:104E7000AD77AD57AD57AD57AD57AD57AD57AD57F2
:104E8000AD57AD77AD77AD77AD98B598B5B8B5B846
:104E9000B5B8ADB8ADB8AD97A577A557A556A536A9
:104EA0009D36A5169D169D169D169D169D159D1544
:104EB0009D159D169D169D169D169D169D169D165B
:104EC0009D169D169D169D16A516A516A516A5162A
:104ED000A516A516A516A516A516A516A516A516FA
:104EE000A516A536A5169D16A516A536A536A53672
:104EF000A536A536A556AD57AD97B5B8B5D9BDF908
:104F0000BDF9BE3ABE19C5B9C538CCB7CC37CBD67A
:104F1000CB96D3D8E419E439E418D3F7C457C5388D
:104F2000CDDABE19BE19BE19BE19BE19BE19BDF91A
:104F3000BDF9B5D9B5B8B5B8AD98AD98AD98AD983F
:104F4000AD98AD97AD77AD77AD77AD77AD77AD7700
:104F5000AD77AD97B598B5B8BDF9BE1AC63AC65B80
:104F6000C65BC65AC65AC63AC63AC63AC63ABE1909
:104F7000BE19C63AC63AC63AC63AC65AC65AC65AFA
:104F8000CE7BC65AC65AC65ABE3ABE19B5F9B5D96D
:104F9000B5D8ADB8AD98A598A577A557A557A5578D
:104FA0009D579D169D169D169D169D169D169D1628
:104FB0009D169D369D369D369D169D169D16951502
:104FC00094F594F594F594F594F594F594D494D4DB
:104FD00094D494D594D594B494D494D494D494F58E
:104FE00094F59D36A556AD97B5B8B5D8B5F9BDF9C8
:104FF000BE19C61AC61ABE1ABDF9BDF9BDD9B5D9B2
:10500000B5D9B5B8B5B8B5B8B5D9BDD9BDF9BDF93B
:10501000BE19BE1ABE19BDF9BDF9BDF9BDF9BE195B
:10502000BE1ABE1ABE19B5F9B5D8AD98AD97AD97F1
:10503000AD97B5B9BDFAC63BCE5BCE5BCE5BCE7C41
:10504000CE7CC67BC65BBE1AADB9A5779D379D37B2
:10505000A5379494949494B494B494B494B594B5BA
:1050600094B594D594D594D59CD59CD59CD59CF5D8
:105070009CF59CD59CF59CF59CF59CF59CF59CF5C8
:105080009CF59D16A536A556AD77AD98B5B8B5B8C3
:10509000B5B8B5D8B5D8BDF9BDF9BDF9BDF9BE19DA
:1050A000C63AC63AC63AC63AC63AC63AC63AC63A00
:1050B000C63AC63AC63AC65AC65AC65AC63AC63A90
:1050C000C63AC63AC63AC63AC63ABE19BE19BE195B
:1050D000BE19BE19BE19BE19BE19BE19BE19BDF939
:1050E000BDF9BDF9B5D8B5B8B5B8AD97AD97AD9721
:1050F000AD77A557A557AD57AD57AD77AD77ADB7E0
:10510000A5B7AD97AD77AD77AD97B598AD98AD989C
:10511000B5B8B598AD98AD77AD77A557A536A53696
:10512000A516A516A516A516A516A516A516A516A7
:10513000A5169D169D159D159CF59CF59D159D1517
:105140009D169D369D16A516A516A516A516A5167F
:10515000A516A4F5A4F6A516A516A5169D369D566A
:105160009D56A5569D169D16A5569D56A5779CF550
:10517000A516A516A536A577AD97ADB7B5D8B5D800
:10518000BDF8C5DBBD5AC4F9D4FAE4FAECFBE4FB84
:10519000E51BDCB9DC99DC79D438D417CC17CC37D3
:1051A000CC78CE3AC619C63ABE7AB639BE19BE19FF
:1051B000BDD9BDF9BDD9B5D8B5B8AD98AD98AD9844
:1051C000AD98AD77AD77AD77AD77AD77AD77AD779E
:1051D000AD77AD98B598B5B8B5D9BDF9C61AC63A88
:1051E000C63AC63AC63AC63ABE1ABE19BDF9BDF9A4
:1051F000BDF9BDF9BDF9BDF9BE19BE19C63AC65A09
:10520000C65AC65AC65AC65AC65AC63ABE19B5D89A
:10521000B5D8ADD8ADB8AD97A577A577A577A55684
:10522000A5569D369D369D169D169D169D169D165E
:105230009D169D169D169D169D169D169D169CF5F8
:105240009CF594F694F694F694F594F594D594D54B
:1052500094D594D594D594D594D594D594D594D506
:1052600094D59D36A536A577AD98B5D9B5F9BE1AB2
:10527000BE1ABE1ABE1ABE19BE19BDF9B5F9B5D906
:10528000B5D9AD98B5B8B5B8BDD9BDF9BDF9BE1A97
:10529000BE1ABE19BDF9BDF9BDF9BDF9BDF9BDF91B
:1052A000BE19BE19BDF9B5D9B5B8ADB8ADB8ADB870
:1052B000ADB8ADB8B5D9BDF9BE3AC65BC65BC67B65
:1052C000C67BBE3ABDF9ADB8A577A5369D36A536E5
:1052D000A536949494B494B494B494B594B594B518
:1052E00094B594D594D594D594D59CD59CD59CD57E
:1052F0009CD59CD59CD59CD59CD59CD59CD59CF506
:105300009CF59D16A516A536AD57AD77AD98B5B8E9
:10531000B5B8B5D8B5D8BDF9BDF9BDF9BE19BE1936
:10532000C63AC63AC63AC63AC65AC65AC63AC63A3D
:10533000C63AC63AC63AC63AC63AC63AC63AC63A6D
:10534000BE19C63ABE19BE19BE19BE19BE19BE197C
:10535000BE19BE19BE19BE19BE19BE19BE19BDF9B6
:10536000BDF9BDF9B5D8B5D8B5B8B5B8B5B8AD972C
:10537000AD97A597A598AD98AD77B598AD97A5973A
:105380009D56AD77A577A577AD97ADB8AD98ADB87B
:10539000B5D9B598AD98AD77AD77A557A536A536F3
:1053A000A516A536A516A516A516A516A516A51605
:1053B000A5169D169D159D159CF59CF59D159D1595
:1053C0009D169D169D16A516A516A516A516A5161D
:1053D0009D169CF59CF59D15A516A5169D369D154B
:1053E0009515A5369CF59D36A55694F59D369D16CA
:1053F000A556A557A556A556A576AD97B5B8BDD85F
:10540000BDF9C55AC539CCF9DCFAED1BED1BE4DA60
:10541000DCB9D499D478D458D438D417CC17C4175D
:10542000C417C598C5F9C63ABE3ABE39BE3ABE19C8
:10543000BDF9BDF9BDF9B5D9B5B8B598AD98AD9878
:10544000AD98AD77AD77AD77AD77AD77AD77AD771B
:10545000AD77AD98B598B5B8B5D9BDF9BE1AC63A0D
:10546000C63AC63AC63ABE1ABDF9BDF9BDD9B5D9D4
:10547000B5D9B5D8B5D8BDF9BDF9BE19C63AC63A41
:10548000C65AC65AC65AC65AC65AC63ABE19BDF9EF
:10549000B5D8ADD8ADB8AD97A597A597A577A556C2
:1054A0009D569D369D369D169D169D169D169D16E4
:1054B0009D169D169D169D169D169D169D169CF576
:1054C0009CF59CF694F694F694F594F594F594D5A1
:1054D00094D594D594D594D594D594D594D594D584
:1054E00094F59D36A536A577AD98B5D9B5F9BE1A10
:1054F000BE1ABE1ABE19BE19BDF9B5F9B5D9B5D8CF
:10550000B5D8B598B5B8B5D8BDD9BDF9BDF9BE19EE
:10551000BE1ABE19BDF9BDF9BDF9BDF9BDF9BDF998
:10552000BDF9BE19BDF9B5D9B5D8B5B8ADB8ADB8E6
:10553000ADB8AD98ADB8B5D9BDF9BE3AC65BC65BDE
:10554000C65BB5F9B5B8AD77A5579D369D36A5367E
:10555000A55794B494B494B494B594B594D594D513
:1055600094D594D594D594D594D594D594D594D5F3
:105570009CD594D594D594D59CD59CD59CD59CD5BB
:105580009CD59D169D16A536A556AD57AD77AD9801
:10559000B5B8B5B8B5D8BDF9BDF9BDF9BE19BE19D4
:1055A000C63AC65AC65AC65AC65AC65AC63AC63A5B
:1055B000C63AC63AC63AC63AC63ABE19BE19BE1966
:1055C000BE19BE19BE19BE19BE19BE19BE19BE1923
:1055D000BE19BE19BE19BE19BE19BE19BDF9BDF955
:1055E000BDF9BDF9B5D8B5D8B5D8B5D8B5D8B5B821
:1055F000B5B89DF8A5D8AD57ACF6AD16AD57AD779B
:10560000A597A577A577A577A597ADB8ADB8ADB89F
:10561000B5D9B598AD98AD97AD77A557A536A53650
:10562000A536A536A536A536A516A516A516A51622
:10563000A5169D159D159D159CF59CF59D159D1513
:105640009D15A516A516A516A5169D369D369D3643
:105650009D369D369D369D369D369D159D159D1614
:10566000A536A5169D169D369D369D15A5369D36EB
:10567000A577A557A5569D56A556AD77B5B8BDB823
:10568000BDB8C4B8CCF9DD1ADCDADC99DC99DC7978
:10569000D478D499D458D438D438D438CC37C41723
:1056A000BBF6B4D6CDD9CE3ABE1ABE3ABE5ABE1952
:1056B000BDF9BDF9BDF9B5D9B5B8B5B8B5B8B598A6
:1056C000B598AD98AD97AD77AD77AD77AD77AD7750
:1056D000AD77AD98B598B5B8B5D9BDF9BE1AC61AAB
:1056E000C63AC61ABE1ABDF9BDF9B5D8B5B8B5B82F
:1056F000B598B5B8B5B8B5B8B5D8BDF9BE19C63AFC
:10570000C63AC65AC65AC65AC65AC63ABE19BDF98C
:10571000BDF9ADB8ADB8ADB8AD97A597A577A5560D
:105720009D369D369D369D369D169D169D169D1661
:105730009D169D169D169D169D169D169D169D16D1
:105740009D169CF69CF694F694F694F594F594F5D3
:1057500094F594D594D594D594D594D594D594F5C1
:1057600094F59D16A536A577AD98B5D9B5F9BE1AAD
:10577000BE1ABE19BE19BE19BDF9B5F9B5D9B5D84D
:10578000B5B8B5B8B5B8B5D8BDD9BDF9BDF9BE196C
:10579000BE1ABE19BDF9BDF9BDF9BDF9BDF9BDF916
:1057A000BDF9BDF9BDF9BDD9B5D9B5D8B5D8ADB834
:1057B000ADB8AD98AD98AD98B5B8B5F9BE1ABE1AEA
:1057C000BE1AAD77A577A5579D369D169D16A536B1
:1057D000A55794B494B494B494B594D594D594D571
:1057E00094D594D594D594D594D594D594D594D571
:1057F00094D594D594D594D594D59CD59CD59CD549
:105800009CD59D159D169D16A536A556AD77AD97D1
:10581000AD98B5B8B5D8B5D8BDF9BDF9BE19BE19A2
:10582000C63AC65AC65AC65AC65AC65AC63AC63AD8
:10583000C63AC63AC63AC63ABE19BE19BE19BDF92D
:10584000BDF9BDF9BDF9BDF9BE19BE19BE19BE1924
:10585000BE19BE19BE19BE19BDF9BDF9BDF9BDF914
:10586000BDF9BDF9BDF9BDF9BDF9BDF9BDF9BDF988
:10587000B5D8A5F8ADD8B537AC54AC14AC95B517C0
:10588000B578A577A577AD77AD98ADB8ADB8ADB81B
:10589000ADB8B598AD98AD97AD77A557A536A536F7
:1058A000A536A536A536A536A536A516A516A51680
:1058B0009D169D159D159CF59CF59CF59CF59D15DB
:1058C0009D15A4F6A5169D169D369D369D369D36D2
:1058D0009D3694F594F5951595159D369D36A5162E
:1058E000A516A516A5579D369D36AD57AD379D36E5
:1058F0009D769D569D56A556A577AD77B578BD5832
:10590000BD58CC78D4B9DCB9DC78D417D417D458C6
:10591000D479D499D479D478D478D478CC58C4377D
:10592000C417B475C559CDFBC63AC63AC65ABE1996
:10593000BE19BDF9BDF9BDD9B5D9B5B8B5B8B5B8B9
:10594000B5B8AD98AD98AD97AD77AD77AD77AD778C
:10595000AD77AD97AD98B5B8B5D9BDF9BE19BE1A3A
:10596000BE1ABE1ABDF9BDF9B5D9B5B8AD98AD9797
:10597000AD77AD77AD97AD97B5B8B5D8BDF9BE19D0
:10598000C63AC65AC65AC65AC63ABE19BE19BDF953
:10599000BDF9ADD8ADB8ADB8AD97A597A577A5566B
:1059A0009D369D369D369D369D169D169D169D16DF
:1059B0009D169D169D169D169D169D169D169D164F
:1059C0009D169CF69CF69CF694F694F694F694F547
:1059D00094F594F594F594F594F594F594F594D59F
:1059E00094D59D169D36A557AD98B5B8B5F9BDF9B6
:1059F000BE1ABE19BE19BDF9BDF9B5D9B5D8B5B82D
:105A0000B5B8B5B8B5B8B5D9BDD9BDF9BDF9BE19E8
:105A1000BE1ABE19BDF9BDF9BDF9BDF9BDF9BDF993
:105A2000BDF9BDF9BDF9BDF9B5F9B5D9B5D8B5D848
:105A3000B5D8B5B8AD98AD98AD98ADB8ADB8ADB86E
:105A4000AD98A5369D369D169D169D169D16A536BC
:105A5000A53694B494B494B594D594D594D594D5EE
:105A600094D594D594D594D594D594D594D594D5EE
:105A700094D594D594D594D594D59CD59CD59CF5A6
:105A80009CF59CF59D159D16A516A536A557AD77D9
:105A9000AD77B5B8B5B8B5D8BDF9BDF9BDF9BE1982
:105AA000C63AC65AC65AC65AC65AC65AC63AC63A56
:105AB000C63AC63AC63ABE19BE19BE19BDF9BDF9F5
:105AC000BDF9BDF9BDF9BDF9BDF9BDF9BDF9BE1905
:105AD000BE19BDF9BDF9BDF9BDF9BDF9BDF9BDF9F5
